8=FIX.4.4|9=71|35=A|34=1|49=COEPEXCH|52=20200612-18:39:02.729|56=EXECLINKS|98=0|108=1|10=199|8=FIX.4.4|9=71|35=A|34=2|49=COEPEXCH|52=20200612-18:40:06.246|56=EXECLINKS|98=0|108=1|10=190|8=FIX.4.4|9=71|35=A|34=3|49=COEPEXCH|52=20200612-18:45:22.016|56=EXECLINKS|98=0|108=1|10=189|8=FIX.4.4|9=60|35=0|34=4|49=COEPEXCH|52=20200612-18:45:23.006|56=EXECLINKS|10=196|8=FIX.4.4|9=60|35=0|34=5|49=COEPEXCH|52=20200612-18:45:24.876|56=EXECLINKS|10=213|8=FIX.4.4|9=60|35=0|34=6|49=COEPEXCH|52=20200612-18:45:25.810|56=EXECLINKS|10=203|8=FIX.4.4|9=60|35=0|34=7|49=COEPEXCH|52=20200612-18:45:26.744|56=EXECLINKS|10=211|8=FIX.4.4|9=60|35=0|34=8|49=COEPEXCH|52=20200612-18:45:27.676|56=EXECLINKS|10=217|8=FIX.4.4|9=60|35=0|34=9|49=COEPEXCH|52=20200612-18:45:28.608|56=EXECLINKS|10=214|8=FIX.4.4|9=61|35=0|34=10|49=COEPEXCH|52=20200612-18:45:29.540|56=EXECLINKS|10=251|8=FIX.4.4|9=61|35=0|34=11|49=COEPEXCH|52=20200612-18:45:30.470|56=EXECLINKS|10=246|8=FIX.4.4|9=61|35=0|34=12|49=COEPEXCH|52=20200612-18:45:31.400|56=EXECLINKS|10=241|8=FIX.4.4|9=61|35=0|34=13|49=COEPEXCH|52=20200612-18:45:32.328|56=EXECLINKS|10=252|8=FIX.4.4|9=61|35=0|34=14|49=COEPEXCH|52=20200612-18:45:33.257|56=EXECLINKS|10=255|8=FIX.4.4|9=61|35=0|34=15|49=COEPEXCH|52=20200612-18:45:34.184|56=EXECLINKS|10=000|8=FIX.4.4|9=61|35=0|34=16|49=COEPEXCH|52=20200612-18:45:35.110|56=EXECLINKS|10=247|8=FIX.4.4|9=61|35=0|34=17|49=COEPEXCH|52=20200612-18:45:36.036|56=EXECLINKS|10=000|8=FIX.4.4|9=61|35=0|34=18|49=COEPEXCH|52=20200612-18:45:37.017|56=EXECLINKS|10=001|8=FIX.4.4|9=61|35=0|34=19|49=COEPEXCH|52=20200612-18:45:38.864|56=EXECLINKS|10=013|8=FIX.4.4|9=61|35=0|34=20|49=COEPEXCH|52=20200612-18:45:39.787|56=EXECLINKS|10=010|8=FIX.4.4|9=72|35=A|34=21|49=COEPEXCH|52=20200612-18:52:50.668|56=EXECLINKS|98=0|108=1|10=250|8=FIX.4.4|9=72|35=A|34=22|49=COEPEXCH|52=20200612-18:53:32.530|56=EXECLINKS|98=0|108=1|10=240|8=FIX.4.4|9=72|35=A|34=23|49=COEPEXCH|52=20200612-18:54:00.300|56=EXECLINKS|98=0|108=1|10=232|8=FIX.4.4|9=72|35=A|34=24|49=COEPEXCH|52=20200612-18:54:19.497|56=EXECLINKS|98=0|108=1|10=004|8=FIX.4.4|9=61|35=0|34=25|49=COEPEXCH|52=20200612-18:54:20.495|56=EXECLINKS|10=001|8=FIX.4.4|9=61|35=5|34=26|49=COEPEXCH|52=20200612-18:54:20.496|56=EXECLINKS|10=008|8=FIX.4.4|9=72|35=A|34=27|49=COEPEXCH|52=20200612-18:55:41.505|56=EXECLINKS|98=0|108=1|10=249|8=FIX.4.4|9=61|35=0|34=28|49=COEPEXCH|52=20200612-18:55:42.505|56=EXECLINKS|10=001|8=FIX.4.4|9=61|35=5|34=29|49=COEPEXCH|52=20200612-18:55:42.506|56=EXECLINKS|10=008|8=FIX.4.4|9=72|35=A|34=30|49=COEPEXCH|52=20200612-18:56:11.280|56=EXECLINKS|98=0|108=1|10=241|8=FIX.4.4|9=72|35=A|34=31|49=COEPEXCH|52=20200612-18:56:35.695|56=EXECLINKS|98=0|108=1|10=002|8=FIX.4.4|9=77|35=8|34=32|49=COEPEXCH|52=20200612-18:56:35.760|56=EXECLINKS|37=1|39=0|150=0|10=200|8=FIX.4.4|9=72|35=A|34=33|49=COEPEXCH|52=20200612-18:57:27.150|56=EXECLINKS|98=0|108=1|10=248|8=FIX.4.4|9=77|35=8|34=34|49=COEPEXCH|52=20200612-18:57:27.224|56=EXECLINKS|37=1|39=0|150=0|10=199|8=FIX.4.4|9=61|35=0|34=35|49=COEPEXCH|52=20200612-18:57:28.150|56=EXECLINKS|10=001|8=FIX.4.4|9=61|35=0|34=36|49=COEPEXCH|52=20200612-18:57:29.074|56=EXECLINKS|10=008|8=FIX.4.4|9=61|35=0|34=37|49=COEPEXCH|52=20200612-18:57:30.072|56=EXECLINKS|10=255|8=FIX.4.4|9=61|35=0|34=38|49=COEPEXCH|52=20200612-18:57:31.070|56=EXECLINKS|10=255|8=FIX.4.4|9=61|35=0|34=39|49=COEPEXCH|52=20200612-18:57:32.068|56=EXECLINKS|10=008|8=FIX.4.4|9=61|35=0|34=40|49=COEPEXCH|52=20200612-18:57:33.064|56=EXECLINKS|10=253|8=FIX.4.4|9=61|35=0|34=41|49=COEPEXCH|52=20200612-18:57:34.060|56=EXECLINKS|10=251|8=FIX.4.4|9=61|35=0|34=42|49=COEPEXCH|52=20200612-18:57:35.055|56=EXECLINKS|10=001|8=FIX.4.4|9=61|35=0|34=43|49=COEPEXCH|52=20200612-18:57:36.049|56=EXECLINKS|10=006|8=FIX.4.4|9=61|35=0|34=44|49=COEPEXCH|52=20200612-18:57:37.042|56=EXECLINKS|10=001|8=FIX.4.4|9=61|35=0|34=45|49=COEPEXCH|52=20200612-18:57:38.035|56=EXECLINKS|10=005|8=FIX.4.4|9=61|35=0|34=46|49=COEPEXCH|52=20200612-18:57:39.026|56=EXECLINKS|10=007|8=FIX.4.4|9=61|35=0|34=47|49=COEPEXCH|52=20200612-18:57:40.017|56=EXECLINKS|10=000|8=FIX.4.4|9=61|35=0|34=48|49=COEPEXCH|52=20200612-18:57:41.007|56=EXECLINKS|10=001|8=FIX.4.4|9=61|35=0|34=49|49=COEPEXCH|52=20200612-18:57:42.836|56=EXECLINKS|10=013|8=FIX.4.4|9=61|35=0|34=50|49=COEPEXCH|52=20200612-18:57:43.750|56=EXECLINKS|10=001|8=FIX.4.4|9=61|35=0|34=51|49=COEPEXCH|52=20200612-18:57:44.663|56=EXECLINKS|10=006|8=FIX.4.4|9=61|35=0|34=52|49=COEPEXCH|52=20200612-18:57:45.576|56=EXECLINKS|10=011|8=FIX.4.4|9=61|35=0|34=53|49=COEPEXCH|52=20200612-18:57:46.488|56=EXECLINKS|10=015|8=FIX.4.4|9=61|35=0|34=54|49=COEPEXCH|52=20200612-18:57:47.398|56=EXECLINKS|10=017|8=FIX.4.4|9=61|35=0|34=55|49=COEPEXCH|52=20200612-18:57:48.308|56=EXECLINKS|10=010|8=FIX.4.4|9=61|35=0|34=56|49=COEPEXCH|52=20200612-18:57:49.217|56=EXECLINKS|10=011|8=FIX.4.4|9=61|35=0|34=57|49=COEPEXCH|52=20200612-18:57:50.124|56=EXECLINKS|10=001|8=FIX.4.4|9=61|35=0|34=58|49=COEPEXCH|52=20200612-18:57:51.031|56=EXECLINKS|10=000|8=FIX.4.4|9=61|35=0|34=59|49=COEPEXCH|52=20200612-18:57:52.013|56=EXECLINKS|10=002|8=FIX.4.4|9=61|35=0|34=60|49=COEPEXCH|52=20200612-18:57:53.824|56=EXECLINKS|10=005|8=FIX.4.4|9=61|35=0|34=61|49=COEPEXCH|52=20200612-18:57:54.730|56=EXECLINKS|10=003|8=FIX.4.4|9=61|35=0|34=62|49=COEPEXCH|52=20200612-18:57:55.634|56=EXECLINKS|10=008|8=FIX.4.4|9=61|35=0|34=63|49=COEPEXCH|52=20200612-18:57:56.538|56=EXECLINKS|10=013|8=FIX.4.4|9=61|35=0|34=64|49=COEPEXCH|52=20200612-18:57:57.441|56=EXECLINKS|10=008|8=FIX.4.4|9=61|35=0|34=65|49=COEPEXCH|52=20200612-18:57:58.344|56=EXECLINKS|10=012|8=FIX.4.4|9=61|35=0|34=66|49=COEPEXCH|52=20200612-18:57:59.245|56=EXECLINKS|10=014|8=FIX.4.4|9=61|35=0|34=67|49=COEPEXCH|52=20200612-18:58:00.146|56=EXECLINKS|10=002|8=FIX.4.4|9=61|35=0|34=68|49=COEPEXCH|52=20200612-18:58:01.045|56=EXECLINKS|10=002|8=FIX.4.4|9=61|35=0|34=69|49=COEPEXCH|52=20200612-18:58:02.021|56=EXECLINKS|10=254|8=FIX.4.4|9=61|35=0|34=70|49=COEPEXCH|52=20200612-18:58:03.818|56=EXECLINKS|10=005|8=FIX.4.4|9=61|35=0|34=71|49=COEPEXCH|52=20200612-18:58:04.715|56=EXECLINKS|10=003|8=FIX.4.4|9=61|35=0|34=72|49=COEPEXCH|52=20200612-18:58:05.612|56=EXECLINKS|10=001|8=FIX.4.4|9=61|35=0|34=73|49=COEPEXCH|52=20200612-18:58:06.508|56=EXECLINKS|10=007|8=FIX.4.4|9=61|35=0|34=74|49=COEPEXCH|52=20200612-18:58:07.404|56=EXECLINKS|10=004|8=FIX.4.4|9=61|35=0|34=75|49=COEPEXCH|52=20200612-18:58:08.298|56=EXECLINKS|10=017|8=FIX.4.4|9=61|35=0|34=76|49=COEPEXCH|52=20200612-18:58:09.192|56=EXECLINKS|10=012|8=FIX.4.4|9=61|35=0|34=77|49=COEPEXCH|52=20200612-18:58:10.084|56=EXECLINKS|10=005|8=FIX.4.4|9=61|35=0|34=78|49=COEPEXCH|52=20200612-18:58:11.054|56=EXECLINKS|10=004|8=FIX.4.4|9=61|35=0|34=79|49=COEPEXCH|52=20200612-18:58:12.024|56=EXECLINKS|10=003|8=FIX.4.4|9=61|35=0|34=80|49=COEPEXCH|52=20200612-18:58:13.804|56=EXECLINKS|10=002|8=FIX.4.4|9=72|35=A|34=81|49=COEPEXCH|52=20200612-19:05:24.644|56=EXECLINKS|98=0|108=1|10=250|8=FIX.4.4|9=77|35=8|34=82|49=COEPEXCH|52=20200612-19:05:24.715|56=EXECLINKS|37=3|39=0|150=0|10=200|8=FIX.4.4|9=61|35=0|34=83|49=COEPEXCH|52=20200612-19:05:25.644|56=EXECLINKS|10=003|8=FIX.4.4|9=61|35=0|34=84|49=COEPEXCH|52=20200612-19:05:26.572|56=EXECLINKS|10=005|8=FIX.4.4|9=61|35=0|34=85|49=COEPEXCH|52=20200612-19:05:27.499|56=EXECLINKS|10=015|8=FIX.4.4|9=61|35=0|34=86|49=COEPEXCH|52=20200612-19:05:28.425|56=EXECLINKS|10=006|8=FIX.4.4|9=61|35=0|34=87|49=COEPEXCH|52=20200612-19:05:29.351|56=EXECLINKS|10=006|8=FIX.4.4|9=61|35=0|34=88|49=COEPEXCH|52=20200612-19:05:30.275|56=EXECLINKS|10=004|8=FIX.4.4|9=61|35=0|34=89|49=COEPEXCH|52=20200612-19:05:31.199|56=EXECLINKS|10=011|8=FIX.4.4|9=61|35=0|34=90|49=COEPEXCH|52=20200612-19:05:32.123|56=EXECLINKS|10=247|8=FIX.4.4|9=61|35=0|34=91|49=COEPEXCH|52=20200612-19:05:33.044|56=EXECLINKS|10=251|8=FIX.4.4|9=61|35=0|34=92|49=COEPEXCH|52=20200612-19:05:34.038|56=EXECLINKS|10=000|8=FIX.4.4|9=61|35=0|34=93|49=COEPEXCH|52=20200612-19:05:35.031|56=EXECLINKS|10=251|8=FIX.4.4|9=61|35=0|34=94|49=COEPEXCH|52=20200612-19:05:36.023|56=EXECLINKS|10=254|8=FIX.4.4|9=61|35=0|34=95|49=COEPEXCH|52=20200612-19:05:37.015|56=EXECLINKS|10=001|8=FIX.4.4|9=61|35=0|34=96|49=COEPEXCH|52=20200612-19:05:38.007|56=EXECLINKS|10=004|8=FIX.4.4|9=61|35=0|34=97|49=COEPEXCH|52=20200612-19:05:39.842|56=EXECLINKS|10=013|8=FIX.4.4|9=61|35=0|34=98|49=COEPEXCH|52=20200612-19:05:40.758|56=EXECLINKS|10=012|8=FIX.4.4|9=61|35=0|34=99|49=COEPEXCH|52=20200612-19:05:41.675|56=EXECLINKS|10=012|8=FIX.4.4|9=62|35=0|34=100|49=COEPEXCH|52=20200612-19:05:42.590|56=EXECLINKS|10=041|8=FIX.4.4|9=62|35=0|34=101|49=COEPEXCH|52=20200612-19:05:43.505|56=EXECLINKS|10=039|8=FIX.4.4|9=62|35=0|34=102|49=COEPEXCH|52=20200612-19:05:44.419|56=EXECLINKS|10=045|8=FIX.4.4|9=62|35=0|34=103|49=COEPEXCH|52=20200612-19:05:45.332|56=EXECLINKS|10=041|8=FIX.4.4|9=62|35=0|34=104|49=COEPEXCH|52=20200612-19:05:46.245|56=EXECLINKS|10=046|8=FIX.4.4|9=73|35=A|34=105|49=COEPEXCH|52=20200612-19:10:11.999|56=EXECLINKS|98=0|108=1|10=045|8=FIX.4.4|9=78|35=8|34=106|49=COEPEXCH|52=20200612-19:10:12.067|56=EXECLINKS|37=3|39=0|150=0|10=239|8=FIX.4.4|9=62|35=0|34=107|49=COEPEXCH|52=20200612-19:10:13.065|56=EXECLINKS|10=039|8=FIX.4.4|9=62|35=0|34=108|49=COEPEXCH|52=20200612-19:10:14.064|56=EXECLINKS|10=040|8=FIX.4.4|9=62|35=0|34=109|49=COEPEXCH|52=20200612-19:10:15.063|56=EXECLINKS|10=041|8=FIX.4.4|9=62|35=0|34=110|49=COEPEXCH|52=20200612-19:10:16.060|56=EXECLINKS|10=031|8=FIX.4.4|9=62|35=0|34=111|49=COEPEXCH|52=20200612-19:10:17.056|56=EXECLINKS|10=038|8=FIX.4.4|9=62|35=0|34=112|49=COEPEXCH|52=20200612-19:10:18.051|56=EXECLINKS|10=035|8=FIX.4.4|9=62|35=0|34=113|49=COEPEXCH|52=20200612-19:10:19.044|56=EXECLINKS|10=039|8=FIX.4.4|9=62|35=0|34=114|49=COEPEXCH|52=20200612-19:10:20.038|56=EXECLINKS|10=035|8=FIX.4.4|9=62|35=0|34=115|49=COEPEXCH|52=20200612-19:10:21.030|56=EXECLINKS|10=029|8=FIX.4.4|9=62|35=0|34=116|49=COEPEXCH|52=20200612-19:10:22.022|56=EXECLINKS|10=032|8=FIX.4.4|9=62|35=0|34=117|49=COEPEXCH|52=20200612-19:10:23.014|56=EXECLINKS|10=035|8=FIX.4.4|9=62|35=0|34=118|49=COEPEXCH|52=20200612-19:10:24.003|56=EXECLINKS|10=035|8=FIX.4.4|9=62|35=0|34=119|49=COEPEXCH|52=20200612-19:10:25.847|56=EXECLINKS|10=053|8=FIX.4.4|9=62|35=0|34=120|49=COEPEXCH|52=20200612-19:10:26.768|56=EXECLINKS|10=048|8=FIX.4.4|9=62|35=0|34=121|49=COEPEXCH|52=20200612-19:10:27.688|56=EXECLINKS|10=051|8=FIX.4.4|9=62|35=0|34=122|49=COEPEXCH|52=20200612-19:10:28.608|56=EXECLINKS|10=045|8=FIX.4.4|9=62|35=0|34=123|49=COEPEXCH|52=20200612-19:10:29.526|56=EXECLINKS|10=046|8=FIX.4.4|9=62|35=0|34=124|49=COEPEXCH|52=20200612-19:10:30.444|56=EXECLINKS|10=038|8=FIX.4.4|9=62|35=0|34=125|49=COEPEXCH|52=20200612-19:10:31.361|56=EXECLINKS|10=038|8=FIX.4.4|9=62|35=0|34=126|49=COEPEXCH|52=20200612-19:10:32.277|56=EXECLINKS|10=046|8=FIX.4.4|9=62|35=0|34=127|49=COEPEXCH|52=20200612-19:10:33.192|56=EXECLINKS|10=044|8=FIX.4.4|9=73|35=A|34=128|49=COEPEXCH|52=20200612-19:11:38.194|56=EXECLINKS|98=0|108=1|10=047|8=FIX.4.4|9=78|35=8|34=129|49=COEPEXCH|52=20200612-19:11:38.260|56=EXECLINKS|37=3|39=0|150=0|10=248|8=FIX.4.4|9=62|35=0|34=130|49=COEPEXCH|52=20200612-19:11:39.194|56=EXECLINKS|10=047|8=FIX.4.4|9=62|35=0|34=131|49=COEPEXCH|52=20200612-19:11:40.127|56=EXECLINKS|10=036|8=FIX.4.4|9=62|35=0|34=132|49=COEPEXCH|52=20200612-19:11:41.060|56=EXECLINKS|10=034|8=FIX.4.4|9=62|35=0|34=133|49=COEPEXCH|52=20200612-19:11:42.057|56=EXECLINKS|10=042|8=FIX.4.4|9=62|35=0|34=134|49=COEPEXCH|52=20200612-19:11:43.055|56=EXECLINKS|10=042|8=FIX.4.4|9=62|35=0|34=135|49=COEPEXCH|52=20200612-19:11:44.052|56=EXECLINKS|10=041|8=FIX.4.4|9=62|35=0|34=136|49=COEPEXCH|52=20200612-19:11:45.048|56=EXECLINKS|10=048|8=FIX.4.4|9=62|35=0|34=137|49=COEPEXCH|52=20200612-19:11:46.043|56=EXECLINKS|10=045|8=FIX.4.4|9=62|35=0|34=138|49=COEPEXCH|52=20200612-19:11:47.037|56=EXECLINKS|10=050|8=FIX.4.4|9=62|35=0|34=139|49=COEPEXCH|52=20200612-19:11:48.031|56=EXECLINKS|10=046|8=FIX.4.4|9=62|35=0|34=140|49=COEPEXCH|52=20200612-19:11:49.023|56=EXECLINKS|10=040|8=FIX.4.4|9=62|35=0|34=141|49=COEPEXCH|52=20200612-19:11:50.015|56=EXECLINKS|10=034|8=FIX.4.4|9=62|35=0|34=142|49=COEPEXCH|52=20200612-19:11:51.006|56=EXECLINKS|10=036|8=FIX.4.4|9=62|35=0|34=143|49=COEPEXCH|52=20200612-19:11:52.854|56=EXECLINKS|10=049|8=FIX.4.4|9=62|35=0|34=144|49=COEPEXCH|52=20200612-19:11:53.778|56=EXECLINKS|10=056|8=FIX.4.4|9=62|35=0|34=145|49=COEPEXCH|52=20200612-19:11:54.700|56=EXECLINKS|10=043|8=FIX.4.4|9=62|35=0|34=146|49=COEPEXCH|52=20200612-19:11:55.622|56=EXECLINKS|10=048|8=FIX.4.4|9=62|35=0|34=147|49=COEPEXCH|52=20200612-19:11:56.544|56=EXECLINKS|10=053|8=FIX.4.4|9=62|35=0|34=148|49=COEPEXCH|52=20200612-19:11:57.464|56=EXECLINKS|10=056|8=FIX.4.4|9=62|35=0|34=149|49=COEPEXCH|52=20200612-19:11:58.385|56=EXECLINKS|10=060|8=FIX.4.4|9=62|35=0|34=150|49=COEPEXCH|52=20200612-19:11:59.303|56=EXECLINKS|10=043|8=FIX.4.4|9=62|35=0|34=151|49=COEPEXCH|52=20200612-19:12:00.221|56=EXECLINKS|10=030|8=FIX.4.4|9=62|35=0|34=152|49=COEPEXCH|52=20200612-19:12:01.137|56=EXECLINKS|10=038|8=FIX.4.4|9=62|35=0|34=153|49=COEPEXCH|52=20200612-19:12:02.053|56=EXECLINKS|10=037|8=FIX.4.4|9=62|35=0|34=154|49=COEPEXCH|52=20200612-19:12:03.035|56=EXECLINKS|10=039|8=FIX.4.4|9=62|35=0|34=155|49=COEPEXCH|52=20200612-19:12:04.018|56=EXECLINKS|10=042|8=FIX.4.4|9=62|35=0|34=156|49=COEPEXCH|52=20200612-19:12:05.844|56=EXECLINKS|10=051|8=FIX.4.4|9=62|35=0|34=157|49=COEPEXCH|52=20200612-19:12:06.757|56=EXECLINKS|10=056|8=FIX.4.4|9=62|35=0|34=158|49=COEPEXCH|52=20200612-19:12:07.669|56=EXECLINKS|10=060|8=FIX.4.4|9=62|35=0|34=159|49=COEPEXCH|52=20200612-19:12:08.580|56=EXECLINKS|10=054|8=FIX.4.4|9=62|35=0|34=160|49=COEPEXCH|52=20200612-19:12:09.491|56=EXECLINKS|10=048|8=FIX.4.4|9=62|35=0|34=161|49=COEPEXCH|52=20200612-19:12:10.400|56=EXECLINKS|10=031|8=FIX.4.4|9=62|35=0|34=162|49=COEPEXCH|52=20200612-19:12:11.308|56=EXECLINKS|10=040|8=FIX.4.4|9=73|35=A|34=163|49=COEPEXCH|52=20200612-19:13:02.296|56=EXECLINKS|98=0|108=1|10=042|8=FIX.4.4|9=78|35=8|34=164|49=COEPEXCH|52=20200612-19:13:02.367|56=EXECLINKS|37=3|39=0|150=0|10=248|8=FIX.4.4|9=78|35=8|34=165|49=COEPEXCH|52=20200612-19:13:02.368|56=EXECLINKS|37=3|39=0|150=0|10=250|8=FIX.4.4|9=99|35=8|34=166|49=COEPEXCH|52=20200612-19:13:02.368|56=EXECLINKS|37=3|38=2|39=2|44=87.0|55=amzn|150=F|10=194|8=FIX.4.4|9=99|35=8|34=167|49=COEPEXCH|52=20200612-19:13:02.369|56=EXECLINKS|37=3|38=2|39=2|44=87.0|55=amzn|150=F|10=196|8=FIX.4.4|9=62|35=5|34=168|49=COEPEXCH|52=20200612-19:13:02.369|56=EXECLINKS|10=059|8=FIX.4.4|9=73|35=A|34=169|49=COEPEXCH|52=20200612-19:14:30.135|56=EXECLINKS|98=0|108=1|10=042|8=FIX.4.4|9=78|35=8|34=170|49=COEPEXCH|52=20200612-19:14:30.199|56=EXECLINKS|37=1|39=0|150=0|10=248|8=FIX.4.4|9=78|35=8|34=171|49=COEPEXCH|52=20200612-19:14:30.200|56=EXECLINKS|37=2|39=0|150=0|10=233|8=FIX.4.4|9=99|35=8|34=172|49=COEPEXCH|52=20200612-19:14:30.200|56=EXECLINKS|37=2|38=2|39=2|44=87.0|55=amzn|150=F|10=177|8=FIX.4.4|9=99|35=8|34=173|49=COEPEXCH|52=20200612-19:14:30.201|56=EXECLINKS|37=1|38=2|39=2|44=87.0|55=amzn|150=F|10=178|8=FIX.4.4|9=62|35=5|34=174|49=COEPEXCH|52=20200612-19:14:30.201|56=EXECLINKS|10=043|8=FIX.4.4|9=73|35=A|34=175|49=COEPEXCH|52=20200612-19:16:22.938|56=EXECLINKS|98=0|108=1|10=053|8=FIX.4.4|9=73|35=A|34=176|49=COEPEXCH|52=20200612-19:16:47.057|56=EXECLINKS|98=0|108=1|10=053|8=FIX.4.4|9=78|35=8|34=177|49=COEPEXCH|52=20200612-19:16:47.125|56=EXECLINKS|37=1|39=0|150=0|10=254|8=FIX.4.4|9=78|35=8|34=178|49=COEPEXCH|52=20200612-19:16:47.126|56=EXECLINKS|37=2|39=0|150=0|10=001|8=FIX.4.4|9=99|35=8|34=179|49=COEPEXCH|52=20200612-19:16:47.126|56=EXECLINKS|37=2|38=2|39=2|44=87.0|55=amzn|150=F|10=201|8=FIX.4.4|9=99|35=8|34=180|49=COEPEXCH|52=20200612-19:16:47.126|56=EXECLINKS|37=1|38=2|39=2|44=87.0|55=amzn|150=F|10=192|8=FIX.4.4|9=78|35=8|34=181|49=COEPEXCH|52=20200612-19:16:47.127|56=EXECLINKS|37=4|39=0|150=0|10=254|8=FIX.4.4|9=62|35=5|34=182|49=COEPEXCH|52=20200612-19:16:47.127|56=EXECLINKS|10=059|8=FIX.4.4|9=73|35=A|34=183|49=COEPEXCH|52=20200612-19:18:31.982|56=EXECLINKS|98=0|108=1|10=053|8=FIX.4.4|9=78|35=8|34=184|49=COEPEXCH|52=20200612-19:18:32.051|56=EXECLINKS|37=1|39=0|150=0|10=246|8=FIX.4.4|9=99|35=8|34=185|49=COEPEXCH|52=20200612-19:18:32.051|56=EXECLINKS|37=2|38=2|39=2|44=87.0|55=amzn|150=F|10=191|8=FIX.4.4|9=99|35=8|34=186|49=COEPEXCH|52=20200612-19:18:32.051|56=EXECLINKS|37=1|38=2|39=2|44=87.0|55=amzn|150=F|10=191|8=FIX.4.4|9=78|35=8|34=187|49=COEPEXCH|52=20200612-19:18:32.052|56=EXECLINKS|37=2|39=0|150=0|10=251|8=FIX.4.4|9=62|35=5|34=188|49=COEPEXCH|52=20200612-19:18:32.053|56=EXECLINKS|10=059|8=FIX.4.4|9=73|35=A|34=189|49=COEPEXCH|52=20200612-19:19:02.198|56=EXECLINKS|98=0|108=1|10=057|8=FIX.4.4|9=78|35=8|34=190|49=COEPEXCH|52=20200612-19:19:02.265|56=EXECLINKS|37=1|39=0|150=0|10=248|8=FIX.4.4|9=99|35=8|34=191|49=COEPEXCH|52=20200612-19:19:02.266|56=EXECLINKS|37=2|38=2|39=2|44=87.0|55=amzn|150=F|10=194|8=FIX.4.4|9=99|35=8|34=192|49=COEPEXCH|52=20200612-19:19:02.266|56=EXECLINKS|37=1|38=2|39=2|44=87.0|55=amzn|150=F|10=194|8=FIX.4.4|9=78|35=8|34=193|49=COEPEXCH|52=20200612-19:19:02.267|56=EXECLINKS|37=2|39=0|150=0|10=254|8=FIX.4.4|9=62|35=5|34=194|49=COEPEXCH|52=20200612-19:19:02.268|56=EXECLINKS|10=062|8=FIX.4.4|9=73|35=A|34=195|49=COEPEXCH|52=20200612-19:20:20.065|56=EXECLINKS|98=0|108=1|10=039|8=FIX.4.4|9=62|35=5|34=196|49=COEPEXCH|52=20200612-19:20:21.065|56=EXECLINKS|10=052|8=FIX.4.4|9=73|35=A|34=197|49=COEPEXCH|52=20200612-19:20:59.367|56=EXECLINKS|98=0|108=1|10=058|8=FIX.4.4|9=73|35=A|34=198|49=COEPEXCH|52=20200612-19:21:20.407|56=EXECLINKS|98=0|108=1|10=043|8=FIX.4.4|9=78|35=8|34=199|49=COEPEXCH|52=20200612-19:21:20.477|56=EXECLINKS|37=1|39=0|150=0|10=255|8=FIX.4.4|9=78|35=8|34=200|49=COEPEXCH|52=20200612-19:21:20.478|56=EXECLINKS|37=2|39=0|150=0|10=240|8=FIX.4.4|9=99|35=8|34=201|49=COEPEXCH|52=20200612-19:21:20.478|56=EXECLINKS|37=2|38=2|39=2|44=87.0|55=amzn|150=F|10=184|8=FIX.4.4|9=99|35=8|34=202|49=COEPEXCH|52=20200612-19:21:20.478|56=EXECLINKS|37=1|38=2|39=2|44=87.0|55=amzn|150=F|10=184|8=FIX.4.4|9=62|35=5|34=203|49=COEPEXCH|52=20200612-19:21:20.479|56=EXECLINKS|10=050|8=FIX.4.4|9=73|35=A|34=204|49=COEPEXCH|52=20200612-19:21:58.549|56=EXECLINKS|98=0|108=1|10=049|8=FIX.4.4|9=78|35=8|34=205|49=COEPEXCH|52=20200612-19:21:58.619|56=EXECLINKS|37=1|39=0|150=0|10=252|8=FIX.4.4|9=99|35=8|34=206|49=COEPEXCH|52=20200612-19:21:58.619|56=EXECLINKS|37=2|38=2|39=2|44=87.0|55=amzn|150=F|10=197|8=FIX.4.4|9=99|35=8|34=207|49=COEPEXCH|52=20200612-19:21:58.620|56=EXECLINKS|37=1|38=2|39=2|44=87.0|55=amzn|150=F|10=189|8=FIX.4.4|9=78|35=8|34=208|49=COEPEXCH|52=20200612-19:21:58.620|56=EXECLINKS|37=2|39=0|150=0|10=248|8=FIX.4.4|9=62|35=5|34=209|49=COEPEXCH|52=20200612-19:21:58.621|56=EXECLINKS|10=056|8=FIX.4.4|9=73|35=A|34=210|49=COEPEXCH|52=20200612-19:27:02.457|56=EXECLINKS|98=0|108=1|10=039|8=FIX.4.4|9=78|35=8|34=211|49=COEPEXCH|52=20200612-19:27:02.536|56=EXECLINKS|37=1|39=0|150=0|10=242|8=FIX.4.4|9=78|35=8|34=212|49=COEPEXCH|52=20200612-19:27:02.537|56=EXECLINKS|37=2|39=0|150=0|10=245|8=FIX.4.4|9=99|35=8|34=213|49=COEPEXCH|52=20200612-19:27:02.538|56=EXECLINKS|37=2|38=2|39=2|44=87.0|55=amzn|150=F|10=190|8=FIX.4.4|9=99|35=8|34=214|49=COEPEXCH|52=20200612-19:27:02.538|56=EXECLINKS|37=1|38=2|39=2|44=87.0|55=amzn|150=F|10=190|8=FIX.4.4|9=73|35=A|34=215|49=COEPEXCH|52=20200612-19:28:13.871|56=EXECLINKS|98=0|108=1|10=047|8=FIX.4.4|9=73|35=A|34=216|49=COEPEXCH|52=20200612-19:29:01.763|56=EXECLINKS|98=0|108=1|10=046|8=FIX.4.4|9=78|35=8|34=217|49=COEPEXCH|52=20200612-19:29:01.833|56=EXECLINKS|37=1|39=0|150=0|10=249|8=FIX.4.4|9=78|35=8|34=218|49=COEPEXCH|52=20200612-19:29:01.834|56=EXECLINKS|37=2|39=0|150=0|10=252|8=FIX.4.4|9=99|35=8|34=219|49=COEPEXCH|52=20200612-19:29:01.835|56=EXECLINKS|37=2|38=2|39=2|44=87.0|55=amzn|150=F|10=197|8=FIX.4.4|9=99|35=8|34=220|49=COEPEXCH|52=20200612-19:29:01.835|56=EXECLINKS|37=1|38=2|39=2|44=87.0|55=amzn|150=F|10=188|8=FIX.4.4|9=62|35=5|34=221|49=COEPEXCH|52=20200612-19:29:01.835|56=EXECLINKS|10=053|8=FIX.4.4|9=73|35=A|34=222|49=COEPEXCH|52=20200612-19:30:16.440|56=EXECLINKS|98=0|108=1|10=033|8=FIX.4.4|9=78|35=8|34=223|49=COEPEXCH|52=20200612-19:30:16.521|56=EXECLINKS|37=1|39=0|150=0|10=238|8=FIX.4.4|9=78|35=8|34=224|49=COEPEXCH|52=20200612-19:30:16.522|56=EXECLINKS|37=2|39=0|150=0|10=241|8=FIX.4.4|9=99|35=8|34=225|49=COEPEXCH|52=20200612-19:30:16.523|56=EXECLINKS|37=2|38=1|39=2|44=87.0|55=amzn|150=F|10=185|8=FIX.4.4|9=99|35=8|34=226|49=COEPEXCH|52=20200612-19:30:16.523|56=EXECLINKS|37=1|38=1|39=1|44=87.0|55=amzn|150=F|10=184|8=FIX.4.4|9=62|35=5|34=227|49=COEPEXCH|52=20200612-19:30:16.523|56=EXECLINKS|10=051|8=FIX.4.4|9=73|35=A|34=228|49=COEPEXCH|52=20200612-19:31:57.632|56=EXECLINKS|98=0|108=1|10=048|8=FIX.4.4|9=78|35=8|34=229|49=COEPEXCH|52=20200612-19:31:57.699|56=EXECLINKS|37=1|39=0|150=0|10=010|8=FIX.4.4|9=78|35=8|34=230|49=COEPEXCH|52=20200612-19:31:57.700|56=EXECLINKS|37=2|39=0|150=0|10=242|8=FIX.4.4|9=99|35=8|34=231|49=COEPEXCH|52=20200612-19:31:57.700|56=EXECLINKS|37=2|38=1|39=2|44=87.0|55=amzn|150=F|10=185|8=FIX.4.4|9=99|35=8|34=232|49=COEPEXCH|52=20200612-19:31:57.700|56=EXECLINKS|37=1|38=1|39=1|44=87.0|55=amzn|150=F|10=184|8=FIX.4.4|9=78|35=8|34=233|49=COEPEXCH|52=20200612-19:31:57.701|56=EXECLINKS|37=2|39=0|150=0|10=246|8=FIX.4.4|9=99|35=8|34=234|49=COEPEXCH|52=20200612-19:31:57.701|56=EXECLINKS|37=2|38=1|39=2|44=87.0|55=amzn|150=F|10=189|8=FIX.4.4|9=99|35=8|34=235|49=COEPEXCH|52=20200612-19:31:57.702|56=EXECLINKS|37=1|38=1|39=2|44=87.0|55=amzn|150=F|10=190|8=FIX.4.4|9=62|35=5|34=236|49=COEPEXCH|52=20200612-19:31:57.702|56=EXECLINKS|10=056|8=FIX.4.4|9=73|35=A|34=237|49=COEPEXCH|52=20200612-19:32:36.463|56=EXECLINKS|98=0|108=1|10=048|8=FIX.4.4|9=78|35=8|34=238|49=COEPEXCH|52=20200612-19:32:36.530|56=EXECLINKS|37=1|39=0|150=0|10=248|8=FIX.4.4|9=78|35=8|34=239|49=COEPEXCH|52=20200612-19:32:36.531|56=EXECLINKS|37=2|39=0|150=0|10=251|8=FIX.4.4|9=99|35=8|34=240|49=COEPEXCH|52=20200612-19:32:36.531|56=EXECLINKS|37=2|38=1|39=2|44=87.0|55=amzn|150=F|10=185|8=FIX.4.4|9=99|35=8|34=241|49=COEPEXCH|52=20200612-19:32:36.532|56=EXECLINKS|37=1|38=1|39=1|44=87.0|55=amzn|150=F|10=185|8=FIX.4.4|9=78|35=8|34=242|49=COEPEXCH|52=20200612-19:32:36.532|56=EXECLINKS|37=3|39=0|150=0|10=247|8=FIX.4.4|9=99|35=8|34=243|49=COEPEXCH|52=20200612-19:32:36.533|56=EXECLINKS|37=3|38=1|39=2|44=87.0|55=amzn|150=F|10=191|8=FIX.4.4|9=99|35=8|34=244|49=COEPEXCH|52=20200612-19:32:36.533|56=EXECLINKS|37=1|38=1|39=2|44=87.0|55=amzn|150=F|10=190|8=FIX.4.4|9=62|35=5|34=245|49=COEPEXCH|52=20200612-19:32:36.533|56=EXECLINKS|10=056|8=FIX.4.4|9=73|35=A|34=246|49=COEPEXCH|52=20200612-19:34:26.346|56=EXECLINKS|98=0|108=1|10=049|8=FIX.4.4|9=73|35=2|34=247|49=COEPEXCH|52=20200612-19:34:26.346|56=EXECLINKS|7=226|16=0|10=032|8=FIX.4.4|9=78|35=8|34=248|49=COEPEXCH|52=20200612-19:34:26.388|56=EXECLINKS|37=1|39=0|150=0|10=005|8=FIX.4.4|9=78|35=8|34=249|49=COEPEXCH|52=20200612-19:34:26.390|56=EXECLINKS|37=2|39=0|150=0|10=000|8=FIX.4.4|9=99|35=8|34=250|49=COEPEXCH|52=20200612-19:34:26.390|56=EXECLINKS|37=2|38=1|39=2|44=87.0|55=amzn|150=F|10=190|8=FIX.4.4|9=99|35=8|34=251|49=COEPEXCH|52=20200612-19:34:26.390|56=EXECLINKS|37=1|38=1|39=1|44=87.0|55=amzn|150=F|10=189|8=FIX.4.4|9=78|35=8|34=252|49=COEPEXCH|52=20200612-19:34:26.391|56=EXECLINKS|37=3|39=0|150=0|10=252|8=FIX.4.4|9=99|35=8|34=253|49=COEPEXCH|52=20200612-19:34:26.391|56=EXECLINKS|37=3|38=1|39=2|44=87.0|55=amzn|150=F|10=195|8=FIX.4.4|9=99|35=8|34=254|49=COEPEXCH|52=20200612-19:34:26.392|56=EXECLINKS|37=1|38=1|39=2|44=87.0|55=amzn|150=F|10=195|8=FIX.4.4|9=78|35=8|34=255|49=COEPEXCH|52=20200612-19:34:26.416|56=EXECLINKS|37=1|39=0|150=0|10=251|8=FIX.4.4|9=99|35=8|34=256|49=COEPEXCH|52=20200612-19:34:26.416|56=EXECLINKS|37=3|38=1|39=2|44=87.0|55=amzn|150=F|10=196|8=FIX.4.4|9=99|35=8|34=257|49=COEPEXCH|52=20200612-19:34:26.416|56=EXECLINKS|37=1|38=1|39=1|44=87.0|55=amzn|150=F|10=194|8=FIX.4.4|9=78|35=8|34=258|49=COEPEXCH|52=20200612-19:34:26.417|56=EXECLINKS|37=2|39=0|150=0|10=000|8=FIX.4.4|9=99|35=8|34=259|49=COEPEXCH|52=20200612-19:34:26.418|56=EXECLINKS|37=2|38=1|39=2|44=87.0|55=amzn|150=F|10=200|8=FIX.4.4|9=99|35=8|34=260|49=COEPEXCH|52=20200612-19:34:26.418|56=EXECLINKS|37=1|38=1|39=2|44=87.0|55=amzn|150=F|10=191|8=FIX.4.4|9=78|35=8|34=261|49=COEPEXCH|52=20200612-19:34:26.419|56=EXECLINKS|37=3|39=0|150=0|10=253|8=FIX.4.4|9=62|35=5|34=262|49=COEPEXCH|52=20200612-19:34:26.464|56=EXECLINKS|10=059|8=FIX.4.4|9=73|35=A|34=263|49=COEPEXCH|52=20200612-19:39:09.142|56=EXECLINKS|98=0|108=1|10=048|8=FIX.4.4|9=73|35=A|34=264|49=COEPEXCH|52=20200612-19:39:29.582|56=EXECLINKS|98=0|108=1|10=059|8=FIX.4.4|9=78|35=8|34=265|49=COEPEXCH|52=20200612-19:39:29.647|56=EXECLINKS|37=1|39=0|150=0|10=010|8=FIX.4.4|9=78|35=8|34=266|49=COEPEXCH|52=20200612-19:39:29.648|56=EXECLINKS|37=2|39=0|150=0|10=013|8=FIX.4.4|9=99|35=8|34=267|49=COEPEXCH|52=20200612-19:39:29.649|56=EXECLINKS|37=2|38=1|39=2|44=87.0|55=amzn|150=F|10=213|8=FIX.4.4|9=99|35=8|34=268|49=COEPEXCH|52=20200612-19:39:29.649|56=EXECLINKS|37=1|38=1|39=1|44=87.0|55=amzn|150=F|10=212|8=FIX.4.4|9=78|35=8|34=269|49=COEPEXCH|52=20200612-19:39:29.650|56=EXECLINKS|37=3|39=0|150=0|10=010|8=FIX.4.4|9=99|35=8|34=270|49=COEPEXCH|52=20200612-19:39:29.650|56=EXECLINKS|37=3|38=1|39=2|44=87.0|55=amzn|150=F|10=200|8=FIX.4.4|9=99|35=8|34=271|49=COEPEXCH|52=20200612-19:39:29.650|56=EXECLINKS|37=1|38=1|39=2|44=87.0|55=amzn|150=F|10=199|8=FIX.4.4|9=62|35=5|34=272|49=COEPEXCH|52=20200612-19:39:29.650|56=EXECLINKS|10=065|8=FIX.4.4|9=73|35=A|34=273|49=COEPEXCH|52=20200613-01:34:15.068|56=EXECLINKS|98=0|108=1|10=040|8=FIX.4.4|9=73|35=2|34=274|49=COEPEXCH|52=20200613-01:34:15.124|56=EXECLINKS|7=245|16=0|10=017|8=FIX.4.4|9=73|35=A|34=275|49=COEPEXCH|52=20200613-01:35:28.864|56=EXECLINKS|98=0|108=1|10=051|8=FIX.4.4|9=73|35=2|34=276|49=COEPEXCH|52=20200613-01:35:28.865|56=EXECLINKS|7=245|16=0|10=036|8=FIX.4.4|9=78|35=8|34=277|49=COEPEXCH|52=20200613-01:35:28.910|56=EXECLINKS|37=1|39=0|150=0|10=249|8=FIX.4.4|9=78|35=8|34=278|49=COEPEXCH|52=20200613-01:35:28.911|56=EXECLINKS|37=2|39=0|150=0|10=252|8=FIX.4.4|9=99|35=8|34=279|49=COEPEXCH|52=20200613-01:35:28.911|56=EXECLINKS|37=2|38=1|39=2|44=87.0|55=amzn|150=F|10=195|8=FIX.4.4|9=99|35=8|34=280|49=COEPEXCH|52=20200613-01:35:28.911|56=EXECLINKS|37=1|38=1|39=1|44=87.0|55=amzn|150=F|10=185|8=FIX.4.4|9=78|35=8|34=281|49=COEPEXCH|52=20200613-01:35:28.912|56=EXECLINKS|37=3|39=0|150=0|10=248|8=FIX.4.4|9=99|35=8|34=282|49=COEPEXCH|52=20200613-01:35:28.912|56=EXECLINKS|37=3|38=1|39=2|44=87.0|55=amzn|150=F|10=191|8=FIX.4.4|9=99|35=8|34=283|49=COEPEXCH|52=20200613-01:35:28.912|56=EXECLINKS|37=1|38=1|39=2|44=87.0|55=amzn|150=F|10=190|8=FIX.4.4|9=78|35=8|34=284|49=COEPEXCH|52=20200613-01:35:28.913|56=EXECLINKS|37=1|39=0|150=0|10=250|8=FIX.4.4|9=99|35=8|34=285|49=COEPEXCH|52=20200613-01:35:28.913|56=EXECLINKS|37=3|38=1|39=2|44=87.0|55=amzn|150=F|10=195|8=FIX.4.4|9=99|35=8|34=286|49=COEPEXCH|52=20200613-01:35:28.914|56=EXECLINKS|37=1|38=1|39=1|44=87.0|55=amzn|150=F|10=194|8=FIX.4.4|9=78|35=8|34=287|49=COEPEXCH|52=20200613-01:35:28.914|56=EXECLINKS|37=2|39=0|150=0|10=255|8=FIX.4.4|9=99|35=8|34=288|49=COEPEXCH|52=20200613-01:35:28.915|56=EXECLINKS|37=2|38=1|39=2|44=87.0|55=amzn|150=F|10=199|8=FIX.4.4|9=99|35=8|34=289|49=COEPEXCH|52=20200613-01:35:28.915|56=EXECLINKS|37=1|38=1|39=2|44=87.0|55=amzn|150=F|10=199|8=FIX.4.4|9=78|35=8|34=290|49=COEPEXCH|52=20200613-01:35:28.915|56=EXECLINKS|37=3|39=0|150=0|10=251|8=FIX.4.4|9=73|35=2|34=291|49=COEPEXCH|52=20200613-01:35:28.939|56=EXECLINKS|7=254|16=0|10=035|8=FIX.4.4|9=62|35=5|34=292|49=COEPEXCH|52=20200613-01:35:28.985|56=EXECLINKS|10=065|8=FIX.4.4|9=73|35=2|34=293|49=COEPEXCH|52=20200613-01:35:28.986|56=EXECLINKS|7=255|16=0|10=040|8=FIX.4.4|9=73|35=A|34=294|49=COEPEXCH|52=20200613-01:36:32.931|56=EXECLINKS|98=0|108=1|10=043|8=FIX.4.4|9=73|35=2|34=295|49=COEPEXCH|52=20200613-01:36:32.932|56=EXECLINKS|7=255|16=0|10=029|8=FIX.4.4|9=78|35=8|34=296|49=COEPEXCH|52=20200613-01:36:32.933|56=EXECLINKS|37=1|39=0|150=0|10=251|8=FIX.4.4|9=99|35=8|34=297|49=COEPEXCH|52=20200613-01:36:32.934|56=EXECLINKS|37=3|38=1|39=2|44=87.0|55=amzn|150=F|10=197|8=FIX.4.4|9=99|35=8|34=298|49=COEPEXCH|52=20200613-01:36:32.934|56=EXECLINKS|37=1|38=1|39=1|44=87.0|55=amzn|150=F|10=195|8=FIX.4.4|9=99|35=8|34=299|49=COEPEXCH|52=20200613-01:36:32.934|56=EXECLINKS|37=2|38=1|39=2|44=87.0|55=amzn|150=F|10=198|8=FIX.4.4|9=99|35=8|34=300|49=COEPEXCH|52=20200613-01:36:32.934|56=EXECLINKS|37=1|38=1|39=2|44=87.0|55=amzn|150=F|10=180|8=FIX.4.4|9=78|35=8|34=301|49=COEPEXCH|52=20200613-01:36:32.935|56=EXECLINKS|37=2|39=0|150=0|10=241|8=FIX.4.4|9=78|35=8|34=302|49=COEPEXCH|52=20200613-01:36:32.936|56=EXECLINKS|37=3|39=0|150=0|10=244|8=FIX.4.4|9=78|35=8|34=303|49=COEPEXCH|52=20200613-01:36:33.000|56=EXECLINKS|37=1|39=0|150=0|10=226|8=FIX.4.4|9=99|35=8|34=304|49=COEPEXCH|52=20200613-01:36:33.000|56=EXECLINKS|37=3|38=1|39=2|44=87.0|55=amzn|150=F|10=171|8=FIX.4.4|9=99|35=8|34=305|49=COEPEXCH|52=20200613-01:36:33.000|56=EXECLINKS|37=1|38=1|39=1|44=87.0|55=amzn|150=F|10=169|8=FIX.4.4|9=99|35=8|34=306|49=COEPEXCH|52=20200613-01:36:33.001|56=EXECLINKS|37=2|38=1|39=2|44=87.0|55=amzn|150=F|10=173|8=FIX.4.4|9=99|35=8|34=307|49=COEPEXCH|52=20200613-01:36:33.001|56=EXECLINKS|37=1|38=1|39=2|44=87.0|55=amzn|150=F|10=173|8=FIX.4.4|9=78|35=8|34=308|49=COEPEXCH|52=20200613-01:36:33.002|56=EXECLINKS|37=2|39=0|150=0|10=234|8=FIX.4.4|9=78|35=8|34=309|49=COEPEXCH|52=20200613-01:36:33.002|56=EXECLINKS|37=3|39=0|150=0|10=236|8=FIX.4.4|9=62|35=5|34=310|49=COEPEXCH|52=20200613-01:36:33.002|56=EXECLINKS|10=033|8=FIX.4.4|9=73|35=A|34=311|49=COEPEXCH|52=20200613-01:37:39.425|56=EXECLINKS|98=0|108=1|10=039|8=FIX.4.4|9=78|35=8|34=312|49=COEPEXCH|52=20200613-01:37:39.498|56=EXECLINKS|37=1|39=0|150=0|10=254|8=FIX.4.4|9=99|35=8|34=313|49=COEPEXCH|52=20200613-01:37:39.498|56=EXECLINKS|37=2|38=1|39=2|44=87.0|55=amzn|150=F|10=198|8=FIX.4.4|9=99|35=8|34=314|49=COEPEXCH|52=20200613-01:37:39.499|56=EXECLINKS|37=1|38=1|39=1|44=87.0|55=amzn|150=F|10=198|8=FIX.4.4|9=99|35=8|34=315|49=COEPEXCH|52=20200613-01:37:39.499|56=EXECLINKS|37=2|38=1|39=2|44=87.0|55=amzn|150=F|10=201|8=FIX.4.4|9=99|35=8|34=316|49=COEPEXCH|52=20200613-01:37:39.499|56=EXECLINKS|37=1|38=1|39=2|44=87.0|55=amzn|150=F|10=201|8=FIX.4.4|9=78|35=8|34=317|49=COEPEXCH|52=20200613-01:37:39.500|56=EXECLINKS|37=2|39=0|150=0|10=244|8=FIX.4.4|9=78|35=8|34=318|49=COEPEXCH|52=20200613-01:37:39.500|56=EXECLINKS|37=3|39=0|150=0|10=246|8=FIX.4.4|9=62|35=5|34=319|49=COEPEXCH|52=20200613-01:37:39.500|56=EXECLINKS|10=052|8=FIX.4.4|9=73|35=A|34=320|49=COEPEXCH|52=20200613-01:39:06.505|56=EXECLINKS|98=0|108=1|10=034|8=FIX.4.4|9=78|35=8|34=321|49=COEPEXCH|52=20200613-01:39:06.571|56=EXECLINKS|37=1|39=0|150=0|10=242|8=FIX.4.4|9=99|35=8|34=322|49=COEPEXCH|52=20200613-01:39:06.571|56=EXECLINKS|37=2|38=1|39=2|44=87.0|55=amzn|150=F|10=186|8=FIX.4.4|9=99|35=8|34=323|49=COEPEXCH|52=20200613-01:39:06.571|56=EXECLINKS|37=1|38=1|39=1|44=87.0|55=amzn|150=F|10=185|8=FIX.4.4|9=99|35=8|34=324|49=COEPEXCH|52=20200613-01:39:06.572|56=EXECLINKS|37=3|38=1|39=2|44=87.0|55=amzn|150=F|10=190|8=FIX.4.4|9=99|35=8|34=325|49=COEPEXCH|52=20200613-01:39:06.572|56=EXECLINKS|37=1|38=1|39=2|44=87.0|55=amzn|150=F|10=189|8=FIX.4.4|9=78|35=8|34=326|49=COEPEXCH|52=20200613-01:39:06.572|56=EXECLINKS|37=2|39=0|150=0|10=249|8=FIX.4.4|9=78|35=8|34=327|49=COEPEXCH|52=20200613-01:39:06.573|56=EXECLINKS|37=3|39=0|150=0|10=252|8=FIX.4.4|9=62|35=5|34=328|49=COEPEXCH|52=20200613-01:39:06.574|56=EXECLINKS|10=059|8=FIX.4.4|9=73|35=A|34=329|49=COEPEXCH|52=20200613-01:48:02.975|56=EXECLINKS|98=0|108=1|10=050|8=FIX.4.4|9=73|35=A|34=330|49=COEPEXCH|52=20200613-01:48:19.043|56=EXECLINKS|98=0|108=1|10=036|8=FIX.4.4|9=78|35=8|34=331|49=COEPEXCH|52=20200613-01:48:19.110|56=EXECLINKS|37=1|39=0|150=0|10=236|8=FIX.4.4|9=78|35=8|34=332|49=COEPEXCH|52=20200613-01:48:19.111|56=EXECLINKS|37=2|39=0|150=0|10=239|8=FIX.4.4|9=99|35=8|34=333|49=COEPEXCH|52=20200613-01:48:19.111|56=EXECLINKS|37=2|38=1|39=2|44=87.0|55=amzn|150=F|10=182|8=FIX.4.4|9=99|35=8|34=334|49=COEPEXCH|52=20200613-01:48:19.111|56=EXECLINKS|37=1|38=1|39=1|44=87.0|55=amzn|150=F|10=181|8=FIX.4.4|9=78|35=8|34=335|49=COEPEXCH|52=20200613-01:48:19.112|56=EXECLINKS|37=3|39=0|150=0|10=244|8=FIX.4.4|9=99|35=8|34=336|49=COEPEXCH|52=20200613-01:48:19.112|56=EXECLINKS|37=3|38=1|39=2|44=87.0|55=amzn|150=F|10=187|8=FIX.4.4|9=99|35=8|34=337|49=COEPEXCH|52=20200613-01:48:19.112|56=EXECLINKS|37=1|38=1|39=2|44=87.0|55=amzn|150=F|10=186|8=FIX.4.4|9=62|35=5|34=338|49=COEPEXCH|52=20200613-01:48:19.113|56=EXECLINKS|10=053|8=FIX.4.4|9=73|35=A|34=339|49=COEPEXCH|52=20200613-01:50:36.266|56=EXECLINKS|98=0|108=1|10=044|8=FIX.4.4|9=78|35=8|34=340|49=COEPEXCH|52=20200613-01:50:36.332|56=EXECLINKS|37=1|39=0|150=0|10=234|8=FIX.4.4|9=99|35=8|34=341|49=COEPEXCH|52=20200613-01:50:36.332|56=EXECLINKS|37=3|38=1|39=2|44=87.0|55=amzn|150=F|10=179|8=FIX.4.4|9=99|35=8|34=342|49=COEPEXCH|52=20200613-01:50:36.332|56=EXECLINKS|37=1|38=1|39=1|44=87.0|55=amzn|150=F|10=177|8=FIX.4.4|9=78|35=8|34=343|49=COEPEXCH|52=20200613-01:50:36.333|56=EXECLINKS|37=2|39=0|150=0|10=239|8=FIX.4.4|9=99|35=8|34=344|49=COEPEXCH|52=20200613-01:50:36.334|56=EXECLINKS|37=2|38=1|39=2|44=87.0|55=amzn|150=F|10=183|8=FIX.4.4|9=99|35=8|34=345|49=COEPEXCH|52=20200613-01:50:36.334|56=EXECLINKS|37=1|38=1|39=2|44=87.0|55=amzn|150=F|10=183|8=FIX.4.4|9=78|35=8|34=346|49=COEPEXCH|52=20200613-01:50:36.334|56=EXECLINKS|37=3|39=0|150=0|10=244|8=FIX.4.4|9=62|35=5|34=347|49=COEPEXCH|52=20200613-01:50:36.334|56=EXECLINKS|10=050|8=FIX.4.4|9=73|35=A|34=348|49=COEPEXCH|52=20200613-01:56:40.397|56=EXECLINKS|98=0|108=1|10=050|8=FIX.4.4|9=78|35=8|34=349|49=COEPEXCH|52=20200613-01:56:40.471|56=EXECLINKS|37=1|39=0|150=0|10=248|8=FIX.4.4|9=78|35=8|34=350|49=COEPEXCH|52=20200613-01:56:40.472|56=EXECLINKS|37=2|39=0|150=0|10=242|8=FIX.4.4|9=99|35=8|34=351|49=COEPEXCH|52=20200613-01:56:40.472|56=EXECLINKS|37=2|38=1|39=2|44=87.0|55=amzn|150=F|10=185|8=FIX.4.4|9=99|35=8|34=352|49=COEPEXCH|52=20200613-01:56:40.472|56=EXECLINKS|37=1|38=1|39=1|44=87.0|55=amzn|150=F|10=184|8=FIX.4.4|9=78|35=8|34=353|49=COEPEXCH|52=20200613-01:56:40.473|56=EXECLINKS|37=3|39=0|150=0|10=247|8=FIX.4.4|9=99|35=8|34=354|49=COEPEXCH|52=20200613-01:56:40.473|56=EXECLINKS|37=3|38=1|39=2|44=87.0|55=amzn|150=F|10=190|8=FIX.4.4|9=99|35=8|34=355|49=COEPEXCH|52=20200613-01:56:40.473|56=EXECLINKS|37=1|38=1|39=2|44=87.0|55=amzn|150=F|10=189|8=FIX.4.4|9=62|35=5|34=356|49=COEPEXCH|52=20200613-01:56:40.474|56=EXECLINKS|10=056|8=FIX.4.4|9=73|35=A|34=357|49=COEPEXCH|52=20200613-03:28:51.059|56=EXECLINKS|98=0|108=1|10=048|8=FIX.4.4|9=78|35=8|34=358|49=COEPEXCH|52=20200613-03:28:51.127|56=EXECLINKS|37=1|39=0|150=0|10=249|8=FIX.4.4|9=78|35=8|34=359|49=COEPEXCH|52=20200613-03:28:51.127|56=EXECLINKS|37=2|39=0|150=0|10=251|8=FIX.4.4|9=99|35=8|34=360|49=COEPEXCH|52=20200613-03:28:51.128|56=EXECLINKS|37=2|38=1|39=2|44=87.0|55=amzn|150=F|10=186|8=FIX.4.4|9=99|35=8|34=361|49=COEPEXCH|52=20200613-03:28:51.128|56=EXECLINKS|37=1|38=1|39=1|44=87.0|55=amzn|150=F|10=185|8=FIX.4.4|9=78|35=8|34=362|49=COEPEXCH|52=20200613-03:28:51.129|56=EXECLINKS|37=3|39=0|150=0|10=248|8=FIX.4.4|9=99|35=8|34=363|49=COEPEXCH|52=20200613-03:28:51.129|56=EXECLINKS|37=3|38=1|39=2|44=87.0|55=amzn|150=F|10=191|8=FIX.4.4|9=99|35=8|34=364|49=COEPEXCH|52=20200613-03:28:51.129|56=EXECLINKS|37=1|38=1|39=2|44=87.0|55=amzn|150=F|10=190|8=FIX.4.4|9=62|35=5|34=365|49=COEPEXCH|52=20200613-03:28:51.129|56=EXECLINKS|10=056|8=FIX.4.4|9=73|35=A|34=366|49=COEPEXCH|52=20200613-03:29:35.907|56=EXECLINKS|98=0|108=1|10=053|8=FIX.4.4|9=78|35=8|34=367|49=COEPEXCH|52=20200613-03:29:35.973|56=EXECLINKS|37=1|39=0|150=0|10=005|8=FIX.4.4|9=78|35=8|34=368|49=COEPEXCH|52=20200613-03:29:35.974|56=EXECLINKS|37=2|39=0|150=0|10=008|8=FIX.4.4|9=99|35=8|34=369|49=COEPEXCH|52=20200613-03:29:35.975|56=EXECLINKS|37=2|38=1|39=2|44=87.0|55=amzn|150=F|10=208|8=FIX.4.4|9=99|35=8|34=370|49=COEPEXCH|52=20200613-03:29:35.975|56=EXECLINKS|37=1|38=1|39=1|44=87.0|55=amzn|150=F|10=198|8=FIX.4.4|9=78|35=8|34=371|49=COEPEXCH|52=20200613-03:29:35.976|56=EXECLINKS|37=3|39=0|150=0|10=005|8=FIX.4.4|9=99|35=8|34=372|49=COEPEXCH|52=20200613-03:29:35.976|56=EXECLINKS|37=3|38=1|39=2|44=87.0|55=amzn|150=F|10=204|8=FIX.4.4|9=99|35=8|34=373|49=COEPEXCH|52=20200613-03:29:35.976|56=EXECLINKS|37=1|38=1|39=2|44=87.0|55=amzn|150=F|10=203|8=FIX.4.4|9=62|35=5|34=374|49=COEPEXCH|52=20200613-03:29:35.976|56=EXECLINKS|10=069|8=FIX.4.4|9=73|35=A|34=375|49=COEPEXCH|52=20200613-03:51:02.169|56=EXECLINKS|98=0|108=1|10=042|8=FIX.4.4|9=78|35=8|34=376|49=COEPEXCH|52=20200613-03:51:02.235|56=EXECLINKS|37=1|39=0|150=0|10=241|8=FIX.4.4|9=78|35=8|34=377|49=COEPEXCH|52=20200613-03:51:02.236|56=EXECLINKS|37=2|39=0|150=0|10=244|8=FIX.4.4|9=99|35=8|34=378|49=COEPEXCH|52=20200613-03:51:02.237|56=EXECLINKS|37=2|38=1|39=2|44=87.0|55=amzn|150=F|10=188|8=FIX.4.4|9=99|35=8|34=379|49=COEPEXCH|52=20200613-03:51:02.237|56=EXECLINKS|37=1|38=1|39=1|44=87.0|55=amzn|150=F|10=187|8=FIX.4.4|9=78|35=8|34=380|49=COEPEXCH|52=20200613-03:51:02.239|56=EXECLINKS|37=3|39=0|150=0|10=242|8=FIX.4.4|9=99|35=8|34=381|49=COEPEXCH|52=20200613-03:51:02.239|56=EXECLINKS|37=3|38=1|39=2|44=87.0|55=amzn|150=F|10=185|8=FIX.4.4|9=99|35=8|34=382|49=COEPEXCH|52=20200613-03:51:02.239|56=EXECLINKS|37=1|38=1|39=2|44=87.0|55=amzn|150=F|10=184|8=FIX.4.4|9=62|35=5|34=383|49=COEPEXCH|52=20200613-03:51:02.240|56=EXECLINKS|10=042|8=FIX.4.4|9=73|35=A|34=384|49=COEPEXCH|52=20200613-03:51:53.654|56=EXECLINKS|98=0|108=1|10=047|8=FIX.4.4|9=78|35=8|34=385|49=COEPEXCH|52=20200613-03:51:53.722|56=EXECLINKS|37=1|39=0|150=0|10=248|8=FIX.4.4|9=99|35=8|34=386|49=COEPEXCH|52=20200613-03:51:53.723|56=EXECLINKS|37=3|38=1|39=2|44=87.0|55=amzn|150=F|10=194|8=FIX.4.4|9=99|35=8|34=387|49=COEPEXCH|52=20200613-03:51:53.723|56=EXECLINKS|37=1|38=1|39=1|44=87.0|55=amzn|150=F|10=192|8=FIX.4.4|9=78|35=8|34=388|49=COEPEXCH|52=20200613-03:51:53.724|56=EXECLINKS|37=2|39=0|150=0|10=254|8=FIX.4.4|9=99|35=8|34=389|49=COEPEXCH|52=20200613-03:51:53.724|56=EXECLINKS|37=2|38=1|39=2|44=87.0|55=amzn|150=F|10=197|8=FIX.4.4|9=99|35=8|34=390|49=COEPEXCH|52=20200613-03:51:53.724|56=EXECLINKS|37=1|38=1|39=2|44=87.0|55=amzn|150=F|10=188|8=FIX.4.4|9=78|35=8|34=391|49=COEPEXCH|52=20200613-03:51:53.725|56=EXECLINKS|37=3|39=0|150=0|10=250|8=FIX.4.4|9=78|35=8|34=392|49=COEPEXCH|52=20200613-03:51:53.725|56=EXECLINKS|37=4|39=0|150=0|10=252|8=FIX.4.4|9=62|35=5|34=393|49=COEPEXCH|52=20200613-03:51:53.726|56=EXECLINKS|10=058|8=FIX.4.4|9=73|35=A|34=394|49=COEPEXCH|52=20200613-03:52:14.741|56=EXECLINKS|98=0|108=1|10=043|8=FIX.4.4|9=78|35=8|34=395|49=COEPEXCH|52=20200613-03:52:14.807|56=EXECLINKS|37=1|39=0|150=0|10=251|8=FIX.4.4|9=99|35=8|34=396|49=COEPEXCH|52=20200613-03:52:14.807|56=EXECLINKS|37=3|38=1|39=2|44=87.0|55=amzn|150=F|10=196|8=FIX.4.4|9=99|35=8|34=397|49=COEPEXCH|52=20200613-03:52:14.807|56=EXECLINKS|37=1|38=1|39=1|44=87.0|55=amzn|150=F|10=194|8=FIX.4.4|9=99|35=8|34=398|49=COEPEXCH|52=20200613-03:52:14.807|56=EXECLINKS|37=2|38=1|39=2|44=87.0|55=amzn|150=F|10=197|8=FIX.4.4|9=99|35=8|34=399|49=COEPEXCH|52=20200613-03:52:14.808|56=EXECLINKS|37=1|38=1|39=2|44=87.0|55=amzn|150=F|10=198|8=FIX.4.4|9=78|35=8|34=400|49=COEPEXCH|52=20200613-03:52:14.808|56=EXECLINKS|37=2|39=0|150=0|10=240|8=FIX.4.4|9=78|35=8|34=401|49=COEPEXCH|52=20200613-03:52:14.809|56=EXECLINKS|37=3|39=0|150=0|10=243|8=FIX.4.4|9=78|35=8|34=402|49=COEPEXCH|52=20200613-03:52:14.809|56=EXECLINKS|37=4|39=0|150=0|10=245|8=FIX.4.4|9=62|35=5|34=403|49=COEPEXCH|52=20200613-03:52:14.810|56=EXECLINKS|10=042|8=FIX.4.4|9=73|35=A|34=404|49=COEPEXCH|52=20200613-03:52:38.169|56=EXECLINKS|98=0|108=1|10=045|8=FIX.4.4|9=78|35=8|34=405|49=COEPEXCH|52=20200613-03:52:38.237|56=EXECLINKS|37=1|39=0|150=0|10=246|8=FIX.4.4|9=78|35=8|34=406|49=COEPEXCH|52=20200613-03:52:38.238|56=EXECLINKS|37=2|39=0|150=0|10=249|8=FIX.4.4|9=99|35=8|34=407|49=COEPEXCH|52=20200613-03:52:38.238|56=EXECLINKS|37=2|38=1|39=2|44=87.0|55=amzn|150=F|10=192|8=FIX.4.4|9=99|35=8|34=408|49=COEPEXCH|52=20200613-03:52:38.238|56=EXECLINKS|37=1|38=1|39=1|44=87.0|55=amzn|150=F|10=191|8=FIX.4.4|9=78|35=8|34=409|49=COEPEXCH|52=20200613-03:52:38.239|56=EXECLINKS|37=3|39=0|150=0|10=254|8=FIX.4.4|9=99|35=8|34=410|49=COEPEXCH|52=20200613-03:52:38.239|56=EXECLINKS|37=3|38=1|39=2|44=87.0|55=amzn|150=F|10=188|8=FIX.4.4|9=99|35=8|34=411|49=COEPEXCH|52=20200613-03:52:38.239|56=EXECLINKS|37=1|38=1|39=2|44=87.0|55=amzn|150=F|10=187|8=FIX.4.4|9=78|35=8|34=412|49=COEPEXCH|52=20200613-03:52:38.240|56=EXECLINKS|37=4|39=0|150=0|10=241|8=FIX.4.4|9=62|35=5|34=413|49=COEPEXCH|52=20200613-03:52:38.240|56=EXECLINKS|10=046|8=FIX.4.4|9=73|35=A|34=414|49=COEPEXCH|52=20200613-03:53:59.659|56=EXECLINKS|98=0|108=1|10=054|8=FIX.4.4|9=73|35=A|34=415|49=COEPEXCH|52=20200613-03:54:25.292|56=EXECLINKS|98=0|108=1|10=042|8=FIX.4.4|9=78|35=8|34=416|49=COEPEXCH|52=20200613-03:54:25.361|56=EXECLINKS|37=1|39=0|150=0|10=244|8=FIX.4.4|9=78|35=8|34=417|49=COEPEXCH|52=20200613-03:54:25.362|56=EXECLINKS|37=2|39=0|150=0|10=247|8=FIX.4.4|9=99|35=8|34=418|49=COEPEXCH|52=20200613-03:54:25.363|56=EXECLINKS|37=2|38=1|39=2|44=87.0|55=amzn|150=F|10=191|8=FIX.4.4|9=99|35=8|34=419|49=COEPEXCH|52=20200613-03:54:25.363|56=EXECLINKS|37=1|38=1|39=1|44=87.0|55=amzn|150=F|10=190|8=FIX.4.4|9=78|35=8|34=420|49=COEPEXCH|52=20200613-03:54:25.364|56=EXECLINKS|37=3|39=0|150=0|10=244|8=FIX.4.4|9=99|35=8|34=421|49=COEPEXCH|52=20200613-03:54:25.364|56=EXECLINKS|37=3|38=1|39=2|44=87.0|55=amzn|150=F|10=187|8=FIX.4.4|9=99|35=8|34=422|49=COEPEXCH|52=20200613-03:54:25.364|56=EXECLINKS|37=1|38=1|39=2|44=87.0|55=amzn|150=F|10=186|8=FIX.4.4|9=78|35=8|34=423|49=COEPEXCH|52=20200613-03:54:25.364|56=EXECLINKS|37=4|39=0|150=0|10=248|8=FIX.4.4|9=62|35=5|34=424|49=COEPEXCH|52=20200613-03:54:25.365|56=EXECLINKS|10=054|8=FIX.4.4|9=73|35=A|34=425|49=COEPEXCH|52=20200613-05:16:50.504|56=EXECLINKS|98=0|108=1|10=037|8=FIX.4.4|9=78|35=8|34=426|49=COEPEXCH|52=20200613-05:16:50.615|56=EXECLINKS|37=1|39=0|150=0|10=245|8=FIX.4.4|9=78|35=8|34=427|49=COEPEXCH|52=20200613-05:16:50.616|56=EXECLINKS|37=2|39=0|150=0|10=248|8=FIX.4.4|9=99|35=8|34=428|49=COEPEXCH|52=20200613-05:16:50.616|56=EXECLINKS|37=2|38=1|39=2|44=87.0|55=amzn|150=F|10=191|8=FIX.4.4|9=99|35=8|34=429|49=COEPEXCH|52=20200613-05:16:50.617|56=EXECLINKS|37=1|38=1|39=1|44=87.0|55=amzn|150=F|10=191|8=FIX.4.4|9=78|35=8|34=430|49=COEPEXCH|52=20200613-05:16:50.618|56=EXECLINKS|37=3|39=0|150=0|10=245|8=FIX.4.4|9=99|35=8|34=431|49=COEPEXCH|52=20200613-05:16:50.619|56=EXECLINKS|37=3|38=1|39=2|44=87.0|55=amzn|150=F|10=189|8=FIX.4.4|9=99|35=8|34=432|49=COEPEXCH|52=20200613-05:16:50.619|56=EXECLINKS|37=1|38=1|39=2|44=87.0|55=amzn|150=F|10=188|8=FIX.4.4|9=78|35=8|34=433|49=COEPEXCH|52=20200613-05:16:50.620|56=EXECLINKS|37=4|39=0|150=0|10=242|8=FIX.4.4|9=62|35=5|34=434|49=COEPEXCH|52=20200613-05:16:50.620|56=EXECLINKS|10=047|