8=FIX.4.4|9=104|35=W|34=1|49=COEPEXCH|52=20200612-03:23:21.649|56=REALTIMEMARKETS|55=amzn|268=1|269=0|270=87|271=2|37=3|10=131|8=FIX.4.4|9=128|35=W|34=2|49=COEPEXCH|52=20200612-03:23:31.658|56=REALTIMEMARKETS|55=amzn|268=2|269=0|270=87|271=2|37=3|269=0|270=87|271=2|37=3|10=198|8=FIX.4.4|9=152|35=W|34=3|49=COEPEXCH|52=20200612-03:23:41.668|56=REALTIMEMARKETS|55=amzn|268=3|269=0|270=87|271=2|37=3|269=0|270=87|271=2|37=3|269=0|270=87|271=2|37=3|10=001|8=FIX.4.4|9=152|35=W|34=4|49=COEPEXCH|52=20200612-03:23:51.682|56=REALTIMEMARKETS|55=amzn|268=3|269=0|270=87|271=2|37=3|269=0|270=87|271=2|37=3|269=0|270=87|271=2|37=3|10=255|8=FIX.4.4|9=152|35=W|34=5|49=COEPEXCH|52=20200612-03:24:01.690|56=REALTIMEMARKETS|55=amzn|268=3|269=0|270=87|271=2|37=3|269=0|270=87|271=2|37=3|269=0|270=87|271=2|37=3|10=251|8=FIX.4.4|9=152|35=W|34=6|49=COEPEXCH|52=20200612-03:24:11.701|56=REALTIMEMARKETS|55=amzn|268=3|269=0|270=87|271=2|37=3|269=0|270=87|271=2|37=3|269=0|270=87|271=2|37=3|10=246|8=FIX.4.4|9=104|35=W|34=7|49=COEPEXCH|52=20200612-03:24:56.320|56=REALTIMEMARKETS|55=amzn|268=1|269=0|270=87|271=2|37=3|10=132|8=FIX.4.4|9=128|35=W|34=8|49=COEPEXCH|52=20200612-03:24:56.322|56=REALTIMEMARKETS|55=amzn|268=2|269=0|270=87|271=2|37=3|269=0|270=87|271=2|37=3|10=200|8=FIX.4.4|9=152|35=W|34=9|49=COEPEXCH|52=20200612-03:24:56.323|56=REALTIMEMARKETS|55=amzn|268=3|269=0|270=87|271=2|37=3|269=0|270=87|271=2|37=3|269=0|270=87|271=2|37=3|10=002|8=FIX.4.4|9=153|35=W|34=10|49=COEPEXCH|52=20200612-03:24:56.359|56=REALTIMEMARKETS|55=amzn|268=3|269=0|270=87|271=2|37=3|269=0|270=87|271=2|37=3|269=0|270=87|271=2|37=3|10=052|8=FIX.4.4|9=153|35=W|34=11|49=COEPEXCH|52=20200612-03:25:06.373|56=REALTIMEMARKETS|55=amzn|268=3|269=0|270=87|271=2|37=3|269=0|270=87|271=2|37=3|269=0|270=87|271=2|37=3|10=045|8=FIX.4.4|9=153|35=W|34=12|49=COEPEXCH|52=20200612-03:25:16.382|56=REALTIMEMARKETS|55=amzn|268=3|269=0|270=87|271=2|37=3|269=0|270=87|271=2|37=3|269=0|270=87|271=2|37=3|10=047|8=FIX.4.4|9=153|35=W|34=13|49=COEPEXCH|52=20200612-03:25:26.388|56=REALTIMEMARKETS|55=amzn|268=3|269=0|270=87|271=2|37=3|269=0|270=87|271=2|37=3|269=0|270=87|271=2|37=3|10=055|8=FIX.4.4|9=153|35=W|34=14|49=COEPEXCH|52=20200612-03:25:36.399|56=REALTIMEMARKETS|55=amzn|268=3|269=0|270=87|271=2|37=3|269=0|270=87|271=2|37=3|269=0|270=87|271=2|37=3|10=059|8=FIX.4.4|9=153|35=W|34=15|49=COEPEXCH|52=20200612-03:25:46.411|56=REALTIMEMARKETS|55=amzn|268=3|269=0|270=87|271=2|37=3|269=0|270=87|271=2|37=3|269=0|270=87|271=2|37=3|10=046|8=FIX.4.4|9=153|35=W|34=16|49=COEPEXCH|52=20200612-03:25:56.419|56=REALTIMEMARKETS|55=amzn|268=3|269=0|270=87|271=2|37=3|269=0|270=87|271=2|37=3|269=0|270=87|271=2|37=3|10=056|8=FIX.4.4|9=153|35=W|34=17|49=COEPEXCH|52=20200612-03:26:06.435|56=REALTIMEMARKETS|55=amzn|268=3|269=0|270=87|271=2|37=3|269=0|270=87|271=2|37=3|269=0|270=87|271=2|37=3|10=051|8=FIX.4.4|9=153|35=W|34=18|49=COEPEXCH|52=20200612-03:26:16.442|56=REALTIMEMARKETS|55=amzn|268=3|269=0|270=87|271=2|37=3|269=0|270=87|271=2|37=3|269=0|270=87|271=2|37=3|10=051|8=FIX.4.4|9=153|35=W|34=19|49=COEPEXCH|52=20200612-03:26:26.454|56=REALTIMEMARKETS|55=amzn|268=3|269=0|270=87|271=2|37=3|269=0|270=87|271=2|37=3|269=0|270=87|271=2|37=3|10=056|8=FIX.4.4|9=153|35=W|34=20|49=COEPEXCH|52=20200612-03:26:36.466|56=REALTIMEMARKETS|55=amzn|268=3|269=0|270=87|271=2|37=3|269=0|270=87|271=2|37=3|269=0|270=87|271=2|37=3|10=052|8=FIX.4.4|9=105|35=W|34=21|49=COEPEXCH|52=20200612-05:52:10.035|56=REALTIMEMARKETS|55=amzn|268=1|269=0|270=87|271=2|37=3|10=173|8=FIX.4.4|9=129|35=W|34=22|49=COEPEXCH|52=20200612-05:52:20.046|56=REALTIMEMARKETS|55=amzn|268=2|269=0|270=87|271=2|37=3|269=0|270=87|271=2|37=3|10=242|8=FIX.4.4|9=153|35=W|34=23|49=COEPEXCH|52=20200612-05:52:30.060|56=REALTIMEMARKETS|55=amzn|268=3|269=0|270=87|271=2|37=3|269=0|270=87|271=2|37=3|269=0|270=87|271=2|37=3|10=040|8=FIX.4.4|9=153|35=W|34=24|49=COEPEXCH|52=20200612-05:52:40.074|56=REALTIMEMARKETS|55=amzn|268=3|269=0|270=87|271=2|37=3|269=0|270=87|271=2|37=3|269=0|270=87|271=2|37=3|10=047|8=FIX.4.4|9=153|35=W|34=25|49=COEPEXCH|52=20200612-05:52:50.080|56=REALTIMEMARKETS|55=amzn|268=3|269=0|270=87|271=2|37=3|269=0|270=87|271=2|37=3|269=0|270=87|271=2|37=3|10=046|8=FIX.4.4|9=153|35=W|34=26|49=COEPEXCH|52=20200612-05:53:00.091|56=REALTIMEMARKETS|55=amzn|268=3|269=0|270=87|271=2|37=3|269=0|270=87|271=2|37=3|269=0|270=87|271=2|37=3|10=045|8=FIX.4.4|9=153|35=W|34=27|49=COEPEXCH|52=20200612-05:53:10.101|56=REALTIMEMARKETS|55=amzn|268=3|269=0|270=87|271=2|37=3|269=0|270=87|271=2|37=3|269=0|270=87|271=2|37=3|10=039|8=FIX.4.4|9=153|35=W|34=28|49=COEPEXCH|52=20200612-05:53:20.110|56=REALTIMEMARKETS|55=amzn|268=3|269=0|270=87|271=2|37=3|269=0|270=87|271=2|37=3|269=0|270=87|271=2|37=3|10=041|8=FIX.4.4|9=105|35=W|34=29|49=COEPEXCH|52=20200612-05:56:29.611|56=REALTIMEMARKETS|55=amzn|268=1|269=0|270=87|271=2|37=3|10=195|8=FIX.4.4|9=79|35=A|34=30|49=COEPEXCH|52=20200612-05:56:31.867|56=REALTIMEMARKETS|98=0|108=20|10=246|8=FIX.4.4|9=129|35=W|34=31|49=COEPEXCH|52=20200612-05:56:39.622|56=REALTIMEMARKETS|55=amzn|268=2|269=0|270=87|271=2|37=3|269=0|270=87|271=2|37=3|10=000|8=FIX.4.4|9=79|35=A|34=32|49=COEPEXCH|52=20200612-05:56:53.130|56=REALTIMEMARKETS|98=0|108=20|10=235|8=FIX.4.4|9=105|35=W|34=33|49=COEPEXCH|52=20200612-05:56:55.789|56=REALTIMEMARKETS|55=amzn|268=1|269=0|270=87|271=2|37=3|10=205|8=FIX.4.4|9=129|35=W|34=34|49=COEPEXCH|52=20200612-05:57:05.801|56=REALTIMEMARKETS|55=amzn|268=2|269=0|270=87|271=2|37=3|269=0|270=87|271=2|37=3|10=252|8=FIX.4.4|9=153|35=W|34=35|49=COEPEXCH|52=20200612-05:57:15.814|56=REALTIMEMARKETS|55=amzn|268=3|269=0|270=87|271=2|37=3|269=0|270=87|271=2|37=3|269=0|270=87|271=2|37=3|10=058|8=FIX.4.4|9=76|35=0|34=36|49=COEPEXCH|52=20200612-05:57:19.669|56=REALTIMEMARKETS|112=TEST|10=233|8=FIX.4.4|9=153|35=W|34=37|49=COEPEXCH|52=20200612-05:57:25.821|56=REALTIMEMARKETS|55=amzn|268=3|269=0|270=87|271=2|37=3|269=0|270=87|271=2|37=3|269=0|270=87|271=2|37=3|10=059|8=FIX.4.4|9=153|35=W|34=38|49=COEPEXCH|52=20200612-05:57:35.829|56=REALTIMEMARKETS|55=amzn|268=3|269=0|270=87|271=2|37=3|269=0|270=87|271=2|37=3|269=0|270=87|271=2|37=3|10=069|8=FIX.4.4|9=76|35=0|34=39|49=COEPEXCH|52=20200612-05:57:43.493|56=REALTIMEMARKETS|112=TEST|10=228|8=FIX.4.4|9=153|35=W|34=40|49=COEPEXCH|52=20200612-05:57:45.839|56=REALTIMEMARKETS|55=amzn|268=3|269=0|270=87|271=2|37=3|269=0|270=87|271=2|37=3|269=0|270=87|271=2|37=3|10=064|8=FIX.4.4|9=79|35=A|34=41|49=COEPEXCH|52=20200612-05:57:50.183|56=REALTIMEMARKETS|98=0|108=20|10=241|8=FIX.4.4|9=153|35=W|34=42|49=COEPEXCH|52=20200612-05:57:55.856|56=REALTIMEMARKETS|55=amzn|268=3|269=0|270=87|271=2|37=3|269=0|270=87|271=2|37=3|269=0|270=87|271=2|37=3|10=066|8=FIX.4.4|9=79|35=A|34=43|49=COEPEXCH|52=20200612-05:58:07.739|56=REALTIMEMARKETS|98=0|108=20|10=253|8=FIX.4.4|9=105|35=W|34=44|49=COEPEXCH|52=20200612-05:58:30.400|56=REALTIMEMARKETS|55=amzn|268=1|269=0|270=87|271=2|37=3|10=182|8=FIX.4.4|9=129|35=W|34=45|49=COEPEXCH|52=20200612-05:58:30.446|56=REALTIMEMARKETS|55=amzn|268=2|269=0|270=87|271=2|37=3|269=0|270=87|271=2|37=3|10=002|8=FIX.4.4|9=79|35=A|34=46|49=COEPEXCH|52=20200612-05:58:34.734|56=REALTIMEMARKETS|98=0|108=20|10=251|8=FIX.4.4|9=153|35=W|34=47|49=COEPEXCH|52=20200612-05:58:40.466|56=REALTIMEMARKETS|55=amzn|268=3|269=0|270=87|271=2|37=3|269=0|270=87|271=2|37=3|269=0|270=87|271=2|37=3|10=063|8=FIX.4.4|9=153|35=W|34=48|49=COEPEXCH|52=20200612-05:58:50.486|56=REALTIMEMARKETS|55=amzn|268=3|269=0|270=87|271=2|37=3|269=0|270=87|271=2|37=3|269=0|270=87|271=2|37=3|10=067|8=FIX.4.4|9=105|35=W|34=49|49=COEPEXCH|52=20200612-06:01:29.349|56=REALTIMEMARKETS|55=amzn|268=1|269=0|270=87|271=2|37=3|10=196|8=FIX.4.4|9=129|35=W|34=50|49=COEPEXCH|52=20200612-06:01:39.364|56=REALTIMEMARKETS|55=amzn|268=2|269=0|270=87|271=2|37=3|269=0|270=87|271=2|37=3|10=251|8=FIX.4.4|9=105|35=W|34=51|49=COEPEXCH|52=20200612-06:05:20.782|56=REALTIMEMARKETS|55=amzn|268=1|269=0|270=87|271=2|37=3|10=185|8=FIX.4.4|9=129|35=W|34=52|49=COEPEXCH|52=20200612-06:05:20.783|56=REALTIMEMARKETS|55=amzn|268=2|269=0|270=87|271=2|37=3|269=0|270=87|271=2|37=3|10=252|8=FIX.4.4|9=153|35=W|34=53|49=COEPEXCH|52=20200612-06:05:20.784|56=REALTIMEMARKETS|55=amzn|268=3|269=0|270=87|271=2|37=3|269=0|270=87|271=2|37=3|269=0|270=87|271=2|37=3|10=054|8=FIX.4.4|9=153|35=W|34=54|49=COEPEXCH|52=20200612-06:05:20.785|56=REALTIMEMARKETS|55=amzn|268=3|269=0|270=87|271=2|37=3|269=0|270=87|271=2|37=3|269=0|270=87|271=2|37=3|10=056|8=FIX.4.4|9=153|35=W|34=55|49=COEPEXCH|52=20200612-06:05:20.786|56=REALTIMEMARKETS|55=amzn|268=3|269=0|270=87|271=2|37=3|269=0|270=87|271=2|37=3|269=0|270=87|271=2|37=3|10=058|8=FIX.4.4|9=153|35=W|34=56|49=COEPEXCH|52=20200612-06:05:20.787|56=REALTIMEMARKETS|55=amzn|268=3|269=0|270=87|271=2|37=3|269=0|270=87|271=2|37=3|269=0|270=87|271=2|37=3|10=060|8=FIX.4.4|9=153|35=W|34=57|49=COEPEXCH|52=20200612-06:05:20.788|56=REALTIMEMARKETS|55=amzn|268=3|269=0|270=87|271=2|37=3|269=0|270=87|271=2|37=3|269=0|270=87|271=2|37=3|10=062|8=FIX.4.4|9=153|35=W|34=58|49=COEPEXCH|52=20200612-06:05:20.789|56=REALTIMEMARKETS|55=amzn|268=3|269=0|270=87|271=2|37=3|269=0|270=87|271=2|37=3|269=0|270=87|271=2|37=3|10=064|8=FIX.4.4|9=153|35=W|34=59|49=COEPEXCH|52=20200612-06:05:20.792|56=REALTIMEMARKETS|55=amzn|268=3|269=0|270=87|271=2|37=3|269=0|270=87|271=2|37=3|269=0|270=87|271=2|37=3|10=059|8=FIX.4.4|9=153|35=W|34=60|49=COEPEXCH|52=20200612-06:05:20.793|56=REALTIMEMARKETS|55=amzn|268=3|269=0|270=87|271=2|37=3|269=0|270=87|271=2|37=3|269=0|270=87|271=2|37=3|10=052|8=FIX.4.4|9=153|35=W|34=61|49=COEPEXCH|52=20200612-06:05:20.794|56=REALTIMEMARKETS|55=amzn|268=3|269=0|270=87|271=2|37=3|269=0|270=87|271=2|37=3|269=0|270=87|271=2|37=3|10=054|8=FIX.4.4|9=153|35=W|34=62|49=COEPEXCH|52=20200612-06:05:20.798|56=REALTIMEMARKETS|55=amzn|268=3|269=0|270=87|271=2|37=3|269=0|270=87|271=2|37=3|269=0|270=87|271=2|37=3|10=059|8=FIX.4.4|9=153|35=W|34=63|49=COEPEXCH|52=20200612-06:05:20.799|56=REALTIMEMARKETS|55=amzn|268=3|269=0|270=87|271=2|37=3|269=0|270=87|271=2|37=3|269=0|270=87|271=2|37=3|10=061|8=FIX.4.4|9=153|35=W|34=64|49=COEPEXCH|52=20200612-06:05:20.801|56=REALTIMEMARKETS|55=amzn|268=3|269=0|270=87|271=2|37=3|269=0|270=87|271=2|37=3|269=0|270=87|271=2|37=3|10=046|8=FIX.4.4|9=153|35=W|34=65|49=COEPEXCH|52=20200612-06:05:20.803|56=REALTIMEMARKETS|55=amzn|268=3|269=0|270=87|271=2|37=3|269=0|270=87|271=2|37=3|269=0|270=87|271=2|37=3|10=049|8=FIX.4.4|9=153|35=W|34=66|49=COEPEXCH|52=20200612-06:05:20.804|56=REALTIMEMARKETS|55=amzn|268=3|269=0|270=87|271=2|37=3|269=0|270=87|271=2|37=3|269=0|270=87|271=2|37=3|10=051|8=FIX.4.4|9=153|35=W|34=67|49=COEPEXCH|52=20200612-06:05:20.805|56=REALTIMEMARKETS|55=amzn|268=3|269=0|270=87|271=2|37=3|269=0|270=87|271=2|37=3|269=0|270=87|271=2|37=3|10=053|8=FIX.4.4|9=153|35=W|34=68|49=COEPEXCH|52=20200612-06:05:20.807|56=REALTIMEMARKETS|55=amzn|268=3|269=0|270=87|271=2|37=3|269=0|270=87|271=2|37=3|269=0|270=87|271=2|37=3|10=056|8=FIX.4.4|9=153|35=W|34=69|49=COEPEXCH|52=20200612-06:05:20.826|56=REALTIMEMARKETS|55=amzn|268=3|269=0|270=87|271=2|37=3|269=0|270=87|271=2|37=3|269=0|270=87|271=2|37=3|10=058|8=FIX.4.4|9=105|35=W|34=70|49=COEPEXCH|52=20200612-06:05:31.404|56=REALTIMEMARKETS|55=amzn|268=1|269=0|270=87|271=2|37=3|10=179|8=FIX.4.4|9=129|35=W|34=71|49=COEPEXCH|52=20200612-06:05:41.417|56=REALTIMEMARKETS|55=amzn|268=2|269=0|270=87|271=2|37=3|269=0|270=87|271=2|37=3|10=250|8=FIX.4.4|9=79|35=A|34=72|49=COEPEXCH|52=20200612-06:08:38.382|56=REALTIMEMARKETS|98=0|108=20|10=249|8=FIX.4.4|9=79|35=A|34=73|49=COEPEXCH|52=20200612-06:08:42.634|56=REALTIMEMARKETS|98=0|108=20|10=245|8=FIX.4.4|9=77|35=2|34=74|49=COEPEXCH|52=20200612-06:08:42.634|56=REALTIMEMARKETS|7=67|16=0|10=132|8=FIX.4.4|9=79|35=A|34=75|49=COEPEXCH|52=20200612-06:10:16.947|56=REALTIMEMARKETS|98=0|108=20|10=248|8=FIX.4.4|9=77|35=2|34=76|49=COEPEXCH|52=20200612-06:10:16.947|56=REALTIMEMARKETS|7=69|16=0|10=137|8=FIX.4.4|9=79|35=A|34=77|49=COEPEXCH|52=20200612-06:10:46.813|56=REALTIMEMARKETS|98=0|108=20|10=245|8=FIX.4.4|9=77|35=2|34=78|49=COEPEXCH|52=20200612-06:10:46.813|56=REALTIMEMARKETS|7=76|16=0|10=132|8=FIX.4.4|9=79|35=A|34=79|49=COEPEXCH|52=20200612-06:12:25.651|56=REALTIMEMARKETS|98=0|108=20|10=246|8=FIX.4.4|9=77|35=2|34=80|49=COEPEXCH|52=20200612-06:12:25.651|56=REALTIMEMARKETS|7=83|16=0|10=122|8=FIX.4.4|9=79|35=A|34=81|49=COEPEXCH|52=20200612-06:14:08.674|56=REALTIMEMARKETS|98=0|108=20|10=247|8=FIX.4.4|9=77|35=2|34=82|49=COEPEXCH|52=20200612-06:14:08.674|56=REALTIMEMARKETS|7=85|16=0|10=134|8=FIX.4.4|9=75|35=W|34=83|49=COEPEXCH|52=20200612-06:14:08.707|56=REALTIMEMARKETS|55=amzn|10=078|8=FIX.4.4|9=105|35=W|34=84|49=COEPEXCH|52=20200612-06:14:18.721|56=REALTIMEMARKETS|55=amzn|268=1|269=0|270=87|271=2|37=3|10=191|8=FIX.4.4|9=129|35=W|34=85|49=COEPEXCH|52=20200612-06:14:28.732|56=REALTIMEMARKETS|55=amzn|268=2|269=0|270=87|271=2|37=3|269=0|270=87|271=2|37=3|10=004|8=FIX.4.4|9=153|35=W|34=86|49=COEPEXCH|52=20200612-06:14:38.742|56=REALTIMEMARKETS|55=amzn|268=3|269=0|270=87|271=2|37=3|269=0|270=87|271=2|37=3|269=0|270=87|271=2|37=3|10=063|8=FIX.4.4|9=79|35=A|34=87|49=COEPEXCH|52=20200612-06:15:11.210|56=REALTIMEMARKETS|98=0|108=20|10=234|8=FIX.4.4|9=105|35=W|34=88|49=COEPEXCH|52=20200612-06:15:11.242|56=REALTIMEMARKETS|55=amzn|268=1|269=0|270=87|271=2|37=3|10=187|8=FIX.4.4|9=105|35=W|34=89|49=COEPEXCH|52=20200612-06:15:12.246|56=REALTIMEMARKETS|55=amzn|268=1|269=0|270=87|271=2|37=3|10=193|8=FIX.4.4|9=105|35=W|34=90|49=COEPEXCH|52=20200612-06:15:13.248|56=REALTIMEMARKETS|55=amzn|268=1|269=0|270=87|271=2|37=3|10=188|8=FIX.4.4|9=105|35=W|34=91|49=COEPEXCH|52=20200612-06:15:14.250|56=REALTIMEMARKETS|55=amzn|268=1|269=0|270=87|271=2|37=3|10=183|8=FIX.4.4|9=105|35=W|34=92|49=COEPEXCH|52=20200612-06:15:15.254|56=REALTIMEMARKETS|55=amzn|268=1|269=0|270=87|271=2|37=3|10=189|8=FIX.4.4|9=105|35=W|34=93|49=COEPEXCH|52=20200612-06:15:16.254|56=REALTIMEMARKETS|55=amzn|268=1|269=0|270=87|271=2|37=3|10=191|8=FIX.4.4|9=129|35=W|34=94|49=COEPEXCH|52=20200612-06:15:17.258|56=REALTIMEMARKETS|55=amzn|268=2|269=0|270=87|271=2|37=3|269=0|270=87|271=2|37=3|10=006|8=FIX.4.4|9=129|35=W|34=95|49=COEPEXCH|52=20200612-06:15:18.260|56=REALTIMEMARKETS|55=amzn|268=2|269=0|270=87|271=2|37=3|269=0|270=87|271=2|37=3|10=001|8=FIX.4.4|9=129|35=W|34=96|49=COEPEXCH|52=20200612-06:15:19.263|56=REALTIMEMARKETS|55=amzn|268=2|269=0|270=87|271=2|37=3|269=0|270=87|271=2|37=3|10=006|8=FIX.4.4|9=129|35=W|34=97|49=COEPEXCH|52=20200612-06:15:20.265|56=REALTIMEMARKETS|55=amzn|268=2|269=0|270=87|271=2|37=3|269=0|270=87|271=2|37=3|10=001|8=FIX.4.4|9=129|35=W|34=98|49=COEPEXCH|52=20200612-06:15:21.268|56=REALTIMEMARKETS|55=amzn|268=2|269=0|270=87|271=2|37=3|269=0|270=87|271=2|37=3|10=006|8=FIX.4.4|9=129|35=W|34=99|49=COEPEXCH|52=20200612-06:15:22.271|56=REALTIMEMARKETS|55=amzn|268=2|269=0|270=87|271=2|37=3|269=0|270=87|271=2|37=3|10=002|8=FIX.4.4|9=130|35=W|34=100|49=COEPEXCH|52=20200612-06:15:23.272|56=REALTIMEMARKETS|55=amzn|268=2|269=0|270=87|271=2|37=3|269=0|270=87|271=2|37=3|10=027|8=FIX.4.4|9=130|35=W|34=101|49=COEPEXCH|52=20200612-06:15:24.274|56=REALTIMEMARKETS|55=amzn|268=2|269=0|270=87|271=2|37=3|269=0|270=87|271=2|37=3|10=031|8=FIX.4.4|9=130|35=W|34=102|49=COEPEXCH|52=20200612-06:15:25.276|56=REALTIMEMARKETS|55=amzn|268=2|269=0|270=87|271=2|37=3|269=0|270=87|271=2|37=3|10=035|8=FIX.4.4|9=130|35=W|34=103|49=COEPEXCH|52=20200612-06:15:26.280|56=REALTIMEMARKETS|55=amzn|268=2|269=0|270=87|271=2|37=3|269=0|270=87|271=2|37=3|10=032|8=FIX.4.4|9=154|35=W|34=104|49=COEPEXCH|52=20200612-06:15:27.282|56=REALTIMEMARKETS|55=amzn|268=3|269=0|270=87|271=2|37=3|269=0|270=87|271=2|37=3|269=0|270=87|271=2|37=3|10=101|8=FIX.4.4|9=154|35=W|34=105|49=COEPEXCH|52=20200612-06:15:28.285|56=REALTIMEMARKETS|55=amzn|268=3|269=0|270=87|271=2|37=3|269=0|270=87|271=2|37=3|269=0|270=87|271=2|37=3|10=106|8=FIX.4.4|9=154|35=W|34=106|49=COEPEXCH|52=20200612-06:15:29.287|56=REALTIMEMARKETS|55=amzn|268=3|269=0|270=87|271=2|37=3|269=0|270=87|271=2|37=3|269=0|270=87|271=2|37=3|10=110|8=FIX.4.4|9=154|35=W|34=107|49=COEPEXCH|52=20200612-06:15:30.289|56=REALTIMEMARKETS|55=amzn|268=3|269=0|270=87|271=2|37=3|269=0|270=87|271=2|37=3|269=0|270=87|271=2|37=3|10=105|8=FIX.4.4|9=154|35=W|34=108|49=COEPEXCH|52=20200612-06:15:31.294|56=REALTIMEMARKETS|55=amzn|268=3|269=0|270=87|271=2|37=3|269=0|270=87|271=2|37=3|269=0|270=87|271=2|37=3|10=103|8=FIX.4.4|9=154|35=W|34=109|49=COEPEXCH|52=20200612-06:15:32.297|56=REALTIMEMARKETS|55=amzn|268=3|269=0|270=87|271=2|37=3|269=0|270=87|271=2|37=3|269=0|270=87|271=2|37=3|10=108|8=FIX.4.4|9=154|35=W|34=110|49=COEPEXCH|52=20200612-06:15:33.300|56=REALTIMEMARKETS|55=amzn|268=3|269=0|270=87|271=2|37=3|269=0|270=87|271=2|37=3|269=0|270=87|271=2|37=3|10=086|8=FIX.4.4|9=154|35=W|34=111|49=COEPEXCH|52=20200612-06:15:34.302|56=REALTIMEMARKETS|55=amzn|268=3|269=0|270=87|271=2|37=3|269=0|270=87|271=2|37=3|269=0|270=87|271=2|37=3|10=090|8=FIX.4.4|9=154|35=W|34=112|49=COEPEXCH|52=20200612-06:15:35.312|56=REALTIMEMARKETS|55=amzn|268=3|269=0|270=87|271=2|37=3|269=0|270=87|271=2|37=3|269=0|270=87|271=2|37=3|10=093|8=FIX.4.4|9=154|35=W|34=113|49=COEPEXCH|52=20200612-06:15:36.309|56=REALTIMEMARKETS|55=amzn|268=3|269=0|270=87|271=2|37=3|269=0|270=87|271=2|37=3|269=0|270=87|271=2|37=3|10=101|8=FIX.4.4|9=154|35=W|34=114|49=COEPEXCH|52=20200612-06:15:37.318|56=REALTIMEMARKETS|55=amzn|268=3|269=0|270=87|271=2|37=3|269=0|270=87|271=2|37=3|269=0|270=87|271=2|37=3|10=103|8=FIX.4.4|9=154|35=W|34=115|49=COEPEXCH|52=20200612-06:15:38.318|56=REALTIMEMARKETS|55=amzn|268=3|269=0|270=87|271=2|37=3|269=0|270=87|271=2|37=3|269=0|270=87|271=2|37=3|10=105|8=FIX.4.4|9=154|35=W|34=116|49=COEPEXCH|52=20200612-06:15:39.325|56=REALTIMEMARKETS|55=amzn|268=3|269=0|270=87|271=2|37=3|269=0|270=87|271=2|37=3|269=0|270=87|271=2|37=3|10=105|8=FIX.4.4|9=77|35=0|34=117|49=COEPEXCH|52=20200612-06:15:40.221|56=REALTIMEMARKETS|112=TEST|10=255|8=FIX.4.4|9=154|35=W|34=118|49=COEPEXCH|52=20200612-06:15:40.325|56=REALTIMEMARKETS|55=amzn|268=3|269=0|270=87|271=2|37=3|269=0|270=87|271=2|37=3|269=0|270=87|271=2|37=3|10=099|8=FIX.4.4|9=80|35=A|34=119|49=COEPEXCH|52=20200612-06:16:00.293|56=REALTIMEMARKETS|98=0|108=20|10=024|8=FIX.4.4|9=106|35=W|34=120|49=COEPEXCH|52=20200612-06:16:00.328|56=REALTIMEMARKETS|55=amzn|268=1|269=0|270=87|271=2|37=3|10=227|8=FIX.4.4|9=106|35=W|34=121|49=COEPEXCH|52=20200612-06:16:00.329|56=REALTIMEMARKETS|55=amzn|268=1|269=0|270=87|271=2|37=3|10=229|8=FIX.4.4|9=106|35=W|34=122|49=COEPEXCH|52=20200612-06:16:00.330|56=REALTIMEMARKETS|55=amzn|268=1|269=0|270=87|271=2|37=3|10=222|8=FIX.4.4|9=106|35=W|34=123|49=COEPEXCH|52=20200612-06:16:00.331|56=REALTIMEMARKETS|55=amzn|268=1|269=0|270=87|271=2|37=3|10=224|8=FIX.4.4|9=106|35=W|34=124|49=COEPEXCH|52=20200612-06:16:00.332|56=REALTIMEMARKETS|55=amzn|268=1|269=0|270=87|271=2|37=3|10=226|8=FIX.4.4|9=106|35=W|34=125|49=COEPEXCH|52=20200612-06:16:00.332|56=REALTIMEMARKETS|55=amzn|268=1|269=0|270=87|271=2|37=3|10=227|8=FIX.4.4|9=106|35=W|34=126|49=COEPEXCH|52=20200612-06:16:00.333|56=REALTIMEMARKETS|55=amzn|268=1|269=0|270=87|271=2|37=3|10=229|8=FIX.4.4|9=106|35=W|34=127|49=COEPEXCH|52=20200612-06:16:00.334|56=REALTIMEMARKETS|55=amzn|268=1|269=0|270=87|271=2|37=3|10=231|8=FIX.4.4|9=106|35=W|34=128|49=COEPEXCH|52=20200612-06:16:00.335|56=REALTIMEMARKETS|55=amzn|268=1|269=0|270=87|271=2|37=3|10=233|8=FIX.4.4|9=106|35=W|34=129|49=COEPEXCH|52=20200612-06:16:00.336|56=REALTIMEMARKETS|55=amzn|268=1|269=0|270=87|271=2|37=3|10=235|8=FIX.4.4|9=106|35=W|34=130|49=COEPEXCH|52=20200612-06:16:00.337|56=REALTIMEMARKETS|55=amzn|268=1|269=0|270=87|271=2|37=3|10=228|8=FIX.4.4|9=106|35=W|34=131|49=COEPEXCH|52=20200612-06:16:00.337|56=REALTIMEMARKETS|55=amzn|268=1|269=0|270=87|271=2|37=3|10=229|8=FIX.4.4|9=106|35=W|34=132|49=COEPEXCH|52=20200612-06:16:00.338|56=REALTIMEMARKETS|55=amzn|268=1|269=0|270=87|271=2|37=3|10=231|8=FIX.4.4|9=106|35=W|34=133|49=COEPEXCH|52=20200612-06:16:00.339|56=REALTIMEMARKETS|55=amzn|268=1|269=0|270=87|271=2|37=3|10=233|8=FIX.4.4|9=106|35=W|34=134|49=COEPEXCH|52=20200612-06:16:00.339|56=REALTIMEMARKETS|55=amzn|268=1|269=0|270=87|271=2|37=3|10=234|8=FIX.4.4|9=106|35=W|34=135|49=COEPEXCH|52=20200612-06:16:00.340|56=REALTIMEMARKETS|55=amzn|268=1|269=0|270=87|271=2|37=3|10=227|8=FIX.4.4|9=106|35=W|34=136|49=COEPEXCH|52=20200612-06:16:00.340|56=REALTIMEMARKETS|55=amzn|268=1|269=0|270=87|271=2|37=3|10=228|8=FIX.4.4|9=106|35=W|34=137|49=COEPEXCH|52=20200612-06:16:00.341|56=REALTIMEMARKETS|55=amzn|268=1|269=0|270=87|271=2|37=3|10=230|8=FIX.4.4|9=106|35=W|34=138|49=COEPEXCH|52=20200612-06:16:00.341|56=REALTIMEMARKETS|55=amzn|268=1|269=0|270=87|271=2|37=3|10=231|8=FIX.4.4|9=106|35=W|34=139|49=COEPEXCH|52=20200612-06:16:00.342|56=REALTIMEMARKETS|55=amzn|268=1|269=0|270=87|271=2|37=3|10=233|8=FIX.4.4|9=106|35=W|34=140|49=COEPEXCH|52=20200612-06:16:00.342|56=REALTIMEMARKETS|55=amzn|268=1|269=0|270=87|271=2|37=3|10=225|8=FIX.4.4|9=106|35=W|34=141|49=COEPEXCH|52=20200612-06:16:00.343|56=REALTIMEMARKETS|55=amzn|268=1|269=0|270=87|271=2|37=3|10=227|8=FIX.4.4|9=106|35=W|34=142|49=COEPEXCH|52=20200612-06:16:00.343|56=REALTIMEMARKETS|55=amzn|268=1|269=0|270=87|271=2|37=3|10=228|8=FIX.4.4|9=106|35=W|34=143|49=COEPEXCH|52=20200612-06:16:00.344|56=REALTIMEMARKETS|55=amzn|268=1|269=0|270=87|271=2|37=3|10=230|8=FIX.4.4|9=106|35=W|34=144|49=COEPEXCH|52=20200612-06:16:00.344|56=REALTIMEMARKETS|55=amzn|268=1|269=0|270=87|271=2|37=3|10=231|8=FIX.4.4|9=106|35=W|34=145|49=COEPEXCH|52=20200612-06:16:00.345|56=REALTIMEMARKETS|55=amzn|268=1|269=0|270=87|271=2|37=3|10=233|8=FIX.4.4|9=106|35=W|34=146|49=COEPEXCH|52=20200612-06:16:00.345|56=REALTIMEMARKETS|55=amzn|268=1|269=0|270=87|271=2|37=3|10=234|8=FIX.4.4|9=106|35=W|34=147|49=COEPEXCH|52=20200612-06:16:00.350|56=REALTIMEMARKETS|55=amzn|268=1|269=0|270=87|271=2|37=3|10=231|8=FIX.4.4|9=106|35=W|34=148|49=COEPEXCH|52=20200612-06:16:00.351|56=REALTIMEMARKETS|55=amzn|268=1|269=0|270=87|271=2|37=3|10=233|8=FIX.4.4|9=106|35=W|34=149|49=COEPEXCH|52=20200612-06:16:00.353|56=REALTIMEMARKETS|55=amzn|268=1|269=0|270=87|271=2|37=3|10=236|8=FIX.4.4|9=106|35=W|34=150|49=COEPEXCH|52=20200612-06:16:00.354|56=REALTIMEMARKETS|55=amzn|268=1|269=0|270=87|271=2|37=3|10=229|8=FIX.4.4|9=106|35=W|34=151|49=COEPEXCH|52=20200612-06:16:00.355|56=REALTIMEMARKETS|55=amzn|268=1|269=0|270=87|271=2|37=3|10=231|8=FIX.4.4|9=106|35=W|34=152|49=COEPEXCH|52=20200612-06:16:00.356|56=REALTIMEMARKETS|55=amzn|268=1|269=0|270=87|271=2|37=3|10=233|8=FIX.4.4|9=106|35=W|34=153|49=COEPEXCH|52=20200612-06:16:00.357|56=REALTIMEMARKETS|55=amzn|268=1|269=0|270=87|271=2|37=3|10=235|8=FIX.4.4|9=106|35=W|34=154|49=COEPEXCH|52=20200612-06:16:00.358|56=REALTIMEMARKETS|55=amzn|268=1|269=0|270=87|271=2|37=3|10=237|8=FIX.4.4|9=106|35=W|34=155|49=COEPEXCH|52=20200612-06:16:00.359|56=REALTIMEMARKETS|55=amzn|268=1|269=0|270=87|271=2|37=3|10=239|8=FIX.4.4|9=106|35=W|34=156|49=COEPEXCH|52=20200612-06:16:00.360|56=REALTIMEMARKETS|55=amzn|268=1|269=0|270=87|271=2|37=3|10=232|8=FIX.4.4|9=106|35=W|34=157|49=COEPEXCH|52=20200612-06:16:00.360|56=REALTIMEMARKETS|55=amzn|268=1|269=0|270=87|271=2|37=3|10=233|8=FIX.4.4|9=106|35=W|34=158|49=COEPEXCH|52=20200612-06:16:00.361|56=REALTIMEMARKETS|55=amzn|268=1|269=0|270=87|271=2|37=3|10=235|8=FIX.4.4|9=106|35=W|34=159|49=COEPEXCH|52=20200612-06:16:00.362|56=REALTIMEMARKETS|55=amzn|268=1|269=0|270=87|271=2|37=3|10=237|8=FIX.4.4|9=106|35=W|34=160|49=COEPEXCH|52=20200612-06:16:00.363|56=REALTIMEMARKETS|55=amzn|268=1|269=0|270=87|271=2|37=3|10=230|8=FIX.4.4|9=106|35=W|34=161|49=COEPEXCH|52=20200612-06:16:00.363|56=REALTIMEMARKETS|55=amzn|268=1|269=0|270=87|271=2|37=3|10=231|8=FIX.4.4|9=106|35=W|34=162|49=COEPEXCH|52=20200612-06:16:00.364|56=REALTIMEMARKETS|55=amzn|268=1|269=0|270=87|271=2|37=3|10=233|8=FIX.4.4|9=106|35=W|34=163|49=COEPEXCH|52=20200612-06:16:00.365|56=REALTIMEMARKETS|55=amzn|268=1|269=0|270=87|271=2|37=3|10=235|8=FIX.4.4|9=106|35=W|34=164|49=COEPEXCH|52=20200612-06:16:00.366|56=REALTIMEMARKETS|55=amzn|268=1|269=0|270=87|271=2|37=3|10=237|8=FIX.4.4|9=106|35=W|34=165|49=COEPEXCH|52=20200612-06:16:00.367|56=REALTIMEMARKETS|55=amzn|268=1|269=0|270=87|271=2|37=3|10=239|8=FIX.4.4|9=106|35=W|34=166|49=COEPEXCH|52=20200612-06:16:00.367|56=REALTIMEMARKETS|55=amzn|268=1|269=0|270=87|271=2|37=3|10=240|8=FIX.4.4|9=106|35=W|34=167|49=COEPEXCH|52=20200612-06:16:00.369|56=REALTIMEMARKETS|55=amzn|268=1|269=0|270=87|271=2|37=3|10=243|8=FIX.4.4|9=106|35=W|34=168|49=COEPEXCH|52=20200612-06:16:00.370|56=REALTIMEMARKETS|55=amzn|268=1|269=0|270=87|271=2|37=3|10=236|8=FIX.4.4|9=106|35=W|34=169|49=COEPEXCH|52=20200612-06:16:00.370|56=REALTIMEMARKETS|55=amzn|268=1|269=0|270=87|271=2|37=3|10=237|8=FIX.4.4|9=106|35=W|34=170|49=COEPEXCH|52=20200612-06:16:00.371|56=REALTIMEMARKETS|55=amzn|268=1|269=0|270=87|271=2|37=3|10=230|8=FIX.4.4|9=106|35=W|34=171|49=COEPEXCH|52=20200612-06:16:00.372|56=REALTIMEMARKETS|55=amzn|268=1|269=0|270=87|271=2|37=3|10=232|8=FIX.4.4|9=106|35=W|34=172|49=COEPEXCH|52=20200612-06:16:00.373|56=REALTIMEMARKETS|55=amzn|268=1|269=0|270=87|271=2|37=3|10=234|8=FIX.4.4|9=106|35=W|34=173|49=COEPEXCH|52=20200612-06:16:00.374|56=REALTIMEMARKETS|55=amzn|268=1|269=0|270=87|271=2|37=3|10=236|8=FIX.4.4|9=106|35=W|34=174|49=COEPEXCH|52=20200612-06:16:00.375|56=REALTIMEMARKETS|55=amzn|268=1|269=0|270=87|271=2|37=3|10=238|8=FIX.4.4|9=106|35=W|34=175|49=COEPEXCH|52=20200612-06:16:00.376|56=REALTIMEMARKETS|55=amzn|268=1|269=0|270=87|271=2|37=3|10=240|8=FIX.4.4|9=106|35=W|34=176|49=COEPEXCH|52=20200612-06:16:00.376|56=REALTIMEMARKETS|55=amzn|268=1|269=0|270=87|271=2|37=3|10=241|8=FIX.4.4|9=106|35=W|34=177|49=COEPEXCH|52=20200612-06:16:00.377|56=REALTIMEMARKETS|55=amzn|268=1|269=0|270=87|271=2|37=3|10=243|8=FIX.4.4|9=106|35=W|34=178|49=COEPEXCH|52=20200612-06:16:00.378|56=REALTIMEMARKETS|55=amzn|268=1|269=0|270=87|271=2|37=3|10=245|8=FIX.4.4|9=106|35=W|34=179|49=COEPEXCH|52=20200612-06:16:00.379|56=REALTIMEMARKETS|55=amzn|268=1|269=0|270=87|271=2|37=3|10=247|8=FIX.4.4|9=106|35=W|34=180|49=COEPEXCH|52=20200612-06:16:00.380|56=REALTIMEMARKETS|55=amzn|268=1|269=0|270=87|271=2|37=3|10=231|8=FIX.4.4|9=106|35=W|34=181|49=COEPEXCH|52=20200612-06:16:00.381|56=REALTIMEMARKETS|55=amzn|268=1|269=0|270=87|271=2|37=3|10=233|8=FIX.4.4|9=106|35=W|34=182|49=COEPEXCH|52=20200612-06:16:00.385|56=REALTIMEMARKETS|55=amzn|268=1|269=0|270=87|271=2|37=3|10=238|8=FIX.4.4|9=106|35=W|34=183|49=COEPEXCH|52=20200612-06:16:00.386|56=REALTIMEMARKETS|55=amzn|268=1|269=0|270=87|271=2|37=3|10=240|8=FIX.4.4|9=106|35=W|34=184|49=COEPEXCH|52=20200612-06:16:00.387|56=REALTIMEMARKETS|55=amzn|268=1|269=0|270=87|271=2|37=3|10=242|8=FIX.4.4|9=106|35=W|34=185|49=COEPEXCH|52=20200612-06:16:00.388|56=REALTIMEMARKETS|55=amzn|268=1|269=0|270=87|271=2|37=3|10=244|8=FIX.4.4|9=106|35=W|34=186|49=COEPEXCH|52=20200612-06:16:00.390|56=REALTIMEMARKETS|55=amzn|268=1|269=0|270=87|271=2|37=3|10=238|8=FIX.4.4|9=106|35=W|34=187|49=COEPEXCH|52=20200612-06:16:00.391|56=REALTIMEMARKETS|55=amzn|268=1|269=0|270=87|271=2|37=3|10=240|8=FIX.4.4|9=106|35=W|34=188|49=COEPEXCH|52=20200612-06:16:00.392|56=REALTIMEMARKETS|55=amzn|268=1|269=0|270=87|271=2|37=3|10=242|8=FIX.4.4|9=106|35=W|34=189|49=COEPEXCH|52=20200612-06:16:00.393|56=REALTIMEMARKETS|55=amzn|268=1|269=0|270=87|271=2|37=3|10=244|8=FIX.4.4|9=106|35=W|34=190|49=COEPEXCH|52=20200612-06:16:00.393|56=REALTIMEMARKETS|55=amzn|268=1|269=0|270=87|271=2|37=3|10=236|8=FIX.4.4|9=106|35=W|34=191|49=COEPEXCH|52=20200612-06:16:00.394|56=REALTIMEMARKETS|55=amzn|268=1|269=0|270=87|271=2|37=3|10=238|8=FIX.4.4|9=106|35=W|34=192|49=COEPEXCH|52=20200612-06:16:00.395|56=REALTIMEMARKETS|55=amzn|268=1|269=0|270=87|271=2|37=3|10=240|8=FIX.4.4|9=106|35=W|34=193|49=COEPEXCH|52=20200612-06:16:00.395|56=REALTIMEMARKETS|55=amzn|268=1|269=0|270=87|271=2|37=3|10=241|8=FIX.4.4|9=106|35=W|34=194|49=COEPEXCH|52=20200612-06:16:00.396|56=REALTIMEMARKETS|55=amzn|268=1|269=0|270=87|271=2|37=3|10=243|8=FIX.4.4|9=106|35=W|34=195|49=COEPEXCH|52=20200612-06:16:00.397|56=REALTIMEMARKETS|55=amzn|268=1|269=0|270=87|271=2|37=3|10=245|8=FIX.4.4|9=106|35=W|34=196|49=COEPEXCH|52=20200612-06:16:00.398|56=REALTIMEMARKETS|55=amzn|268=1|269=0|270=87|271=2|37=3|10=247|8=FIX.4.4|9=106|35=W|34=197|49=COEPEXCH|52=20200612-06:16:00.399|56=REALTIMEMARKETS|55=amzn|268=1|269=0|270=87|271=2|37=3|10=249|8=FIX.4.4|9=106|35=W|34=198|49=COEPEXCH|52=20200612-06:16:00.399|56=REALTIMEMARKETS|55=amzn|268=1|269=0|270=87|271=2|37=3|10=250|8=FIX.4.4|9=106|35=W|34=199|49=COEPEXCH|52=20200612-06:16:00.401|56=REALTIMEMARKETS|55=amzn|268=1|269=0|270=87|271=2|37=3|10=235|8=FIX.4.4|9=106|35=W|34=200|49=COEPEXCH|52=20200612-06:16:00.401|56=REALTIMEMARKETS|55=amzn|268=1|269=0|270=87|271=2|37=3|10=218|8=FIX.4.4|9=106|35=W|34=201|49=COEPEXCH|52=20200612-06:16:00.402|56=REALTIMEMARKETS|55=amzn|268=1|269=0|270=87|271=2|37=3|10=220|8=FIX.4.4|9=106|35=W|34=202|49=COEPEXCH|52=20200612-06:16:00.403|56=REALTIMEMARKETS|55=amzn|268=1|269=0|270=87|271=2|37=3|10=222|8=FIX.4.4|9=106|35=W|34=203|49=COEPEXCH|52=20200612-06:16:00.403|56=REALTIMEMARKETS|55=amzn|268=1|269=0|270=87|271=2|37=3|10=223|8=FIX.4.4|9=106|35=W|34=204|49=COEPEXCH|52=20200612-06:16:00.404|56=REALTIMEMARKETS|55=amzn|268=1|269=0|270=87|271=2|37=3|10=225|8=FIX.4.4|9=106|35=W|34=205|49=COEPEXCH|52=20200612-06:16:00.405|56=REALTIMEMARKETS|55=amzn|268=1|269=0|270=87|271=2|37=3|10=227|8=FIX.4.4|9=106|35=W|34=206|49=COEPEXCH|52=20200612-06:16:00.406|56=REALTIMEMARKETS|55=amzn|268=1|269=0|270=87|271=2|37=3|10=229|8=FIX.4.4|9=106|35=W|34=207|49=COEPEXCH|52=20200612-06:16:00.407|56=REALTIMEMARKETS|55=amzn|268=1|269=0|270=87|271=2|37=3|10=231|8=FIX.4.4|9=106|35=W|34=208|49=COEPEXCH|52=20200612-06:16:00.407|56=REALTIMEMARKETS|55=amzn|268=1|269=0|270=87|271=2|37=3|10=232|8=FIX.4.4|9=106|35=W|34=209|49=COEPEXCH|52=20200612-06:16:00.408|56=REALTIMEMARKETS|55=amzn|268=1|269=0|270=87|271=2|37=3|10=234|8=FIX.4.4|9=106|35=W|34=210|49=COEPEXCH|52=20200612-06:16:00.409|56=REALTIMEMARKETS|55=amzn|268=1|269=0|270=87|271=2|37=3|10=227|8=FIX.4.4|9=106|35=W|34=211|49=COEPEXCH|52=20200612-06:16:00.410|56=REALTIMEMARKETS|55=amzn|268=1|269=0|270=87|271=2|37=3|10=220|8=FIX.4.4|9=106|35=W|34=212|49=COEPEXCH|52=20200612-06:16:00.410|56=REALTIMEMARKETS|55=amzn|268=1|269=0|270=87|271=2|37=3|10=221|8=FIX.4.4|9=106|35=W|34=213|49=COEPEXCH|52=20200612-06:16:00.411|56=REALTIMEMARKETS|55=amzn|268=1|269=0|270=87|271=2|37=3|10=223|8=FIX.4.4|9=106|35=W|34=214|49=COEPEXCH|52=20200612-06:16:00.412|56=REALTIMEMARKETS|55=amzn|268=1|269=0|270=87|271=2|37=3|10=225|8=FIX.4.4|9=106|35=W|34=215|49=COEPEXCH|52=20200612-06:16:00.413|56=REALTIMEMARKETS|55=amzn|268=1|269=0|270=87|271=2|37=3|10=227|8=FIX.4.4|9=106|35=W|34=216|49=COEPEXCH|52=20200612-06:16:00.414|56=REALTIMEMARKETS|55=amzn|268=1|269=0|270=87|271=2|37=3|10=229|8=FIX.4.4|9=106|35=W|34=217|49=COEPEXCH|52=20200612-06:16:00.415|56=REALTIMEMARKETS|55=amzn|268=1|269=0|270=87|271=2|37=3|10=231|8=FIX.4.4|9=106|35=W|34=218|49=COEPEXCH|52=20200612-06:16:00.416|56=REALTIMEMARKETS|55=amzn|268=1|269=0|270=87|271=2|37=3|10=233|8=FIX.4.4|9=106|35=W|34=219|49=COEPEXCH|52=20200612-06:16:00.416|56=REALTIMEMARKETS|55=amzn|268=1|269=0|270=87|271=2|37=3|10=234|8=FIX.4.4|9=106|35=W|34=220|49=COEPEXCH|52=20200612-06:16:00.417|56=REALTIMEMARKETS|55=amzn|268=1|269=0|270=87|271=2|37=3|10=227|8=FIX.4.4|9=106|35=W|34=221|49=COEPEXCH|52=20200612-06:16:00.418|56=REALTIMEMARKETS|55=amzn|268=1|269=0|270=87|271=2|37=3|10=229|8=FIX.4.4|9=106|35=W|34=222|49=COEPEXCH|52=20200612-06:16:00.419|56=REALTIMEMARKETS|55=amzn|268=1|269=0|270=87|271=2|37=3|10=231|8=FIX.4.4|9=106|35=W|34=223|49=COEPEXCH|52=20200612-06:16:00.420|56=REALTIMEMARKETS|55=amzn|268=1|269=0|270=87|271=2|37=3|10=224|8=FIX.4.4|9=106|35=W|34=224|49=COEPEXCH|52=20200612-06:16:00.421|56=REALTIMEMARKETS|55=amzn|268=1|269=0|270=87|271=2|37=3|10=226|8=FIX.4.4|9=106|35=W|34=225|49=COEPEXCH|52=20200612-06:16:00.421|56=REALTIMEMARKETS|55=amzn|268=1|269=0|270=87|271=2|37=3|10=227|8=FIX.4.4|9=106|35=W|34=226|49=COEPEXCH|52=20200612-06:16:00.422|56=REALTIMEMARKETS|55=amzn|268=1|269=0|270=87|271=2|37=3|10=229|8=FIX.4.4|9=106|35=W|34=227|49=COEPEXCH|52=20200612-06:16:00.423|56=REALTIMEMARKETS|55=amzn|268=1|269=0|270=87|271=2|37=3|10=231|8=FIX.4.4|9=106|35=W|34=228|49=COEPEXCH|52=20200612-06:16:00.424|56=REALTIMEMARKETS|55=amzn|268=1|269=0|270=87|271=2|37=3|10=233|8=FIX.4.4|9=106|35=W|34=229|49=COEPEXCH|52=20200612-06:16:00.425|56=REALTIMEMARKETS|55=amzn|268=1|269=0|270=87|271=2|37=3|10=235|8=FIX.4.4|9=106|35=W|34=230|49=COEPEXCH|52=20200612-06:16:00.426|56=REALTIMEMARKETS|55=amzn|268=1|269=0|270=87|271=2|37=3|10=228|8=FIX.4.4|9=106|35=W|34=231|49=COEPEXCH|52=20200612-06:16:00.426|56=REALTIMEMARKETS|55=amzn|268=1|269=0|270=87|271=2|37=3|10=229|8=FIX.4.4|9=106|35=W|34=232|49=COEPEXCH|52=20200612-06:16:00.427|56=REALTIMEMARKETS|55=amzn|268=1|269=0|270=87|271=2|37=3|10=231|8=FIX.4.4|9=106|35=W|34=233|49=COEPEXCH|52=20200612-06:16:00.428|56=REALTIMEMARKETS|55=amzn|268=1|269=0|270=87|271=2|37=3|10=233|8=FIX.4.4|9=106|35=W|34=234|49=COEPEXCH|52=20200612-06:16:00.431|56=REALTIMEMARKETS|55=amzn|268=1|269=0|270=87|271=2|37=3|10=228|8=FIX.4.4|9=106|35=W|34=235|49=COEPEXCH|52=20200612-06:16:00.433|56=REALTIMEMARKETS|55=amzn|268=1|269=0|270=87|271=2|37=3|10=231|8=FIX.4.4|9=106|35=W|34=236|49=COEPEXCH|52=20200612-06:16:00.434|56=REALTIMEMARKETS|55=amzn|268=1|269=0|270=87|271=2|37=3|10=233|8=FIX.4.4|9=106|35=W|34=237|49=COEPEXCH|52=20200612-06:16:00.434|56=REALTIMEMARKETS|55=amzn|268=1|269=0|270=87|271=2|37=3|10=234|8=FIX.4.4|9=106|35=W|34=238|49=COEPEXCH|52=20200612-06:16:00.436|56=REALTIMEMARKETS|55=amzn|268=1|269=0|270=87|271=2|37=3|10=237|8=FIX.4.4|9=106|35=W|34=239|49=COEPEXCH|52=20200612-06:16:00.436|56=REALTIMEMARKETS|55=amzn|268=1|269=0|270=87|271=2|37=3|10=238|8=FIX.4.4|9=106|35=W|34=240|49=COEPEXCH|52=20200612-06:16:00.437|56=REALTIMEMARKETS|55=amzn|268=1|269=0|270=87|271=2|37=3|10=231|8=FIX.4.4|9=106|35=W|34=241|49=COEPEXCH|52=20200612-06:16:00.438|56=REALTIMEMARKETS|55=amzn|268=1|269=0|270=87|271=2|37=3|10=233|8=FIX.4.4|9=106|35=W|34=242|49=COEPEXCH|52=20200612-06:16:00.438|56=REALTIMEMARKETS|55=amzn|268=1|269=0|270=87|271=2|37=3|10=234|8=FIX.4.4|9=106|35=W|34=243|49=COEPEXCH|52=20200612-06:16:00.438|56=REALTIMEMARKETS|55=amzn|268=1|269=0|270=87|271=2|37=3|10=235|8=FIX.4.4|9=106|35=W|34=244|49=COEPEXCH|52=20200612-06:16:00.439|56=REALTIMEMARKETS|55=amzn|268=1|269=0|270=87|271=2|37=3|10=237|8=FIX.4.4|9=106|35=W|34=245|49=COEPEXCH|52=20200612-06:16:00.440|56=REALTIMEMARKETS|55=amzn|268=1|269=0|270=87|271=2|37=3|10=230|8=FIX.4.4|9=106|35=W|34=246|49=COEPEXCH|52=20200612-06:16:00.440|56=REALTIMEMARKETS|55=amzn|268=1|269=0|270=87|271=2|37=3|10=231|8=FIX.4.4|9=106|35=W|34=247|49=COEPEXCH|52=20200612-06:16:00.441|56=REALTIMEMARKETS|55=amzn|268=1|269=0|270=87|271=2|37=3|10=233|8=FIX.4.4|9=106|35=W|34=248|49=COEPEXCH|52=20200612-06:16:00.441|56=REALTIMEMARKETS|55=amzn|268=1|269=0|270=87|271=2|37=3|10=234|8=FIX.4.4|9=106|35=W|34=249|49=COEPEXCH|52=20200612-06:16:00.442|56=REALTIMEMARKETS|55=amzn|268=1|269=0|270=87|271=2|37=3|10=236|8=FIX.4.4|9=106|35=W|34=250|49=COEPEXCH|52=20200612-06:16:00.442|56=REALTIMEMARKETS|55=amzn|268=1|269=0|270=87|271=2|37=3|10=228|8=FIX.4.4|9=106|35=W|34=251|49=COEPEXCH|52=20200612-06:16:00.443|56=REALTIMEMARKETS|55=amzn|268=1|269=0|270=87|271=2|37=3|10=230|8=FIX.4.4|9=106|35=W|34=252|49=COEPEXCH|52=20200612-06:16:00.444|56=REALTIMEMARKETS|55=amzn|268=1|269=0|270=87|271=2|37=3|10=232|8=FIX.4.4|9=106|35=W|34=253|49=COEPEXCH|52=20200612-06:16:00.444|56=REALTIMEMARKETS|55=amzn|268=1|269=0|270=87|271=2|37=3|10=233|8=FIX.4.4|9=106|35=W|34=254|49=COEPEXCH|52=20200612-06:16:00.445|56=REALTIMEMARKETS|55=amzn|268=1|269=0|270=87|271=2|37=3|10=235|8=FIX.4.4|9=106|35=W|34=255|49=COEPEXCH|52=20200612-06:16:00.445|56=REALTIMEMARKETS|55=amzn|268=1|269=0|270=87|271=2|37=3|10=236|8=FIX.4.4|9=106|35=W|34=256|49=COEPEXCH|52=20200612-06:16:00.446|56=REALTIMEMARKETS|55=amzn|268=1|269=0|270=87|271=2|37=3|10=238|8=FIX.4.4|9=106|35=W|34=257|49=COEPEXCH|52=20200612-06:16:00.446|56=REALTIMEMARKETS|55=amzn|268=1|269=0|270=87|271=2|37=3|10=239|8=FIX.4.4|9=106|35=W|34=258|49=COEPEXCH|52=20200612-06:16:00.448|56=REALTIMEMARKETS|55=amzn|268=1|269=0|270=87|271=2|37=3|10=242|8=FIX.4.4|9=106|35=W|34=259|49=COEPEXCH|52=20200612-06:16:00.448|56=REALTIMEMARKETS|55=amzn|268=1|269=0|270=87|271=2|37=3|10=243|8=FIX.4.4|9=106|35=W|34=260|49=COEPEXCH|52=20200612-06:16:00.449|56=REALTIMEMARKETS|55=amzn|268=1|269=0|270=87|271=2|37=3|10=236|8=FIX.4.4|9=106|35=W|34=261|49=COEPEXCH|52=20200612-06:16:00.450|56=REALTIMEMARKETS|55=amzn|268=1|269=0|270=87|271=2|37=3|10=229|8=FIX.4.4|9=106|35=W|34=262|49=COEPEXCH|52=20200612-06:16:00.451|56=REALTIMEMARKETS|55=amzn|268=1|269=0|270=87|271=2|37=3|10=231|8=FIX.4.4|9=106|35=W|34=263|49=COEPEXCH|52=20200612-06:16:00.451|56=REALTIMEMARKETS|55=amzn|268=1|269=0|270=87|271=2|37=3|10=232|8=FIX.4.4|9=106|35=W|34=264|49=COEPEXCH|52=20200612-06:16:00.452|56=REALTIMEMARKETS|55=amzn|268=1|269=0|270=87|271=2|37=3|10=234|8=FIX.4.4|9=106|35=W|34=265|49=COEPEXCH|52=20200612-06:16:00.452|56=REALTIMEMARKETS|55=amzn|268=1|269=0|270=87|271=2|37=3|10=235|8=FIX.4.4|9=106|35=W|34=266|49=COEPEXCH|52=20200612-06:16:00.453|56=REALTIMEMARKETS|55=amzn|268=1|269=0|270=87|271=2|37=3|10=237|8=FIX.4.4|9=106|35=W|34=267|49=COEPEXCH|52=20200612-06:16:00.453|56=REALTIMEMARKETS|55=amzn|268=1|269=0|270=87|271=2|37=3|10=238|8=FIX.4.4|9=106|35=W|34=268|49=COEPEXCH|52=20200612-06:16:00.454|56=REALTIMEMARKETS|55=amzn|268=1|269=0|270=87|271=2|37=3|10=240|8=FIX.4.4|9=106|35=W|34=269|49=COEPEXCH|52=20200612-06:16:00.454|56=REALTIMEMARKETS|55=amzn|268=1|269=0|270=87|271=2|37=3|10=241|8=FIX.4.4|9=106|35=W|34=270|49=COEPEXCH|52=20200612-06:16:00.454|56=REALTIMEMARKETS|55=amzn|268=1|269=0|270=87|271=2|37=3|10=233|8=FIX.4.4|9=106|35=W|34=271|49=COEPEXCH|52=20200612-06:16:00.455|56=REALTIMEMARKETS|55=amzn|268=1|269=0|270=87|271=2|37=3|10=235|8=FIX.4.4|9=106|35=W|34=272|49=COEPEXCH|52=20200612-06:16:00.456|56=REALTIMEMARKETS|55=amzn|268=1|269=0|270=87|271=2|37=3|10=237|8=FIX.4.4|9=106|35=W|34=273|49=COEPEXCH|52=20200612-06:16:00.456|56=REALTIMEMARKETS|55=amzn|268=1|269=0|270=87|271=2|37=3|10=238|8=FIX.4.4|9=106|35=W|34=274|49=COEPEXCH|52=20200612-06:16:00.457|56=REALTIMEMARKETS|55=amzn|268=1|269=0|270=87|271=2|37=3|10=240|8=FIX.4.4|9=106|35=W|34=275|49=COEPEXCH|52=20200612-06:16:00.458|56=REALTIMEMARKETS|55=amzn|268=1|269=0|270=87|271=2|37=3|10=242|8=FIX.4.4|9=106|35=W|34=276|49=COEPEXCH|52=20200612-06:16:00.459|56=REALTIMEMARKETS|55=amzn|268=1|269=0|270=87|271=2|37=3|10=244|8=FIX.4.4|9=106|35=W|34=277|49=COEPEXCH|52=20200612-06:16:00.459|56=REALTIMEMARKETS|55=amzn|268=1|269=0|270=87|271=2|37=3|10=245|8=FIX.4.4|9=106|35=W|34=278|49=COEPEXCH|52=20200612-06:16:00.464|56=REALTIMEMARKETS|55=amzn|268=1|269=0|270=87|271=2|37=3|10=242|8=FIX.4.4|9=106|35=W|34=279|49=COEPEXCH|52=20200612-06:16:00.464|56=REALTIMEMARKETS|55=amzn|268=1|269=0|270=87|271=2|37=3|10=243|8=FIX.4.4|9=106|35=W|34=280|49=COEPEXCH|52=20200612-06:16:00.465|56=REALTIMEMARKETS|55=amzn|268=1|269=0|270=87|271=2|37=3|10=236|8=FIX.4.4|9=106|35=W|34=281|49=COEPEXCH|52=20200612-06:16:00.466|56=REALTIMEMARKETS|55=amzn|268=1|269=0|270=87|271=2|37=3|10=238|8=FIX.4.4|9=106|35=W|34=282|49=COEPEXCH|52=20200612-06:16:00.466|56=REALTIMEMARKETS|55=amzn|268=1|269=0|270=87|271=2|37=3|10=239|8=FIX.4.4|9=106|35=W|34=283|49=COEPEXCH|52=20200612-06:16:00.467|56=REALTIMEMARKETS|55=amzn|268=1|269=0|270=87|271=2|37=3|10=241|8=FIX.4.4|9=106|35=W|34=284|49=COEPEXCH|52=20200612-06:16:00.467|56=REALTIMEMARKETS|55=amzn|268=1|269=0|270=87|271=2|37=3|10=242|8=FIX.4.4|9=106|35=W|34=285|49=COEPEXCH|52=20200612-06:16:00.468|56=REALTIMEMARKETS|55=amzn|268=1|269=0|270=87|271=2|37=3|10=244|8=FIX.4.4|9=106|35=W|34=286|49=COEPEXCH|52=20200612-06:16:00.468|56=REALTIMEMARKETS|55=amzn|268=1|269=0|270=87|271=2|37=3|10=245|8=FIX.4.4|9=106|35=W|34=287|49=COEPEXCH|52=20200612-06:16:00.469|56=REALTIMEMARKETS|55=amzn|268=1|269=0|270=87|271=2|37=3|10=247|8=FIX.4.4|9=106|35=W|34=288|49=COEPEXCH|52=20200612-06:16:00.470|56=REALTIMEMARKETS|55=amzn|268=1|269=0|270=87|271=2|37=3|10=240|8=FIX.4.4|9=106|35=W|34=289|49=COEPEXCH|52=20200612-06:16:00.471|56=REALTIMEMARKETS|55=amzn|268=1|269=0|270=87|271=2|37=3|10=242|8=FIX.4.4|9=106|35=W|34=290|49=COEPEXCH|52=20200612-06:16:00.474|56=REALTIMEMARKETS|55=amzn|268=1|269=0|270=87|271=2|37=3|10=237|8=FIX.4.4|9=106|35=W|34=291|49=COEPEXCH|52=20200612-06:16:00.476|56=REALTIMEMARKETS|55=amzn|268=1|269=0|270=87|271=2|37=3|10=240|8=FIX.4.4|9=106|35=W|34=292|49=COEPEXCH|52=20200612-06:16:00.476|56=REALTIMEMARKETS|55=amzn|268=1|269=0|270=87|271=2|37=3|10=241|8=FIX.4.4|9=106|35=W|34=293|49=COEPEXCH|52=20200612-06:16:00.477|56=REALTIMEMARKETS|55=amzn|268=1|269=0|270=87|271=2|37=3|10=243|8=FIX.4.4|9=106|35=W|34=294|49=COEPEXCH|52=20200612-06:16:00.477|56=REALTIMEMARKETS|55=amzn|268=1|269=0|270=87|271=2|37=3|10=244|8=FIX.4.4|9=106|35=W|34=295|49=COEPEXCH|52=20200612-06:16:00.478|56=REALTIMEMARKETS|55=amzn|268=1|269=0|270=87|271=2|37=3|10=246|8=FIX.4.4|9=106|35=W|34=296|49=COEPEXCH|52=20200612-06:16:00.478|56=REALTIMEMARKETS|55=amzn|268=1|269=0|270=87|271=2|37=3|10=247|8=FIX.4.4|9=106|35=W|34=297|49=COEPEXCH|52=20200612-06:16:00.478|56=REALTIMEMARKETS|55=amzn|268=1|269=0|270=87|271=2|37=3|10=248|8=FIX.4.4|9=106|35=W|34=298|49=COEPEXCH|52=20200612-06:16:00.479|56=REALTIMEMARKETS|55=amzn|268=1|269=0|270=87|271=2|37=3|10=250|8=FIX.4.4|9=106|35=W|34=299|49=COEPEXCH|52=20200612-06:16:00.479|56=REALTIMEMARKETS|55=amzn|268=1|269=0|270=87|271=2|37=3|10=251|8=FIX.4.4|9=106|35=W|34=300|49=COEPEXCH|52=20200612-06:16:00.480|56=REALTIMEMARKETS|55=amzn|268=1|269=0|270=87|271=2|37=3|10=226|8=FIX.4.4|9=106|35=W|34=301|49=COEPEXCH|52=20200612-06:16:00.481|56=REALTIMEMARKETS|55=amzn|268=1|269=0|270=87|271=2|37=3|10=228|8=FIX.4.4|9=106|35=W|34=302|49=COEPEXCH|52=20200612-06:16:00.481|56=REALTIMEMARKETS|55=amzn|268=1|269=0|270=87|271=2|37=3|10=229|8=FIX.4.4|9=106|35=W|34=303|49=COEPEXCH|52=20200612-06:16:00.482|56=REALTIMEMARKETS|55=amzn|268=1|269=0|270=87|271=2|37=3|10=231|8=FIX.4.4|9=106|35=W|34=304|49=COEPEXCH|52=20200612-06:16:00.482|56=REALTIMEMARKETS|55=amzn|268=1|269=0|270=87|271=2|37=3|10=232|8=FIX.4.4|9=106|35=W|34=305|49=COEPEXCH|52=20200612-06:16:00.483|56=REALTIMEMARKETS|55=amzn|268=1|269=0|270=87|271=2|37=3|10=234|8=FIX.4.4|9=106|35=W|34=306|49=COEPEXCH|52=20200612-06:16:00.483|56=REALTIMEMARKETS|55=amzn|268=1|269=0|270=87|271=2|37=3|10=235|8=FIX.4.4|9=106|35=W|34=307|49=COEPEXCH|52=20200612-06:16:00.484|56=REALTIMEMARKETS|55=amzn|268=1|269=0|270=87|271=2|37=3|10=237|8=FIX.4.4|9=106|35=W|34=308|49=COEPEXCH|52=20200612-06:16:00.484|56=REALTIMEMARKETS|55=amzn|268=1|269=0|270=87|271=2|37=3|10=238|8=FIX.4.4|9=106|35=W|34=309|49=COEPEXCH|52=20200612-06:16:00.485|56=REALTIMEMARKETS|55=amzn|268=1|269=0|270=87|271=2|37=3|10=240|8=FIX.4.4|9=106|35=W|34=310|49=COEPEXCH|52=20200612-06:16:00.485|56=REALTIMEMARKETS|55=amzn|268=1|269=0|270=87|271=2|37=3|10=232|8=FIX.4.4|9=106|35=W|34=311|49=COEPEXCH|52=20200612-06:16:00.486|56=REALTIMEMARKETS|55=amzn|268=1|269=0|270=87|271=2|37=3|10=234|8=FIX.4.4|9=106|35=W|34=312|49=COEPEXCH|52=20200612-06:16:00.486|56=REALTIMEMARKETS|55=amzn|268=1|269=0|270=87|271=2|37=3|10=235|8=FIX.4.4|9=106|35=W|34=313|49=COEPEXCH|52=20200612-06:16:00.488|56=REALTIMEMARKETS|55=amzn|268=1|269=0|270=87|271=2|37=3|10=238|8=FIX.4.4|9=106|35=W|34=314|49=COEPEXCH|52=20200612-06:16:00.489|56=REALTIMEMARKETS|55=amzn|268=1|269=0|270=87|271=2|37=3|10=240|8=FIX.4.4|9=106|35=W|34=315|49=COEPEXCH|52=20200612-06:16:00.489|56=REALTIMEMARKETS|55=amzn|268=1|269=0|270=87|271=2|37=3|10=241|8=FIX.4.4|9=106|35=W|34=316|49=COEPEXCH|52=20200612-06:16:00.490|56=REALTIMEMARKETS|55=amzn|268=1|269=0|270=87|271=2|37=3|10=234|8=FIX.4.4|9=106|35=W|34=317|49=COEPEXCH|52=20200612-06:16:00.490|56=REALTIMEMARKETS|55=amzn|268=1|269=0|270=87|271=2|37=3|10=235|8=FIX.4.4|9=106|35=W|34=318|49=COEPEXCH|52=20200612-06:16:00.491|56=REALTIMEMARKETS|55=amzn|268=1|269=0|270=87|271=2|37=3|10=237|8=FIX.4.4|9=106|35=W|34=319|49=COEPEXCH|52=20200612-06:16:00.491|56=REALTIMEMARKETS|55=amzn|268=1|269=0|270=87|271=2|37=3|10=238|8=FIX.4.4|9=106|35=W|34=320|49=COEPEXCH|52=20200612-06:16:00.492|56=REALTIMEMARKETS|55=amzn|268=1|269=0|270=87|271=2|37=3|10=231|8=FIX.4.4|9=106|35=W|34=321|49=COEPEXCH|52=20200612-06:16:00.492|56=REALTIMEMARKETS|55=amzn|268=1|269=0|270=87|271=2|37=3|10=232|8=FIX.4.4|9=106|35=W|34=322|49=COEPEXCH|52=20200612-06:16:00.493|56=REALTIMEMARKETS|55=amzn|268=1|269=0|270=87|271=2|37=3|10=234|8=FIX.4.4|9=106|35=W|34=323|49=COEPEXCH|52=20200612-06:16:00.494|56=REALTIMEMARKETS|55=amzn|268=1|269=0|270=87|271=2|37=3|10=236|8=FIX.4.4|9=106|35=W|34=324|49=COEPEXCH|52=20200612-06:16:00.494|56=REALTIMEMARKETS|55=amzn|268=1|269=0|270=87|271=2|37=3|10=237|8=FIX.4.4|9=106|35=W|34=325|49=COEPEXCH|52=20200612-06:16:00.495|56=REALTIMEMARKETS|55=amzn|268=1|269=0|270=87|271=2|37=3|10=239|8=FIX.4.4|9=106|35=W|34=326|49=COEPEXCH|52=20200612-06:16:00.495|56=REALTIMEMARKETS|55=amzn|268=1|269=0|270=87|271=2|37=3|10=240|8=FIX.4.4|9=106|35=W|34=327|49=COEPEXCH|52=20200612-06:16:00.496|56=REALTIMEMARKETS|55=amzn|268=1|269=0|270=87|271=2|37=3|10=242|8=FIX.4.4|9=106|35=W|34=328|49=COEPEXCH|52=20200612-06:16:00.497|56=REALTIMEMARKETS|55=amzn|268=1|269=0|270=87|271=2|37=3|10=244|8=FIX.4.4|9=106|35=W|34=329|49=COEPEXCH|52=20200612-06:16:00.497|56=REALTIMEMARKETS|55=amzn|268=1|269=0|270=87|271=2|37=3|10=245|8=FIX.4.4|9=106|35=W|34=330|49=COEPEXCH|52=20200612-06:16:00.498|56=REALTIMEMARKETS|55=amzn|268=1|269=0|270=87|271=2|37=3|10=238|8=FIX.4.4|9=106|35=W|34=331|49=COEPEXCH|52=20200612-06:16:00.498|56=REALTIMEMARKETS|55=amzn|268=1|269=0|270=87|271=2|37=3|10=239|8=FIX.4.4|9=106|35=W|34=332|49=COEPEXCH|52=20200612-06:16:00.499|56=REALTIMEMARKETS|55=amzn|268=1|269=0|270=87|271=2|37=3|10=241|8=FIX.4.4|9=106|35=W|34=333|49=COEPEXCH|52=20200612-06:16:00.499|56=REALTIMEMARKETS|55=amzn|268=1|269=0|270=87|271=2|37=3|10=242|8=FIX.4.4|9=106|35=W|34=334|49=COEPEXCH|52=20200612-06:16:00.499|56=REALTIMEMARKETS|55=amzn|268=1|269=0|270=87|271=2|37=3|10=243|8=FIX.4.4|9=106|35=W|34=335|49=COEPEXCH|52=20200612-06:16:00.500|56=REALTIMEMARKETS|55=amzn|268=1|269=0|270=87|271=2|37=3|10=227|8=FIX.4.4|9=106|35=W|34=336|49=COEPEXCH|52=20200612-06:16:00.500|56=REALTIMEMARKETS|55=amzn|268=1|269=0|270=87|271=2|37=3|10=228|8=FIX.4.4|9=106|35=W|34=337|49=COEPEXCH|52=20200612-06:16:00.501|56=REALTIMEMARKETS|55=amzn|268=1|269=0|270=87|271=2|37=3|10=230|8=FIX.4.4|9=106|35=W|34=338|49=COEPEXCH|52=20200612-06:16:00.501|56=REALTIMEMARKETS|55=amzn|268=1|269=0|270=87|271=2|37=3|10=231|8=FIX.4.4|9=106|35=W|34=339|49=COEPEXCH|52=20200612-06:16:00.502|56=REALTIMEMARKETS|55=amzn|268=1|269=0|270=87|271=2|37=3|10=233|8=FIX.4.4|9=106|35=W|34=340|49=COEPEXCH|52=20200612-06:16:00.502|56=REALTIMEMARKETS|55=amzn|268=1|269=0|270=87|271=2|37=3|10=225|8=FIX.4.4|9=106|35=W|34=341|49=COEPEXCH|52=20200612-06:16:00.503|56=REALTIMEMARKETS|55=amzn|268=1|269=0|270=87|271=2|37=3|10=227|8=FIX.4.4|9=106|35=W|34=342|49=COEPEXCH|52=20200612-06:16:00.504|56=REALTIMEMARKETS|55=amzn|268=1|269=0|270=87|271=2|37=3|10=229|8=FIX.4.4|9=106|35=W|34=343|49=COEPEXCH|52=20200612-06:16:00.504|56=REALTIMEMARKETS|55=amzn|268=1|269=0|270=87|271=2|37=3|10=230|8=FIX.4.4|9=106|35=W|34=344|49=COEPEXCH|52=20200612-06:16:00.504|56=REALTIMEMARKETS|55=amzn|268=1|269=0|270=87|271=2|37=3|10=231|8=FIX.4.4|9=106|35=W|34=345|49=COEPEXCH|52=20200612-06:16:00.505|56=REALTIMEMARKETS|55=amzn|268=1|269=0|270=87|271=2|37=3|10=233|8=FIX.4.4|9=106|35=W|34=346|49=COEPEXCH|52=20200612-06:16:00.505|56=REALTIMEMARKETS|55=amzn|268=1|269=0|270=87|271=2|37=3|10=234|8=FIX.4.4|9=106|35=W|34=347|49=COEPEXCH|52=20200612-06:16:00.506|56=REALTIMEMARKETS|55=amzn|268=1|269=0|270=87|271=2|37=3|10=236|8=FIX.4.4|9=106|35=W|34=348|49=COEPEXCH|52=20200612-06:16:00.507|56=REALTIMEMARKETS|55=amzn|268=1|269=0|270=87|271=2|37=3|10=238|8=FIX.4.4|9=106|35=W|34=349|49=COEPEXCH|52=20200612-06:16:00.507|56=REALTIMEMARKETS|55=amzn|268=1|269=0|270=87|271=2|37=3|10=239|8=FIX.4.4|9=106|35=W|34=350|49=COEPEXCH|52=20200612-06:16:00.507|56=REALTIMEMARKETS|55=amzn|268=1|269=0|270=87|271=2|37=3|10=231|8=FIX.4.4|9=106|35=W|34=351|49=COEPEXCH|52=20200612-06:16:00.508|56=REALTIMEMARKETS|55=amzn|268=1|269=0|270=87|271=2|37=3|10=233|8=FIX.4.4|9=106|35=W|34=352|49=COEPEXCH|52=20200612-06:16:00.508|56=REALTIMEMARKETS|55=amzn|268=1|269=0|270=87|271=2|37=3|10=234|8=FIX.4.4|9=106|35=W|34=353|49=COEPEXCH|52=20200612-06:16:00.509|56=REALTIMEMARKETS|55=amzn|268=1|269=0|270=87|271=2|37=3|10=236|8=FIX.4.4|9=106|35=W|34=354|49=COEPEXCH|52=20200612-06:16:00.509|56=REALTIMEMARKETS|55=amzn|268=1|269=0|270=87|271=2|37=3|10=237|8=FIX.4.4|9=106|35=W|34=355|49=COEPEXCH|52=20200612-06:16:00.509|56=REALTIMEMARKETS|55=amzn|268=1|269=0|270=87|271=2|37=3|10=238|8=FIX.4.4|9=106|35=W|34=356|49=COEPEXCH|52=20200612-06:16:00.510|56=REALTIMEMARKETS|55=amzn|268=1|269=0|270=87|271=2|37=3|10=231|8=FIX.4.4|9=106|35=W|34=357|49=COEPEXCH|52=20200612-06:16:00.511|56=REALTIMEMARKETS|55=amzn|268=1|269=0|270=87|271=2|37=3|10=233|8=FIX.4.4|9=106|35=W|34=358|49=COEPEXCH|52=20200612-06:16:00.511|56=REALTIMEMARKETS|55=amzn|268=1|269=0|270=87|271=2|37=3|10=234|8=FIX.4.4|9=106|35=W|34=359|49=COEPEXCH|52=20200612-06:16:00.512|56=REALTIMEMARKETS|55=amzn|268=1|269=0|270=87|271=2|37=3|10=236|8=FIX.4.4|9=106|35=W|34=360|49=COEPEXCH|52=20200612-06:16:00.512|56=REALTIMEMARKETS|55=amzn|268=1|269=0|270=87|271=2|37=3|10=228|8=FIX.4.4|9=106|35=W|34=361|49=COEPEXCH|52=20200612-06:16:00.512|56=REALTIMEMARKETS|55=amzn|268=1|269=0|270=87|271=2|37=3|10=229|8=FIX.4.4|9=106|35=W|34=362|49=COEPEXCH|52=20200612-06:16:00.513|56=REALTIMEMARKETS|55=amzn|268=1|269=0|270=87|271=2|37=3|10=231|8=FIX.4.4|9=106|35=W|34=363|49=COEPEXCH|52=20200612-06:16:00.513|56=REALTIMEMARKETS|55=amzn|268=1|269=0|270=87|271=2|37=3|10=232|8=FIX.4.4|9=106|35=W|34=364|49=COEPEXCH|52=20200612-06:16:00.514|56=REALTIMEMARKETS|55=amzn|268=1|269=0|270=87|271=2|37=3|10=234|8=FIX.4.4|9=106|35=W|34=365|49=COEPEXCH|52=20200612-06:16:00.515|56=REALTIMEMARKETS|55=amzn|268=1|269=0|270=87|271=2|37=3|10=236|8=FIX.4.4|9=106|35=W|34=366|49=COEPEXCH|52=20200612-06:16:00.515|56=REALTIMEMARKETS|55=amzn|268=1|269=0|270=87|271=2|37=3|10=237|8=FIX.4.4|9=106|35=W|34=367|49=COEPEXCH|52=20200612-06:16:00.516|56=REALTIMEMARKETS|55=amzn|268=1|269=0|270=87|271=2|37=3|10=239|8=FIX.4.4|9=106|35=W|34=368|49=COEPEXCH|52=20200612-06:16:00.516|56=REALTIMEMARKETS|55=amzn|268=1|269=0|270=87|271=2|37=3|10=240|8=FIX.4.4|9=106|35=W|34=369|49=COEPEXCH|52=20200612-06:16:00.517|56=REALTIMEMARKETS|55=amzn|268=1|269=0|270=87|271=2|37=3|10=242|8=FIX.4.4|9=106|35=W|34=370|49=COEPEXCH|52=20200612-06:16:00.518|56=REALTIMEMARKETS|55=amzn|268=1|269=0|270=87|271=2|37=3|10=235|8=FIX.4.4|9=106|35=W|34=371|49=COEPEXCH|52=20200612-06:16:00.518|56=REALTIMEMARKETS|55=amzn|268=1|269=0|270=87|271=2|37=3|10=236|8=FIX.4.4|9=106|35=W|34=372|49=COEPEXCH|52=20200612-06:16:00.519|56=REALTIMEMARKETS|55=amzn|268=1|269=0|270=87|271=2|37=3|10=238|8=FIX.4.4|9=106|35=W|34=373|49=COEPEXCH|52=20200612-06:16:00.519|56=REALTIMEMARKETS|55=amzn|268=1|269=0|270=87|271=2|37=3|10=239|8=FIX.4.4|9=106|35=W|34=374|49=COEPEXCH|52=20200612-06:16:00.530|56=REALTIMEMARKETS|55=amzn|268=1|269=0|270=87|271=2|37=3|10=233|8=FIX.4.4|9=106|35=W|34=375|49=COEPEXCH|52=20200612-06:16:00.530|56=REALTIMEMARKETS|55=amzn|268=1|269=0|270=87|271=2|37=3|10=234|8=FIX.4.4|9=106|35=W|34=376|49=COEPEXCH|52=20200612-06:16:00.531|56=REALTIMEMARKETS|55=amzn|268=1|269=0|270=87|271=2|37=3|10=236|8=FIX.4.4|9=106|35=W|34=377|49=COEPEXCH|52=20200612-06:16:00.532|56=REALTIMEMARKETS|55=amzn|268=1|269=0|270=87|271=2|37=3|10=238|8=FIX.4.4|9=106|35=W|34=378|49=COEPEXCH|52=20200612-06:16:00.532|56=REALTIMEMARKETS|55=amzn|268=1|269=0|270=87|271=2|37=3|10=239|8=FIX.4.4|9=106|35=W|34=379|49=COEPEXCH|52=20200612-06:16:00.533|56=REALTIMEMARKETS|55=amzn|268=1|269=0|270=87|271=2|37=3|10=241|8=FIX.4.4|9=106|35=W|34=380|49=COEPEXCH|52=20200612-06:16:00.534|56=REALTIMEMARKETS|55=amzn|268=1|269=0|270=87|271=2|37=3|10=234|8=FIX.4.4|9=106|35=W|34=381|49=COEPEXCH|52=20200612-06:16:00.535|56=REALTIMEMARKETS|55=amzn|268=1|269=0|270=87|271=2|37=3|10=236|8=FIX.4.4|9=106|35=W|34=382|49=COEPEXCH|52=20200612-06:16:00.535|56=REALTIMEMARKETS|55=amzn|268=1|269=0|270=87|271=2|37=3|10=237|8=FIX.4.4|9=106|35=W|34=383|49=COEPEXCH|52=20200612-06:16:00.537|56=REALTIMEMARKETS|55=amzn|268=1|269=0|270=87|271=2|37=3|10=240|8=FIX.4.4|9=106|35=W|34=384|49=COEPEXCH|52=20200612-06:16:00.537|56=REALTIMEMARKETS|55=amzn|268=1|269=0|270=87|271=2|37=3|10=241|8=FIX.4.4|9=106|35=W|34=385|49=COEPEXCH|52=20200612-06:16:00.539|56=REALTIMEMARKETS|55=amzn|268=1|269=0|270=87|271=2|37=3|10=244|8=FIX.4.4|9=106|35=W|34=386|49=COEPEXCH|52=20200612-06:16:00.544|56=REALTIMEMARKETS|55=amzn|268=1|269=0|270=87|271=2|37=3|10=241|8=FIX.4.4|9=106|35=W|34=387|49=COEPEXCH|52=20200612-06:16:00.545|56=REALTIMEMARKETS|55=amzn|268=1|269=0|270=87|271=2|37=3|10=243|8=FIX.4.4|9=106|35=W|34=388|49=COEPEXCH|52=20200612-06:16:00.545|56=REALTIMEMARKETS|55=amzn|268=1|269=0|270=87|271=2|37=3|10=244|8=FIX.4.4|9=106|35=W|34=389|49=COEPEXCH|52=20200612-06:16:00.545|56=REALTIMEMARKETS|55=amzn|268=1|269=0|270=87|271=2|37=3|10=245|8=FIX.4.4|9=106|35=W|34=390|49=COEPEXCH|52=20200612-06:16:00.546|56=REALTIMEMARKETS|55=amzn|268=1|269=0|270=87|271=2|37=3|10=238|8=FIX.4.4|9=106|35=W|34=391|49=COEPEXCH|52=20200612-06:16:00.546|56=REALTIMEMARKETS|55=amzn|268=1|269=0|270=87|271=2|37=3|10=239|8=FIX.4.4|9=106|35=W|34=392|49=COEPEXCH|52=20200612-06:16:00.547|56=REALTIMEMARKETS|55=amzn|268=1|269=0|270=87|271=2|37=3|10=241|8=FIX.4.4|9=106|35=W|34=393|49=COEPEXCH|52=20200612-06:16:00.548|56=REALTIMEMARKETS|55=amzn|268=1|269=0|270=87|271=2|37=3|10=243|8=FIX.4.4|9=106|35=W|34=394|49=COEPEXCH|52=20200612-06:16:00.549|56=REALTIMEMARKETS|55=amzn|268=1|269=0|270=87|271=2|37=3|10=245|8=FIX.4.4|9=106|35=W|34=395|49=COEPEXCH|52=20200612-06:16:00.549|56=REALTIMEMARKETS|55=amzn|268=1|269=0|270=87|271=2|37=3|10=246|8=FIX.4.4|9=106|35=W|34=396|49=COEPEXCH|52=20200612-06:16:00.549|56=REALTIMEMARKETS|55=amzn|268=1|269=0|270=87|271=2|37=3|10=247|8=FIX.4.4|9=106|35=W|34=397|49=COEPEXCH|52=20200612-06:16:00.550|56=REALTIMEMARKETS|55=amzn|268=1|269=0|270=87|271=2|37=3|10=240|8=FIX.4.4|9=106|35=W|34=398|49=COEPEXCH|52=20200612-06:16:00.550|56=REALTIMEMARKETS|55=amzn|268=1|269=0|270=87|271=2|37=3|10=241|8=FIX.4.4|9=106|35=W|34=399|49=COEPEXCH|52=20200612-06:16:00.550|56=REALTIMEMARKETS|55=amzn|268=1|269=0|270=87|271=2|37=3|10=242|8=FIX.4.4|9=106|35=W|34=400|49=COEPEXCH|52=20200612-06:16:00.550|56=REALTIMEMARKETS|55=amzn|268=1|269=0|270=87|271=2|37=3|10=225|8=FIX.4.4|9=106|35=W|34=401|49=COEPEXCH|52=20200612-06:16:00.551|56=REALTIMEMARKETS|55=amzn|268=1|269=0|270=87|271=2|37=3|10=227|8=FIX.4.4|9=106|35=W|34=402|49=COEPEXCH|52=20200612-06:16:00.552|56=REALTIMEMARKETS|55=amzn|268=1|269=0|270=87|271=2|37=3|10=229|8=FIX.4.4|9=106|35=W|34=403|49=COEPEXCH|52=20200612-06:16:00.552|56=REALTIMEMARKETS|55=amzn|268=1|269=0|270=87|271=2|37=3|10=230|8=FIX.4.4|9=106|35=W|34=404|49=COEPEXCH|52=20200612-06:16:00.552|56=REALTIMEMARKETS|55=amzn|268=1|269=0|270=87|271=2|37=3|10=231|8=FIX.4.4|9=106|35=W|34=405|49=COEPEXCH|52=20200612-06:16:00.553|56=REALTIMEMARKETS|55=amzn|268=1|269=0|270=87|271=2|37=3|10=233|8=FIX.4.4|9=106|35=W|34=406|49=COEPEXCH|52=20200612-06:16:00.553|56=REALTIMEMARKETS|55=amzn|268=1|269=0|270=87|271=2|37=3|10=234|8=FIX.4.4|9=106|35=W|34=407|49=COEPEXCH|52=20200612-06:16:00.554|56=REALTIMEMARKETS|55=amzn|268=1|269=0|270=87|271=2|37=3|10=236|8=FIX.4.4|9=106|35=W|34=408|49=COEPEXCH|52=20200612-06:16:00.554|56=REALTIMEMARKETS|55=amzn|268=1|269=0|270=87|271=2|37=3|10=237|8=FIX.4.4|9=106|35=W|34=409|49=COEPEXCH|52=20200612-06:16:00.555|56=REALTIMEMARKETS|55=amzn|268=1|269=0|270=87|271=2|37=3|10=239|8=FIX.4.4|9=106|35=W|34=410|49=COEPEXCH|52=20200612-06:16:00.555|56=REALTIMEMARKETS|55=amzn|268=1|269=0|270=87|271=2|37=3|10=231|8=FIX.4.4|9=106|35=W|34=411|49=COEPEXCH|52=20200612-06:16:00.556|56=REALTIMEMARKETS|55=amzn|268=1|269=0|270=87|271=2|37=3|10=233|8=FIX.4.4|9=106|35=W|34=412|49=COEPEXCH|52=20200612-06:16:00.556|56=REALTIMEMARKETS|55=amzn|268=1|269=0|270=87|271=2|37=3|10=234|8=FIX.4.4|9=106|35=W|34=413|49=COEPEXCH|52=20200612-06:16:00.557|56=REALTIMEMARKETS|55=amzn|268=1|269=0|270=87|271=2|37=3|10=236|8=FIX.4.4|9=106|35=W|34=414|49=COEPEXCH|52=20200612-06:16:00.557|56=REALTIMEMARKETS|55=amzn|268=1|269=0|270=87|271=2|37=3|10=237|8=FIX.4.4|9=106|35=W|34=415|49=COEPEXCH|52=20200612-06:16:00.558|56=REALTIMEMARKETS|55=amzn|268=1|269=0|270=87|271=2|37=3|10=239|8=FIX.4.4|9=106|35=W|34=416|49=COEPEXCH|52=20200612-06:16:00.559|56=REALTIMEMARKETS|55=amzn|268=1|269=0|270=87|271=2|37=3|10=241|8=FIX.4.4|9=106|35=W|34=417|49=COEPEXCH|52=20200612-06:16:00.560|56=REALTIMEMARKETS|55=amzn|268=1|269=0|270=87|271=2|37=3|10=234|8=FIX.4.4|9=106|35=W|34=418|49=COEPEXCH|52=20200612-06:16:00.560|56=REALTIMEMARKETS|55=amzn|268=1|269=0|270=87|271=2|37=3|10=235|8=FIX.4.4|9=106|35=W|34=419|49=COEPEXCH|52=20200612-06:16:00.562|56=REALTIMEMARKETS|55=amzn|268=1|269=0|270=87|271=2|37=3|10=238|8=FIX.4.4|9=106|35=W|34=420|49=COEPEXCH|52=20200612-06:16:00.565|56=REALTIMEMARKETS|55=amzn|268=1|269=0|270=87|271=2|37=3|10=233|8=FIX.4.4|9=106|35=W|34=421|49=COEPEXCH|52=20200612-06:16:00.568|56=REALTIMEMARKETS|55=amzn|268=1|269=0|270=87|271=2|37=3|10=237|8=FIX.4.4|9=106|35=W|34=422|49=COEPEXCH|52=20200612-06:16:00.569|56=REALTIMEMARKETS|55=amzn|268=1|269=0|270=87|271=2|37=3|10=239|8=FIX.4.4|9=106|35=W|34=423|49=COEPEXCH|52=20200612-06:16:00.570|56=REALTIMEMARKETS|55=amzn|268=1|269=0|270=87|271=2|37=3|10=232|8=FIX.4.4|9=106|35=W|34=424|49=COEPEXCH|52=20200612-06:16:00.570|56=REALTIMEMARKETS|55=amzn|268=1|269=0|270=87|271=2|37=3|10=233|8=FIX.4.4|9=106|35=W|34=425|49=COEPEXCH|52=20200612-06:16:00.571|56=REALTIMEMARKETS|55=amzn|268=1|269=0|270=87|271=2|37=3|10=235|8=FIX.4.4|9=106|35=W|34=426|49=COEPEXCH|52=20200612-06:16:00.571|56=REALTIMEMARKETS|55=amzn|268=1|269=0|270=87|271=2|37=3|10=236|8=FIX.4.4|9=106|35=W|34=427|49=COEPEXCH|52=20200612-06:16:00.572|56=REALTIMEMARKETS|55=amzn|268=1|269=0|270=87|271=2|37=3|10=238|8=FIX.4.4|9=106|35=W|34=428|49=COEPEXCH|52=20200612-06:16:00.572|56=REALTIMEMARKETS|55=amzn|268=1|269=0|270=87|271=2|37=3|10=239|8=FIX.4.4|9=106|35=W|34=429|49=COEPEXCH|52=20200612-06:16:00.573|56=REALTIMEMARKETS|55=amzn|268=1|269=0|270=87|271=2|37=3|10=241|8=FIX.4.4|9=106|35=W|34=430|49=COEPEXCH|52=20200612-06:16:00.574|56=REALTIMEMARKETS|55=amzn|268=1|269=0|270=87|271=2|37=3|10=234|8=FIX.4.4|9=106|35=W|34=431|49=COEPEXCH|52=20200612-06:16:00.574|56=REALTIMEMARKETS|55=amzn|268=1|269=0|270=87|271=2|37=3|10=235|8=FIX.4.4|9=106|35=W|34=432|49=COEPEXCH|52=20200612-06:16:00.575|56=REALTIMEMARKETS|55=amzn|268=1|269=0|270=87|271=2|37=3|10=237|8=FIX.4.4|9=106|35=W|34=433|49=COEPEXCH|52=20200612-06:16:00.575|56=REALTIMEMARKETS|55=amzn|268=1|269=0|270=87|271=2|37=3|10=238|8=FIX.4.4|9=106|35=W|34=434|49=COEPEXCH|52=20200612-06:16:00.576|56=REALTIMEMARKETS|55=amzn|268=1|269=0|270=87|271=2|37=3|10=240|8=FIX.4.4|9=106|35=W|34=435|49=COEPEXCH|52=20200612-06:16:00.576|56=REALTIMEMARKETS|55=amzn|268=1|269=0|270=87|271=2|37=3|10=241|8=FIX.4.4|9=106|35=W|34=436|49=COEPEXCH|52=20200612-06:16:00.577|56=REALTIMEMARKETS|55=amzn|268=1|269=0|270=87|271=2|37=3|10=243|8=FIX.4.4|9=106|35=W|34=437|49=COEPEXCH|52=20200612-06:16:00.577|56=REALTIMEMARKETS|55=amzn|268=1|269=0|270=87|271=2|37=3|10=244|8=FIX.4.4|9=106|35=W|34=438|49=COEPEXCH|52=20200612-06:16:00.579|56=REALTIMEMARKETS|55=amzn|268=1|269=0|270=87|271=2|37=3|10=247|8=FIX.4.4|9=106|35=W|34=439|49=COEPEXCH|52=20200612-06:16:00.581|56=REALTIMEMARKETS|55=amzn|268=1|269=0|270=87|271=2|37=3|10=241|8=FIX.4.4|9=106|35=W|34=440|49=COEPEXCH|52=20200612-06:16:00.582|56=REALTIMEMARKETS|55=amzn|268=1|269=0|270=87|271=2|37=3|10=234|8=FIX.4.4|9=106|35=W|34=441|49=COEPEXCH|52=20200612-06:16:00.583|56=REALTIMEMARKETS|55=amzn|268=1|269=0|270=87|271=2|37=3|10=236|8=FIX.4.4|9=106|35=W|34=442|49=COEPEXCH|52=20200612-06:16:00.583|56=REALTIMEMARKETS|55=amzn|268=1|269=0|270=87|271=2|37=3|10=237|8=FIX.4.4|9=106|35=W|34=443|49=COEPEXCH|52=20200612-06:16:00.584|56=REALTIMEMARKETS|55=amzn|268=1|269=0|270=87|271=2|37=3|10=239|8=FIX.4.4|9=106|35=W|34=444|49=COEPEXCH|52=20200612-06:16:00.584|56=REALTIMEMARKETS|55=amzn|268=1|269=0|270=87|271=2|37=3|10=240|8=FIX.4.4|9=106|35=W|34=445|49=COEPEXCH|52=20200612-06:16:00.585|56=REALTIMEMARKETS|55=amzn|268=1|269=0|270=87|271=2|37=3|10=242|8=FIX.4.4|9=106|35=W|34=446|49=COEPEXCH|52=20200612-06:16:00.585|56=REALTIMEMARKETS|55=amzn|268=1|269=0|270=87|271=2|37=3|10=243|8=FIX.4.4|9=106|35=W|34=447|49=COEPEXCH|52=20200612-06:16:00.586|56=REALTIMEMARKETS|55=amzn|268=1|269=0|270=87|271=2|37=3|10=245|8=FIX.4.4|9=106|35=W|34=448|49=COEPEXCH|52=20200612-06:16:00.586|56=REALTIMEMARKETS|55=amzn|268=1|269=0|270=87|271=2|37=3|10=246|8=FIX.4.4|9=106|35=W|34=449|49=COEPEXCH|52=20200612-06:16:00.590|56=REALTIMEMARKETS|55=amzn|268=1|269=0|270=87|271=2|37=3|10=242|8=FIX.4.4|9=106|35=W|34=450|49=COEPEXCH|52=20200612-06:16:00.592|56=REALTIMEMARKETS|55=amzn|268=1|269=0|270=87|271=2|37=3|10=236|8=FIX.4.4|9=106|35=W|34=451|49=COEPEXCH|52=20200612-06:16:00.593|56=REALTIMEMARKETS|55=amzn|268=1|269=0|270=87|271=2|37=3|10=238|8=FIX.4.4|9=106|35=W|34=452|49=COEPEXCH|52=20200612-06:16:00.594|56=REALTIMEMARKETS|55=amzn|268=1|269=0|270=87|271=2|37=3|10=240|8=FIX.4.4|9=106|35=W|34=453|49=COEPEXCH|52=20200612-06:16:00.594|56=REALTIMEMARKETS|55=amzn|268=1|269=0|270=87|271=2|37=3|10=241|8=FIX.4.4|9=106|35=W|34=454|49=COEPEXCH|52=20200612-06:16:00.595|56=REALTIMEMARKETS|55=amzn|268=1|269=0|270=87|271=2|37=3|10=243|8=FIX.4.4|9=106|35=W|34=455|49=COEPEXCH|52=20200612-06:16:00.595|56=REALTIMEMARKETS|55=amzn|268=1|269=0|270=87|271=2|37=3|10=244|8=FIX.4.4|9=106|35=W|34=456|49=COEPEXCH|52=20200612-06:16:00.596|56=REALTIMEMARKETS|55=amzn|268=1|269=0|270=87|271=2|37=3|10=246|8=FIX.4.4|9=106|35=W|34=457|49=COEPEXCH|52=20200612-06:16:00.596|56=REALTIMEMARKETS|55=amzn|268=1|269=0|270=87|271=2|37=3|10=247|8=FIX.4.4|9=106|35=W|34=458|49=COEPEXCH|52=20200612-06:16:00.597|56=REALTIMEMARKETS|55=amzn|268=1|269=0|270=87|271=2|37=3|10=249|8=FIX.4.4|9=106|35=W|34=459|49=COEPEXCH|52=20200612-06:16:00.598|56=REALTIMEMARKETS|55=amzn|268=1|269=0|270=87|271=2|37=3|10=251|8=FIX.4.4|9=106|35=W|34=460|49=COEPEXCH|52=20200612-06:16:00.598|56=REALTIMEMARKETS|55=amzn|268=1|269=0|270=87|271=2|37=3|10=243|8=FIX.4.4|9=106|35=W|34=461|49=COEPEXCH|52=20200612-06:16:00.599|56=REALTIMEMARKETS|55=amzn|268=1|269=0|270=87|271=2|37=3|10=245|8=FIX.4.4|9=106|35=W|34=462|49=COEPEXCH|52=20200612-06:16:00.600|56=REALTIMEMARKETS|55=amzn|268=1|269=0|270=87|271=2|37=3|10=229|8=FIX.4.4|9=106|35=W|34=463|49=COEPEXCH|52=20200612-06:16:00.600|56=REALTIMEMARKETS|55=amzn|268=1|269=0|270=87|271=2|37=3|10=230|8=FIX.4.4|9=106|35=W|34=464|49=COEPEXCH|52=20200612-06:16:00.601|56=REALTIMEMARKETS|55=amzn|268=1|269=0|270=87|271=2|37=3|10=232|8=FIX.4.4|9=106|35=W|34=465|49=COEPEXCH|52=20200612-06:16:00.601|56=REALTIMEMARKETS|55=amzn|268=1|269=0|270=87|271=2|37=3|10=233|8=FIX.4.4|9=106|35=W|34=466|49=COEPEXCH|52=20200612-06:16:00.602|56=REALTIMEMARKETS|55=amzn|268=1|269=0|270=87|271=2|37=3|10=235|8=FIX.4.4|9=106|35=W|34=467|49=COEPEXCH|52=20200612-06:16:00.603|56=REALTIMEMARKETS|55=amzn|268=1|269=0|270=87|271=2|37=3|10=237|8=FIX.4.4|9=106|35=W|34=468|49=COEPEXCH|52=20200612-06:16:00.603|56=REALTIMEMARKETS|55=amzn|268=1|269=0|270=87|271=2|37=3|10=238|8=FIX.4.4|9=106|35=W|34=469|49=COEPEXCH|52=20200612-06:16:00.604|56=REALTIMEMARKETS|55=amzn|268=1|269=0|270=87|271=2|37=3|10=240|8=FIX.4.4|9=106|35=W|34=470|49=COEPEXCH|52=20200612-06:16:00.604|56=REALTIMEMARKETS|55=amzn|268=1|269=0|270=87|271=2|37=3|10=232|8=FIX.4.4|9=106|35=W|34=471|49=COEPEXCH|52=20200612-06:16:00.605|56=REALTIMEMARKETS|55=amzn|268=1|269=0|270=87|271=2|37=3|10=234|8=FIX.4.4|9=106|35=W|34=472|49=COEPEXCH|52=20200612-06:16:00.606|56=REALTIMEMARKETS|55=amzn|268=1|269=0|270=87|271=2|37=3|10=236|8=FIX.4.4|9=106|35=W|34=473|49=COEPEXCH|52=20200612-06:16:00.606|56=REALTIMEMARKETS|55=amzn|268=1|269=0|270=87|271=2|37=3|10=237|8=FIX.4.4|9=106|35=W|34=474|49=COEPEXCH|52=20200612-06:16:00.607|56=REALTIMEMARKETS|55=amzn|268=1|269=0|270=87|271=2|37=3|10=239|8=FIX.4.4|9=106|35=W|34=475|49=COEPEXCH|52=20200612-06:16:00.608|56=REALTIMEMARKETS|55=amzn|268=1|269=0|270=87|271=2|37=3|10=241|8=FIX.4.4|9=106|35=W|34=476|49=COEPEXCH|52=20200612-06:16:00.608|56=REALTIMEMARKETS|55=amzn|268=1|269=0|270=87|271=2|37=3|10=242|8=FIX.4.4|9=106|35=W|34=477|49=COEPEXCH|52=20200612-06:16:00.609|56=REALTIMEMARKETS|55=amzn|268=1|269=0|270=87|271=2|37=3|10=244|8=FIX.4.4|9=106|35=W|34=478|49=COEPEXCH|52=20200612-06:16:00.610|56=REALTIMEMARKETS|55=amzn|268=1|269=0|270=87|271=2|37=3|10=237|8=FIX.4.4|9=106|35=W|34=479|49=COEPEXCH|52=20200612-06:16:00.610|56=REALTIMEMARKETS|55=amzn|268=1|269=0|270=87|271=2|37=3|10=238|8=FIX.4.4|9=106|35=W|34=480|49=COEPEXCH|52=20200612-06:16:00.611|56=REALTIMEMARKETS|55=amzn|268=1|269=0|270=87|271=2|37=3|10=231|8=FIX.4.4|9=106|35=W|34=481|49=COEPEXCH|52=20200612-06:16:00.611|56=REALTIMEMARKETS|55=amzn|268=1|269=0|270=87|271=2|37=3|10=232|8=FIX.4.4|9=106|35=W|34=482|49=COEPEXCH|52=20200612-06:16:00.612|56=REALTIMEMARKETS|55=amzn|268=1|269=0|270=87|271=2|37=3|10=234|8=FIX.4.4|9=106|35=W|34=483|49=COEPEXCH|52=20200612-06:16:00.613|56=REALTIMEMARKETS|55=amzn|268=1|269=0|270=87|271=2|37=3|10=236|8=FIX.4.4|9=106|35=W|34=484|49=COEPEXCH|52=20200612-06:16:00.613|56=REALTIMEMARKETS|55=amzn|268=1|269=0|270=87|271=2|37=3|10=237|8=FIX.4.4|9=106|35=W|34=485|49=COEPEXCH|52=20200612-06:16:00.614|56=REALTIMEMARKETS|55=amzn|268=1|269=0|270=87|271=2|37=3|10=239|8=FIX.4.4|9=106|35=W|34=486|49=COEPEXCH|52=20200612-06:16:00.614|56=REALTIMEMARKETS|55=amzn|268=1|269=0|270=87|271=2|37=3|10=240|8=FIX.4.4|9=106|35=W|34=487|49=COEPEXCH|52=20200612-06:16:00.615|56=REALTIMEMARKETS|55=amzn|268=1|269=0|270=87|271=2|37=3|10=242|8=FIX.4.4|9=106|35=W|34=488|49=COEPEXCH|52=20200612-06:16:00.616|56=REALTIMEMARKETS|55=amzn|268=1|269=0|270=87|271=2|37=3|10=244|8=FIX.4.4|9=106|35=W|34=489|49=COEPEXCH|52=20200612-06:16:00.616|56=REALTIMEMARKETS|55=amzn|268=1|269=0|270=87|271=2|37=3|10=245|8=FIX.4.4|9=106|35=W|34=490|49=COEPEXCH|52=20200612-06:16:00.617|56=REALTIMEMARKETS|55=amzn|268=1|269=0|270=87|271=2|37=3|10=238|8=FIX.4.4|9=106|35=W|34=491|49=COEPEXCH|52=20200612-06:16:00.617|56=REALTIMEMARKETS|55=amzn|268=1|269=0|270=87|271=2|37=3|10=239|8=FIX.4.4|9=106|35=W|34=492|49=COEPEXCH|52=20200612-06:16:00.618|56=REALTIMEMARKETS|55=amzn|268=1|269=0|270=87|271=2|37=3|10=241|8=FIX.4.4|9=106|35=W|34=493|49=COEPEXCH|52=20200612-06:16:00.618|56=REALTIMEMARKETS|55=amzn|268=1|269=0|270=87|271=2|37=3|10=242|8=FIX.4.4|9=106|35=W|34=494|49=COEPEXCH|52=20200612-06:16:00.619|56=REALTIMEMARKETS|55=amzn|268=1|269=0|270=87|271=2|37=3|10=244|8=FIX.4.4|9=106|35=W|34=495|49=COEPEXCH|52=20200612-06:16:00.619|56=REALTIMEMARKETS|55=amzn|268=1|269=0|270=87|271=2|37=3|10=245|8=FIX.4.4|9=106|35=W|34=496|49=COEPEXCH|52=20200612-06:16:00.620|56=REALTIMEMARKETS|55=amzn|268=1|269=0|270=87|271=2|37=3|10=238|8=FIX.4.4|9=106|35=W|34=497|49=COEPEXCH|52=20200612-06:16:00.621|56=REALTIMEMARKETS|55=amzn|268=1|269=0|270=87|271=2|37=3|10=240|8=FIX.4.4|9=106|35=W|34=498|49=COEPEXCH|52=20200612-06:16:00.621|56=REALTIMEMARKETS|55=amzn|268=1|269=0|270=87|271=2|37=3|10=241|8=FIX.4.4|9=106|35=W|34=499|49=COEPEXCH|52=20200612-06:16:00.622|56=REALTIMEMARKETS|55=amzn|268=1|269=0|270=87|271=2|37=3|10=243|8=FIX.4.4|9=106|35=W|34=500|49=COEPEXCH|52=20200612-06:16:00.623|56=REALTIMEMARKETS|55=amzn|268=1|269=0|270=87|271=2|37=3|10=227|8=FIX.4.4|9=106|35=W|34=501|49=COEPEXCH|52=20200612-06:16:00.623|56=REALTIMEMARKETS|55=amzn|268=1|269=0|270=87|271=2|37=3|10=228|8=FIX.4.4|9=106|35=W|34=502|49=COEPEXCH|52=20200612-06:16:00.624|56=REALTIMEMARKETS|55=amzn|268=1|269=0|270=87|271=2|37=3|10=230|8=FIX.4.4|9=106|35=W|34=503|49=COEPEXCH|52=20200612-06:16:00.624|56=REALTIMEMARKETS|55=amzn|268=1|269=0|270=87|271=2|37=3|10=231|8=FIX.4.4|9=106|35=W|34=504|49=COEPEXCH|52=20200612-06:16:00.625|56=REALTIMEMARKETS|55=amzn|268=1|269=0|270=87|271=2|37=3|10=233|8=FIX.4.4|9=106|35=W|34=505|49=COEPEXCH|52=20200612-06:16:00.626|56=REALTIMEMARKETS|55=amzn|268=1|269=0|270=87|271=2|37=3|10=235|8=FIX.4.4|9=106|35=W|34=506|49=COEPEXCH|52=20200612-06:16:00.627|56=REALTIMEMARKETS|55=amzn|268=1|269=0|270=87|271=2|37=3|10=237|8=FIX.4.4|9=106|35=W|34=507|49=COEPEXCH|52=20200612-06:16:00.627|56=REALTIMEMARKETS|55=amzn|268=1|269=0|270=87|271=2|37=3|10=238|8=FIX.4.4|9=106|35=W|34=508|49=COEPEXCH|52=20200612-06:16:00.628|56=REALTIMEMARKETS|55=amzn|268=1|269=0|270=87|271=2|37=3|10=240|8=FIX.4.4|9=106|35=W|34=509|49=COEPEXCH|52=20200612-06:16:00.628|56=REALTIMEMARKETS|55=amzn|268=1|269=0|270=87|271=2|37=3|10=241|8=FIX.4.4|9=106|35=W|34=510|49=COEPEXCH|52=20200612-06:16:00.629|56=REALTIMEMARKETS|55=amzn|268=1|269=0|270=87|271=2|37=3|10=234|8=FIX.4.4|9=106|35=W|34=511|49=COEPEXCH|52=20200612-06:16:00.629|56=REALTIMEMARKETS|55=amzn|268=1|269=0|270=87|271=2|37=3|10=235|8=FIX.4.4|9=106|35=W|34=512|49=COEPEXCH|52=20200612-06:16:00.630|56=REALTIMEMARKETS|55=amzn|268=1|269=0|270=87|271=2|37=3|10=228|8=FIX.4.4|9=106|35=W|34=513|49=COEPEXCH|52=20200612-06:16:00.631|56=REALTIMEMARKETS|55=amzn|268=1|269=0|270=87|271=2|37=3|10=230|8=FIX.4.4|9=106|35=W|34=514|49=COEPEXCH|52=20200612-06:16:00.632|56=REALTIMEMARKETS|55=amzn|268=1|269=0|270=87|271=2|37=3|10=232|8=FIX.4.4|9=106|35=W|34=515|49=COEPEXCH|52=20200612-06:16:00.632|56=REALTIMEMARKETS|55=amzn|268=1|269=0|270=87|271=2|37=3|10=233|8=FIX.4.4|9=106|35=W|34=516|49=COEPEXCH|52=20200612-06:16:00.633|56=REALTIMEMARKETS|55=amzn|268=1|269=0|270=87|271=2|37=3|10=235|8=FIX.4.4|9=106|35=W|34=517|49=COEPEXCH|52=20200612-06:16:00.633|56=REALTIMEMARKETS|55=amzn|268=1|269=0|270=87|271=2|37=3|10=236|8=FIX.4.4|9=106|35=W|34=518|49=COEPEXCH|52=20200612-06:16:00.634|56=REALTIMEMARKETS|55=amzn|268=1|269=0|270=87|271=2|37=3|10=238|8=FIX.4.4|9=106|35=W|34=519|49=COEPEXCH|52=20200612-06:16:00.635|56=REALTIMEMARKETS|55=amzn|268=1|269=0|270=87|271=2|37=3|10=240|8=FIX.4.4|9=106|35=W|34=520|49=COEPEXCH|52=20200612-06:16:00.635|56=REALTIMEMARKETS|55=amzn|268=1|269=0|270=87|271=2|37=3|10=232|8=FIX.4.4|9=106|35=W|34=521|49=COEPEXCH|52=20200612-06:16:00.636|56=REALTIMEMARKETS|55=amzn|268=1|269=0|270=87|271=2|37=3|10=234|8=FIX.4.4|9=106|35=W|34=522|49=COEPEXCH|52=20200612-06:16:00.636|56=REALTIMEMARKETS|55=amzn|268=1|269=0|270=87|271=2|37=3|10=235|8=FIX.4.4|9=106|35=W|34=523|49=COEPEXCH|52=20200612-06:16:00.637|56=REALTIMEMARKETS|55=amzn|268=1|269=0|270=87|271=2|37=3|10=237|8=FIX.4.4|9=106|35=W|34=524|49=COEPEXCH|52=20200612-06:16:00.638|56=REALTIMEMARKETS|55=amzn|268=1|269=0|270=87|271=2|37=3|10=239|8=FIX.4.4|9=106|35=W|34=525|49=COEPEXCH|52=20200612-06:16:00.638|56=REALTIMEMARKETS|55=amzn|268=1|269=0|270=87|271=2|37=3|10=240|8=FIX.4.4|9=106|35=W|34=526|49=COEPEXCH|52=20200612-06:16:00.639|56=REALTIMEMARKETS|55=amzn|268=1|269=0|270=87|271=2|37=3|10=242|8=FIX.4.4|9=106|35=W|34=527|49=COEPEXCH|52=20200612-06:16:00.639|56=REALTIMEMARKETS|55=amzn|268=1|269=0|270=87|271=2|37=3|10=243|8=FIX.4.4|9=106|35=W|34=528|49=COEPEXCH|52=20200612-06:16:00.640|56=REALTIMEMARKETS|55=amzn|268=1|269=0|270=87|271=2|37=3|10=236|8=FIX.4.4|9=106|35=W|34=529|49=COEPEXCH|52=20200612-06:16:00.644|56=REALTIMEMARKETS|55=amzn|268=1|269=0|270=87|271=2|37=3|10=241|8=FIX.4.4|9=106|35=W|34=530|49=COEPEXCH|52=20200612-06:16:00.645|56=REALTIMEMARKETS|55=amzn|268=1|269=0|270=87|271=2|37=3|10=234|8=FIX.4.4|9=106|35=W|34=531|49=COEPEXCH|52=20200612-06:16:00.646|56=REALTIMEMARKETS|55=amzn|268=1|269=0|270=87|271=2|37=3|10=236|8=FIX.4.4|9=106|35=W|34=532|49=COEPEXCH|52=20200612-06:16:00.647|56=REALTIMEMARKETS|55=amzn|268=1|269=0|270=87|271=2|37=3|10=238|8=FIX.4.4|9=106|35=W|34=533|49=COEPEXCH|52=20200612-06:16:00.647|56=REALTIMEMARKETS|55=amzn|268=1|269=0|270=87|271=2|37=3|10=239|8=FIX.4.4|9=106|35=W|34=534|49=COEPEXCH|52=20200612-06:16:00.648|56=REALTIMEMARKETS|55=amzn|268=1|269=0|270=87|271=2|37=3|10=241|8=FIX.4.4|9=106|35=W|34=535|49=COEPEXCH|52=20200612-06:16:00.648|56=REALTIMEMARKETS|55=amzn|268=1|269=0|270=87|271=2|37=3|10=242|8=FIX.4.4|9=106|35=W|34=536|49=COEPEXCH|52=20200612-06:16:00.649|56=REALTIMEMARKETS|55=amzn|268=1|269=0|270=87|271=2|37=3|10=244|8=FIX.4.4|9=106|35=W|34=537|49=COEPEXCH|52=20200612-06:16:00.650|56=REALTIMEMARKETS|55=amzn|268=1|269=0|270=87|271=2|37=3|10=237|8=FIX.4.4|9=106|35=W|34=538|49=COEPEXCH|52=20200612-06:16:00.650|56=REALTIMEMARKETS|55=amzn|268=1|269=0|270=87|271=2|37=3|10=238|8=FIX.4.4|9=106|35=W|34=539|49=COEPEXCH|52=20200612-06:16:00.651|56=REALTIMEMARKETS|55=amzn|268=1|269=0|270=87|271=2|37=3|10=240|8=FIX.4.4|9=106|35=W|34=540|49=COEPEXCH|52=20200612-06:16:00.651|56=REALTIMEMARKETS|55=amzn|268=1|269=0|270=87|271=2|37=3|10=232|8=FIX.4.4|9=106|35=W|34=541|49=COEPEXCH|52=20200612-06:16:00.652|56=REALTIMEMARKETS|55=amzn|268=1|269=0|270=87|271=2|37=3|10=234|8=FIX.4.4|9=106|35=W|34=542|49=COEPEXCH|52=20200612-06:16:00.652|56=REALTIMEMARKETS|55=amzn|268=1|269=0|270=87|271=2|37=3|10=235|8=FIX.4.4|9=106|35=W|34=543|49=COEPEXCH|52=20200612-06:16:00.653|56=REALTIMEMARKETS|55=amzn|268=1|269=0|270=87|271=2|37=3|10=237|8=FIX.4.4|9=106|35=W|34=544|49=COEPEXCH|52=20200612-06:16:00.654|56=REALTIMEMARKETS|55=amzn|268=1|269=0|270=87|271=2|37=3|10=239|8=FIX.4.4|9=106|35=W|34=545|49=COEPEXCH|52=20200612-06:16:00.654|56=REALTIMEMARKETS|55=amzn|268=1|269=0|270=87|271=2|37=3|10=240|8=FIX.4.4|9=106|35=W|34=546|49=COEPEXCH|52=20200612-06:16:00.655|56=REALTIMEMARKETS|55=amzn|268=1|269=0|270=87|271=2|37=3|10=242|8=FIX.4.4|9=106|35=W|34=547|49=COEPEXCH|52=20200612-06:16:00.655|56=REALTIMEMARKETS|55=amzn|268=1|269=0|270=87|271=2|37=3|10=243|8=FIX.4.4|9=106|35=W|34=548|49=COEPEXCH|52=20200612-06:16:00.656|56=REALTIMEMARKETS|55=amzn|268=1|269=0|270=87|271=2|37=3|10=245|8=FIX.4.4|9=106|35=W|34=549|49=COEPEXCH|52=20200612-06:16:00.657|56=REALTIMEMARKETS|55=amzn|268=1|269=0|270=87|271=2|37=3|10=247|8=FIX.4.4|9=106|35=W|34=550|49=COEPEXCH|52=20200612-06:16:00.657|56=REALTIMEMARKETS|55=amzn|268=1|269=0|270=87|271=2|37=3|10=239|8=FIX.4.4|9=106|35=W|34=551|49=COEPEXCH|52=20200612-06:16:00.658|56=REALTIMEMARKETS|55=amzn|268=1|269=0|270=87|271=2|37=3|10=241|8=FIX.4.4|9=106|35=W|34=552|49=COEPEXCH|52=20200612-06:16:00.658|56=REALTIMEMARKETS|55=amzn|268=1|269=0|270=87|271=2|37=3|10=242|8=FIX.4.4|9=106|35=W|34=553|49=COEPEXCH|52=20200612-06:16:00.659|56=REALTIMEMARKETS|55=amzn|268=1|269=0|270=87|271=2|37=3|10=244|8=FIX.4.4|9=106|35=W|34=554|49=COEPEXCH|52=20200612-06:16:00.659|56=REALTIMEMARKETS|55=amzn|268=1|269=0|270=87|271=2|37=3|10=245|8=FIX.4.4|9=106|35=W|34=555|49=COEPEXCH|52=20200612-06:16:00.660|56=REALTIMEMARKETS|55=amzn|268=1|269=0|270=87|271=2|37=3|10=238|8=FIX.4.4|9=106|35=W|34=556|49=COEPEXCH|52=20200612-06:16:00.661|56=REALTIMEMARKETS|55=amzn|268=1|269=0|270=87|271=2|37=3|10=240|8=FIX.4.4|9=106|35=W|34=557|49=COEPEXCH|52=20200612-06:16:00.661|56=REALTIMEMARKETS|55=amzn|268=1|269=0|270=87|271=2|37=3|10=241|8=FIX.4.4|9=106|35=W|34=558|49=COEPEXCH|52=20200612-06:16:00.662|56=REALTIMEMARKETS|55=amzn|268=1|269=0|270=87|271=2|37=3|10=243|8=FIX.4.4|9=106|35=W|34=559|49=COEPEXCH|52=20200612-06:16:00.662|56=REALTIMEMARKETS|55=amzn|268=1|269=0|270=87|271=2|37=3|10=244|8=FIX.4.4|9=106|35=W|34=560|49=COEPEXCH|52=20200612-06:16:00.663|56=REALTIMEMARKETS|55=amzn|268=1|269=0|270=87|271=2|37=3|10=237|8=FIX.4.4|9=106|35=W|34=561|49=COEPEXCH|52=20200612-06:16:00.663|56=REALTIMEMARKETS|55=amzn|268=1|269=0|270=87|271=2|37=3|10=238|8=FIX.4.4|9=106|35=W|34=562|49=COEPEXCH|52=20200612-06:16:00.664|56=REALTIMEMARKETS|55=amzn|268=1|269=0|270=87|271=2|37=3|10=240|8=FIX.4.4|9=106|35=W|34=563|49=COEPEXCH|52=20200612-06:16:00.665|56=REALTIMEMARKETS|55=amzn|268=1|269=0|270=87|271=2|37=3|10=242|8=FIX.4.4|9=106|35=W|34=564|49=COEPEXCH|52=20200612-06:16:00.665|56=REALTIMEMARKETS|55=amzn|268=1|269=0|270=87|271=2|37=3|10=243|8=FIX.4.4|9=106|35=W|34=565|49=COEPEXCH|52=20200612-06:16:00.666|56=REALTIMEMARKETS|55=amzn|268=1|269=0|270=87|271=2|37=3|10=245|8=FIX.4.4|9=106|35=W|34=566|49=COEPEXCH|52=20200612-06:16:00.667|56=REALTIMEMARKETS|55=amzn|268=1|269=0|270=87|271=2|37=3|10=247|8=FIX.4.4|9=106|35=W|34=567|49=COEPEXCH|52=20200612-06:16:00.667|56=REALTIMEMARKETS|55=amzn|268=1|269=0|270=87|271=2|37=3|10=248|8=FIX.4.4|9=106|35=W|34=568|49=COEPEXCH|52=20200612-06:16:00.668|56=REALTIMEMARKETS|55=amzn|268=1|269=0|270=87|271=2|37=3|10=250|8=FIX.4.4|9=106|35=W|34=569|49=COEPEXCH|52=20200612-06:16:00.668|56=REALTIMEMARKETS|55=amzn|268=1|269=0|270=87|271=2|37=3|10=251|8=FIX.4.4|9=106|35=W|34=570|49=COEPEXCH|52=20200612-06:16:00.669|56=REALTIMEMARKETS|55=amzn|268=1|269=0|270=87|271=2|37=3|10=244|8=FIX.4.4|9=106|35=W|34=571|49=COEPEXCH|52=20200612-06:16:00.670|56=REALTIMEMARKETS|55=amzn|268=1|269=0|270=87|271=2|37=3|10=237|8=FIX.4.4|9=106|35=W|34=572|49=COEPEXCH|52=20200612-06:16:00.670|56=REALTIMEMARKETS|55=amzn|268=1|269=0|270=87|271=2|37=3|10=238|8=FIX.4.4|9=106|35=W|34=573|49=COEPEXCH|52=20200612-06:16:00.671|56=REALTIMEMARKETS|55=amzn|268=1|269=0|270=87|271=2|37=3|10=240|8=FIX.4.4|9=106|35=W|34=574|49=COEPEXCH|52=20200612-06:16:00.672|56=REALTIMEMARKETS|55=amzn|268=1|269=0|270=87|271=2|37=3|10=242|8=FIX.4.4|9=106|35=W|34=575|49=COEPEXCH|52=20200612-06:16:00.672|56=REALTIMEMARKETS|55=amzn|268=1|269=0|270=87|271=2|37=3|10=243|8=FIX.4.4|9=106|35=W|34=576|49=COEPEXCH|52=20200612-06:16:00.673|56=REALTIMEMARKETS|55=amzn|268=1|269=0|270=87|271=2|37=3|10=245|8=FIX.4.4|9=106|35=W|34=577|49=COEPEXCH|52=20200612-06:16:00.673|56=REALTIMEMARKETS|55=amzn|268=1|269=0|270=87|271=2|37=3|10=246|8=FIX.4.4|9=106|35=W|34=578|49=COEPEXCH|52=20200612-06:16:00.674|56=REALTIMEMARKETS|55=amzn|268=1|269=0|270=87|271=2|37=3|10=248|8=FIX.4.4|9=106|35=W|34=579|49=COEPEXCH|52=20200612-06:16:00.674|56=REALTIMEMARKETS|55=amzn|268=1|269=0|270=87|271=2|37=3|10=249|8=FIX.4.4|9=106|35=W|34=580|49=COEPEXCH|52=20200612-06:16:00.675|56=REALTIMEMARKETS|55=amzn|268=1|269=0|270=87|271=2|37=3|10=242|8=FIX.4.4|9=106|35=W|34=581|49=COEPEXCH|52=20200612-06:16:00.676|56=REALTIMEMARKETS|55=amzn|268=1|269=0|270=87|271=2|37=3|10=244|8=FIX.4.4|9=106|35=W|34=582|49=COEPEXCH|52=20200612-06:16:00.677|56=REALTIMEMARKETS|55=amzn|268=1|269=0|270=87|271=2|37=3|10=246|8=FIX.4.4|9=106|35=W|34=583|49=COEPEXCH|52=20200612-06:16:00.677|56=REALTIMEMARKETS|55=amzn|268=1|269=0|270=87|271=2|37=3|10=247|8=FIX.4.4|9=106|35=W|34=584|49=COEPEXCH|52=20200612-06:16:00.678|56=REALTIMEMARKETS|55=amzn|268=1|269=0|270=87|271=2|37=3|10=249|8=FIX.4.4|9=106|35=W|34=585|49=COEPEXCH|52=20200612-06:16:00.678|56=REALTIMEMARKETS|55=amzn|268=1|269=0|270=87|271=2|37=3|10=250|8=FIX.4.4|9=106|35=W|34=586|49=COEPEXCH|52=20200612-06:16:00.679|56=REALTIMEMARKETS|55=amzn|268=1|269=0|270=87|271=2|37=3|10=252|8=FIX.4.4|9=106|35=W|34=587|49=COEPEXCH|52=20200612-06:16:00.680|56=REALTIMEMARKETS|55=amzn|268=1|269=0|270=87|271=2|37=3|10=245|8=FIX.4.4|9=106|35=W|34=588|49=COEPEXCH|52=20200612-06:16:00.681|56=REALTIMEMARKETS|55=amzn|268=1|269=0|270=87|271=2|37=3|10=247|8=FIX.4.4|9=106|35=W|34=589|49=COEPEXCH|52=20200612-06:16:00.681|56=REALTIMEMARKETS|55=amzn|268=1|269=0|270=87|271=2|37=3|10=248|8=FIX.4.4|9=106|35=W|34=590|49=COEPEXCH|52=20200612-06:16:00.682|56=REALTIMEMARKETS|55=amzn|268=1|269=0|270=87|271=2|37=3|10=241|8=FIX.4.4|9=106|35=W|34=591|49=COEPEXCH|52=20200612-06:16:00.682|56=REALTIMEMARKETS|55=amzn|268=1|269=0|270=87|271=2|37=3|10=242|8=FIX.4.4|9=106|35=W|34=592|49=COEPEXCH|52=20200612-06:16:00.683|56=REALTIMEMARKETS|55=amzn|268=1|269=0|270=87|271=2|37=3|10=244|8=FIX.4.4|9=106|35=W|34=593|49=COEPEXCH|52=20200612-06:16:00.683|56=REALTIMEMARKETS|55=amzn|268=1|269=0|270=87|271=2|37=3|10=245|8=FIX.4.4|9=106|35=W|34=594|49=COEPEXCH|52=20200612-06:16:00.684|56=REALTIMEMARKETS|55=amzn|268=1|269=0|270=87|271=2|37=3|10=247|8=FIX.4.4|9=106|35=W|34=595|49=COEPEXCH|52=20200612-06:16:00.685|56=REALTIMEMARKETS|55=amzn|268=1|269=0|270=87|271=2|37=3|10=249|8=FIX.4.4|9=106|35=W|34=596|49=COEPEXCH|52=20200612-06:16:00.685|56=REALTIMEMARKETS|55=amzn|268=1|269=0|270=87|271=2|37=3|10=250|8=FIX.4.4|9=106|35=W|34=597|49=COEPEXCH|52=20200612-06:16:00.686|56=REALTIMEMARKETS|55=amzn|268=1|269=0|270=87|271=2|37=3|10=252|8=FIX.4.4|9=106|35=W|34=598|49=COEPEXCH|52=20200612-06:16:00.687|56=REALTIMEMARKETS|55=amzn|268=1|269=0|270=87|271=2|37=3|10=254|8=FIX.4.4|9=106|35=W|34=599|49=COEPEXCH|52=20200612-06:16:00.687|56=REALTIMEMARKETS|55=amzn|268=1|269=0|270=87|271=2|37=3|10=255|8=FIX.4.4|9=106|35=W|34=600|49=COEPEXCH|52=20200612-06:16:00.688|56=REALTIMEMARKETS|55=amzn|268=1|269=0|270=87|271=2|37=3|10=239|8=FIX.4.4|9=106|35=W|34=601|49=COEPEXCH|52=20200612-06:16:00.689|56=REALTIMEMARKETS|55=amzn|268=1|269=0|270=87|271=2|37=3|10=241|8=FIX.4.4|9=106|35=W|34=602|49=COEPEXCH|52=20200612-06:16:00.689|56=REALTIMEMARKETS|55=amzn|268=1|269=0|270=87|271=2|37=3|10=242|8=FIX.4.4|9=106|35=W|34=603|49=COEPEXCH|52=20200612-06:16:00.690|56=REALTIMEMARKETS|55=amzn|268=1|269=0|270=87|271=2|37=3|10=235|8=FIX.4.4|9=106|35=W|34=604|49=COEPEXCH|52=20200612-06:16:00.690|56=REALTIMEMARKETS|55=amzn|268=1|269=0|270=87|271=2|37=3|10=236|8=FIX.4.4|9=106|35=W|34=605|49=COEPEXCH|52=20200612-06:16:00.691|56=REALTIMEMARKETS|55=amzn|268=1|269=0|270=87|271=2|37=3|10=238|8=FIX.4.4|9=106|35=W|34=606|49=COEPEXCH|52=20200612-06:16:00.691|56=REALTIMEMARKETS|55=amzn|268=1|269=0|270=87|271=2|37=3|10=239|8=FIX.4.4|9=106|35=W|34=607|49=COEPEXCH|52=20200612-06:16:00.692|56=REALTIMEMARKETS|55=amzn|268=1|269=0|270=87|271=2|37=3|10=241|8=FIX.4.4|9=106|35=W|34=608|49=COEPEXCH|52=20200612-06:16:00.692|56=REALTIMEMARKETS|55=amzn|268=1|269=0|270=87|271=2|37=3|10=242|8=FIX.4.4|9=106|35=W|34=609|49=COEPEXCH|52=20200612-06:16:00.695|56=REALTIMEMARKETS|55=amzn|268=1|269=0|270=87|271=2|37=3|10=246|8=FIX.4.4|9=106|35=W|34=610|49=COEPEXCH|52=20200612-06:16:00.698|56=REALTIMEMARKETS|55=amzn|268=1|269=0|270=87|271=2|37=3|10=241|8=FIX.4.4|9=106|35=W|34=611|49=COEPEXCH|52=20200612-06:16:00.698|56=REALTIMEMARKETS|55=amzn|268=1|269=0|270=87|271=2|37=3|10=242|8=FIX.4.4|9=106|35=W|34=612|49=COEPEXCH|52=20200612-06:16:00.699|56=REALTIMEMARKETS|55=amzn|268=1|269=0|270=87|271=2|37=3|10=244|8=FIX.4.4|9=106|35=W|34=613|49=COEPEXCH|52=20200612-06:16:00.700|56=REALTIMEMARKETS|55=amzn|268=1|269=0|270=87|271=2|37=3|10=228|8=FIX.4.4|9=106|35=W|34=614|49=COEPEXCH|52=20200612-06:16:00.700|56=REALTIMEMARKETS|55=amzn|268=1|269=0|270=87|271=2|37=3|10=229|8=FIX.4.4|9=106|35=W|34=615|49=COEPEXCH|52=20200612-06:16:00.701|56=REALTIMEMARKETS|55=amzn|268=1|269=0|270=87|271=2|37=3|10=231|8=FIX.4.4|9=106|35=W|34=616|49=COEPEXCH|52=20200612-06:16:00.701|56=REALTIMEMARKETS|55=amzn|268=1|269=0|270=87|271=2|37=3|10=232|8=FIX.4.4|9=106|35=W|34=617|49=COEPEXCH|52=20200612-06:16:00.702|56=REALTIMEMARKETS|55=amzn|268=1|269=0|270=87|271=2|37=3|10=234|8=FIX.4.4|9=106|35=W|34=618|49=COEPEXCH|52=20200612-06:16:00.703|56=REALTIMEMARKETS|55=amzn|268=1|269=0|270=87|271=2|37=3|10=236|8=FIX.4.4|9=106|35=W|34=619|49=COEPEXCH|52=20200612-06:16:00.703|56=REALTIMEMARKETS|55=amzn|268=1|269=0|270=87|271=2|37=3|10=237|8=FIX.4.4|9=106|35=W|34=620|49=COEPEXCH|52=20200612-06:16:00.704|56=REALTIMEMARKETS|55=amzn|268=1|269=0|270=87|271=2|37=3|10=230|8=FIX.4.4|9=106|35=W|34=621|49=COEPEXCH|52=20200612-06:16:00.705|56=REALTIMEMARKETS|55=amzn|268=1|269=0|270=87|271=2|37=3|10=232|8=FIX.4.4|9=106|35=W|34=622|49=COEPEXCH|52=20200612-06:16:00.705|56=REALTIMEMARKETS|55=amzn|268=1|269=0|270=87|271=2|37=3|10=233|8=FIX.4.4|9=106|35=W|34=623|49=COEPEXCH|52=20200612-06:16:00.706|56=REALTIMEMARKETS|55=amzn|268=1|269=0|270=87|271=2|37=3|10=235|8=FIX.4.4|9=106|35=W|34=624|49=COEPEXCH|52=20200612-06:16:00.706|56=REALTIMEMARKETS|55=amzn|268=1|269=0|270=87|271=2|37=3|10=236|8=FIX.4.4|9=106|35=W|34=625|49=COEPEXCH|52=20200612-06:16:00.707|56=REALTIMEMARKETS|55=amzn|268=1|269=0|270=87|271=2|37=3|10=238|8=FIX.4.4|9=106|35=W|34=626|49=COEPEXCH|52=20200612-06:16:00.708|56=REALTIMEMARKETS|55=amzn|268=1|269=0|270=87|271=2|37=3|10=240|8=FIX.4.4|9=106|35=W|34=627|49=COEPEXCH|52=20200612-06:16:00.708|56=REALTIMEMARKETS|55=amzn|268=1|269=0|270=87|271=2|37=3|10=241|8=FIX.4.4|9=106|35=W|34=628|49=COEPEXCH|52=20200612-06:16:00.709|56=REALTIMEMARKETS|55=amzn|268=1|269=0|270=87|271=2|37=3|10=243|8=FIX.4.4|9=106|35=W|34=629|49=COEPEXCH|52=20200612-06:16:00.709|56=REALTIMEMARKETS|55=amzn|268=1|269=0|270=87|271=2|37=3|10=244|8=FIX.4.4|9=106|35=W|34=630|49=COEPEXCH|52=20200612-06:16:00.710|56=REALTIMEMARKETS|55=amzn|268=1|269=0|270=87|271=2|37=3|10=228|8=FIX.4.4|9=106|35=W|34=631|49=COEPEXCH|52=20200612-06:16:00.711|56=REALTIMEMARKETS|55=amzn|268=1|269=0|270=87|271=2|37=3|10=230|8=FIX.4.4|9=106|35=W|34=632|49=COEPEXCH|52=20200612-06:16:00.711|56=REALTIMEMARKETS|55=amzn|268=1|269=0|270=87|271=2|37=3|10=231|8=FIX.4.4|9=106|35=W|34=633|49=COEPEXCH|52=20200612-06:16:00.712|56=REALTIMEMARKETS|55=amzn|268=1|269=0|270=87|271=2|37=3|10=233|8=FIX.4.4|9=106|35=W|34=634|49=COEPEXCH|52=20200612-06:16:00.713|56=REALTIMEMARKETS|55=amzn|268=1|269=0|270=87|271=2|37=3|10=235|8=FIX.4.4|9=106|35=W|34=635|49=COEPEXCH|52=20200612-06:16:00.713|56=REALTIMEMARKETS|55=amzn|268=1|269=0|270=87|271=2|37=3|10=236|8=FIX.4.4|9=106|35=W|34=636|49=COEPEXCH|52=20200612-06:16:00.714|56=REALTIMEMARKETS|55=amzn|268=1|269=0|270=87|271=2|37=3|10=238|8=FIX.4.4|9=106|35=W|34=637|49=COEPEXCH|52=20200612-06:16:00.714|56=REALTIMEMARKETS|55=amzn|268=1|269=0|270=87|271=2|37=3|10=239|8=FIX.4.4|9=106|35=W|34=638|49=COEPEXCH|52=20200612-06:16:00.715|56=REALTIMEMARKETS|55=amzn|268=1|269=0|270=87|271=2|37=3|10=241|8=FIX.4.4|9=106|35=W|34=639|49=COEPEXCH|52=20200612-06:16:00.716|56=REALTIMEMARKETS|55=amzn|268=1|269=0|270=87|271=2|37=3|10=243|8=FIX.4.4|9=106|35=W|34=640|49=COEPEXCH|52=20200612-06:16:00.716|56=REALTIMEMARKETS|55=amzn|268=1|269=0|270=87|271=2|37=3|10=235|8=FIX.4.4|9=106|35=W|34=641|49=COEPEXCH|52=20200612-06:16:00.717|56=REALTIMEMARKETS|55=amzn|268=1|269=0|270=87|271=2|37=3|10=237|8=FIX.4.4|9=106|35=W|34=642|49=COEPEXCH|52=20200612-06:16:00.718|56=REALTIMEMARKETS|55=amzn|268=1|269=0|270=87|271=2|37=3|10=239|8=FIX.4.4|9=106|35=W|34=643|49=COEPEXCH|52=20200612-06:16:00.718|56=REALTIMEMARKETS|55=amzn|268=1|269=0|270=87|271=2|37=3|10=240|8=FIX.4.4|9=106|35=W|34=644|49=COEPEXCH|52=20200612-06:16:00.719|56=REALTIMEMARKETS|55=amzn|268=1|269=0|270=87|271=2|37=3|10=242|8=FIX.4.4|9=106|35=W|34=645|49=COEPEXCH|52=20200612-06:16:00.719|56=REALTIMEMARKETS|55=amzn|268=1|269=0|270=87|271=2|37=3|10=243|8=FIX.4.4|9=106|35=W|34=646|49=COEPEXCH|52=20200612-06:16:00.720|56=REALTIMEMARKETS|55=amzn|268=1|269=0|270=87|271=2|37=3|10=236|8=FIX.4.4|9=106|35=W|34=647|49=COEPEXCH|52=20200612-06:16:00.720|56=REALTIMEMARKETS|55=amzn|268=1|269=0|270=87|271=2|37=3|10=237|8=FIX.4.4|9=106|35=W|34=648|49=COEPEXCH|52=20200612-06:16:00.721|56=REALTIMEMARKETS|55=amzn|268=1|269=0|270=87|271=2|37=3|10=239|8=FIX.4.4|9=106|35=W|34=649|49=COEPEXCH|52=20200612-06:16:00.722|56=REALTIMEMARKETS|55=amzn|268=1|269=0|270=87|271=2|37=3|10=241|8=FIX.4.4|9=106|35=W|34=650|49=COEPEXCH|52=20200612-06:16:00.722|56=REALTIMEMARKETS|55=amzn|268=1|269=0|270=87|271=2|37=3|10=233|8=FIX.4.4|9=106|35=W|34=651|49=COEPEXCH|52=20200612-06:16:00.723|56=REALTIMEMARKETS|55=amzn|268=1|269=0|270=87|271=2|37=3|10=235|8=FIX.4.4|9=106|35=W|34=652|49=COEPEXCH|52=20200612-06:16:00.723|56=REALTIMEMARKETS|55=amzn|268=1|269=0|270=87|271=2|37=3|10=236|8=FIX.4.4|9=106|35=W|34=653|49=COEPEXCH|52=20200612-06:16:00.724|56=REALTIMEMARKETS|55=amzn|268=1|269=0|270=87|271=2|37=3|10=238|8=FIX.4.4|9=106|35=W|34=654|49=COEPEXCH|52=20200612-06:16:00.725|56=REALTIMEMARKETS|55=amzn|268=1|269=0|270=87|271=2|37=3|10=240|8=FIX.4.4|9=106|35=W|34=655|49=COEPEXCH|52=20200612-06:16:00.725|56=REALTIMEMARKETS|55=amzn|268=1|269=0|270=87|271=2|37=3|10=241|8=FIX.4.4|9=106|35=W|34=656|49=COEPEXCH|52=20200612-06:16:00.726|56=REALTIMEMARKETS|55=amzn|268=1|269=0|270=87|271=2|37=3|10=243|8=FIX.4.4|9=106|35=W|34=657|49=COEPEXCH|52=20200612-06:16:00.726|56=REALTIMEMARKETS|55=amzn|268=1|269=0|270=87|271=2|37=3|10=244|8=FIX.4.4|9=106|35=W|34=658|49=COEPEXCH|52=20200612-06:16:00.727|56=REALTIMEMARKETS|55=amzn|268=1|269=0|270=87|271=2|37=3|10=246|8=FIX.4.4|9=106|35=W|34=659|49=COEPEXCH|52=20200612-06:16:00.728|56=REALTIMEMARKETS|55=amzn|268=1|269=0|270=87|271=2|37=3|10=248|8=FIX.4.4|9=106|35=W|34=660|49=COEPEXCH|52=20200612-06:16:00.728|56=REALTIMEMARKETS|55=amzn|268=1|269=0|270=87|271=2|37=3|10=240|8=FIX.4.4|9=106|35=W|34=661|49=COEPEXCH|52=20200612-06:16:00.729|56=REALTIMEMARKETS|55=amzn|268=1|269=0|270=87|271=2|37=3|10=242|8=FIX.4.4|9=106|35=W|34=662|49=COEPEXCH|52=20200612-06:16:00.729|56=REALTIMEMARKETS|55=amzn|268=1|269=0|270=87|271=2|37=3|10=243|8=FIX.4.4|9=106|35=W|34=663|49=COEPEXCH|52=20200612-06:16:00.730|56=REALTIMEMARKETS|55=amzn|268=1|269=0|270=87|271=2|37=3|10=236|8=FIX.4.4|9=106|35=W|34=664|49=COEPEXCH|52=20200612-06:16:00.731|56=REALTIMEMARKETS|55=amzn|268=1|269=0|270=87|271=2|37=3|10=238|8=FIX.4.4|9=106|35=W|34=665|49=COEPEXCH|52=20200612-06:16:00.731|56=REALTIMEMARKETS|55=amzn|268=1|269=0|270=87|271=2|37=3|10=239|8=FIX.4.4|9=106|35=W|34=666|49=COEPEXCH|52=20200612-06:16:00.732|56=REALTIMEMARKETS|55=amzn|268=1|269=0|270=87|271=2|37=3|10=241|8=FIX.4.4|9=106|35=W|34=667|49=COEPEXCH|52=20200612-06:16:00.733|56=REALTIMEMARKETS|55=amzn|268=1|269=0|270=87|271=2|37=3|10=243|8=FIX.4.4|9=106|35=W|34=668|49=COEPEXCH|52=20200612-06:16:00.734|56=REALTIMEMARKETS|55=amzn|268=1|269=0|270=87|271=2|37=3|10=245|8=FIX.4.4|9=106|35=W|34=669|49=COEPEXCH|52=20200612-06:16:00.734|56=REALTIMEMARKETS|55=amzn|268=1|269=0|270=87|271=2|37=3|10=246|8=FIX.4.4|9=106|35=W|34=670|49=COEPEXCH|52=20200612-06:16:00.735|56=REALTIMEMARKETS|55=amzn|268=1|269=0|270=87|271=2|37=3|10=239|8=FIX.4.4|9=106|35=W|34=671|49=COEPEXCH|52=20200612-06:16:00.735|56=REALTIMEMARKETS|55=amzn|268=1|269=0|270=87|271=2|37=3|10=240|8=FIX.4.4|9=106|35=W|34=672|49=COEPEXCH|52=20200612-06:16:00.736|56=REALTIMEMARKETS|55=amzn|268=1|269=0|270=87|271=2|37=3|10=242|8=FIX.4.4|9=106|35=W|34=673|49=COEPEXCH|52=20200612-06:16:00.737|56=REALTIMEMARKETS|55=amzn|268=1|269=0|270=87|271=2|37=3|10=244|8=FIX.4.4|9=106|35=W|34=674|49=COEPEXCH|52=20200612-06:16:00.738|56=REALTIMEMARKETS|55=amzn|268=1|269=0|270=87|271=2|37=3|10=246|8=FIX.4.4|9=106|35=W|34=675|49=COEPEXCH|52=20200612-06:16:00.738|56=REALTIMEMARKETS|55=amzn|268=1|269=0|270=87|271=2|37=3|10=247|8=FIX.4.4|9=106|35=W|34=676|49=COEPEXCH|52=20200612-06:16:00.739|56=REALTIMEMARKETS|55=amzn|268=1|269=0|270=87|271=2|37=3|10=249|8=FIX.4.4|9=106|35=W|34=677|49=COEPEXCH|52=20200612-06:16:00.739|56=REALTIMEMARKETS|55=amzn|268=1|269=0|270=87|271=2|37=3|10=250|8=FIX.4.4|9=106|35=W|34=678|49=COEPEXCH|52=20200612-06:16:00.740|56=REALTIMEMARKETS|55=amzn|268=1|269=0|270=87|271=2|37=3|10=243|8=FIX.4.4|9=106|35=W|34=679|49=COEPEXCH|52=20200612-06:16:00.740|56=REALTIMEMARKETS|55=amzn|268=1|269=0|270=87|271=2|37=3|10=244|8=FIX.4.4|9=106|35=W|34=680|49=COEPEXCH|52=20200612-06:16:00.741|56=REALTIMEMARKETS|55=amzn|268=1|269=0|270=87|271=2|37=3|10=237|8=FIX.4.4|9=106|35=W|34=681|49=COEPEXCH|52=20200612-06:16:00.741|56=REALTIMEMARKETS|55=amzn|268=1|269=0|270=87|271=2|37=3|10=238|8=FIX.4.4|9=106|35=W|34=682|49=COEPEXCH|52=20200612-06:16:00.742|56=REALTIMEMARKETS|55=amzn|268=1|269=0|270=87|271=2|37=3|10=240|8=FIX.4.4|9=106|35=W|34=683|49=COEPEXCH|52=20200612-06:16:00.742|56=REALTIMEMARKETS|55=amzn|268=1|269=0|270=87|271=2|37=3|10=241|8=FIX.4.4|9=106|35=W|34=684|49=COEPEXCH|52=20200612-06:16:00.743|56=REALTIMEMARKETS|55=amzn|268=1|269=0|270=87|271=2|37=3|10=243|8=FIX.4.4|9=106|35=W|34=685|49=COEPEXCH|52=20200612-06:16:00.743|56=REALTIMEMARKETS|55=amzn|268=1|269=0|270=87|271=2|37=3|10=244|8=FIX.4.4|9=106|35=W|34=686|49=COEPEXCH|52=20200612-06:16:00.744|56=REALTIMEMARKETS|55=amzn|268=1|269=0|270=87|271=2|37=3|10=246|8=FIX.4.4|9=106|35=W|34=687|49=COEPEXCH|52=20200612-06:16:00.744|56=REALTIMEMARKETS|55=amzn|268=1|269=0|270=87|271=2|37=3|10=247|8=FIX.4.4|9=106|35=W|34=688|49=COEPEXCH|52=20200612-06:16:00.745|56=REALTIMEMARKETS|55=amzn|268=1|269=0|270=87|271=2|37=3|10=249|8=FIX.4.4|9=106|35=W|34=689|49=COEPEXCH|52=20200612-06:16:00.746|56=REALTIMEMARKETS|55=amzn|268=1|269=0|270=87|271=2|37=3|10=251|8=FIX.4.4|9=106|35=W|34=690|49=COEPEXCH|52=20200612-06:16:00.746|56=REALTIMEMARKETS|55=amzn|268=1|269=0|270=87|271=2|37=3|10=243|8=FIX.4.4|9=106|35=W|34=691|49=COEPEXCH|52=20200612-06:16:00.747|56=REALTIMEMARKETS|55=amzn|268=1|269=0|270=87|271=2|37=3|10=245|8=FIX.4.4|9=106|35=W|34=692|49=COEPEXCH|52=20200612-06:16:00.748|56=REALTIMEMARKETS|55=amzn|268=1|269=0|270=87|271=2|37=3|10=247|8=FIX.4.4|9=106|35=W|34=693|49=COEPEXCH|52=20200612-06:16:00.748|56=REALTIMEMARKETS|55=amzn|268=1|269=0|270=87|271=2|37=3|10=248|8=FIX.4.4|9=106|35=W|34=694|49=COEPEXCH|52=20200612-06:16:00.749|56=REALTIMEMARKETS|55=amzn|268=1|269=0|270=87|271=2|37=3|10=250|8=FIX.4.4|9=106|35=W|34=695|49=COEPEXCH|52=20200612-06:16:00.749|56=REALTIMEMARKETS|55=amzn|268=1|269=0|270=87|271=2|37=3|10=251|8=FIX.4.4|9=106|35=W|34=696|49=COEPEXCH|52=20200612-06:16:00.750|56=REALTIMEMARKETS|55=amzn|268=1|269=0|270=87|271=2|37=3|10=244|8=FIX.4.4|9=106|35=W|34=697|49=COEPEXCH|52=20200612-06:16:00.751|56=REALTIMEMARKETS|55=amzn|268=1|269=0|270=87|271=2|37=3|10=246|8=FIX.4.4|9=106|35=W|34=698|49=COEPEXCH|52=20200612-06:16:00.751|56=REALTIMEMARKETS|55=amzn|268=1|269=0|270=87|271=2|37=3|10=247|8=FIX.4.4|9=106|35=W|34=699|49=COEPEXCH|52=20200612-06:16:00.752|56=REALTIMEMARKETS|55=amzn|268=1|269=0|270=87|271=2|37=3|10=249|8=FIX.4.4|9=106|35=W|34=700|49=COEPEXCH|52=20200612-06:16:00.753|56=REALTIMEMARKETS|55=amzn|268=1|269=0|270=87|271=2|37=3|10=233|8=FIX.4.4|9=106|35=W|34=701|49=COEPEXCH|52=20200612-06:16:00.753|56=REALTIMEMARKETS|55=amzn|268=1|269=0|270=87|271=2|37=3|10=234|8=FIX.4.4|9=106|35=W|34=702|49=COEPEXCH|52=20200612-06:16:00.754|56=REALTIMEMARKETS|55=amzn|268=1|269=0|270=87|271=2|37=3|10=236|8=FIX.4.4|9=106|35=W|34=703|49=COEPEXCH|52=20200612-06:16:00.755|56=REALTIMEMARKETS|55=amzn|268=1|269=0|270=87|271=2|37=3|10=238|8=FIX.4.4|9=106|35=W|34=704|49=COEPEXCH|52=20200612-06:16:00.755|56=REALTIMEMARKETS|55=amzn|268=1|269=0|270=87|271=2|37=3|10=239|8=FIX.4.4|9=106|35=W|34=705|49=COEPEXCH|52=20200612-06:16:00.756|56=REALTIMEMARKETS|55=amzn|268=1|269=0|270=87|271=2|37=3|10=241|8=FIX.4.4|9=106|35=W|34=706|49=COEPEXCH|52=20200612-06:16:00.756|56=REALTIMEMARKETS|55=amzn|268=1|269=0|270=87|271=2|37=3|10=242|8=FIX.4.4|9=106|35=W|34=707|49=COEPEXCH|52=20200612-06:16:00.757|56=REALTIMEMARKETS|55=amzn|268=1|269=0|270=87|271=2|37=3|10=244|8=FIX.4.4|9=106|35=W|34=708|49=COEPEXCH|52=20200612-06:16:00.758|56=REALTIMEMARKETS|55=amzn|268=1|269=0|270=87|271=2|37=3|10=246|8=FIX.4.4|9=106|35=W|34=709|49=COEPEXCH|52=20200612-06:16:00.758|56=REALTIMEMARKETS|55=amzn|268=1|269=0|270=87|271=2|37=3|10=247|8=FIX.4.4|9=106|35=W|34=710|49=COEPEXCH|52=20200612-06:16:00.759|56=REALTIMEMARKETS|55=amzn|268=1|269=0|270=87|271=2|37=3|10=240|8=FIX.4.4|9=106|35=W|34=711|49=COEPEXCH|52=20200612-06:16:00.760|56=REALTIMEMARKETS|55=amzn|268=1|269=0|270=87|271=2|37=3|10=233|8=FIX.4.4|9=106|35=W|34=712|49=COEPEXCH|52=20200612-06:16:00.760|56=REALTIMEMARKETS|55=amzn|268=1|269=0|270=87|271=2|37=3|10=234|8=FIX.4.4|9=106|35=W|34=713|49=COEPEXCH|52=20200612-06:16:00.761|56=REALTIMEMARKETS|55=amzn|268=1|269=0|270=87|271=2|37=3|10=236|8=FIX.4.4|9=106|35=W|34=714|49=COEPEXCH|52=20200612-06:16:00.761|56=REALTIMEMARKETS|55=amzn|268=1|269=0|270=87|271=2|37=3|10=237|8=FIX.4.4|9=106|35=W|34=715|49=COEPEXCH|52=20200612-06:16:00.762|56=REALTIMEMARKETS|55=amzn|268=1|269=0|270=87|271=2|37=3|10=239|8=FIX.4.4|9=106|35=W|34=716|49=COEPEXCH|52=20200612-06:16:00.766|56=REALTIMEMARKETS|55=amzn|268=1|269=0|270=87|271=2|37=3|10=244|8=FIX.4.4|9=106|35=W|34=717|49=COEPEXCH|52=20200612-06:16:00.767|56=REALTIMEMARKETS|55=amzn|268=1|269=0|270=87|271=2|37=3|10=246|8=FIX.4.4|9=106|35=W|34=718|49=COEPEXCH|52=20200612-06:16:00.768|56=REALTIMEMARKETS|55=amzn|268=1|269=0|270=87|271=2|37=3|10=248|8=FIX.4.4|9=106|35=W|34=719|49=COEPEXCH|52=20200612-06:16:00.769|56=REALTIMEMARKETS|55=amzn|268=1|269=0|270=87|271=2|37=3|10=250|8=FIX.4.4|9=106|35=W|34=720|49=COEPEXCH|52=20200612-06:16:00.769|56=REALTIMEMARKETS|55=amzn|268=1|269=0|270=87|271=2|37=3|10=242|8=FIX.4.4|9=106|35=W|34=721|49=COEPEXCH|52=20200612-06:16:00.770|56=REALTIMEMARKETS|55=amzn|268=1|269=0|270=87|271=2|37=3|10=235|8=FIX.4.4|9=106|35=W|34=722|49=COEPEXCH|52=20200612-06:16:00.771|56=REALTIMEMARKETS|55=amzn|268=1|269=0|270=87|271=2|37=3|10=237|8=FIX.4.4|9=106|35=W|34=723|49=COEPEXCH|52=20200612-06:16:00.771|56=REALTIMEMARKETS|55=amzn|268=1|269=0|270=87|271=2|37=3|10=238|8=FIX.4.4|9=106|35=W|34=724|49=COEPEXCH|52=20200612-06:16:00.772|56=REALTIMEMARKETS|55=amzn|268=1|269=0|270=87|271=2|37=3|10=240|8=FIX.4.4|9=106|35=W|34=725|49=COEPEXCH|52=20200612-06:16:00.772|56=REALTIMEMARKETS|55=amzn|268=1|269=0|270=87|271=2|37=3|10=241|8=FIX.4.4|9=106|35=W|34=726|49=COEPEXCH|52=20200612-06:16:00.773|56=REALTIMEMARKETS|55=amzn|268=1|269=0|270=87|271=2|37=3|10=243|8=FIX.4.4|9=106|35=W|34=727|49=COEPEXCH|52=20200612-06:16:00.773|56=REALTIMEMARKETS|55=amzn|268=1|269=0|270=87|271=2|37=3|10=244|8=FIX.4.4|9=106|35=W|34=728|49=COEPEXCH|52=20200612-06:16:00.774|56=REALTIMEMARKETS|55=amzn|268=1|269=0|270=87|271=2|37=3|10=246|8=FIX.4.4|9=106|35=W|34=729|49=COEPEXCH|52=20200612-06:16:00.775|56=REALTIMEMARKETS|55=amzn|268=1|269=0|270=87|271=2|37=3|10=248|8=FIX.4.4|9=106|35=W|34=730|49=COEPEXCH|52=20200612-06:16:00.775|56=REALTIMEMARKETS|55=amzn|268=1|269=0|270=87|271=2|37=3|10=240|8=FIX.4.4|9=106|35=W|34=731|49=COEPEXCH|52=20200612-06:16:00.776|56=REALTIMEMARKETS|55=amzn|268=1|269=0|270=87|271=2|37=3|10=242|8=FIX.4.4|9=106|35=W|34=732|49=COEPEXCH|52=20200612-06:16:00.777|56=REALTIMEMARKETS|55=amzn|268=1|269=0|270=87|271=2|37=3|10=244|8=FIX.4.4|9=106|35=W|34=733|49=COEPEXCH|52=20200612-06:16:00.777|56=REALTIMEMARKETS|55=amzn|268=1|269=0|270=87|271=2|37=3|10=245|8=FIX.4.4|9=106|35=W|34=734|49=COEPEXCH|52=20200612-06:16:00.778|56=REALTIMEMARKETS|55=amzn|268=1|269=0|270=87|271=2|37=3|10=247|8=FIX.4.4|9=106|35=W|34=735|49=COEPEXCH|52=20200612-06:16:00.779|56=REALTIMEMARKETS|55=amzn|268=1|269=0|270=87|271=2|37=3|10=249|8=FIX.4.4|9=106|35=W|34=736|49=COEPEXCH|52=20200612-06:16:00.779|56=REALTIMEMARKETS|55=amzn|268=1|269=0|270=87|271=2|37=3|10=250|8=FIX.4.4|9=106|35=W|34=737|49=COEPEXCH|52=20200612-06:16:00.780|56=REALTIMEMARKETS|55=amzn|268=1|269=0|270=87|271=2|37=3|10=243|8=FIX.4.4|9=106|35=W|34=738|49=COEPEXCH|52=20200612-06:16:00.780|56=REALTIMEMARKETS|55=amzn|268=1|269=0|270=87|271=2|37=3|10=244|8=FIX.4.4|9=106|35=W|34=739|49=COEPEXCH|52=20200612-06:16:00.781|56=REALTIMEMARKETS|55=amzn|268=1|269=0|270=87|271=2|37=3|10=246|8=FIX.4.4|9=106|35=W|34=740|49=COEPEXCH|52=20200612-06:16:00.781|56=REALTIMEMARKETS|55=amzn|268=1|269=0|270=87|271=2|37=3|10=238|8=FIX.4.4|9=106|35=W|34=741|49=COEPEXCH|52=20200612-06:16:00.782|56=REALTIMEMARKETS|55=amzn|268=1|269=0|270=87|271=2|37=3|10=240|8=FIX.4.4|9=106|35=W|34=742|49=COEPEXCH|52=20200612-06:16:00.782|56=REALTIMEMARKETS|55=amzn|268=1|269=0|270=87|271=2|37=3|10=241|8=FIX.4.4|9=106|35=W|34=743|49=COEPEXCH|52=20200612-06:16:00.783|56=REALTIMEMARKETS|55=amzn|268=1|269=0|270=87|271=2|37=3|10=243|8=FIX.4.4|9=106|35=W|34=744|49=COEPEXCH|52=20200612-06:16:00.783|56=REALTIMEMARKETS|55=amzn|268=1|269=0|270=87|271=2|37=3|10=244|8=FIX.4.4|9=106|35=W|34=745|49=COEPEXCH|52=20200612-06:16:00.784|56=REALTIMEMARKETS|55=amzn|268=1|269=0|270=87|271=2|37=3|10=246|8=FIX.4.4|9=106|35=W|34=746|49=COEPEXCH|52=20200612-06:16:00.784|56=REALTIMEMARKETS|55=amzn|268=1|269=0|270=87|271=2|37=3|10=247|8=FIX.4.4|9=106|35=W|34=747|49=COEPEXCH|52=20200612-06:16:00.785|56=REALTIMEMARKETS|55=amzn|268=1|269=0|270=87|271=2|37=3|10=249|8=FIX.4.4|9=106|35=W|34=748|49=COEPEXCH|52=20200612-06:16:00.785|56=REALTIMEMARKETS|55=amzn|268=1|269=0|270=87|271=2|37=3|10=250|8=FIX.4.4|9=106|35=W|34=749|49=COEPEXCH|52=20200612-06:16:00.786|56=REALTIMEMARKETS|55=amzn|268=1|269=0|270=87|271=2|37=3|10=252|8=FIX.4.4|9=106|35=W|34=750|49=COEPEXCH|52=20200612-06:16:00.786|56=REALTIMEMARKETS|55=amzn|268=1|269=0|270=87|271=2|37=3|10=244|8=FIX.4.4|9=106|35=W|34=751|49=COEPEXCH|52=20200612-06:16:00.787|56=REALTIMEMARKETS|55=amzn|268=1|269=0|270=87|271=2|37=3|10=246|8=FIX.4.4|9=106|35=W|34=752|49=COEPEXCH|52=20200612-06:16:00.787|56=REALTIMEMARKETS|55=amzn|268=1|269=0|270=87|271=2|37=3|10=247|8=FIX.4.4|9=106|35=W|34=753|49=COEPEXCH|52=20200612-06:16:00.788|56=REALTIMEMARKETS|55=amzn|268=1|269=0|270=87|271=2|37=3|10=249|8=FIX.4.4|9=106|35=W|34=754|49=COEPEXCH|52=20200612-06:16:00.788|56=REALTIMEMARKETS|55=amzn|268=1|269=0|270=87|271=2|37=3|10=250|8=FIX.4.4|9=106|35=W|34=755|49=COEPEXCH|52=20200612