20200612-03:03:30.737140000 : 8=FIX.4.4|9=78|35=A|34=1|49=EXECLINKS|52=20200612-03:03:30.735|56=COEPEXCH|98=0|108=20|141=Y|10=027|
20200612-03:03:30.738698000 : 8=FIX.4.4|9=78|35=A|34=1|49=COEPEXCH|52=20200612-03:03:30.738|56=EXECLINKS|98=0|108=20|141=Y|10=030|
20200612-03:22:36.793657000 : 8=FIX.4.4|9=72|35=A|34=1|49=EXECLINKS|52=20200612-03:22:36.793|56=COEPEXCH|98=0|108=20|10=243|
20200612-03:22:36.793869000 : 8=FIX.4.4|9=109|35=5|34=2|49=COEPEXCH|52=20200612-03:22:36.793|56=EXECLINKS|58=MsgSeqNum too low, expecting 2 but received 1|10=152|
20200612-03:22:53.025154000 : 8=FIX.4.4|9=72|35=A|34=4|49=EXECLINKS|52=20200612-03:22:53.024|56=COEPEXCH|98=0|108=20|10=232|
20200612-03:22:53.025310000 : 8=FIX.4.4|9=72|35=A|34=3|49=COEPEXCH|52=20200612-03:22:53.025|56=EXECLINKS|98=0|108=20|10=232|
20200612-03:22:53.025434000 : 8=FIX.4.4|9=69|35=2|34=4|49=COEPEXCH|52=20200612-03:22:53.025|56=EXECLINKS|7=2|16=0|10=068|
20200612-03:22:53.025566000 : 8=FIX.4.4|9=69|35=2|34=5|49=EXECLINKS|52=20200612-03:22:53.025|56=COEPEXCH|7=2|16=0|10=069|
20200612-03:22:53.025712000 : 8=FIX.4.4|9=102|35=4|34=2|43=Y|49=COEPEXCH|52=20200612-03:22:53.025|56=EXECLINKS|122=20200612-03:22:53.025|36=5|123=Y|10=232|
20200612-03:22:53.025803000 : 8=FIX.4.4|9=102|35=4|34=2|43=Y|49=EXECLINKS|52=20200612-03:22:53.025|56=COEPEXCH|122=20200612-03:22:53.025|36=6|123=Y|10=233|
20200612-03:23:21.595263000 : 8=FIX.4.4|9=72|35=A|34=6|49=EXECLINKS|52=20200612-03:23:21.594|56=COEPEXCH|98=0|108=20|10=242|
20200612-03:23:21.595510000 : 8=FIX.4.4|9=72|35=A|34=5|49=COEPEXCH|52=20200612-03:23:21.595|56=EXECLINKS|98=0|108=20|10=242|
20200612-03:23:21.643303000 : 8=FIX.4.4|9=145|35=D|34=7|49=EXECLINKS|52=20200612-03:23:21.643|56=COEPEXCH|1=EXECLINKS|11=3|38=2|40=2|44=87|54=1|55=amzn|58=Buy shares|60=20200612-22:29:00.000|10=044|
20200612-03:23:21.643930000 : 8=FIX.4.4|9=76|35=8|34=6|49=COEPEXCH|52=20200612-03:23:21.643|56=EXECLINKS|37=3|39=0|150=0|10=137|
20200612-03:23:21.649474000 : 8=FIX.4.4|9=107|35=3|34=8|49=EXECLINKS|52=20200612-03:23:21.644|56=COEPEXCH|45=6|58=Required tag missing|371=6|372=8|373=1|10=101|
20200612-03:23:31.655079000 : 8=FIX.4.4|9=145|35=D|34=9|49=EXECLINKS|52=20200612-03:23:31.654|56=COEPEXCH|1=EXECLINKS|11=3|38=2|40=2|44=87|54=1|55=amzn|58=Buy shares|60=20200612-22:29:00.000|10=049|
20200612-03:23:31.656876000 : 8=FIX.4.4|9=76|35=8|34=7|49=COEPEXCH|52=20200612-03:23:31.656|56=EXECLINKS|37=3|39=0|150=0|10=143|
20200612-03:23:31.658921000 : 8=FIX.4.4|9=108|35=3|34=10|49=EXECLINKS|52=20200612-03:23:31.657|56=COEPEXCH|45=7|58=Required tag missing|371=6|372=8|373=1|10=149|
20200612-03:23:41.667043000 : 8=FIX.4.4|9=146|35=D|34=11|49=EXECLINKS|52=20200612-03:23:41.666|56=COEPEXCH|1=EXECLINKS|11=3|38=2|40=2|44=87|54=1|55=amzn|58=Buy shares|60=20200612-22:29:00.000|10=095|
20200612-03:23:41.667752000 : 8=FIX.4.4|9=76|35=8|34=8|49=COEPEXCH|52=20200612-03:23:41.667|56=EXECLINKS|37=3|39=0|150=0|10=147|
20200612-03:23:41.668555000 : 8=FIX.4.4|9=108|35=3|34=12|49=EXECLINKS|52=20200612-03:23:41.668|56=COEPEXCH|45=8|58=Required tag missing|371=6|372=8|373=1|10=155|
20200612-03:23:45.478940000 : 8=FIX.4.4|9=70|35=1|34=13|49=EXECLINKS|52=20200612-03:23:45.478|56=COEPEXCH|112=TEST|10=015|
20200612-03:23:45.479094000 : 8=FIX.4.4|9=69|35=0|34=9|49=COEPEXCH|52=20200612-03:23:45.479|56=EXECLINKS|112=TEST|10=236|
20200612-03:23:51.675936000 : 8=FIX.4.4|9=146|35=D|34=14|49=EXECLINKS|52=20200612-03:23:51.675|56=COEPEXCH|1=EXECLINKS|11=3|38=2|40=2|44=87|54=1|55=amzn|58=Buy shares|60=20200612-22:29:00.000|10=099|
20200612-03:23:51.678276000 : 8=FIX.4.4|9=77|35=8|34=10|49=COEPEXCH|52=20200612-03:23:51.677|56=EXECLINKS|37=3|39=0|150=0|10=191|
20200612-03:23:51.683465000 : 8=FIX.4.4|9=109|35=3|34=15|49=EXECLINKS|52=20200612-03:23:51.679|56=COEPEXCH|45=10|58=Required tag missing|371=6|372=8|373=1|10=203|
20200612-03:24:01.686163000 : 8=FIX.4.4|9=146|35=D|34=16|49=EXECLINKS|52=20200612-03:24:01.685|56=COEPEXCH|1=EXECLINKS|11=3|38=2|40=2|44=87|54=1|55=amzn|58=Buy shares|60=20200612-22:29:00.000|10=098|
20200612-03:24:01.688352000 : 8=FIX.4.4|9=77|35=8|34=11|49=COEPEXCH|52=20200612-03:24:01.687|56=EXECLINKS|37=3|39=0|150=0|10=189|
20200612-03:24:01.691120000 : 8=FIX.4.4|9=109|35=3|34=17|49=EXECLINKS|52=20200612-03:24:01.689|56=COEPEXCH|45=11|58=Required tag missing|371=6|372=8|373=1|10=203|
20200612-03:24:09.238287000 : 8=FIX.4.4|9=70|35=1|34=18|49=EXECLINKS|52=20200612-03:24:09.237|56=COEPEXCH|112=TEST|10=014|
20200612-03:24:09.238733000 : 8=FIX.4.4|9=70|35=0|34=12|49=COEPEXCH|52=20200612-03:24:09.238|56=EXECLINKS|112=TEST|10=008|
20200612-03:24:11.697998000 : 8=FIX.4.4|9=146|35=D|34=19|49=EXECLINKS|52=20200612-03:24:11.697|56=COEPEXCH|1=EXECLINKS|11=3|38=2|40=2|44=87|54=1|55=amzn|58=Buy shares|60=20200612-22:29:00.000|10=105|
20200612-03:24:11.699719000 : 8=FIX.4.4|9=77|35=8|34=13|49=COEPEXCH|52=20200612-03:24:11.699|56=EXECLINKS|37=3|39=0|150=0|10=195|
20200612-03:24:11.701831000 : 8=FIX.4.4|9=109|35=3|34=20|49=EXECLINKS|52=20200612-03:24:11.700|56=COEPEXCH|45=13|58=Required tag missing|371=6|372=8|373=1|10=184|
20200612-03:24:56.317387000 : 8=FIX.4.4|9=73|35=A|34=25|49=EXECLINKS|52=20200612-03:24:56.317|56=COEPEXCH|98=0|108=20|10=038|
20200612-03:24:56.317574000 : 8=FIX.4.4|9=73|35=A|34=14|49=COEPEXCH|52=20200612-03:24:56.317|56=EXECLINKS|98=0|108=20|10=036|
20200612-03:24:56.317711000 : 8=FIX.4.4|9=71|35=2|34=15|49=COEPEXCH|52=20200612-03:24:56.317|56=EXECLINKS|7=21|16=0|10=169|
20200612-03:24:56.318316000 : 8=FIX.4.4|9=177|35=D|34=21|43=Y|49=EXECLINKS|52=20200612-03:24:56.318|56=COEPEXCH|122=20200612-03:24:21.708|1=EXECLINKS|11=3|38=2|40=2|44=87|54=1|55=amzn|58=Buy shares|60=20200612-22:29:00.000|10=093|
20200612-03:24:56.319128000 : 8=FIX.4.4|9=77|35=8|34=16|49=COEPEXCH|52=20200612-03:24:56.318|56=EXECLINKS|37=3|39=0|150=0|10=195|
20200612-03:24:56.321094000 : 8=FIX.4.4|9=104|35=4|34=22|43=Y|49=EXECLINKS|52=20200612-03:24:56.318|56=COEPEXCH|122=20200612-03:24:56.318|36=23|123=Y|10=096|
20200612-03:24:56.321231000 : 8=FIX.4.4|9=177|35=D|34=23|43=Y|49=EXECLINKS|52=20200612-03:24:56.318|56=COEPEXCH|122=20200612-03:24:31.715|1=EXECLINKS|11=3|38=2|40=2|44=87|54=1|55=amzn|58=Buy shares|60=20200612-22:29:00.000|10=094|
20200612-03:24:56.321775000 : 8=FIX.4.4|9=77|35=8|34=17|49=COEPEXCH|52=20200612-03:24:56.321|56=EXECLINKS|37=3|39=0|150=0|10=190|
20200612-03:24:56.322402000 : 8=FIX.4.4|9=177|35=D|34=24|43=Y|49=EXECLINKS|52=20200612-03:24:56.318|56=COEPEXCH|122=20200612-03:24:41.726|1=EXECLINKS|11=3|38=2|40=2|44=87|54=1|55=amzn|58=Buy shares|60=20200612-22:29:00.000|10=098|
20200612-03:24:56.322868000 : 8=FIX.4.4|9=77|35=8|34=18|49=COEPEXCH|52=20200612-03:24:56.322|56=EXECLINKS|37=3|39=0|150=0|10=192|
20200612-03:24:56.323538000 : 8=FIX.4.4|9=104|35=4|34=25|43=Y|49=EXECLINKS|52=20200612-03:24:56.319|56=COEPEXCH|122=20200612-03:24:56.319|36=26|123=Y|10=104|
20200612-03:24:56.323595000 : 8=FIX.4.4|9=109|35=3|34=26|49=EXECLINKS|52=20200612-03:24:56.319|56=COEPEXCH|45=16|58=Required tag missing|371=6|372=8|373=1|10=208|
20200612-03:24:56.323685000 : 8=FIX.4.4|9=109|35=3|34=27|49=EXECLINKS|52=20200612-03:24:56.321|56=COEPEXCH|45=17|58=Required tag missing|371=6|372=8|373=1|10=203|
20200612-03:24:56.323741000 : 8=FIX.4.4|9=109|35=3|34=28|49=EXECLINKS|52=20200612-03:24:56.322|56=COEPEXCH|45=18|58=Required tag missing|371=6|372=8|373=1|10=206|
20200612-03:24:56.358602000 : 8=FIX.4.4|9=146|35=D|34=29|49=EXECLINKS|52=20200612-03:24:56.358|56=COEPEXCH|1=EXECLINKS|11=3|38=2|40=2|44=87|54=1|55=amzn|58=Buy shares|60=20200612-22:29:00.000|10=109|
20200612-03:24:56.359506000 : 8=FIX.4.4|9=77|35=8|34=19|49=COEPEXCH|52=20200612-03:24:56.359|56=EXECLINKS|37=3|39=0|150=0|10=203|
20200612-03:24:56.359987000 : 8=FIX.4.4|9=109|35=3|34=30|49=EXECLINKS|52=20200612-03:24:56.359|56=COEPEXCH|45=19|58=Required tag missing|371=6|372=8|373=1|10=210|
20200612-03:25:06.370399000 : 8=FIX.4.4|9=146|35=D|34=31|49=EXECLINKS|52=20200612-03:25:06.369|56=COEPEXCH|1=EXECLINKS|11=3|38=2|40=2|44=87|54=1|55=amzn|58=Buy shares|60=20200612-22:29:00.000|10=100|
20200612-03:25:06.372468000 : 8=FIX.4.4|9=77|35=8|34=20|49=COEPEXCH|52=20200612-03:25:06.372|56=EXECLINKS|37=3|39=0|150=0|10=186|
20200612-03:25:06.374598000 : 8=FIX.4.4|9=109|35=3|34=32|49=EXECLINKS|52=20200612-03:25:06.373|56=COEPEXCH|45=20|58=Required tag missing|371=6|372=8|373=1|10=196|
20200612-03:25:16.379174000 : 8=FIX.4.4|9=146|35=D|34=33|49=EXECLINKS|52=20200612-03:25:16.378|56=COEPEXCH|1=EXECLINKS|11=3|38=2|40=2|44=87|54=1|55=amzn|58=Buy shares|60=20200612-22:29:00.000|10=103|
20200612-03:25:16.380979000 : 8=FIX.4.4|9=77|35=8|34=21|49=COEPEXCH|52=20200612-03:25:16.380|56=EXECLINKS|37=3|39=0|150=0|10=187|
20200612-03:25:16.383238000 : 8=FIX.4.4|9=109|35=3|34=34|49=EXECLINKS|52=20200612-03:25:16.381|56=COEPEXCH|45=21|58=Required tag missing|371=6|372=8|373=1|10=199|
20200612-03:25:20.178607000 : 8=FIX.4.4|9=70|35=1|34=35|49=EXECLINKS|52=20200612-03:25:20.177|56=COEPEXCH|112=TEST|10=010|
20200612-03:25:20.179227000 : 8=FIX.4.4|9=70|35=0|34=22|49=COEPEXCH|52=20200612-03:25:20.178|56=EXECLINKS|112=TEST|10=006|
20200612-03:25:26.384371000 : 8=FIX.4.4|9=146|35=D|34=36|49=EXECLINKS|52=20200612-03:25:26.383|56=COEPEXCH|1=EXECLINKS|11=3|38=2|40=2|44=87|54=1|55=amzn|58=Buy shares|60=20200612-22:29:00.000|10=103|
20200612-03:25:26.386455000 : 8=FIX.4.4|9=77|35=8|34=23|49=COEPEXCH|52=20200612-03:25:26.385|56=EXECLINKS|37=3|39=0|150=0|10=195|
20200612-03:25:26.389036000 : 8=FIX.4.4|9=109|35=3|34=37|49=EXECLINKS|52=20200612-03:25:26.387|56=COEPEXCH|45=23|58=Required tag missing|371=6|372=8|373=1|10=211|
20200612-03:25:36.396180000 : 8=FIX.4.4|9=146|35=D|34=38|49=EXECLINKS|52=20200612-03:25:36.395|56=COEPEXCH|1=EXECLINKS|11=3|38=2|40=2|44=87|54=1|55=amzn|58=Buy shares|60=20200612-22:29:00.000|10=109|
20200612-03:25:36.398044000 : 8=FIX.4.4|9=77|35=8|34=24|49=COEPEXCH|52=20200612-03:25:36.397|56=EXECLINKS|37=3|39=0|150=0|10=200|
20200612-03:25:36.400136000 : 8=FIX.4.4|9=109|35=3|34=39|49=EXECLINKS|52=20200612-03:25:36.398|56=COEPEXCH|45=24|58=Required tag missing|371=6|372=8|373=1|10=217|
20200612-03:25:44.860250000 : 8=FIX.4.4|9=70|35=1|34=40|49=EXECLINKS|52=20200612-03:25:44.859|56=COEPEXCH|112=TEST|10=019|
20200612-03:25:44.860993000 : 8=FIX.4.4|9=70|35=0|34=25|49=COEPEXCH|52=20200612-03:25:44.860|56=EXECLINKS|112=TEST|10=013|
20200612-03:25:46.408059000 : 8=FIX.4.4|9=146|35=D|34=41|49=EXECLINKS|52=20200612-03:25:46.407|56=COEPEXCH|1=EXECLINKS|11=3|38=2|40=2|44=87|54=1|55=amzn|58=Buy shares|60=20200612-22:29:00.000|10=098|
20200612-03:25:46.409774000 : 8=FIX.4.4|9=77|35=8|34=26|49=COEPEXCH|52=20200612-03:25:46.409|56=EXECLINKS|37=3|39=0|150=0|10=197|
20200612-03:25:46.412222000 : 8=FIX.4.4|9=109|35=3|34=42|49=EXECLINKS|52=20200612-03:25:46.410|56=COEPEXCH|45=26|58=Required tag missing|371=6|372=8|373=1|10=199|
20200612-03:25:56.418339000 : 8=FIX.4.4|9=146|35=D|34=43|49=EXECLINKS|52=20200612-03:25:56.418|56=COEPEXCH|1=EXECLINKS|11=3|38=2|40=2|44=87|54=1|55=amzn|58=Buy shares|60=20200612-22:29:00.000|10=103|
20200612-03:25:56.418977000 : 8=FIX.4.4|9=77|35=8|34=27|49=COEPEXCH|52=20200612-03:25:56.418|56=EXECLINKS|37=3|39=0|150=0|10=199|
20200612-03:25:56.419876000 : 8=FIX.4.4|9=109|35=3|34=44|49=EXECLINKS|52=20200612-03:25:56.419|56=COEPEXCH|45=27|58=Required tag missing|371=6|372=8|373=1|10=212|
20200612-03:26:06.429446000 : 8=FIX.4.4|9=146|35=D|34=45|49=EXECLINKS|52=20200612-03:26:06.428|56=COEPEXCH|1=EXECLINKS|11=3|38=2|40=2|44=87|54=1|55=amzn|58=Buy shares|60=20200612-22:29:00.000|10=102|
20200612-03:26:06.432072000 : 8=FIX.4.4|9=77|35=8|34=28|49=COEPEXCH|52=20200612-03:26:06.431|56=EXECLINKS|37=3|39=0|150=0|10=191|
20200612-03:26:06.436563000 : 8=FIX.4.4|9=109|35=3|34=46|49=EXECLINKS|52=20200612-03:26:06.434|56=COEPEXCH|45=28|58=Required tag missing|371=6|372=8|373=1|10=208|
20200612-03:26:08.292148000 : 8=FIX.4.4|9=70|35=1|34=47|49=EXECLINKS|52=20200612-03:26:08.291|56=COEPEXCH|112=TEST|10=017|
20200612-03:26:08.292803000 : 8=FIX.4.4|9=70|35=0|34=29|49=COEPEXCH|52=20200612-03:26:08.292|56=EXECLINKS|112=TEST|10=017|
20200612-03:26:16.439187000 : 8=FIX.4.4|9=146|35=D|34=48|49=EXECLINKS|52=20200612-03:26:16.438|56=COEPEXCH|1=EXECLINKS|11=3|38=2|40=2|44=87|54=1|55=amzn|58=Buy shares|60=20200612-22:29:00.000|10=107|
20200612-03:26:16.440888000 : 8=FIX.4.4|9=77|35=8|34=30|49=COEPEXCH|52=20200612-03:26:16.440|56=EXECLINKS|37=3|39=0|150=0|10=185|
20200612-03:26:16.442944000 : 8=FIX.4.4|9=109|35=3|34=49|49=EXECLINKS|52=20200612-03:26:16.441|56=COEPEXCH|45=30|58=Required tag missing|371=6|372=8|373=1|10=203|
20200612-03:26:26.451104000 : 8=FIX.4.4|9=146|35=D|34=50|49=EXECLINKS|52=20200612-03:26:26.450|56=COEPEXCH|1=EXECLINKS|11=3|38=2|40=2|44=87|54=1|55=amzn|58=Buy shares|60=20200612-22:29:00.000|10=095|
20200612-03:26:26.452834000 : 8=FIX.4.4|9=77|35=8|34=31|49=COEPEXCH|52=20200612-03:26:26.452|56=EXECLINKS|37=3|39=0|150=0|10=190|
20200612-03:26:26.455294000 : 8=FIX.4.4|9=109|35=3|34=51|49=EXECLINKS|52=20200612-03:26:26.453|56=COEPEXCH|45=31|58=Required tag missing|371=6|372=8|373=1|10=201|
20200612-03:26:32.888646000 : 8=FIX.4.4|9=70|35=1|34=52|49=EXECLINKS|52=20200612-03:26:32.887|56=COEPEXCH|112=TEST|10=021|
20200612-03:26:32.889157000 : 8=FIX.4.4|9=70|35=0|34=32|49=COEPEXCH|52=20200612-03:26:32.888|56=EXECLINKS|112=TEST|10=019|
20200612-03:26:36.462558000 : 8=FIX.4.4|9=146|35=D|34=53|49=EXECLINKS|52=20200612-03:26:36.461|56=COEPEXCH|1=EXECLINKS|11=3|38=2|40=2|44=87|54=1|55=amzn|58=Buy shares|60=20200612-22:29:00.000|10=101|
20200612-03:26:36.464720000 : 8=FIX.4.4|9=77|35=8|34=33|49=COEPEXCH|52=20200612-03:26:36.464|56=EXECLINKS|37=3|39=0|150=0|10=196|
20200612-03:26:36.467029000 : 8=FIX.4.4|9=109|35=3|34=54|49=EXECLINKS|52=20200612-03:26:36.465|56=COEPEXCH|45=33|58=Required tag missing|371=6|372=8|373=1|10=210|
20200612-03:30:37.138931000 : 8=FIX.4.4|9=73|35=A|34=55|49=EXECLINKS|52=20200612-03:30:37.138|56=COEPEXCH|98=0|108=20|10=038|
20200612-03:30:37.139127000 : 8=FIX.4.4|9=73|35=A|34=34|49=COEPEXCH|52=20200612-03:30:37.139|56=EXECLINKS|98=0|108=20|10=036|
20200612-03:30:37.167992000 : 8=FIX.4.4|9=146|35=D|34=56|49=EXECLINKS|52=20200612-03:30:37.167|56=COEPEXCH|1=EXECLINKS|11=3|38=2|40=2|44=87|54=1|55=amzn|58=Buy shares|60=20200612-22:29:00.000|10=103|
20200612-03:30:37.168471000 : 8=FIX.4.4|9=77|35=8|34=35|49=COEPEXCH|52=20200612-03:30:37.168|56=EXECLINKS|37=3|39=0|150=0|10=195|
20200612-03:30:37.168941000 : 8=FIX.4.4|9=99|35=W|34=36|49=COEPEXCH|52=20200612-03:30:37.168|56=EXECLINKS|55=amzn|268=1|269=0|270=87|271=2|37=3|10=213|
20200612-03:30:37.169013000 : 8=FIX.4.4|9=109|35=3|34=57|49=EXECLINKS|52=20200612-03:30:37.168|56=COEPEXCH|45=35|58=Required tag missing|371=6|372=8|373=1|10=211|
20200612-03:30:47.179342000 : 8=FIX.4.4|9=146|35=D|34=58|49=EXECLINKS|52=20200612-03:30:47.178|56=COEPEXCH|1=EXECLINKS|11=3|38=2|40=2|44=87|54=1|55=amzn|58=Buy shares|60=20200612-22:29:00.000|10=108|
20200612-03:30:47.181213000 : 8=FIX.4.4|9=77|35=8|34=37|49=COEPEXCH|52=20200612-03:30:47.180|56=EXECLINKS|37=3|39=0|150=0|10=192|
20200612-03:30:47.183229000 : 8=FIX.4.4|9=123|35=W|34=38|49=COEPEXCH|52=20200612-03:30:47.182|56=EXECLINKS|55=amzn|268=2|269=0|270=87|271=2|37=3|269=0|270=87|271=2|37=3|10=051|
20200612-03:30:47.183560000 : 8=FIX.4.4|9=109|35=3|34=59|49=EXECLINKS|52=20200612-03:30:47.181|56=COEPEXCH|45=37|58=Required tag missing|371=6|372=8|373=1|10=211|
20200612-03:31:57.353271000 : 8=FIX.4.4|9=73|35=A|34=60|49=EXECLINKS|52=20200612-03:31:57.353|56=COEPEXCH|98=0|108=20|10=036|
20200612-03:31:57.353520000 : 8=FIX.4.4|9=73|35=A|34=39|49=COEPEXCH|52=20200612-03:31:57.353|56=EXECLINKS|98=0|108=20|10=042|
20200612-03:31:57.383169000 : 8=FIX.4.4|9=146|35=D|34=61|49=EXECLINKS|52=20200612-03:31:57.382|56=COEPEXCH|1=EXECLINKS|11=3|38=2|40=2|44=87|54=1|55=amzn|58=Buy shares|60=20200612-22:29:00.000|10=101|
20200612-03:31:57.383743000 : 8=FIX.4.4|9=77|35=8|34=40|49=COEPEXCH|52=20200612-03:31:57.383|56=EXECLINKS|37=3|39=0|150=0|10=193|
20200612-03:31:57.384157000 : 8=FIX.4.4|9=99|35=W|34=41|49=COEPEXCH|52=20200612-03:31:57.384|56=EXECLINKS|55=amzn|268=1|269=0|270=87|271=2|37=3|10=212|
20200612-03:31:57.384470000 : 8=FIX.4.4|9=109|35=3|34=62|49=EXECLINKS|52=20200612-03:31:57.384|56=COEPEXCH|45=40|58=Required tag missing|371=6|372=8|373=1|10=206|
20200612-03:32:07.391377000 : 8=FIX.4.4|9=146|35=D|34=63|49=EXECLINKS|52=20200612-03:32:07.391|56=COEPEXCH|1=EXECLINKS|11=3|38=2|40=2|44=87|54=1|55=amzn|58=Buy shares|60=20200612-22:29:00.000|10=099|
20200612-03:32:07.391955000 : 8=FIX.4.4|9=77|35=8|34=42|49=COEPEXCH|52=20200612-03:32:07.391|56=EXECLINKS|37=3|39=0|150=0|10=190|
20200612-03:32:07.392517000 : 8=FIX.4.4|9=123|35=W|34=43|49=COEPEXCH|52=20200612-03:32:07.392|56=EXECLINKS|55=amzn|268=2|269=0|270=87|271=2|37=3|269=0|270=87|271=2|37=3|10=048|
20200612-03:32:07.392609000 : 8=FIX.4.4|9=109|35=3|34=64|49=EXECLINKS|52=20200612-03:32:07.392|56=COEPEXCH|45=42|58=Required tag missing|371=6|372=8|373=1|10=205|
20200612-03:37:09.017851000 : 8=FIX.4.4|9=73|35=A|34=65|49=EXECLINKS|52=20200612-03:37:09.017|56=COEPEXCH|98=0|108=20|10=041|
20200612-03:37:09.018117000 : 8=FIX.4.4|9=73|35=A|34=44|49=COEPEXCH|52=20200612-03:37:09.018|56=EXECLINKS|98=0|108=20|10=039|
20200612-03:37:09.046710000 : 8=FIX.4.4|9=146|35=D|34=66|49=EXECLINKS|52=20200612-03:37:09.046|56=COEPEXCH|1=EXECLINKS|11=3|38=2|40=2|44=87|54=1|55=amzn|58=Buy shares|60=20200612-22:29:00.000|10=106|
20200612-03:37:09.047211000 : 8=FIX.4.4|9=77|35=8|34=45|49=COEPEXCH|52=20200612-03:37:09.047|56=EXECLINKS|37=3|39=0|150=0|10=198|
20200612-03:37:09.047491000 : 8=FIX.4.4|9=109|35=3|34=67|49=EXECLINKS|52=20200612-03:37:09.047|56=COEPEXCH|45=45|58=Required tag missing|371=6|372=8|373=1|10=215|
20200612-03:37:19.055625000 : 8=FIX.4.4|9=146|35=D|34=68|49=EXECLINKS|52=20200612-03:37:19.055|56=COEPEXCH|1=EXECLINKS|11=3|38=2|40=2|44=87|54=1|55=amzn|58=Buy shares|60=20200612-22:29:00.000|10=109|
20200612-03:37:19.057424000 : 8=FIX.4.4|9=77|35=8|34=46|49=COEPEXCH|52=20200612-03:37:19.057|56=EXECLINKS|37=3|39=0|150=0|10=201|
20200612-03:37:19.058691000 : 8=FIX.4.4|9=109|35=3|34=69|49=EXECLINKS|52=20200612-03:37:19.058|56=COEPEXCH|45=46|58=Required tag missing|371=6|372=8|373=1|10=221|
20200612-03:38:18.209783000 : 8=FIX.4.4|9=73|35=A|34=70|49=EXECLINKS|52=20200612-03:38:18.209|56=COEPEXCH|98=0|108=20|10=041|
20200612-03:38:18.210045000 : 8=FIX.4.4|9=73|35=A|34=47|49=COEPEXCH|52=20200612-03:38:18.209|56=EXECLINKS|98=0|108=20|10=045|
20200612-03:38:18.238466000 : 8=FIX.4.4|9=146|35=D|34=71|49=EXECLINKS|52=20200612-03:38:18.238|56=COEPEXCH|1=EXECLINKS|11=3|38=2|40=2|44=87|54=1|55=amzn|58=Buy shares|60=20200612-22:29:00.000|10=106|
20200612-03:38:18.239041000 : 8=FIX.4.4|9=77|35=8|34=48|49=COEPEXCH|52=20200612-03:38:18.238|56=EXECLINKS|37=3|39=0|150=0|10=204|
20200612-03:38:18.239333000 : 8=FIX.4.4|9=109|35=3|34=72|49=EXECLINKS|52=20200612-03:38:18.239|56=COEPEXCH|45=48|58=Required tag missing|371=6|372=8|373=1|10=218|
20200612-03:38:28.250161000 : 8=FIX.4.4|9=146|35=D|34=73|49=EXECLINKS|52=20200612-03:38:28.249|56=COEPEXCH|1=EXECLINKS|11=3|38=2|40=2|44=87|54=1|55=amzn|58=Buy shares|60=20200612-22:29:00.000|10=111|
20200612-03:38:28.252019000 : 8=FIX.4.4|9=77|35=8|34=49|49=COEPEXCH|52=20200612-03:38:28.251|56=EXECLINKS|37=3|39=0|150=0|10=201|
20200612-03:38:28.253204000 : 8=FIX.4.4|9=109|35=3|34=74|49=EXECLINKS|52=20200612-03:38:28.252|56=COEPEXCH|45=49|58=Required tag missing|371=6|372=8|373=1|10=217|
20200612-03:39:09.734813000 : 8=FIX.4.4|9=73|35=A|34=75|49=EXECLINKS|52=20200612-03:39:09.734|56=COEPEXCH|98=0|108=20|10=050|
20200612-03:39:09.735058000 : 8=FIX.4.4|9=73|35=A|34=50|49=COEPEXCH|52=20200612-03:39:09.734|56=EXECLINKS|98=0|108=20|10=043|
20200612-03:39:09.763457000 : 8=FIX.4.4|9=146|35=D|34=76|49=EXECLINKS|52=20200612-03:39:09.763|56=COEPEXCH|1=EXECLINKS|11=3|38=2|40=2|44=87|54=1|55=amzn|58=Buy shares|60=20200612-22:29:00.000|10=115|
20200612-03:39:09.763956000 : 8=FIX.4.4|9=77|35=8|34=51|49=COEPEXCH|52=20200612-03:39:09.763|56=EXECLINKS|37=3|39=0|150=0|10=202|
20200612-03:39:09.764297000 : 8=FIX.4.4|9=109|35=3|34=77|49=EXECLINKS|52=20200612-03:39:09.764|56=COEPEXCH|45=51|58=Required tag missing|371=6|372=8|373=1|10=221|
20200612-03:39:19.775243000 : 8=FIX.4.4|9=146|35=D|34=78|49=EXECLINKS|52=20200612-03:39:19.774|56=COEPEXCH|1=EXECLINKS|11=3|38=2|40=2|44=87|54=1|55=amzn|58=Buy shares|60=20200612-22:29:00.000|10=120|
20200612-03:39:19.777012000 : 8=FIX.4.4|9=77|35=8|34=52|49=COEPEXCH|52=20200612-03:39:19.776|56=EXECLINKS|37=3|39=0|150=0|10=208|
20200612-03:39:19.778273000 : 8=FIX.4.4|9=109|35=3|34=79|49=EXECLINKS|52=20200612-03:39:19.777|56=COEPEXCH|45=52|58=Required tag missing|371=6|372=8|373=1|10=229|
20200612-03:39:30.665186000 : 8=FIX.4.4|9=73|35=A|34=80|49=EXECLINKS|52=20200612-03:39:30.664|56=COEPEXCH|98=0|108=20|10=042|
20200612-03:39:30.665409000 : 8=FIX.4.4|9=73|35=A|34=53|49=COEPEXCH|52=20200612-03:39:30.665|56=EXECLINKS|98=0|108=20|10=043|
20200612-03:39:30.693942000 : 8=FIX.4.4|9=146|35=D|34=81|49=EXECLINKS|52=20200612-03:39:30.693|56=COEPEXCH|1=EXECLINKS|11=3|38=2|40=2|44=87|54=1|55=amzn|58=Buy shares|60=20200612-22:29:00.000|10=107|
20200612-03:39:30.694398000 : 8=FIX.4.4|9=77|35=8|34=54|49=COEPEXCH|52=20200612-03:39:30.694|56=EXECLINKS|37=3|39=0|150=0|10=202|
20200612-03:39:30.694709000 : 8=FIX.4.4|9=109|35=3|34=82|49=EXECLINKS|52=20200612-03:39:30.694|56=COEPEXCH|45=54|58=Required tag missing|371=6|372=8|373=1|10=216|
20200612-03:40:41.235272000 : 8=FIX.4.4|9=73|35=A|34=84|49=EXECLINKS|52=20200612-03:40:41.235|56=COEPEXCH|98=0|108=20|10=034|
20200612-03:40:41.235512000 : 8=FIX.4.4|9=73|35=A|34=55|49=COEPEXCH|52=20200612-03:40:41.235|56=EXECLINKS|98=0|108=20|10=032|
20200612-03:40:41.235641000 : 8=FIX.4.4|9=71|35=2|34=56|49=COEPEXCH|52=20200612-03:40:41.235|56=EXECLINKS|7=83|16=0|10=173|
20200612-03:40:41.236040000 : 8=FIX.4.4|9=177|35=D|34=83|43=Y|49=EXECLINKS|52=20200612-03:40:41.235|56=COEPEXCH|122=20200612-03:39:40.705|1=EXECLINKS|11=3|38=2|40=2|44=87|54=1|55=amzn|58=Buy shares|60=20200612-22:29:00.000|10=095|
20200612-03:40:41.236655000 : 8=FIX.4.4|9=77|35=8|34=57|49=COEPEXCH|52=20200612-03:40:41.236|56=EXECLINKS|37=3|39=0|150=0|10=191|
20200612-03:40:41.236771000 : 8=FIX.4.4|9=104|35=4|34=84|43=Y|49=EXECLINKS|52=20200612-03:40:41.236|56=COEPEXCH|122=20200612-03:40:41.236|36=85|123=Y|10=094|
20200612-03:40:41.236911000 : 8=FIX.4.4|9=109|35=3|34=85|49=EXECLINKS|52=20200612-03:40:41.236|56=COEPEXCH|45=57|58=Required tag missing|371=6|372=8|373=1|10=208|
20200612-03:40:41.267762000 : 8=FIX.4.4|9=146|35=D|34=86|49=EXECLINKS|52=20200612-03:40:41.267|56=COEPEXCH|1=EXECLINKS|11=3|38=2|40=2|44=87|54=1|55=amzn|58=Buy shares|60=20200612-22:29:00.000|10=103|
20200612-03:40:41.268189000 : 8=FIX.4.4|9=77|35=8|34=58|49=COEPEXCH|52=20200612-03:40:41.268|56=EXECLINKS|37=3|39=0|150=0|10=197|
20200612-03:40:41.268482000 : 8=FIX.4.4|9=109|35=3|34=87|49=EXECLINKS|52=20200612-03:40:41.268|56=COEPEXCH|45=58|58=Required tag missing|371=6|372=8|373=1|10=216|
20200612-03:42:14.253651000 : 8=FIX.4.4|9=73|35=A|34=88|49=EXECLINKS|52=20200612-03:42:14.253|56=COEPEXCH|98=0|108=20|10=040|
20200612-03:42:14.253846000 : 8=FIX.4.4|9=73|35=A|34=59|49=COEPEXCH|52=20200612-03:42:14.253|56=EXECLINKS|98=0|108=20|10=038|
20200612-03:42:14.282437000 : 8=FIX.4.4|9=146|35=D|34=89|49=EXECLINKS|52=20200612-03:42:14.282|56=COEPEXCH|1=EXECLINKS|11=3|38=2|40=2|44=87|54=1|55=amzn|58=Buy shares|60=20200612-22:29:00.000|10=105|
20200612-03:42:14.282943000 : 8=FIX.4.4|9=77|35=8|34=60|49=COEPEXCH|52=20200612-03:42:14.282|56=EXECLINKS|37=3|39=0|150=0|10=188|
20200612-03:42:14.283230000 : 8=FIX.4.4|9=109|35=3|34=90|49=EXECLINKS|52=20200612-03:42:14.283|56=COEPEXCH|45=60|58=Required tag missing|371=6|372=8|373=1|10=202|
20200612-03:42:24.293549000 : 8=FIX.4.4|9=146|35=D|34=91|49=EXECLINKS|52=20200612-03:42:24.293|56=COEPEXCH|1=EXECLINKS|11=3|38=2|40=2|44=87|54=1|55=amzn|58=Buy shares|60=20200612-22:29:00.000|10=101|
20200612-03:42:24.294841000 : 8=FIX.4.4|9=77|35=8|34=61|49=COEPEXCH|52=20200612-03:42:24.294|56=EXECLINKS|37=3|39=0|150=0|10=193|
20200612-03:42:24.295489000 : 8=FIX.4.4|9=109|35=3|34=92|49=EXECLINKS|52=20200612-03:42:24.295|56=COEPEXCH|45=61|58=Required tag missing|371=6|372=8|373=1|10=209|
20200612-03:45:07.055210000 : 8=FIX.4.4|9=73|35=A|34=93|49=EXECLINKS|52=20200612-03:45:07.054|56=COEPEXCH|98=0|108=20|10=040|
20200612-03:45:07.055468000 : 8=FIX.4.4|9=73|35=A|34=62|49=COEPEXCH|52=20200612-03:45:07.055|56=EXECLINKS|98=0|108=20|10=037|
20200612-03:45:07.084370000 : 8=FIX.4.4|9=146|35=D|34=94|49=EXECLINKS|52=20200612-03:45:07.084|56=COEPEXCH|1=EXECLINKS|11=3|38=2|40=2|44=87|54=1|55=amzn|58=Buy shares|60=20200612-22:29:00.000|10=106|
20200612-03:45:07.084874000 : 8=FIX.4.4|9=77|35=8|34=63|49=COEPEXCH|52=20200612-03:45:07.084|56=EXECLINKS|37=3|39=0|150=0|10=196|
20200612-03:45:07.085171000 : 8=FIX.4.4|9=109|35=3|34=95|49=EXECLINKS|52=20200612-03:45:07.085|56=COEPEXCH|45=63|58=Required tag missing|371=6|372=8|373=1|10=215|
20200612-03:46:15.966828000 : 8=FIX.4.4|9=73|35=A|34=96|49=EXECLINKS|52=20200612-03:46:15.966|56=COEPEXCH|98=0|108=20|10=055|
20200612-03:46:15.967025000 : 8=FIX.4.4|9=73|35=A|34=64|49=COEPEXCH|52=20200612-03:46:15.966|56=EXECLINKS|98=0|108=20|10=050|
20200612-03:46:15.995710000 : 8=FIX.4.4|9=146|35=D|34=97|49=EXECLINKS|52=20200612-03:46:15.995|56=COEPEXCH|1=EXECLINKS|11=3|38=2|40=2|44=87|54=1|55=amzn|58=Buy shares|60=20200612-22:29:00.000|10=120|
20200612-03:46:15.996220000 : 8=FIX.4.4|9=77|35=8|34=65|49=COEPEXCH|52=20200612-03:46:15.996|56=EXECLINKS|37=3|39=0|150=0|10=210|
20200612-03:46:15.996538000 : 8=FIX.4.4|9=109|35=3|34=98|49=EXECLINKS|52=20200612-03:46:15.996|56=COEPEXCH|45=65|58=Required tag missing|371=6|372=8|373=1|10=231|
20200612-03:46:26.007424000 : 8=FIX.4.4|9=146|35=D|34=99|49=EXECLINKS|52=20200612-03:46:26.006|56=COEPEXCH|1=EXECLINKS|11=3|38=2|40=2|44=87|54=1|55=amzn|58=Buy shares|60=20200612-22:29:00.000|10=107|
20200612-03:46:26.009153000 : 8=FIX.4.4|9=77|35=8|34=66|49=COEPEXCH|52=20200612-03:46:26.008|56=EXECLINKS|37=3|39=0|150=0|10=197|
20200612-03:46:26.023207000 : 8=FIX.4.4|9=110|35=3|34=100|49=EXECLINKS|52=20200612-03:46:26.009|56=COEPEXCH|45=66|58=Required tag missing|371=6|372=8|373=1|10=243|
20200612-03:47:48.117896000 : 8=FIX.4.4|9=74|35=A|34=101|49=EXECLINKS|52=20200612-03:47:48.117|56=COEPEXCH|98=0|108=20|10=086|
20200612-03:47:48.118148000 : 8=FIX.4.4|9=73|35=A|34=67|49=COEPEXCH|52=20200612-03:47:48.118|56=EXECLINKS|98=0|108=20|10=049|
20200612-03:47:48.146758000 : 8=FIX.4.4|9=147|35=D|34=102|49=EXECLINKS|52=20200612-03:47:48.146|56=COEPEXCH|1=EXECLINKS|11=3|38=2|40=2|44=87|54=1|55=amzn|58=Buy shares|60=20200612-22:29:00.000|10=151|
20200612-03:47:48.147310000 : 8=FIX.4.4|9=77|35=8|34=68|49=COEPEXCH|52=20200612-03:47:48.147|56=EXECLINKS|37=3|39=0|150=0|10=208|
20200612-03:47:48.147770000 : 8=FIX.4.4|9=99|35=W|34=69|49=COEPEXCH|52=20200612-03:47:48.147|56=EXECLINKS|55=amzn|268=1|269=0|270=87|271=2|37=3|10=226|
20200612-03:47:48.147848000 : 8=FIX.4.4|9=110|35=3|34=103|49=EXECLINKS|52=20200612-03:47:48.147|56=COEPEXCH|45=68|58=Required tag missing|371=6|372=8|373=1|10=000|
20200612-03:47:58.158529000 : 8=FIX.4.4|9=147|35=D|34=104|49=EXECLINKS|52=20200612-03:47:58.157|56=COEPEXCH|1=EXECLINKS|11=3|38=2|40=2|44=87|54=1|55=amzn|58=Buy shares|60=20200612-22:29:00.000|10=156|
20200612-03:47:58.159643000 : 8=FIX.4.4|9=77|35=8|34=70|49=COEPEXCH|52=20200612-03:47:58.159|56=EXECLINKS|37=3|39=0|150=0|10=205|
20200612-03:47:58.160060000 : 8=FIX.4.4|9=123|35=W|34=71|49=COEPEXCH|52=20200612-03:47:58.159|56=EXECLINKS|55=amzn|268=2|269=0|270=87|271=2|37=3|269=0|270=87|271=2|37=3|10=062|
20200612-03:47:58.160140000 : 8=FIX.4.4|9=110|35=3|34=105|49=EXECLINKS|52=20200612-03:47:58.159|56=COEPEXCH|45=70|58=Required tag missing|371=6|372=8|373=1|10=255|
20200612-03:48:20.835183000 : 8=FIX.4.4|9=74|35=A|34=106|49=EXECLINKS|52=20200612-03:48:20.834|56=COEPEXCH|98=0|108=20|10=088|
20200612-03:48:20.835366000 : 8=FIX.4.4|9=73|35=A|34=72|49=COEPEXCH|52=20200612-03:48:20.835|56=EXECLINKS|98=0|108=20|10=042|
20200612-03:48:20.863921000 : 8=FIX.4.4|9=147|35=D|34=107|49=EXECLINKS|52=20200612-03:48:20.863|56=COEPEXCH|1=EXECLINKS|11=3|38=2|40=2|44=87|54=1|55=amzn|58=Buy shares|60=20200612-22:29:00.000|10=153|
20200612-03:48:20.864453000 : 8=FIX.4.4|9=77|35=8|34=73|49=COEPEXCH|52=20200612-03:48:20.864|56=EXECLINKS|37=3|39=0|150=0|10=201|
20200612-03:48:20.864923000 : 8=FIX.4.4|9=99|35=W|34=74|49=COEPEXCH|52=20200612-03:48:20.864|56=EXECLINKS|55=amzn|268=1|269=0|270=87|271=2|37=3|10=219|
20200612-03:48:20.864994000 : 8=FIX.4.4|9=110|35=3|34=108|49=EXECLINKS|52=20200612-03:48:20.864|56=COEPEXCH|45=73|58=Required tag missing|371=6|372=8|373=1|10=254|
20200612-03:48:30.874827000 : 8=FIX.4.4|9=147|35=D|34=109|49=EXECLINKS|52=20200612-03:48:30.874|56=COEPEXCH|1=EXECLINKS|11=3|38=2|40=2|44=87|54=1|55=amzn|58=Buy shares|60=20200612-22:29:00.000|10=158|
20200612-03:48:30.875729000 : 8=FIX.4.4|9=77|35=8|34=75|49=COEPEXCH|52=20200612-03:48:30.875|56=EXECLINKS|37=3|39=0|150=0|10=206|
20200612-03:48:30.876698000 : 8=FIX.4.4|9=123|35=W|34=76|49=COEPEXCH|52=20200612-03:48:30.876|56=EXECLINKS|55=amzn|268=2|269=0|270=87|271=2|37=3|269=0|270=87|271=2|37=3|10=064|
20200612-03:48:30.876905000 : 8=FIX.4.4|9=110|35=3|34=110|49=EXECLINKS|52=20200612-03:48:30.876|56=COEPEXCH|45=75|58=Required tag missing|371=6|372=8|373=1|10=253|
20200612-03:54:13.041718000 : 8=FIX.4.4|9=74|35=A|34=111|49=EXECLINKS|52=20200612-03:54:13.041|56=COEPEXCH|98=0|108=20|10=073|
20200612-03:54:13.041895000 : 8=FIX.4.4|9=73|35=A|34=77|49=COEPEXCH|52=20200612-03:54:13.041|56=EXECLINKS|98=0|108=20|10=035|
20200612-03:54:13.070744000 : 8=FIX.4.4|9=147|35=D|34=112|49=EXECLINKS|52=20200612-03:54:13.070|56=COEPEXCH|1=EXECLINKS|11=3|38=2|40=2|44=87|54=1|55=amzn|58=Buy shares|60=20200612-22:29:00.000|10=138|
20200612-03:54:13.071274000 : 8=FIX.4.4|9=77|35=8|34=78|49=COEPEXCH|52=20200612-03:54:13.071|56=EXECLINKS|37=3|39=0|150=0|10=195|
20200612-03:55:11.833962000 : 8=FIX.4.4|9=74|35=A|34=120|49=EXECLINKS|52=20200612-03:55:11.833|56=COEPEXCH|98=0|108=20|10=081|
20200612-03:55:11.834229000 : 8=FIX.4.4|9=73|35=A|34=79|49=COEPEXCH|52=20200612-03:55:11.834|56=EXECLINKS|98=0|108=20|10=046|
20200612-03:55:11.834373000 : 8=FIX.4.4|9=72|35=2|34=80|49=COEPEXCH|52=20200612-03:55:11.834|56=EXECLINKS|7=112|16=0|10=220|
20200612-03:55:11.834836000 : 8=FIX.4.4|9=178|35=D|34=112|43=Y|49=EXECLINKS|52=20200612-03:55:11.834|56=COEPEXCH|122=20200612-03:54:13.070|1=EXECLINKS|11=3|38=2|40=2|44=87|54=1|55=amzn|58=Buy shares|60=20200612-22:29:00.000|10=137|
20200612-03:55:26.249373000 : 8=FIX.4.4|9=74|35=A|34=123|49=EXECLINKS|52=20200612-03:55:26.249|56=COEPEXCH|98=0|108=20|10=091|
20200612-03:55:26.249611000 : 8=FIX.4.4|9=73|35=A|34=81|49=COEPEXCH|52=20200612-03:55:26.249|56=EXECLINKS|98=0|108=20|10=045|
20200612-03:55:26.249764000 : 8=FIX.4.4|9=72|35=2|34=82|49=COEPEXCH|52=20200612-03:55:26.249|56=EXECLINKS|7=112|16=0|10=228|
20200612-03:55:26.250197000 : 8=FIX.4.4|9=178|35=D|34=112|43=Y|49=EXECLINKS|52=20200612-03:55:26.250|56=COEPEXCH|122=20200612-03:54:13.070|1=EXECLINKS|11=3|38=2|40=2|44=87|54=1|55=amzn|58=Buy shares|60=20200612-22:29:00.000|10=135|
20200612-03:55:26.250798000 : 8=FIX.4.4|9=77|35=8|34=83|49=COEPEXCH|52=20200612-03:55:26.250|56=EXECLINKS|37=3|39=0|150=0|10=195|
20200612-03:56:05.944424000 : 8=FIX.4.4|9=74|35=A|34=130|49=EXECLINKS|52=20200612-03:56:05.944|56=COEPEXCH|98=0|108=20|10=089|
20200612-03:56:05.944663000 : 8=FIX.4.4|9=73|35=A|34=84|49=COEPEXCH|52=20200612-03:56:05.944|56=EXECLINKS|98=0|108=20|10=048|
20200612-03:56:05.944796000 : 8=FIX.4.4|9=72|35=2|34=85|49=COEPEXCH|52=20200612-03:56:05.944|56=EXECLINKS|7=112|16=0|10=231|
20200612-03:56:05.945195000 : 8=FIX.4.4|9=178|35=D|34=112|43=Y|49=EXECLINKS|52=20200612-03:56:05.945|56=COEPEXCH|122=20200612-03:54:13.070|1=EXECLINKS|11=3|38=2|40=2|44=87|54=1|55=amzn|58=Buy shares|60=20200612-22:29:00.000|10=144|
20200612-03:56:31.603150000 : 8=FIX.4.4|9=74|35=A|34=134|49=EXECLINKS|52=20200612-03:56:31.602|56=COEPEXCH|98=0|108=20|10=083|
20200612-03:56:31.603399000 : 8=FIX.4.4|9=73|35=A|34=86|49=COEPEXCH|52=20200612-03:56:31.603|56=EXECLINKS|98=0|108=20|10=041|
20200612-03:56:31.603530000 : 8=FIX.4.4|9=72|35=2|34=87|49=COEPEXCH|52=20200612-03:56:31.603|56=EXECLINKS|7=112|16=0|10=224|
20200612-03:56:31.603984000 : 8=FIX.4.4|9=178|35=D|34=112|43=Y|49=EXECLINKS|52=20200612-03:56:31.603|56=COEPEXCH|122=20200612-03:54:13.070|1=EXECLINKS|11=3|38=2|40=2|44=87|54=1|55=amzn|58=Buy shares|60=20200612-22:29:00.000|10=134|
20200612-03:56:31.604598000 : 8=FIX.4.4|9=77|35=8|34=88|49=COEPEXCH|52=20200612-03:56:31.604|56=EXECLINKS|37=3|39=0|150=0|10=200|
20200612-03:56:31.604695000 : 8=FIX.4.4|9=106|35=4|34=113|43=Y|49=EXECLINKS|52=20200612-03:56:31.604|56=COEPEXCH|122=20200612-03:56:31.604|36=114|123=Y|10=188|
20200612-03:56:31.605237000 : 8=FIX.4.4|9=178|35=D|34=114|43=Y|49=EXECLINKS|52=20200612-03:56:31.603|56=COEPEXCH|122=20200612-03:54:23.081|1=EXECLINKS|11=3|38=2|40=2|44=87|54=1|55=amzn|58=Buy shares|60=20200612-22:29:00.000|10=139|
20200612-03:56:31.605709000 : 8=FIX.4.4|9=77|35=8|34=89|49=COEPEXCH|52=20200612-03:56:31.605|56=EXECLINKS|37=3|39=0|150=0|10=202|
20200612-03:56:31.605779000 : 8=FIX.4.4|9=178|35=D|34=115|43=Y|49=EXECLINKS|52=20200612-03:56:31.604|56=COEPEXCH|122=20200612-03:54:33.084|1=EXECLINKS|11=3|38=2|40=2|44=87|54=1|55=amzn|58=Buy shares|60=20200612-22:29:00.000|10=145|
20200612-03:56:31.606167000 : 8=FIX.4.4|9=77|35=8|34=90|49=COEPEXCH|52=20200612-03:56:31.606|56=EXECLINKS|37=3|39=0|150=0|10=195|
20200612-03:56:31.606230000 : 8=FIX.4.4|9=178|35=D|34=116|43=Y|49=EXECLINKS|52=20200612-03:56:31.604|56=COEPEXCH|122=20200612-03:54:43.095|1=EXECLINKS|11=3|38=2|40=2|44=87|54=1|55=amzn|58=Buy shares|60=20200612-22:29:00.000|10=149|
20200612-03:56:31.606605000 : 8=FIX.4.4|9=77|35=8|34=91|49=COEPEXCH|52=20200612-03:56:31.606|56=EXECLINKS|37=3|39=0|150=0|10=196|
20200612-03:56:31.606666000 : 8=FIX.4.4|9=106|35=4|34=117|43=Y|49=EXECLINKS|52=20200612-03:56:31.604|56=COEPEXCH|122=20200612-03:56:31.604|36=118|123=Y|10=196|
20200612-03:56:31.606750000 : 8=FIX.4.4|9=178|35=D|34=118|43=Y|49=EXECLINKS|52=20200612-03:56:31.604|56=COEPEXCH|122=20200612-03:54:53.106|1=EXECLINKS|11=3|38=2|40=2|44=87|54=1|55=amzn|58=Buy shares|60=20200612-22:29:00.000|10=145|
20200612-03:56:31.607117000 : 8=FIX.4.4|9=77|35=8|34=92|49=COEPEXCH|52=20200612-03:56:31.607|56=EXECLINKS|37=3|39=0|150=0|10=198|
20200612-03:56:31.607179000 : 8=FIX.4.4|9=178|35=D|34=119|43=Y|49=EXECLINKS|52=20200612-03:56:31.604|56=COEPEXCH|122=20200612-03:55:03.117|1=EXECLINKS|11=3|38=2|40=2|44=87|54=1|55=amzn|58=Buy shares|60=20200612-22:29:00.000|10=144|
20200612-03:56:31.607582000 : 8=FIX.4.4|9=77|35=8|34=93|49=COEPEXCH|52=20200612-03:56:31.607|56=EXECLINKS|37=3|39=0|150=0|10=199|
20200612-03:56:31.607653000 : 8=FIX.4.4|9=106|35=4|34=120|43=Y|49=EXECLINKS|52=20200612-03:56:31.604|56=COEPEXCH|122=20200612-03:56:31.604|36=121|123=Y|10=184|
20200612-03:56:31.607736000 : 8=FIX.4.4|9=178|35=D|34=121|43=Y|49=EXECLINKS|52=20200612-03:56:31.604|56=COEPEXCH|122=20200612-03:55:11.883|1=EXECLINKS|11=3|38=2|40=2|44=87|54=1|55=amzn|58=Buy shares|60=20200612-22:29:00.000|10=146|
20200612-03:56:31.608123000 : 8=FIX.4.4|9=77|35=8|34=94|49=COEPEXCH|52=20200612-03:56:31.608|56=EXECLINKS|37=3|39=0|150=0|10=201|
20200612-03:56:31.608183000 : 8=FIX.4.4|9=178|35=D|34=122|43=Y|49=EXECLINKS|52=20200612-03:56:31.604|56=COEPEXCH|122=20200612-03:55:21.891|1=EXECLINKS|11=3|38=2|40=2|44=87|54=1|55=amzn|58=Buy shares|60=20200612-22:29:00.000|10=147|
20200612-03:56:31.608579000 : 8=FIX.4.4|9=77|35=8|34=95|49=COEPEXCH|52=20200612-03:56:31.608|56=EXECLINKS|37=3|39=0|150=0|10=202|
20200612-03:56:31.608629000 : 8=FIX.4.4|9=106|35=4|34=123|43=Y|49=EXECLINKS|52=20200612-03:56:31.604|56=COEPEXCH|122=20200612-03:56:31.604|36=125|123=Y|10=191|
20200612-03:56:31.608710000 : 8=FIX.4.4|9=178|35=D|34=125|43=Y|49=EXECLINKS|52=20200612-03:56:31.604|56=COEPEXCH|122=20200612-03:55:26.300|1=EXECLINKS|11=3|38=2|40=2|44=87|54=1|55=amzn|58=Buy shares|60=20200612-22:29:00.000|10=140|
20200612-03:56:31.609101000 : 8=FIX.4.4|9=77|35=8|34=96|49=COEPEXCH|52=20200612-03:56:31.609|56=EXECLINKS|37=3|39=0|150=0|10=204|
20200612-03:56:31.609150000 : 8=FIX.4.4|9=178|35=D|34=126|43=Y|49=EXECLINKS|52=20200612-03:56:31.604|56=COEPEXCH|122=20200612-03:55:36.308|1=EXECLINKS|11=3|38=2|40=2|44=87|54=1|55=amzn|58=Buy shares|60=20200612-22:29:00.000|10=150|
20200612-03:56:31.609538000 : 8=FIX.4.4|9=77|35=8|34=97|49=COEPEXCH|52=20200612-03:56:31.609|56=EXECLINKS|37=3|39=0|150=0|10=205|
20200612-03:56:31.609586000 : 8=FIX.4.4|9=178|35=D|34=127|43=Y|49=EXECLINKS|52=20200612-03:56:31.604|56=COEPEXCH|122=20200612-03:55:46.318|1=EXECLINKS|11=3|38=2|40=2|44=87|54=1|55=amzn|58=Buy shares|60=20200612-22:29:00.000|10=153|
20200612-03:56:31.609969000 : 8=FIX.4.4|9=77|35=8|34=98|49=COEPEXCH|52=20200612-03:56:31.609|56=EXECLINKS|37=3|39=0|150=0|10=206|
20200612-03:56:31.610016000 : 8=FIX.4.4|9=178|35=D|34=128|43=Y|49=EXECLINKS|52=20200612-03:56:31.604|56=COEPEXCH|122=20200612-03:55:56.325|1=EXECLINKS|11=3|38=2|40=2|44=87|54=1|55=amzn|58=Buy shares|60=20200612-22:29:00.000|10=153|
20200612-03:56:31.610415000 : 8=FIX.4.4|9=77|35=8|34=99|49=COEPEXCH|52=20200612-03:56:31.610|56=EXECLINKS|37=3|39=0|150=0|10=199|
20200612-03:56:31.610462000 : 8=FIX.4.4|9=106|35=4|34=129|43=Y|49=EXECLINKS|52=20200612-03:56:31.604|56=COEPEXCH|122=20200612-03:56:31.604|36=131|123=Y|10=194|
20200612-03:56:31.610541000 : 8=FIX.4.4|9=178|35=D|34=131|43=Y|49=EXECLINKS|52=20200612-03:56:31.604|56=COEPEXCH|122=20200612-03:56:05.996|1=EXECLINKS|11=3|38=2|40=2|44=87|54=1|55=amzn|58=Buy shares|60=20200612-22:29:00.000|10=156|
20200612-03:56:31.612161000 : 8=FIX.4.4|9=78|35=8|34=100|49=COEPEXCH|52=20200612-03:56:31.612|56=EXECLINKS|37=3|39=0|150=0|10=233|
20200612-03:56:31.612240000 : 8=FIX.4.4|9=178|35=D|34=132|43=Y|49=EXECLINKS|52=20200612-03:56:31.604|56=COEPEXCH|122=20200612-03:56:16.005|1=EXECLINKS|11=3|38=2|40=2|44=87|54=1|55=amzn|58=Buy shares|60=20200612-22:29:00.000|10=140|
20200612-03:56:31.612664000 : 8=FIX.4.4|9=78|35=8|34=101|49=COEPEXCH|52=20200612-03:56:31.612|56=EXECLINKS|37=3|39=0|150=0|10=234|
20200612-03:56:31.612735000 : 8=FIX.4.4|9=178|35=D|34=133|43=Y|49=EXECLINKS|52=20200612-03:56:31.604|56=COEPEXCH|122=20200612-03:56:26.015|1=EXECLINKS|11=3|38=2|40=2|44=87|54=1|55=amzn|58=Buy shares|60=20200612-22:29:00.000|10=143|
20200612-03:56:31.613157000 : 8=FIX.4.4|9=78|35=8|34=102|49=COEPEXCH|52=20200612-03:56:31.613|56=EXECLINKS|37=3|39=0|150=0|10=236|
20200612-03:56:31.613243000 : 8=FIX.4.4|9=106|35=4|34=134|43=Y|49=EXECLINKS|52=20200612-03:56:31.604|56=COEPEXCH|122=20200612-03:56:31.604|36=135|123=Y|10=194|
20200612-03:56:31.613283000 : 8=FIX.4.4|9=110|35=3|34=135|49=EXECLINKS|52=20200612-03:56:31.605|56=COEPEXCH|45=88|58=Required tag missing|371=6|372=8|373=1|10=254|
20200612-03:56:31.613381000 : 8=FIX.4.4|9=110|35=3|34=136|49=EXECLINKS|52=20200612-03:56:31.605|56=COEPEXCH|45=89|58=Required tag missing|371=6|372=8|373=1|10=000|
20200612-03:56:31.613451000 : 8=FIX.4.4|9=110|35=3|34=137|49=EXECLINKS|52=20200612-03:56:31.606|56=COEPEXCH|45=90|58=Required tag missing|371=6|372=8|373=1|10=250|
20200612-03:56:31.613508000 : 8=FIX.4.4|9=110|35=3|34=138|49=EXECLINKS|52=20200612-03:56:31.606|56=COEPEXCH|45=91|58=Required tag missing|371=6|372=8|373=1|10=252|
20200612-03:56:31.613566000 : 8=FIX.4.4|9=110|35=3|34=139|49=EXECLINKS|52=20200612-03:56:31.607|56=COEPEXCH|45=92|58=Required tag missing|371=6|372=8|373=1|10=255|
20200612-03:56:31.613621000 : 8=FIX.4.4|9=110|35=3|34=140|49=EXECLINKS|52=20200612-03:56:31.610|56=COEPEXCH|45=93|58=Required tag missing|371=6|372=8|373=1|10=242|
20200612-03:56:31.613675000 : 8=FIX.4.4|9=110|35=3|34=141|49=EXECLINKS|52=20200612-03:56:31.611|56=COEPEXCH|45=94|58=Required tag missing|371=6|372=8|373=1|10=245|
20200612-03:56:31.613729000 : 8=FIX.4.4|9=110|35=3|34=142|49=EXECLINKS|52=20200612-03:56:31.611|56=COEPEXCH|45=95|58=Required tag missing|371=6|372=8|373=1|10=247|
20200612-03:56:31.613781000 : 8=FIX.4.4|9=110|35=3|34=143|49=EXECLINKS|52=20200612-03:56:31.611|56=COEPEXCH|45=96|58=Required tag missing|371=6|372=8|373=1|10=249|
20200612-03:56:31.613832000 : 8=FIX.4.4|9=110|35=3|34=144|49=EXECLINKS|52=20200612-03:56:31.611|56=COEPEXCH|45=97|58=Required tag missing|371=6|372=8|373=1|10=251|
20200612-03:56:31.613883000 : 8=FIX.4.4|9=110|35=3|34=145|49=EXECLINKS|52=20200612-03:56:31.611|56=COEPEXCH|45=98|58=Required tag missing|371=6|372=8|373=1|10=253|
20200612-03:56:31.613934000 : 8=FIX.4.4|9=110|35=3|34=146|49=EXECLINKS|52=20200612-03:56:31.611|56=COEPEXCH|45=99|58=Required tag missing|371=6|372=8|373=1|10=255|
20200612-03:56:31.613985000 : 8=FIX.4.4|9=111|35=3|34=147|49=EXECLINKS|52=20200612-03:56:31.612|56=COEPEXCH|45=100|58=Required tag missing|371=6|372=8|373=1|10=033|
20200612-03:56:31.614036000 : 8=FIX.4.4|9=111|35=3|34=148|49=EXECLINKS|52=20200612-03:56:31.612|56=COEPEXCH|45=101|58=Required tag missing|371=6|372=8|373=1|10=035|
20200612-03:56:31.614124000 : 8=FIX.4.4|9=111|35=3|34=149|49=EXECLINKS|52=20200612-03:56:31.613|56=COEPEXCH|45=102|58=Required tag missing|371=6|372=8|373=1|10=038|
20200612-03:56:31.640135000 : 8=FIX.4.4|9=147|35=D|34=150|49=EXECLINKS|52=20200612-03:56:31.639|56=COEPEXCH|1=EXECLINKS|11=3|38=2|40=2|44=87|54=1|55=amzn|58=Buy shares|60=20200612-22:29:00.000|10=153|
20200612-03:56:31.640554000 : 8=FIX.4.4|9=78|35=8|34=103|49=COEPEXCH|52=20200612-03:56:31.640|56=EXECLINKS|37=3|39=0|150=0|10=237|
20200612-03:56:31.640847000 : 8=FIX.4.4|9=111|35=3|34=151|49=EXECLINKS|52=20200612-03:56:31.640|56=COEPEXCH|45=103|58=Required tag missing|371=6|372=8|373=1|10=032|
20200612-03:56:41.649427000 : 8=FIX.4.4|9=147|35=D|34=152|49=EXECLINKS|52=20200612-03:56:41.648|56=COEPEXCH|1=EXECLINKS|11=3|38=2|40=2|44=87|54=1|55=amzn|58=Buy shares|60=20200612-22:29:00.000|10=156|
20200612-03:56:41.651111000 : 8=FIX.4.4|9=78|35=8|34=104|49=COEPEXCH|52=20200612-03:56:41.650|56=EXECLINKS|37=3|39=0|150=0|10=240|
20200612-03:56:41.652148000 : 8=FIX.4.4|9=111|35=3|34=153|49=EXECLINKS|52=20200612-03:56:41.651|56=COEPEXCH|45=104|58=Required tag missing|371=6|372=8|373=1|10=038|
20200612-03:56:51.653326000 : 8=FIX.4.4|9=147|35=D|34=154|49=EXECLINKS|52=20200612-03:56:51.652|56=COEPEXCH|1=EXECLINKS|11=3|38=2|40=2|44=87|54=1|55=amzn|58=Buy shares|60=20200612-22:29:00.000|10=154|
20200612-03:56:51.655160000 : 8=FIX.4.4|9=78|35=8|34=105|49=COEPEXCH|52=20200612-03:56:51.654|56=EXECLINKS|37=3|39=0|150=0|10=246|
20200612-03:56:51.656233000 : 8=FIX.4.4|9=111|35=3|34=155|49=EXECLINKS|52=20200612-03:56:51.655|56=COEPEXCH|45=105|58=Required tag missing|371=6|372=8|373=1|10=046|
20200612-03:56:55.459594000 : 8=FIX.4.4|9=71|35=1|34=156|49=EXECLINKS|52=20200612-03:56:55.459|56=COEPEXCH|112=TEST|10=078|
20200612-03:56:55.459744000 : 8=FIX.4.4|9=71|35=0|34=106|49=COEPEXCH|52=20200612-03:56:55.459|56=EXECLINKS|112=TEST|10=072|
20200612-03:57:01.662429000 : 8=FIX.4.4|9=147|35=D|34=157|49=EXECLINKS|52=20200612-03:57:01.661|56=COEPEXCH|1=EXECLINKS|11=3|38=2|40=2|44=87|54=1|55=amzn|58=Buy shares|60=20200612-22:29:00.000|10=153|
20200612-03:57:01.664424000 : 8=FIX.4.4|9=78|35=8|34=107|49=COEPEXCH|52=20200612-03:57:01.663|56=EXECLINKS|37=3|39=0|150=0|10=244|
20200612-03:57:01.665588000 : 8=FIX.4.4|9=111|35=3|34=158|49=EXECLINKS|52=20200612-03:57:01.665|56=COEPEXCH|45=107|58=Required tag missing|371=6|372=8|373=1|10=048|
20200612-03:57:11.674135000 : 8=FIX.4.4|9=147|35=D|34=159|49=EXECLINKS|52=20200612-03:57:11.673|56=COEPEXCH|1=EXECLINKS|11=3|38=2|40=2|44=87|54=1|55=amzn|58=Buy shares|60=20200612-22:29:00.000|10=159|
20200612-03:57:11.675895000 : 8=FIX.4.4|9=78|35=8|34=108|49=COEPEXCH|52=20200612-03:57:11.675|56=EXECLINKS|37=3|39=0|150=0|10=249|
20200612-03:57:11.677065000 : 8=FIX.4.4|9=111|35=3|34=160|49=EXECLINKS|52=20200612-03:57:11.676|56=COEPEXCH|45=108|58=Required tag missing|371=6|372=8|373=1|10=045|
20200612-03:57:19.221792000 : 8=FIX.4.4|9=71|35=1|34=161|49=EXECLINKS|52=20200612-03:57:19.220|56=COEPEXCH|112=TEST|10=061|
20200612-03:57:19.222618000 : 8=FIX.4.4|9=71|35=0|34=109|49=COEPEXCH|52=20200612-03:57:19.222|56=EXECLINKS|112=TEST|10=064|
20200612-03:57:21.685665000 : 8=FIX.4.4|9=147|35=D|34=162|49=EXECLINKS|52=20200612-03:57:21.685|56=COEPEXCH|1=EXECLINKS|11=3|38=2|40=2|44=87|54=1|55=amzn|58=Buy shares|60=20200612-22:29:00.000|10=157|
20200612-03:57:21.687187000 : 8=FIX.4.4|9=78|35=8|34=110|49=COEPEXCH|52=20200612-03:57:21.686|56=EXECLINKS|37=3|39=0|150=0|10=245|
20200612-03:57:21.688287000 : 8=FIX.4.4|9=111|35=3|34=163|49=EXECLINKS|52=20200612-03:57:21.687|56=COEPEXCH|45=110|58=Required tag missing|371=6|372=8|373=1|10=044|
20200612-03:57:31.697173000 : 8=FIX.4.4|9=147|35=D|34=164|49=EXECLINKS|52=20200612-03:57:31.696|56=COEPEXCH|1=EXECLINKS|11=3|38=2|40=2|44=87|54=1|55=amzn|58=Buy shares|60=20200612-22:29:00.000|10=162|
20200612-03:57:31.699006000 : 8=FIX.4.4|9=78|35=8|34=111|49=COEPEXCH|52=20200612-03:57:31.698|56=EXECLINKS|37=3|39=0|150=0|10=250|
20200612-03:57:31.699951000 : 8=FIX.4.4|9=111|35=3|34=165|49=EXECLINKS|52=20200612-03:57:31.699|56=COEPEXCH|45=111|58=Required tag missing|371=6|372=8|373=1|10=051|
20200612-03:57:41.708745000 : 8=FIX.4.4|9=147|35=D|34=166|49=EXECLINKS|52=20200612-03:57:41.708|56=COEPEXCH|1=EXECLINKS|11=3|38=2|40=2|44=87|54=1|55=amzn|58=Buy shares|60=20200612-22:29:00.000|10=159|
20200612-03:57:41.710403000 : 8=FIX.4.4|9=78|35=8|34=112|49=COEPEXCH|52=20200612-03:57:41.709|56=EXECLINKS|37=3|39=0|150=0|10=245|
20200612-03:57:41.711673000 : 8=FIX.4.4|9=111|35=3|34=167|49=EXECLINKS|52=20200612-03:57:41.711|56=COEPEXCH|45=112|58=Required tag missing|371=6|372=8|373=1|10=040|
20200612-03:57:43.576828000 : 8=FIX.4.4|9=71|35=1|34=168|49=EXECLINKS|52=20200612-03:57:43.576|56=COEPEXCH|112=TEST|10=079|
20200612-03:57:43.577501000 : 8=FIX.4.4|9=71|35=0|34=113|49=COEPEXCH|52=20200612-03:57:43.577|56=EXECLINKS|112=TEST|10=069|
20200612-03:57:51.720205000 : 8=FIX.4.4|9=147|35=D|34=169|49=EXECLINKS|52=20200612-03:57:51.719|56=COEPEXCH|1=EXECLINKS|11=3|38=2|40=2|44=87|54=1|55=amzn|58=Buy shares|60=20200612-22:29:00.000|10=165|
20200612-03:57:51.721764000 : 8=FIX.4.4|9=78|35=8|34=114|49=COEPEXCH|52=20200612-03:57:51.721|56=EXECLINKS|37=3|39=0|150=0|10=242|
20200612-03:57:51.722779000 : 8=FIX.4.4|9=111|35=3|34=170|49=EXECLINKS|52=20200612-03:57:51.722|56=COEPEXCH|45=114|58=Required tag missing|371=6|372=8|373=1|10=039|
20200612-03:58:01.725620000 : 8=FIX.4.4|9=147|35=D|34=171|49=EXECLINKS|52=20200612-03:58:01.725|56=COEPEXCH|1=EXECLINKS|11=3|38=2|40=2|44=87|54=1|55=amzn|58=Buy shares|60=20200612-22:29:00.000|10=151|
20200612-03:58:01.727320000 : 8=FIX.4.4|9=78|35=8|34=115|49=COEPEXCH|52=20200612-03:58:01.726|56=EXECLINKS|37=3|39=0|150=0|10=244|
20200612-03:58:01.728458000 : 8=FIX.4.4|9=111|35=3|34=172|49=EXECLINKS|52=20200612-03:58:01.727|56=COEPEXCH|45=115|58=Required tag missing|371=6|372=8|373=1|10=043|
20200612-03:58:07.274978000 : 8=FIX.4.4|9=71|35=1|34=173|49=EXECLINKS|52=20200612-03:58:07.274|56=COEPEXCH|112=TEST|10=071|
20200612-03:58:07.275620000 : 8=FIX.4.4|9=71|35=0|34=116|49=COEPEXCH|52=20200612-03:58:07.275|56=EXECLINKS|112=TEST|10=068|
20200612-03:58:11.735541000 : 8=FIX.4.4|9=147|35=D|34=174|49=EXECLINKS|52=20200612-03:58:11.734|56=COEPEXCH|1=EXECLINKS|11=3|38=2|40=2|44=87|54=1|55=amzn|58=Buy shares|60=20200612-22:29:00.000|10=155|
20200612-03:58:11.737359000 : 8=FIX.4.4|9=78|35=8|34=117|49=COEPEXCH|52=20200612-03:58:11.736|56=EXECLINKS|37=3|39=0|150=0|10=248|
20200612-03:58:11.738662000 : 8=FIX.4.4|9=111|35=3|34=175|49=EXECLINKS|52=20200612-03:58:11.738|56=COEPEXCH|45=117|58=Required tag missing|371=6|372=8|373=1|10=051|
20200612-03:58:21.745534000 : 8=FIX.4.4|9=147|35=D|34=176|49=EXECLINKS|52=20200612-03:58:21.744|56=COEPEXCH|1=EXECLINKS|11=3|38=2|40=2|44=87|54=1|55=amzn|58=Buy shares|60=20200612-22:29:00.000|10=159|
20200612-03:58:21.747325000 : 8=FIX.4.4|9=78|35=8|34=118|49=COEPEXCH|52=20200612-03:58:21.746|56=EXECLINKS|37=3|39=0|150=0|10=251|
20200612-03:58:21.748506000 : 8=FIX.4.4|9=111|35=3|34=177|49=EXECLINKS|52=20200612-03:58:21.747|56=COEPEXCH|45=118|58=Required tag missing|371=6|372=8|373=1|10=055|
20200612-03:58:31.755667000 : 8=FIX.4.4|9=147|35=D|34=178|49=EXECLINKS|52=20200612-03:58:31.754|56=COEPEXCH|1=EXECLINKS|11=3|38=2|40=2|44=87|54=1|55=amzn|58=Buy shares|60=20200612-22:29:00.000|10=163|
20200612-03:58:31.757475000 : 8=FIX.4.4|9=78|35=8|34=119|49=COEPEXCH|52=20200612-03:58:31.757|56=EXECLINKS|37=3|39=0|150=0|10=255|
20200612-03:58:31.758593000 : 8=FIX.4.4|9=111|35=3|34=179|49=EXECLINKS|52=20200612-03:58:31.758|56=COEPEXCH|45=119|58=Required tag missing|371=6|372=8|373=1|10=061|
20200612-03:58:31.759130000 : 8=FIX.4.4|9=71|35=1|34=180|49=EXECLINKS|52=20200612-03:58:31.758|56=COEPEXCH|112=TEST|10=073|
20200612-03:58:31.759557000 : 8=FIX.4.4|9=71|35=0|34=120|49=COEPEXCH|52=20200612-03:58:31.759|56=EXECLINKS|112=TEST|10=067|
20200612-04:07:38.139943000 : 8=FIX.4.4|9=74|35=A|34=181|49=EXECLINKS|52=20200612-04:07:38.139|56=COEPEXCH|98=0|108=20|10=094|
20200612-04:07:38.140180000 : 8=FIX.4.4|9=74|35=A|34=121|49=COEPEXCH|52=20200612-04:07:38.140|56=EXECLINKS|98=0|108=20|10=080|
20200612-04:07:38.171766000 : 8=FIX.4.4|9=147|35=D|34=182|49=EXECLINKS|52=20200612-04:07:38.171|56=COEPEXCH|1=EXECLINKS|11=3|38=2|40=2|44=87|54=1|55=amzn|58=Buy shares|60=20200612-22:29:00.000|10=153|
20200612-04:07:38.172278000 : 8=FIX.4.4|9=78|35=8|34=122|49=COEPEXCH|52=20200612-04:07:38.172|56=EXECLINKS|37=3|39=0|150=0|10=242|
20200612-04:07:38.172539000 : 8=FIX.4.4|9=111|35=3|34=183|49=EXECLINKS|52=20200612-04:07:38.172|56=COEPEXCH|45=122|58=Required tag missing|371=6|372=8|373=1|10=042|
20200612-04:07:48.182078000 : 8=FIX.4.4|9=147|35=D|34=184|49=EXECLINKS|52=20200612-04:07:48.181|56=COEPEXCH|1=EXECLINKS|11=3|38=2|40=2|44=87|54=1|55=amzn|58=Buy shares|60=20200612-22:29:00.000|10=157|
20200612-04:07:48.182736000 : 8=FIX.4.4|9=78|35=8|34=123|49=COEPEXCH|52=20200612-04:07:48.182|56=EXECLINKS|37=3|39=0|150=0|10=245|
20200612-04:07:48.183003000 : 8=FIX.4.4|9=111|35=3|34=185|49=EXECLINKS|52=20200612-04:07:48.182|56=COEPEXCH|45=123|58=Required tag missing|371=6|372=8|373=1|10=047|
20200612-04:08:29.423326000 : 8=FIX.4.4|9=74|35=A|34=186|49=EXECLINKS|52=20200612-04:08:29.423|56=COEPEXCH|98=0|108=20|10=096|
20200612-04:08:29.423561000 : 8=FIX.4.4|9=74|35=A|34=124|49=COEPEXCH|52=20200612-04:08:29.423|56=EXECLINKS|98=0|108=20|10=088|
20200612-04:08:29.453500000 : 8=FIX.4.4|9=147|35=D|34=187|49=EXECLINKS|52=20200612-04:08:29.453|56=COEPEXCH|1=EXECLINKS|11=3|38=2|40=2|44=87|54=1|55=amzn|58=Buy shares|60=20200612-22:29:00.000|10=162|
20200612-04:08:29.454131000 : 8=FIX.4.4|9=78|35=8|34=125|49=COEPEXCH|52=20200612-04:08:29.453|56=EXECLINKS|37=3|39=0|150=0|10=248|
20200612-04:08:29.454428000 : 8=FIX.4.4|9=111|35=3|34=188|49=EXECLINKS|52=20200612-04:08:29.454|56=COEPEXCH|45=125|58=Required tag missing|371=6|372=8|373=1|10=054|
20200612-04:08:39.461067000 : 8=FIX.4.4|9=147|35=D|34=189|49=EXECLINKS|52=20200612-04:08:39.460|56=COEPEXCH|1=EXECLINKS|11=3|38=2|40=2|44=87|54=1|55=amzn|58=Buy shares|60=20200612-22:29:00.000|10=163|
20200612-04:08:39.461541000 : 8=FIX.4.4|9=78|35=8|34=126|49=COEPEXCH|52=20200612-04:08:39.461|56=EXECLINKS|37=3|39=0|150=0|10=249|
20200612-04:08:39.461862000 : 8=FIX.4.4|9=111|35=3|34=190|49=EXECLINKS|52=20200612-04:08:39.461|56=COEPEXCH|45=126|58=Required tag missing|371=6|372=8|373=1|10=047|
20200612-04:09:01.859273000 : 8=FIX.4.4|9=74|35=A|34=191|49=EXECLINKS|52=20200612-04:09:01.858|56=COEPEXCH|98=0|108=20|10=095|
20200612-04:09:01.859524000 : 8=FIX.4.4|9=74|35=A|34=127|49=COEPEXCH|52=20200612-04:09:01.859|56=EXECLINKS|98=0|108=20|10=095|
20200612-04:09:01.891509000 : 8=FIX.4.4|9=147|35=D|34=192|49=EXECLINKS|52=20200612-04:09:01.891|56=COEPEXCH|1=EXECLINKS|11=3|38=2|40=2|44=87|54=1|55=amzn|58=Buy shares|60=20200612-22:29:00.000|10=155|
20200612-04:09:01.892135000 : 8=FIX.4.4|9=78|35=8|34=128|49=COEPEXCH|52=20200612-04:09:01.892|56=EXECLINKS|37=3|39=0|150=0|10=249|
20200612-04:09:01.892566000 : 8=FIX.4.4|9=100|35=W|34=129|49=COEPEXCH|52=20200612-04:09:01.892|56=EXECLINKS|55=amzn|268=1|269=0|270=87|271=2|37=3|10=041|
20200612-04:09:01.892646000 : 8=FIX.4.4|9=111|35=3|34=193|49=EXECLINKS|52=20200612-04:09:01.892|56=COEPEXCH|45=128|58=Required tag missing|371=6|372=8|373=1|10=050|
20200612-04:09:11.902516000 : 8=FIX.4.4|9=147|35=D|34=194|49=EXECLINKS|52=20200612-04:09:11.901|56=COEPEXCH|1=EXECLINKS|11=3|38=2|40=2|44=87|54=1|55=amzn|58=Buy shares|60=20200612-22:29:00.000|10=150|
20200612-04:09:11.904471000 : 8=FIX.4.4|9=78|35=8|34=130|49=COEPEXCH|52=20200612-04:09:11.904|56=EXECLINKS|37=3|39=0|150=0|10=237|
20200612-04:09:11.906170000 : 8=FIX.4.4|9=124|35=W|34=131|49=COEPEXCH|52=20200612-04:09:11.905|56=EXECLINKS|55=amzn|268=2|269=0|270=87|271=2|37=3|269=0|270=87|271=2|37=3|10=095|
20200612-04:09:11.961680000 : 8=FIX.4.4|9=111|35=3|34=195|49=EXECLINKS|52=20200612-04:09:11.905|56=COEPEXCH|45=130|58=Required tag missing|371=6|372=8|373=1|10=041|
20200612-04:09:21.914177000 : 8=FIX.4.4|9=147|35=D|34=196|49=EXECLINKS|52=20200612-04:09:21.913|56=COEPEXCH|1=EXECLINKS|11=3|38=2|40=2|44=87|54=1|55=amzn|58=Buy shares|60=20200612-22:29:00.000|10=156|
20200612-04:09:21.915817000 : 8=FIX.4.4|9=78|35=8|34=132|49=COEPEXCH|52=20200612-04:09:21.915|56=EXECLINKS|37=3|39=0|150=0|10=242|
20200612-04:09:21.917638000 : 8=FIX.4.4|9=148|35=W|34=133|49=COEPEXCH|52=20200612-04:09:21.917|56=EXECLINKS|55=amzn|268=3|269=0|270=87|271=2|37=3|269=0|270=87|271=2|37=3|269=0|270=87|271=2|37=3|10=166|
20200612-04:09:21.918023000 : 8=FIX.4.4|9=111|35=3|34=197|49=EXECLINKS|52=20200612-04:09:21.916|56=COEPEXCH|45=132|58=Required tag missing|371=6|372=8|373=1|10=048|
20200612-04:10:18.519519000 : 8=FIX.4.4|9=74|35=A|34=198|49=EXECLINKS|52=20200612-04:10:18.519|56=COEPEXCH|98=0|108=20|10=096|
20200612-04:10:18.519776000 : 8=FIX.4.4|9=74|35=A|34=134|49=COEPEXCH|52=20200612-04:10:18.519|56=EXECLINKS|98=0|108=20|10=086|
20200612-04:10:18.548433000 : 8=FIX.4.4|9=147|35=D|34=199|49=EXECLINKS|52=20200612-04:10:18.548|56=COEPEXCH|1=EXECLINKS|11=3|38=2|40=2|44=87|54=1|55=amzn|58=Buy shares|60=20200612-22:29:00.000|10=161|
20200612-04:10:39.119294000 : 8=FIX.4.4|9=74|35=A|34=201|49=EXECLINKS|52=20200612-04:10:39.119|56=COEPEXCH|98=0|108=20|10=080|
20200612-04:10:39.119544000 : 8=FIX.4.4|9=74|35=A|34=135|49=COEPEXCH|52=20200612-04:10:39.119|56=EXECLINKS|98=0|108=20|10=086|
20200612-04:10:39.119675000 : 8=FIX.4.4|9=73|35=2|34=136|49=COEPEXCH|52=20200612-04:10:39.119|56=EXECLINKS|7=199|16=0|10=028|
20200612-04:10:39.120061000 : 8=FIX.4.4|9=178|35=D|34=199|43=Y|49=EXECLINKS|52=20200612-04:10:39.119|56=COEPEXCH|122=20200612-04:10:18.548|1=EXECLINKS|11=3|38=2|40=2|44=87|54=1|55=amzn|58=Buy shares|60=20200612-22:29:00.000|10=158|
20200612-04:10:39.120733000 : 8=FIX.4.4|9=78|35=8|34=137|49=COEPEXCH|52=20200612-04:10:39.120|56=EXECLINKS|37=3|39=0|150=0|10=236|
20200612-04:10:39.120863000 : 8=FIX.4.4|9=78|35=8|34=138|49=COEPEXCH|52=20200612-04:10:39.120|56=EXECLINKS|37=3|39=0|150=0|10=237|
20200612-04:10:39.121374000 : 8=FIX.4.4|9=100|35=W|34=139|49=COEPEXCH|52=20200612-04:10:39.121|56=EXECLINKS|55=amzn|268=1|269=0|270=87|271=2|37=3|10=030|
20200612-04:10:39.121451000 : 8=FIX.4.4|9=178|35=D|34=200|43=Y|49=EXECLINKS|52=20200612-04:10:39.120|56=COEPEXCH|122=20200612-04:10:28.558|1=EXECLINKS|11=3|38=2|40=2|44=87|54=1|55=amzn|58=Buy shares|60=20200612-22:29:00.000|10=135|
20200612-04:10:39.121917000 : 8=FIX.4.4|9=78|35=8|34=140|49=COEPEXCH|52=20200612-04:10:39.121|56=EXECLINKS|37=3|39=0|150=0|10=231|
20200612-04:10:39.122036000 : 8=FIX.4.4|9=78|35=8|34=141|49=COEPEXCH|52=20200612-04:10:39.121|56=EXECLINKS|37=3|39=0|150=0|10=232|
20200612-04:10:39.122500000 : 8=FIX.4.4|9=124|35=W|34=142|49=COEPEXCH|52=20200612-04:10:39.122|56=EXECLINKS|55=amzn|268=2|269=0|270=87|271=2|37=3|269=0|270=87|271=2|37=3|10=090|
20200612-04:10:39.122573000 : 8=FIX.4.4|9=106|35=4|34=201|43=Y|49=EXECLINKS|52=20200612-04:10:39.120|56=COEPEXCH|122=20200612-04:10:39.120|36=202|123=Y|10=168|
20200612-04:10:39.122617000 : 8=FIX.4.4|9=111|35=3|34=202|49=EXECLINKS|52=20200612-04:10:39.120|56=COEPEXCH|45=137|58=Required tag missing|371=6|372=8|373=1|10=028|
20200612-04:10:39.122688000 : 8=FIX.4.4|9=111|35=3|34=203|49=EXECLINKS|52=20200612-04:10:39.121|56=COEPEXCH|45=138|58=Required tag missing|371=6|372=8|373=1|10=031|
20200612-04:10:39.122764000 : 8=FIX.4.4|9=111|35=3|34=204|49=EXECLINKS|52=20200612-04:10:39.122|56=COEPEXCH|45=140|58=Required tag missing|371=6|372=8|373=1|10=026|
20200612-04:10:39.122824000 : 8=FIX.4.4|9=111|35=3|34=205|49=EXECLINKS|52=20200612-04:10:39.122|56=COEPEXCH|45=141|58=Required tag missing|371=6|372=8|373=1|10=028|
20200612-04:10:39.153749000 : 8=FIX.4.4|9=147|35=D|34=206|49=EXECLINKS|52=20200612-04:10:39.153|56=COEPEXCH|1=EXECLINKS|11=3|38=2|40=2|44=87|54=1|55=amzn|58=Buy shares|60=20200612-22:29:00.000|10=145|
20200612-04:10:39.154201000 : 8=FIX.4.4|9=78|35=8|34=143|49=COEPEXCH|52=20200612-04:10:39.154|56=EXECLINKS|37=3|39=0|150=0|10=240|
20200612-04:10:39.154320000 : 8=FIX.4.4|9=78|35=8|34=144|49=COEPEXCH|52=20200612-04:10:39.154|56=EXECLINKS|37=3|39=0|150=0|10=241|
20200612-04:10:39.154736000 : 8=FIX.4.4|9=148|35=W|34=145|49=COEPEXCH|52=20200612-04:10:39.154|56=EXECLINKS|55=amzn|268=3|269=0|270=87|271=2|37=3|269=0|270=87|271=2|37=3|269=0|270=87|271=2|37=3|10=163|
20200612-04:10:39.154819000 : 8=FIX.4.4|9=111|35=3|34=207|49=EXECLINKS|52=20200612-04:10:39.154|56=COEPEXCH|45=143|58=Required tag missing|371=6|372=8|373=1|10=037|
20200612-04:10:39.154885000 : 8=FIX.4.4|9=111|35=3|34=208|49=EXECLINKS|52=20200612-04:10:39.154|56=COEPEXCH|45=144|58=Required tag missing|371=6|372=8|373=1|10=039|
20200612-04:10:49.164780000 : 8=FIX.4.4|9=147|35=D|34=209|49=EXECLINKS|52=20200612-04:10:49.164|56=COEPEXCH|1=EXECLINKS|11=3|38=2|40=2|44=87|54=1|55=amzn|58=Buy shares|60=20200612-22:29:00.000|10=151|
20200612-04:10:49.166971000 : 8=FIX.4.4|9=78|35=8|34=146|49=COEPEXCH|52=20200612-04:10:49.166|56=EXECLINKS|37=3|39=0|150=0|10=247|
20200612-04:10:49.167686000 : 8=FIX.4.4|9=78|35=8|34=147|49=COEPEXCH|52=20200612-04:10:49.167|56=EXECLINKS|37=3|39=0|150=0|10=249|
20200612-04:10:49.170053000 : 8=FIX.4.4|9=148|35=W|34=148|49=COEPEXCH|52=20200612-04:10:49.169|56=EXECLINKS|55=amzn|268=3|269=0|270=87|271=2|37=3|269=0|270=87|271=2|37=3|269=0|270=87|271=2|37=3|10=173|
20200612-04:10:49.170367000 : 8=FIX.4.4|9=111|35=3|34=210|49=EXECLINKS|52=20200612-04:10:49.167|56=COEPEXCH|45=146|58=Required tag missing|371=6|372=8|373=1|10=039|
20200612-04:10:49.170843000 : 8=FIX.4.4|9=111|35=3|34=211|49=EXECLINKS|52=20200612-04:10:49.168|56=COEPEXCH|45=147|58=Required tag missing|371=6|372=8|373=1|10=042|
20200612-04:11:09.003132000 : 8=FIX.4.4|9=74|35=A|34=212|49=EXECLINKS|52=20200612-04:11:09.002|56=COEPEXCH|98=0|108=20|10=071|
20200612-04:11:09.003320000 : 8=FIX.4.4|9=74|35=A|34=149|49=COEPEXCH|52=20200612-04:11:09.003|56=EXECLINKS|98=0|108=20|10=081|
20200612-04:11:09.032162000 : 8=FIX.4.4|9=147|35=D|34=213|49=EXECLINKS|52=20200612-04:11:09.031|56=COEPEXCH|1=EXECLINKS|11=3|38=2|40=2|44=87|54=1|55=amzn|58=Buy shares|60=20200612-22:29:00.000|10=136|
20200612-04:11:09.032684000 : 8=FIX.4.4|9=78|35=8|34=150|49=COEPEXCH|52=20200612-04:11:09.032|56=EXECLINKS|37=3|39=0|150=0|10=231|
20200612-04:11:09.032814000 : 8=FIX.4.4|9=78|35=8|34=151|49=COEPEXCH|52=20200612-04:11:09.032|56=EXECLINKS|37=3|39=0|150=0|10=232|
20200612-04:11:09.033268000 : 8=FIX.4.4|9=111|35=3|34=214|49=EXECLINKS|52=20200612-04:11:09.032|56=COEPEXCH|45=150|58=Required tag missing|371=6|372=8|373=1|10=026|
20200612-04:11:09.033337000 : 8=FIX.4.4|9=111|35=3|34=215|49=EXECLINKS|52=20200612-04:11:09.033|56=COEPEXCH|45=151|58=Required tag missing|371=6|372=8|373=1|10=029|
20200612-04:11:19.043552000 : 8=FIX.4.4|9=147|35=D|34=216|49=EXECLINKS|52=20200612-04:11:19.042|56=COEPEXCH|1=EXECLINKS|11=3|38=2|40=2|44=87|54=1|55=amzn|58=Buy shares|60=20200612-22:29:00.000|10=142|
20200612-04:11:19.045284000 : 8=FIX.4.4|9=78|35=8|34=152|49=COEPEXCH|52=20200612-04:11:19.044|56=EXECLINKS|37=3|39=0|150=0|10=237|
20200612-04:11:19.045822000 : 8=FIX.4.4|9=78|35=8|34=153|49=COEPEXCH|52=20200612-04:11:19.045|56=EXECLINKS|37=3|39=0|150=0|10=239|
20200612-04:11:19.047587000 : 8=FIX.4.4|9=111|35=3|34=217|49=EXECLINKS|52=20200612-04:11:19.045|56=COEPEXCH|45=152|58=Required tag missing|371=6|372=8|373=1|10=036|
20200612-04:11:19.047842000 : 8=FIX.4.4|9=111|35=3|34=218|49=EXECLINKS|52=20200612-04:11:19.046|56=COEPEXCH|45=153|58=Required tag missing|371=6|372=8|373=1|10=039|
20200612-04:11:38.588353000 : 8=FIX.4.4|9=74|35=A|34=219|49=EXECLINKS|52=20200612-04:11:38.588|56=COEPEXCH|98=0|108=20|10=099|
20200612-04:11:38.588545000 : 8=FIX.4.4|9=74|35=A|34=154|49=COEPEXCH|52=20200612-04:11:38.588|56=EXECLINKS|98=0|108=20|10=097|
20200612-04:11:38.617628000 : 8=FIX.4.4|9=147|35=D|34=220|49=EXECLINKS|52=20200612-04:11:38.617|56=COEPEXCH|1=EXECLINKS|11=3|38=2|40=2|44=87|54=1|55=amzn|58=Buy shares|60=20200612-22:29:00.000|10=146|
20200612-04:11:38.618158000 : 8=FIX.4.4|9=78|35=8|34=155|49=COEPEXCH|52=20200612-04:11:38.618|56=EXECLINKS|37=3|39=0|150=0|10=248|
20200612-04:11:38.618282000 : 8=FIX.4.4|9=78|35=8|34=156|49=COEPEXCH|52=20200612-04:11:38.618|56=EXECLINKS|37=3|39=0|150=0|10=249|
20200612-04:11:38.618716000 : 8=FIX.4.4|9=100|35=W|34=157|49=COEPEXCH|52=20200612-04:11:38.618|56=EXECLINKS|55=amzn|268=1|269=0|270=87|271=2|37=3|10=041|
20200612-04:11:38.618792000 : 8=FIX.4.4|9=111|35=3|34=221|49=EXECLINKS|52=20200612-04:11:38.618|56=COEPEXCH|45=155|58=Required tag missing|371=6|372=8|373=1|10=041|
20200612-04:11:38.618872000 : 8=FIX.4.4|9=111|35=3|34=222|49=EXECLINKS|52=20200612-04:11:38.618|56=COEPEXCH|45=156|58=Required tag missing|371=6|372=8|373=1|10=043|
20200612-04:11:48.629066000 : 8=FIX.4.4|9=147|35=D|34=223|49=EXECLINKS|52=20200612-04:11:48.628|56=COEPEXCH|1=EXECLINKS|11=3|38=2|40=2|44=87|54=1|55=amzn|58=Buy shares|60=20200612-22:29:00.000|10=152|
20200612-04:11:48.631291000 : 8=FIX.4.4|9=78|35=8|34=158|49=COEPEXCH|52=20200612-04:11:48.630|56=EXECLINKS|37=3|39=0|150=0|10=246|
20200612-04:11:48.631845000 : 8=FIX.4.4|9=78|35=8|34=159|49=COEPEXCH|52=20200612-04:11:48.631|56=EXECLINKS|37=3|39=0|150=0|10=248|
20200612-04:11:48.633920000 : 8=FIX.4.4|9=124|35=W|34=160|49=COEPEXCH|52=20200612-04:11:48.633|56=EXECLINKS|55=amzn|268=2|269=0|270=87|271=2|37=3|269=0|270=87|271=2|37=3|10=098|
20200612-04:11:48.634353000 : 8=FIX.4.4|9=111|35=3|34=224|49=EXECLINKS|52=20200612-04:11:48.631|56=COEPEXCH|45=158|58=Required tag missing|371=6|372=8|373=1|10=043|
20200612-04:11:48.634696000 : 8=FIX.4.4|9=111|35=3|34=225|49=EXECLINKS|52=20200612-04:11:48.632|56=COEPEXCH|45=159|58=Required tag missing|371=6|372=8|373=1|10=046|
20200612-04:12:33.082117000 : 8=FIX.4.4|9=74|35=A|34=226|49=EXECLINKS|52=20200612-04:12:33.081|56=COEPEXCH|98=0|108=20|10=081|
20200612-04:12:33.082320000 : 8=FIX.4.4|9=74|35=A|34=161|49=COEPEXCH|52=20200612-04:12:33.082|56=EXECLINKS|98=0|108=20|10=080|
20200612-04:12:33.112045000 : 8=FIX.4.4|9=147|35=D|34=227|49=EXECLINKS|52=20200612-04:12:33.111|56=COEPEXCH|1=EXECLINKS|11=3|38=2|40=2|44=87|54=1|55=amzn|58=Buy shares|60=20200612-22:29:00.000|10=138|
20200612-04:12:33.112827000 : 8=FIX.4.4|9=100|35=W|34=162|49=COEPEXCH|52=20200612-04:12:33.112|56=EXECLINKS|55=amzn|268=1|269=0|270=87|271=2|37=3|10=022|
20200612-04:12:43.122010000 : 8=FIX.4.4|9=147|35=D|34=228|49=EXECLINKS|52=20200612-04:12:43.121|56=COEPEXCH|1=EXECLINKS|11=3|38=2|40=2|44=87|54=1|55=amzn|58=Buy shares|60=20200612-22:29:00.000|10=141|
20200612-04:12:43.124468000 : 8=FIX.4.4|9=124|35=W|34=163|49=COEPEXCH|52=20200612-04:12:43.124|56=EXECLINKS|55=amzn|268=2|269=0|270=87|271=2|37=3|269=0|270=87|271=2|37=3|10=092|
20200612-04:38:17.127950000 : 8=FIX.4.4|9=74|35=A|34=229|49=EXECLINKS|52=20200612-04:38:17.127|56=COEPEXCH|98=0|108=20|10=095|
20200612-04:38:17.128220000 : 8=FIX.4.4|9=74|35=A|34=164|49=COEPEXCH|52=20200612-04:38:17.128|56=EXECLINKS|98=0|108=20|10=094|
20200612-04:38:17.165368000 : 8=FIX.4.4|9=147|35=D|34=230|49=EXECLINKS|52=20200612-04:38:17.165|56=COEPEXCH|1=EXECLINKS|11=3|38=2|40=2|44=87|54=1|55=amzn|58=Buy shares|60=20200612-22:29:00.000|10=151|
20200612-04:38:17.166285000 : 8=FIX.4.4|9=100|35=W|34=165|49=COEPEXCH|52=20200612-04:38:17.166|56=EXECLINKS|55=amzn|268=1|269=0|270=87|271=2|37=3|10=044|
20200612-04:38:27.175771000 : 8=FIX.4.4|9=147|35=D|34=231|49=EXECLINKS|52=20200612-04:38:27.175|56=COEPEXCH|1=EXECLINKS|11=3|38=2|40=2|44=87|54=1|55=amzn|58=Buy shares|60=20200612-22:29:00.000|10=154|
20200612-04:38:27.185235000 : 8=FIX.4.4|9=124|35=W|34=166|49=COEPEXCH|52=20200612-04:38:27.178|56=EXECLINKS|55=amzn|268=2|269=0|270=87|271=2|37=3|269=0|270=87|271=2|37=3|10=114|
20200612-04:38:37.187002000 : 8=FIX.4.4|9=147|35=D|34=232|49=EXECLINKS|52=20200612-04:38:37.185|56=COEPEXCH|1=EXECLINKS|11=3|38=2|40=2|44=87|54=1|55=amzn|58=Buy shares|60=20200612-22:29:00.000|10=157|
20200612-04:38:37.189439000 : 8=FIX.4.4|9=148|35=W|34=167|49=COEPEXCH|52=20200612-04:38:37.189|56=EXECLINKS|55=amzn|268=3|269=0|270=87|271=2|37=3|269=0|270=87|271=2|37=3|269=0|270=87|271=2|37=3|10=183|
20200612-04:38:47.196121000 : 8=FIX.4.4|9=147|35=D|34=233|49=EXECLINKS|52=20200612-04:38:47.195|56=COEPEXCH|1=EXECLINKS|11=3|38=2|40=2|44=87|54=1|55=amzn|58=Buy shares|60=20200612-22:29:00.000|10=160|
20200612-04:38:47.205308000 : 8=FIX.4.4|9=148|35=W|34=168|49=COEPEXCH|52=20200612-04:38:47.200|56=EXECLINKS|55=amzn|268=3|269=0|270=87|271=2|37=3|269=0|270=87|271=2|37=3|269=0|270=87|271=2|37=3|10=169|
20200612-04:38:57.206165000 : 8=FIX.4.4|9=147|35=D|34=234|49=EXECLINKS|52=20200612-04:38:57.205|56=COEPEXCH|1=EXECLINKS|11=3|38=2|40=2|44=87|54=1|55=amzn|58=Buy shares|60=20200612-22:29:00.000|10=154|
20200612-04:38:57.210614000 : 8=FIX.4.4|9=148|35=W|34=169|49=COEPEXCH|52=20200612-04:38:57.209|56=EXECLINKS|55=amzn|268=3|269=0|270=87|271=2|37=3|269=0|270=87|271=2|37=3|269=0|270=87|271=2|37=3|10=180|
20200612-04:39:07.215441000 : 8=FIX.4.4|9=147|35=D|34=235|49=EXECLINKS|52=20200612-04:39:07.214|56=COEPEXCH|1=EXECLINKS|11=3|38=2|40=2|44=87|54=1|55=amzn|58=Buy shares|60=20200612-22:29:00.000|10=151|
20200612-04:39:07.221187000 : 8=FIX.4.4|9=148|35=W|34=170|49=COEPEXCH|52=20200612-04:39:07.220|56=EXECLINKS|55=amzn|268=3|269=0|270=87|271=2|37=3|269=0|270=87|271=2|37=3|269=0|270=87|271=2|37=3|10=161|
20200612-04:40:33.754029000 : 8=FIX.4.4|9=74|35=A|34=236|49=EXECLINKS|52=20200612-04:40:33.753|56=COEPEXCH|98=0|108=20|10=089|
20200612-04:40:33.754307000 : 8=FIX.4.4|9=74|35=A|34=171|49=COEPEXCH|52=20200612-04:40:33.754|56=EXECLINKS|98=0|108=20|10=088|
20200612-04:40:33.788312000 : 8=FIX.4.4|9=147|35=D|34=237|49=EXECLINKS|52=20200612-04:40:33.788|56=COEPEXCH|1=EXECLINKS|11=3|38=2|40=2|44=87|54=1|55=amzn|58=Buy shares|60=20200612-22:29:00.000|10=160|
20200612-04:40:58.715424000 : 8=FIX.4.4|9=74|35=A|34=238|49=EXECLINKS|52=20200612-04:40:58.715|56=COEPEXCH|98=0|108=20|10=096|
20200612-04:40:58.715651000 : 8=FIX.4.4|9=74|35=A|34=172|49=COEPEXCH|52=20200612-04:40:58.715|56=EXECLINKS|98=0|108=20|10=093|
20200612-04:40:58.751451000 : 8=FIX.4.4|9=147|35=D|34=239|49=EXECLINKS|52=20200612-04:40:58.751|56=COEPEXCH|1=EXECLINKS|11=3|38=2|40=2|44=87|54=1|55=amzn|58=Buy shares|60=20200612-22:29:00.000|10=159|
20200612-04:41:08.762778000 : 8=FIX.4.4|9=147|35=D|34=240|49=EXECLINKS|52=20200612-04:41:08.761|56=COEPEXCH|1=EXECLINKS|11=3|38=2|40=2|44=87|54=1|55=amzn|58=Buy shares|60=20200612-22:29:00.000|10=148|
20200612-04:41:18.698991000 : 8=FIX.4.4|9=62|35=0|34=173|49=COEPEXCH|52=20200612-04:41:18.698|56=EXECLINKS|10=057|
20200612-04:41:18.772680000 : 8=FIX.4.4|9=147|35=D|34=241|49=EXECLINKS|52=20200612-04:41:18.772|56=COEPEXCH|1=EXECLINKS|11=3|38=2|40=2|44=87|54=1|55=amzn|58=Buy shares|60=20200612-22:29:00.000|10=152|
20200612-04:41:28.787316000 : 8=FIX.4.4|9=147|35=D|34=242|49=EXECLINKS|52=20200612-04:41:28.783|56=COEPEXCH|1=EXECLINKS|11=3|38=2|40=2|44=87|54=1|55=amzn|58=Buy shares|60=20200612-22:29:00.000|10=156|
20200612-04:41:38.863080000 : 8=FIX.4.4|9=62|35=0|34=174|49=COEPEXCH|52=20200612-04:41:38.617|56=EXECLINKS|10=051|
20200612-04:41:38.866287000 : 8=FIX.4.4|9=147|35=D|34=243|49=EXECLINKS|52=20200612-04:41:38.795|56=COEPEXCH|1=EXECLINKS|11=3|38=2|40=2|44=87|54=1|55=amzn|58=Buy shares|60=20200612-22:29:00.000|10=161|
20200612-04:42:29.380767000 : 8=FIX.4.4|9=74|35=A|34=244|49=EXECLINKS|52=20200612-04:42:29.380|56=COEPEXCH|98=0|108=20|10=091|
20200612-04:42:29.381056000 : 8=FIX.4.4|9=74|35=A|34=175|49=COEPEXCH|52=20200612-04:42:29.380|56=EXECLINKS|98=0|108=20|10=094|
20200612-04:42:29.435478000 : 8=FIX.4.4|9=147|35=D|34=245|49=EXECLINKS|52=20200612-04:42:29.435|56=COEPEXCH|1=EXECLINKS|11=3|38=2|40=2|44=87|54=1|55=amzn|58=Buy shares|60=20200612-22:29:00.000|10=155|
20200612-04:42:29.436214000 : 8=FIX.4.4|9=78|35=8|34=176|49=COEPEXCH|52=20200612-04:42:29.436|56=EXECLINKS|37=3|39=0|150=0|10=253|
20200612-04:42:29.437451000 : 8=FIX.4.4|9=111|35=3|34=246|49=EXECLINKS|52=20200612-04:42:29.437|56=COEPEXCH|45=176|58=Required tag missing|371=6|372=8|373=1|10=054|
20200612-04:42:39.447677000 : 8=FIX.4.4|9=147|35=D|34=247|49=EXECLINKS|52=20200612-04:42:39.447|56=COEPEXCH|1=EXECLINKS|11=3|38=2|40=2|44=87|54=1|55=amzn|58=Buy shares|60=20200612-22:29:00.000|10=161|
20200612-04:42:39.448199000 : 8=FIX.4.4|9=78|35=8|34=177|49=COEPEXCH|52=20200612-04:42:39.448|56=EXECLINKS|37=3|39=0|150=0|10=002|
20200612-04:42:39.448698000 : 8=FIX.4.4|9=111|35=3|34=248|49=EXECLINKS|52=20200612-04:42:39.448|56=COEPEXCH|45=177|58=Required tag missing|371=6|372=8|373=1|10=060|
20200612-04:42:49.459612000 : 8=FIX.4.4|9=147|35=D|34=249|49=EXECLINKS|52=20200612-04:42:49.457|56=COEPEXCH|1=EXECLINKS|11=3|38=2|40=2|44=87|54=1|55=amzn|58=Buy shares|60=20200612-22:29:00.000|10=165|
20200612-04:42:49.463924000 : 8=FIX.4.4|9=78|35=8|34=178|49=COEPEXCH|52=20200612-04:42:49.463|56=EXECLINKS|37=3|39=0|150=0|10=001|
20200612-04:42:49.464685000 : 8=FIX.4.4|9=111|35=3|34=250|49=EXECLINKS|52=20200612-04:42:49.464|56=COEPEXCH|45=178|58=Required tag missing|371=6|372=8|373=1|10=053|
20200612-04:42:53.219584000 : 8=FIX.4.4|9=71|35=1|34=251|49=EXECLINKS|52=20200612-04:42:53.218|56=COEPEXCH|112=TEST|10=061|
20200612-04:42:53.220351000 : 8=FIX.4.4|9=71|35=0|34=179|49=COEPEXCH|52=20200612-04:42:53.219|56=EXECLINKS|112=TEST|10=070|
20200612-04:42:59.468135000 : 8=FIX.4.4|9=147|35=D|34=252|49=EXECLINKS|52=20200612-04:42:59.467|56=COEPEXCH|1=EXECLINKS|11=3|38=2|40=2|44=87|54=1|55=amzn|58=Buy shares|60=20200612-22:29:00.000|10=161|
20200612-04:42:59.469251000 : 8=FIX.4.4|9=78|35=8|34=180|49=COEPEXCH|52=20200612-04:42:59.469|56=EXECLINKS|37=3|39=0|150=0|10=001|
20200612-04:42:59.470244000 : 8=FIX.4.4|9=111|35=3|34=253|49=EXECLINKS|52=20200612-04:42:59.470|56=COEPEXCH|45=180|58=Required tag missing|371=6|372=8|373=1|10=047|
20200612-04:44:02.633137000 : 8=FIX.4.4|9=74|35=A|34=262|49=EXECLINKS|52=20200612-04:44:02.632|56=COEPEXCH|98=0|108=20|10=084|
20200612-04:44:02.633418000 : 8=FIX.4.4|9=74|35=A|34=181|49=COEPEXCH|52=20200612-04:44:02.633|56=EXECLINKS|98=0|108=20|10=085|
20200612-04:44:02.633579000 : 8=FIX.4.4|9=73|35=2|34=182|49=COEPEXCH|52=20200612-04:44:02.633|56=EXECLINKS|7=254|16=0|10=019|
20200612-04:44:02.634726000 : 8=FIX.4.4|9=178|35=D|34=254|43=Y|49=EXECLINKS|52=20200612-04:44:02.634|56=COEPEXCH|122=20200612-04:43:09.477|1=EXECLINKS|11=3|38=2|40=2|44=87|54=1|55=amzn|58=Buy shares|60=20200612-22:29:00.000|10=156|
20200612-04:44:02.635355000 : 8=FIX.4.4|9=78|35=8|34=183|49=COEPEXCH|52=20200612-04:44:02.635|56=EXECLINKS|37=3|39=0|150=0|10=245|
20200612-04:44:02.635841000 : 8=FIX.4.4|9=178|35=D|34=255|43=Y|49=EXECLINKS|52=20200612-04:44:02.634|56=COEPEXCH|122=20200612-04:43:19.487|1=EXECLINKS|11=3|38=2|40=2|44=87|54=1|55=amzn|58=Buy shares|60=20200612-22:29:00.000|10=159|
20200612-04:44:02.636336000 : 8=FIX.4.4|9=78|35=8|34=184|49=COEPEXCH|52=20200612-04:44:02.636|56=EXECLINKS|37=3|39=0|150=0|10=247|
20200612-04:44:02.636746000 : 8=FIX.4.4|9=178|35=D|34=256|43=Y|49=EXECLINKS|52=20200612-04:44:02.634|56=COEPEXCH|122=20200612-04:43:29.497|1=EXECLINKS|11=3|38=2|40=2|44=87|54=1|55=amzn|58=Buy shares|60=20200612-22:29:00.000|10=162|
20200612-04:44:02.637174000 : 8=FIX.4.4|9=78|35=8|34=185|49=COEPEXCH|52=20200612-04:44:02.637|56=EXECLINKS|37=3|39=0|150=0|10=249|
20200612-04:44:02.637583000 : 8=FIX.4.4|9=106|35=4|34=257|43=Y|49=EXECLINKS|52=20200612-04:44:02.634|56=COEPEXCH|122=20200612-04:44:02.634|36=258|123=Y|10=204|
20200612-04:44:02.637660000 : 8=FIX.4.4|9=178|35=D|34=258|43=Y|49=EXECLINKS|52=20200612-04:44:02.634|56=COEPEXCH|122=20200612-04:43:39.507|1=EXECLINKS|11=3|38=2|40=2|44=87|54=1|55=amzn|58=Buy shares|60=20200612-22:29:00.000|10=157|
20200612-04:44:02.637950000 : 8=FIX.4.4|9=78|35=8|34=186|49=COEPEXCH|52=20200612-04:44:02.637|56=EXECLINKS|37=3|39=0|150=0|10=250|
20200612-04:44:02.638349000 : 8=FIX.4.4|9=178|35=D|34=259|43=Y|49=EXECLINKS|52=20200612-04:44:02.634|56=COEPEXCH|122=20200612-04:43:49.517|1=EXECLINKS|11=3|38=2|40=2|44=87|54=1|55=amzn|58=Buy shares|60=20200612-22:29:00.000|10=160|
20200612-04:44:02.638649000 : 8=FIX.4.4|9=78|35=8|34=187|49=COEPEXCH|52=20200612-04:44:02.638|56=EXECLINKS|37=3|39=0|150=0|10=252|
20200612-04:44:02.639109000 : 8=FIX.4.4|9=106|35=4|34=260|43=Y|49=EXECLINKS|52=20200612-04:44:02.634|56=COEPEXCH|122=20200612-04:44:02.634|36=261|123=Y|10=192|
20200612-04:44:02.639758000 : 8=FIX.4.4|9=178|35=D|34=261|43=Y|49=EXECLINKS|52=20200612-04:44:02.634|56=COEPEXCH|122=20200612-04:43:59.527|1=EXECLINKS|11=3|38=2|40=2|44=87|54=1|55=amzn|58=Buy shares|60=20200612-22:29:00.000|10=155|
20200612-04:44:02.640245000 : 8=FIX.4.4|9=78|35=8|34=188|49=COEPEXCH|52=20200612-04:44:02.640|56=EXECLINKS|37=3|39=0|150=0|10=246|
20200612-04:44:02.640883000 : 8=FIX.4.4|9=106|35=4|34=262|43=Y|49=EXECLINKS|52=20200612-04:44:02.634|56=COEPEXCH|122=20200612-04:44:02.634|36=263|123=Y|10=196|
20200612-04:44:02.640966000 : 8=FIX.4.4|9=111|35=3|34=263|49=EXECLINKS|52=20200612-04:44:02.635|56=COEPEXCH|45=183|58=Required tag missing|371=6|372=8|373=1|10=044|
20200612-04:44:02.641071000 : 8=FIX.4.4|9=111|35=3|34=264|49=EXECLINKS|52=20200612-04:44:02.636|56=COEPEXCH|45=184|58=Required tag missing|371=6|372=8|373=1|10=047|
20200612-04:44:02.641159000 : 8=FIX.4.4|9=111|35=3|34=265|49=EXECLINKS|52=20200612-04:44:02.637|56=COEPEXCH|45=185|58=Required tag missing|371=6|372=8|373=1|10=050|
20200612-04:44:02.641218000 : 8=FIX.4.4|9=111|35=3|34=266|49=EXECLINKS|52=20200612-04:44:02.638|56=COEPEXCH|45=186|58=Required tag missing|371=6|372=8|373=1|10=053|
20200612-04:44:02.641270000 : 8=FIX.4.4|9=111|35=3|34=267|49=EXECLINKS|52=20200612-04:44:02.638|56=COEPEXCH|45=187|58=Required tag missing|371=6|372=8|373=1|10=055|
20200612-04:44:02.641319000 : 8=FIX.4.4|9=111|35=3|34=268|49=EXECLINKS|52=20200612-04:44:02.640|56=COEPEXCH|45=188|58=Required tag missing|371=6|372=8|373=1|10=050|
20200612-04:44:02.672022000 : 8=FIX.4.4|9=147|35=D|34=269|49=EXECLINKS|52=20200612-04:44:02.671|56=COEPEXCH|1=EXECLINKS|11=3|38=2|40=2|44=87|54=1|55=amzn|58=Buy shares|60=20200612-22:29:00.000|10=156|
20200612-04:44:02.672716000 : 8=FIX.4.4|9=78|35=8|34=189|49=COEPEXCH|52=20200612-04:44:02.672|56=EXECLINKS|37=3|39=0|150=0|10=252|
20200612-04:44:02.673300000 : 8=FIX.4.4|9=111|35=3|34=270|49=EXECLINKS|52=20200612-04:44:02.672|56=COEPEXCH|45=189|58=Required tag missing|371=6|372=8|373=1|10=049|
20200612-04:44:12.686685000 : 8=FIX.4.4|9=147|35=D|34=271|49=EXECLINKS|52=20200612-04:44:12.683|56=COEPEXCH|1=EXECLINKS|11=3|38=2|40=2|44=87|54=1|55=amzn|58=Buy shares|60=20200612-22:29:00.000|10=153|
20200612-04:44:12.689625000 : 8=FIX.4.4|9=78|35=8|34=190|49=COEPEXCH|52=20200612-04:44:12.689|56=EXECLINKS|37=3|39=0|150=0|10=253|
20200612-04:44:12.692042000 : 8=FIX.4.4|9=111|35=3|34=272|49=EXECLINKS|52=20200612-04:44:12.691|56=COEPEXCH|45=190|58=Required tag missing|371=6|372=8|373=1|10=045|
20200612-04:46:39.488899000 : 8=FIX.4.4|9=74|35=A|34=273|49=EXECLINKS|52=20200612-04:46:39.488|56=COEPEXCH|98=0|108=20|10=107|
20200612-04:46:39.489182000 : 8=FIX.4.4|9=74|35=A|34=191|49=COEPEXCH|52=20200612-04:46:39.489|56=EXECLINKS|98=0|108=20|10=107|
20200612-04:46:39.528218000 : 8=FIX.4.4|9=147|35=D|34=274|49=EXECLINKS|52=20200612-04:46:39.527|56=COEPEXCH|1=EXECLINKS|11=3|38=2|40=2|44=87|54=1|55=amzn|58=Buy shares|60=20200612-22:29:00.000|10=164|
20200612-04:46:39.528796000 : 8=FIX.4.4|9=78|35=8|34=192|49=COEPEXCH|52=20200612-04:46:39.528|56=EXECLINKS|37=3|39=0|150=0|10=002|
20200612-04:46:39.529457000 : 8=FIX.4.4|9=111|35=3|34=275|49=EXECLINKS|52=20200612-04:46:39.529|56=COEPEXCH|45=192|58=Required tag missing|371=6|372=8|373=1|10=061|
20200612-04:46:49.537712000 : 8=FIX.4.4|9=147|35=D|34=276|49=EXECLINKS|52=20200612-04:46:49.537|56=COEPEXCH|1=EXECLINKS|11=3|38=2|40=2|44=87|54=1|55=amzn|58=Buy shares|60=20200612-22:29:00.000|10=168|
20200612-04:46:49.538343000 : 8=FIX.4.4|9=78|35=8|34=193|49=COEPEXCH|52=20200612-04:46:49.538|56=EXECLINKS|37=3|39=0|150=0|10=005|
20200612-04:46:49.538804000 : 8=FIX.4.4|9=111|35=3|34=277|49=EXECLINKS|52=20200612-04:46:49.538|56=COEPEXCH|45=193|58=Required tag missing|371=6|372=8|373=1|10=065|
20200612-04:46:59.548281000 : 8=FIX.4.4|9=147|35=D|34=278|49=EXECLINKS|52=20200612-04:46:59.547|56=COEPEXCH|1=EXECLINKS|11=3|38=2|40=2|44=87|54=1|55=amzn|58=Buy shares|60=20200612-22:29:00.000|10=172|
20200612-04:46:59.549049000 : 8=FIX.4.4|9=78|35=8|34=194|49=COEPEXCH|52=20200612-04:46:59.548|56=EXECLINKS|37=3|39=0|150=0|10=008|
20200612-04:46:59.550074000 : 8=FIX.4.4|9=111|35=3|34=279|49=EXECLINKS|52=20200612-04:46:59.549|56=COEPEXCH|45=194|58=Required tag missing|371=6|372=8|373=1|10=071|
20200612-04:47:03.377187000 : 8=FIX.4.4|9=71|35=1|34=280|49=EXECLINKS|52=20200612-04:47:03.375|56=COEPEXCH|112=TEST|10=067|
20200612-04:47:03.377950000 : 8=FIX.4.4|9=71|35=0|34=195|49=COEPEXCH|52=20200612-04:47:03.377|56=EXECLINKS|112=TEST|10=073|
20200612-04:47:09.558347000 : 8=FIX.4.4|9=147|35=D|34=281|49=EXECLINKS|52=20200612-04:47:09.558|56=COEPEXCH|1=EXECLINKS|11=3|38=2|40=2|44=87|54=1|55=amzn|58=Buy shares|60=20200612-22:29:00.000|10=164|
20200612-04:47:09.558966000 : 8=FIX.4.4|9=78|35=8|34=196|49=COEPEXCH|52=20200612-04:47:09.558|56=EXECLINKS|37=3|39=0|150=0|10=007|
20200612-04:47:09.559919000 : 8=FIX.4.4|9=111|35=3|34=282|49=EXECLINKS|52=20200612-04:47:09.559|56=COEPEXCH|45=196|58=Required tag missing|371=6|372=8|373=1|10=064|
20200612-04:57:16.986286000 : 8=FIX.4.4|9=74|35=A|34=283|49=EXECLINKS|52=20200612-04:57:16.986|56=COEPEXCH|98=0|108=20|10=108|
20200612-04:57:16.986523000 : 8=FIX.4.4|9=74|35=A|34=197|49=COEPEXCH|52=20200612-04:57:16.986|56=EXECLINKS|98=0|108=20|10=112|
20200612-04:57:17.018679000 : 8=FIX.4.4|9=147|35=D|34=284|49=EXECLINKS|52=20200612-04:57:17.018|56=COEPEXCH|1=EXECLINKS|11=3|38=2|40=2|44=87|54=1|55=amzn|58=Buy shares|60=20200612-22:29:00.000|10=158|
20200612-04:57:17.019387000 : 8=FIX.4.4|9=62|35=D|34=198|49=COEPEXCH|52=20200612-04:57:17.019|56=EXECLINKS|10=077|
20200612-04:57:17.019840000 : 8=FIX.4.4|9=112|35=3|34=285|49=EXECLINKS|52=20200612-04:57:17.019|56=COEPEXCH|45=198|58=Required tag missing|371=11|372=D|373=1|10=117|
20200612-04:57:27.029105000 : 8=FIX.4.4|9=147|35=D|34=286|49=EXECLINKS|52=20200612-04:57:27.028|56=COEPEXCH|1=EXECLINKS|11=3|38=2|40=2|44=87|54=1|55=amzn|58=Buy shares|60=20200612-22:29:00.000|10=162|
20200612-04:57:27.030513000 : 8=FIX.4.4|9=62|35=D|34=199|49=COEPEXCH|52=20200612-04:57:27.030|56=EXECLINKS|10=072|
20200612-04:57:27.031383000 : 8=FIX.4.4|9=112|35=3|34=287|49=EXECLINKS|52=20200612-04:57:27.031|56=COEPEXCH|45=199|58=Required tag missing|371=11|372=D|373=1|10=115|
20200612-04:57:37.039167000 : 8=FIX.4.4|9=147|35=D|34=288|49=EXECLINKS|52=20200612-04:57:37.038|56=COEPEXCH|1=EXECLINKS|11=3|38=2|40=2|44=87|54=1|55=amzn|58=Buy shares|60=20200612-22:29:00.000|10=166|
20200612-04:57:37.040070000 : 8=FIX.4.4|9=62|35=D|34=200|49=COEPEXCH|52=20200612-04:57:37.039|56=EXECLINKS|10=065|
20200612-04:57:37.040825000 : 8=FIX.4.4|9=112|35=3|34=289|49=EXECLINKS|52=20200612-04:57:37.040|56=COEPEXCH|45=200|58=Required tag missing|371=11|372=D|373=1|10=101|
20200612-04:58:20.932855000 : 8=FIX.4.4|9=74|35=A|34=290|49=EXECLINKS|52=20200612-04:58:20.932|56=COEPEXCH|98=0|108=20|10=093|
20200612-04:58:20.933119000 : 8=FIX.4.4|9=74|35=A|34=201|49=COEPEXCH|52=20200612-04:58:20.933|56=EXECLINKS|98=0|108=20|10=086|
20200612-04:58:20.966077000 : 8=FIX.4.4|9=147|35=D|34=291|49=EXECLINKS|52=20200612-04:58:20.965|56=COEPEXCH|1=EXECLINKS|11=3|38=2|40=2|44=87|54=1|55=amzn|58=Buy shares|60=20200612-22:29:00.000|10=162|
20200612-04:58:20.966791000 : 8=FIX.4.4|9=62|35=D|34=202|49=COEPEXCH|52=20200612-04:58:20.966|56=EXECLINKS|10=069|
20200612-04:58:20.967399000 : 8=FIX.4.4|9=100|35=W|34=203|49=COEPEXCH|52=20200612-04:58:20.967|56=EXECLINKS|55=amzn|268=1|269=0|270=87|271=2|37=3|10=042|
20200612-04:58:20.967497000 : 8=FIX.4.4|9=112|35=3|34=292|49=EXECLINKS|52=20200612-04:58:20.966|56=COEPEXCH|45=202|58=Required tag missing|371=11|372=D|373=1|10=107|
20200612-04:58:30.976771000 : 8=FIX.4.4|9=147|35=D|34=293|49=EXECLINKS|52=20200612-04:58:30.976|56=COEPEXCH|1=EXECLINKS|11=3|38=2|40=2|44=87|54=1|55=amzn|58=Buy shares|60=20200612-22:29:00.000|10=167|
20200612-04:58:30.977919000 : 8=FIX.4.4|9=62|35=D|34=204|49=COEPEXCH|52=20200612-04:58:30.977|56=EXECLINKS|10=074|
20200612-04:58:30.979044000 : 8=FIX.4.4|9=124|35=W|34=205|49=COEPEXCH|52=20200612-04:58:30.978|56=EXECLINKS|55=amzn|268=2|269=0|270=87|271=2|37=3|269=0|270=87|271=2|37=3|10=112|
20200612-04:58:30.979228000 : 8=FIX.4.4|9=112|35=3|34=294|49=EXECLINKS|52=20200612-04:58:30.978|56=COEPEXCH|45=204|58=Required tag missing|371=11|372=D|373=1|10=115|
20200612-04:59:03.110276000 : 8=FIX.4.4|9=74|35=A|34=295|49=EXECLINKS|52=20200612-04:59:03.110|56=COEPEXCH|98=0|108=20|10=088|
20200612-04:59:03.110631000 : 8=FIX.4.4|9=74|35=A|34=206|49=COEPEXCH|52=20200612-04:59:03.110|56=EXECLINKS|98=0|108=20|10=080|
20200612-04:59:03.159711000 : 8=FIX.4.4|9=147|35=D|34=296|49=EXECLINKS|52=20200612-04:59:03.159|56=COEPEXCH|1=EXECLINKS|11=3|38=2|40=2|44=87|54=1|55=amzn|58=Buy shares|60=20200612-22:29:00.000|10=164|
20200612-04:59:03.160452000 : 8=FIX.4.4|9=62|35=D|34=207|49=COEPEXCH|52=20200612-04:59:03.160|56=EXECLINKS|10=062|
20200612-04:59:03.160764000 : 8=FIX.4.4|9=62|35=D|34=208|49=COEPEXCH|52=20200612-04:59:03.160|56=EXECLINKS|10=063|
20200612-04:59:03.160881000 : 8=FIX.4.4|9=112|35=3|34=297|49=EXECLINKS|52=20200612-04:59:03.160|56=COEPEXCH|45=207|58=Required tag missing|371=11|372=D|373=1|10=105|
20200612-04:59:03.161060000 : 8=FIX.4.4|9=112|35=3|34=298|49=EXECLINKS|52=20200612-04:59:03.160|56=COEPEXCH|45=208|58=Required tag missing|371=11|372=D|373=1|10=107|
20200612-05:02:27.713465000 : 8=FIX.4.4|9=74|35=A|34=299|49=EXECLINKS|52=20200612-05:02:27.712|56=COEPEXCH|98=0|108=20|10=095|
20200612-05:02:27.713938000 : 8=FIX.4.4|9=74|35=A|34=209|49=COEPEXCH|52=20200612-05:02:27.713|56=EXECLINKS|98=0|108=20|10=087|
20200612-05:02:27.751536000 : 8=FIX.4.4|9=147|35=D|34=300|49=EXECLINKS|52=20200612-05:02:27.751|56=COEPEXCH|1=EXECLINKS|11=3|38=2|40=2|44=87|54=1|55=amzn|58=Buy shares|60=20200612-22:29:00.000|10=143|
20200612-05:03:53.348199000 : 8=FIX.4.4|9=74|35=A|34=311|49=EXECLINKS|52=20200612-05:03:53.347|56=COEPEXCH|98=0|108=20|10=084|
20200612-05:03:53.348483000 : 8=FIX.4.4|9=74|35=A|34=210|49=COEPEXCH|52=20200612-05:03:53.348|56=EXECLINKS|98=0|108=20|10=083|
20200612-05:03:53.348925000 : 8=FIX.4.4|9=73|35=2|34=211|49=COEPEXCH|52=20200612-05:03:53.348|56=EXECLINKS|7=300|16=0|10=009|
20200612-05:03:53.350313000 : 8=FIX.4.4|9=178|35=D|34=300|43=Y|49=EXECLINKS|52=20200612-05:03:53.349|56=COEPEXCH|122=20200612-05:02:27.751|1=EXECLINKS|11=3|38=2|40=2|44=87|54=1|55=amzn|58=Buy shares|60=20200612-22:29:00.000|10=144|
20200612-05:04:22.420252000 : 8=FIX.4.4|9=74|35=A|34=315|49=EXECLINKS|52=20200612-05:04:22.419|56=COEPEXCH|98=0|108=20|10=085|
20200612-05:04:22.420585000 : 8=FIX.4.4|9=74|35=A|34=212|49=COEPEXCH|52=20200612-05:04:22.420|56=EXECLINKS|98=0|108=20|10=073|
20200612-05:04:22.420749000 : 8=FIX.4.4|9=73|35=2|34=213|49=COEPEXCH|52=20200612-05:04:22.420|56=EXECLINKS|7=300|16=0|10=255|
20200612-05:04:22.422328000 : 8=FIX.4.4|9=178|35=D|34=300|43=Y|49=EXECLINKS|52=20200612-05:04:22.421|56=COEPEXCH|122=20200612-05:02:27.751|1=EXECLINKS|11=3|38=2|40=2|44=87|54=1|55=amzn|58=Buy shares|60=20200612-22:29:00.000|10=132|
20200612-05:04:22.423329000 : 8=FIX.4.4|9=100|35=W|34=214|49=COEPEXCH|52=20200612-05:04:22.423|56=EXECLINKS|55=amzn|268=1|269=0|270=87|271=2|37=3|10=025|
20200612-05:04:22.423409000 : 8=FIX.4.4|9=178|35=D|34=301|43=Y|49=EXECLINKS|52=20200612-05:04:22.421|56=COEPEXCH|122=20200612-05:02:37.761|1=EXECLINKS|11=3|38=2|40=2|44=87|54=1|55=amzn|58=Buy shares|60=20200612-22:29:00.000|10=135|
20200612-05:04:22.424187000 : 8=FIX.4.4|9=124|35=W|34=215|49=COEPEXCH|52=20200612-05:04:22.424|56=EXECLINKS|55=amzn|268=2|269=0|270=87|271=2|37=3|269=0|270=87|271=2|37=3|10=092|
20200612-05:04:22.424240000 : 8=FIX.4.4|9=178|35=D|34=302|43=Y|49=EXECLINKS|52=20200612-05:04:22.421|56=COEPEXCH|122=20200612-05:02:47.771|1=EXECLINKS|11=3|38=2|40=2|44=87|54=1|55=amzn|58=Buy shares|60=20200612-22:29:00.000|10=138|
20200612-05:04:22.425034000 : 8=FIX.4.4|9=148|35=W|34=216|49=COEPEXCH|52=20200612-05:04:22.424|56=EXECLINKS|55=amzn|268=3|269=0|270=87|271=2|37=3|269=0|270=87|271=2|37=3|269=0|270=87|271=2|37=3|10=158|
20200612-05:04:22.425080000 : 8=FIX.4.4|9=106|35=4|34=303|43=Y|49=EXECLINKS|52=20200612-05:04:22.421|56=COEPEXCH|122=20200612-05:04:22.421|36=304|123=Y|10=174|
20200612-05:04:22.425194000 : 8=FIX.4.4|9=178|35=D|34=304|43=Y|49=EXECLINKS|52=20200612-05:04:22.421|56=COEPEXCH|122=20200612-05:02:57.781|1=EXECLINKS|11=3|38=2|40=2|44=87|54=1|55=amzn|58=Buy shares|60=20200612-22:29:00.000|10=142|
20200612-05:04:22.426031000 : 8=FIX.4.4|9=148|35=W|34=217|49=COEPEXCH|52=20200612-05:04:22.425|56=EXECLINKS|55=amzn|268=3|269=0|270=87|271=2|37=3|269=0|270=87|271=2|37=3|269=0|270=87|271=2|37=3|10=160|
20200612-05:04:22.426083000 : 8=FIX.4.4|9=178|35=D|34=305|43=Y|49=EXECLINKS|52=20200612-05:04:22.421|56=COEPEXCH|122=20200612-05:03:07.792|1=EXECLINKS|11=3|38=2|40=2|44=87|54=1|55=amzn|58=Buy shares|60=20200612-22:29:00.000|10=141|
20200612-05:04:22.426940000 : 8=FIX.4.4|9=148|35=W|34=218|49=COEPEXCH|52=20200612-05:04:22.426|56=EXECLINKS|55=amzn|268=3|269=0|270=87|271=2|37=3|269=0|270=87|271=2|37=3|269=0|270=87|271=2|37=3|10=162|
20200612-05:04:22.426993000 : 8=FIX.4.4|9=178|35=D|34=306|43=Y|49=EXECLINKS|52=20200612-05:04:22.421|56=COEPEXCH|122=20200612-05:03:17.803|1=EXECLINKS|11=3|38=2|40=2|44=87|54=1|55=amzn|58=Buy shares|60=20200612-22:29:00.000|10=136|
20200612-05:04:22.427889000 : 8=FIX.4.4|9=148|35=W|34=219|49=COEPEXCH|52=20200612-05:04:22.427|56=EXECLINKS|55=amzn|268=3|269=0|270=87|271=2|37=3|269=0|270=87|271=2|37=3|269=0|270=87|271=2|37=3|10=164|
20200612-05:04:22.427947000 : 8=FIX.4.4|9=178|35=D|34=307|43=Y|49=EXECLINKS|52=20200612-05:04:22.421|56=COEPEXCH|122=20200612-05:03:27.814|1=EXECLINKS|11=3|38=2|40=2|44=87|54=1|55=amzn|58=Buy shares|60=20200612-22:29:00.000|10=140|
20200612-05:04:22.428800000 : 8=FIX.4.4|9=148|35=W|34=220|49=COEPEXCH|52=20200612-05:04:22.428|56=EXECLINKS|55=amzn|268=3|269=0|270=87|271=2|37=3|269=0|270=87|271=2|37=3|269=0|270=87|271=2|37=3|10=157|
20200612-05:04:22.428847000 : 8=FIX.4.4|9=106|35=4|34=308|43=Y|49=EXECLINKS|52=20200612-05:04:22.421|56=COEPEXCH|122=20200612-05:04:22.421|36=309|123=Y|10=184|
20200612-05:04:22.428944000 : 8=FIX.4.4|9=178|35=D|34=309|43=Y|49=EXECLINKS|52=20200612-05:04:22.421|56=COEPEXCH|122=20200612-05:03:37.825|1=EXECLINKS|11=3|38=2|40=2|44=87|54=1|55=amzn|58=Buy shares|60=20200612-22:29:00.000|10=145|
20200612-05:04:22.429793000 : 8=FIX.4.4|9=148|35=W|34=221|49=COEPEXCH|52=20200612-05:04:22.429|56=EXECLINKS|55=amzn|268=3|269=0|270=87|271=2|37=3|269=0|270=87|271=2|37=3|269=0|270=87|271=2|37=3|10=159|
20200612-05:04:22.429846000 : 8=FIX.4.4|9=178|35=D|34=310|43=Y|49=EXECLINKS|52=20200612-05:04:22.421|56=COEPEXCH|122=20200612-05:03:47.834|1=EXECLINKS|11=3|38=2|40=2|44=87|54=1|55=amzn|58=Buy shares|60=20200612-22:29:00.000|10=138|
20200612-05:04:22.430728000 : 8=FIX.4.4|9=148|35=W|34=222|49=COEPEXCH|52=20200612-05:04:22.430|56=EXECLINKS|55=amzn|268=3|269=0|270=87|271=2|37=3|269=0|270=87|271=2|37=3|269=0|270=87|271=2|37=3|10=152|
20200612-05:04:22.430780000 : 8=FIX.4.4|9=106|35=4|34=311|43=Y|49=EXECLINKS|52=20200612-05:04:22.421|56=COEPEXCH|122=20200612-05:04:22.421|36=312|123=Y|10=172|
20200612-05:04:22.430882000 : 8=FIX.4.4|9=178|35=D|34=312|43=Y|49=EXECLINKS|52=20200612-05:04:22.421|56=COEPEXCH|122=20200612-05:03:53.404|1=EXECLINKS|11=3|38=2|40=2|44=87|54=1|55=amzn|58=Buy shares|60=20200612-22:29:00.000|10=130|
20200612-05:04:22.431707000 : 8=FIX.4.4|9=148|35=W|34=223|49=COEPEXCH|52=20200612-05:04:22.431|56=EXECLINKS|55=amzn|268=3|269=0|270=87|271=2|37=3|269=0|270=87|271=2|37=3|269=0|270=87|271=2|37=3|10=154|
20200612-05:04:22.431753000 : 8=FIX.4.4|9=178|35=D|34=313|43=Y|49=EXECLINKS|52=20200612-05:04:22.422|56=COEPEXCH|122=20200612-05:04:03.414|1=EXECLINKS|11=3|38=2|40=2|44=87|54=1|55=amzn|58=Buy shares|60=20200612-22:29:00.000|10=129|
20200612-05:04:22.432601000 : 8=FIX.4.4|9=148|35=W|34=224|49=COEPEXCH|52=20200612-05:04:22.432|56=EXECLINKS|55=amzn|268=3|269=0|270=87|271=2|37=3|269=0|270=87|271=2|37=3|269=0|270=87|271=2|37=3|10=156|
20200612-05:04:22.432676000 : 8=FIX.4.4|9=178|35=D|34=314|43=Y|49=EXECLINKS|52=20200612-05:04:22.422|56=COEPEXCH|122=20200612-05:04:13.424|1=EXECLINKS|11=3|38=2|40=2|44=87|54=1|55=amzn|58=Buy shares|60=20200612-22:29:00.000|10=132|
20200612-05:04:22.433565000 : 8=FIX.4.4|9=148|35=W|34=225|49=COEPEXCH|52=20200612-05:04:22.433|56=EXECLINKS|55=amzn|268=3|269=0|270=87|271=2|37=3|269=0|270=87|271=2|37=3|269=0|270=87|271=2|37=3|10=158|
20200612-05:04:22.433639000 : 8=FIX.4.4|9=106|35=4|34=315|43=Y|49=EXECLINKS|52=20200612-05:04:22.422|56=COEPEXCH|122=20200612-05:04:22.422|36=316|123=Y|10=182|
20200612-05:04:22.461653000 : 8=FIX.4.4|9=147|35=D|34=316|49=EXECLINKS|52=20200612-05:04:22.460|56=COEPEXCH|1=EXECLINKS|11=3|38=2|40=2|44=87|54=1|55=amzn|58=Buy shares|60=20200612-22:29:00.000|10=144|
20200612-05:04:22.463458000 : 8=FIX.4.4|9=148|35=W|34=226|49=COEPEXCH|52=20200612-05:04:22.463|56=EXECLINKS|55=amzn|268=3|269=0|270=87|271=2|37=3|269=0|270=87|271=2|37=3|269=0|270=87|271=2|37=3|10=162|
20200612-05:04:32.472809000 : 8=FIX.4.4|9=147|35=D|34=317|49=EXECLINKS|52=20200612-05:04:32.472|56=COEPEXCH|1=EXECLINKS|11=3|38=2|40=2|44=87|54=1|55=amzn|58=Buy shares|60=20200612-22:29:00.000|10=149|
20200612-05:04:32.477768000 : 8=FIX.4.4|9=148|35=W|34=227|49=COEPEXCH|52=20200612-05:04:32.476|56=EXECLINKS|55=amzn|268=3|269=0|270=87|271=2|37=3|269=0|270=87|271=2|37=3|269=0|270=87|271=2|37=3|10=168|
20200612-05:04:42.483616000 : 8=FIX.4.4|9=147|35=D|34=318|49=EXECLINKS|52=20200612-05:04:42.483|56=COEPEXCH|1=EXECLINKS|11=3|38=2|40=2|44=87|54=1|55=amzn|58=Buy shares|60=20200612-22:29:00.000|10=153|
20200612-05:04:42.485787000 : 8=FIX.4.4|9=148|35=W|34=228|49=COEPEXCH|52=20200612-05:04:42.485|56=EXECLINKS|55=amzn|268=3|269=0|270=87|271=2|37=3|269=0|270=87|271=2|37=3|269=0|270=87|271=2|37=3|10=170|
20200612-05:04:52.617293000 : 8=FIX.4.4|9=147|35=D|34=319|49=EXECLINKS|52=20200612-05:04:52.494|56=COEPEXCH|1=EXECLINKS|11=3|38=2|40=2|44=87|54=1|55=amzn|58=Buy shares|60=20200612-22:29:00.000|10=157|
20200612-05:04:52.624677000 : 8=FIX.4.4|9=148|35=W|34=229|49=COEPEXCH|52=20200612-05:04:52.624|56=EXECLINKS|55=amzn|268=3|269=0|270=87|271=2|37=3|269=0|270=87|271=2|37=3|269=0|270=87|271=2|37=3|10=167|
20200612-05:05:02.627843000 : 8=FIX.4.4|9=147|35=D|34=320|49=EXECLINKS|52=20200612-05:05:02.626|56=COEPEXCH|1=EXECLINKS|11=3|38=2|40=2|44=87|54=1|55=amzn|58=Buy shares|60=20200612-22:29:00.000|10=142|
20200612-05:05:02.633020000 : 8=FIX.4.4|9=148|35=W|34=230|49=COEPEXCH|52=20200612-05:05:02.632|56=EXECLINKS|55=amzn|268=3|269=0|270=87|271=2|37=3|269=0|270=87|271=2|37=3|269=0|270=87|271=2|37=3|10=154|
20200612-05:05:12.640738000 : 8=FIX.4.4|9=147|35=D|34=321|49=EXECLINKS|52=20200612-05:05:12.639|56=COEPEXCH|1=EXECLINKS|11=3|38=2|40=2|44=87|54=1|55=amzn|58=Buy shares|60=20200612-22:29:00.000|10=148|
20200612-05:05:12.647084000 : 8=FIX.4.4|9=148|35=W|34=231|49=COEPEXCH|52=20200612-05:05:12.646|56=EXECLINKS|55=amzn|268=3|269=0|270=87|271=2|37=3|269=0|270=87|271=2|37=3|269=0|270=87|271=2|37=3|10=161|
20200612-05:05:36.189436000 : 8=FIX.4.4|9=74|35=A|34=322|49=EXECLINKS|52=20200612-05:05:36.189|56=COEPEXCH|98=0|108=20|10=093|
20200612-05:05:36.189712000 : 8=FIX.4.4|9=74|35=A|34=232|49=COEPEXCH|52=20200612-05:05:36.189|56=EXECLINKS|98=0|108=20|10=093|
20200612-05:05:36.221888000 : 8=FIX.4.4|9=147|35=D|34=323|49=EXECLINKS|52=20200612-05:05:36.221|56=COEPEXCH|1=EXECLINKS|11=3|38=2|40=2|44=87|54=1|55=amzn|58=Buy shares|60=20200612-22:29:00.000|10=143|
20200612-05:05:36.222684000 : 8=FIX.4.4|9=62|35=D|34=233|49=COEPEXCH|52=20200612-05:05:36.222|56=EXECLINKS|10=058|
20200612-05:05:36.223014000 : 8=FIX.4.4|9=112|35=3|34=324|49=EXECLINKS|52=20200612-05:05:36.222|56=COEPEXCH|45=233|58=Required tag missing|371=11|372=D|373=1|10=092|
20200612-05:05:46.231828000 : 8=FIX.4.4|9=147|35=D|34=325|49=EXECLINKS|52=20200612-05:05:46.231|56=COEPEXCH|1=EXECLINKS|11=3|38=2|40=2|44=87|54=1|55=amzn|58=Buy shares|60=20200612-22:29:00.000|10=147|
20200612-05:05:46.234558000 : 8=FIX.4.4|9=62|35=D|34=234|49=COEPEXCH|52=20200612-05:05:46.233|56=EXECLINKS|10=062|
20200612-05:05:46.236749000 : 8=FIX.4.4|9=112|35=3|34=326|49=EXECLINKS|52=20200612-05:05:46.235|56=COEPEXCH|45=234|58=Required tag missing|371=11|372=D|373=1|10=100|
20200612-05:05:56.242876000 : 8=FIX.4.4|9=147|35=D|34=327|49=EXECLINKS|52=20200612-05:05:56.242|56=COEPEXCH|1=EXECLINKS|11=3|38=2|40=2|44=87|54=1|55=amzn|58=Buy shares|60=20200612-22:29:00.000|10=152|
20200612-05:05:56.245379000 : 8=FIX.4.4|9=62|35=D|34=235|49=COEPEXCH|52=20200612-05:05:56.244|56=EXECLINKS|10=066|
20200612-05:05:56.250276000 : 8=FIX.4.4|9=112|35=3|34=328|49=EXECLINKS|52=20200612-05:05:56.249|56=COEPEXCH|45=235|58=Required tag missing|371=11|372=D|373=1|10=109|
20200612-05:07:03.839715000 : 8=FIX.4.4|9=74|35=A|34=329|49=EXECLINKS|52=20200612-05:07:03.839|56=COEPEXCH|98=0|108=20|10=098|
20200612-05:07:03.839954000 : 8=FIX.4.4|9=74|35=A|34=236|49=COEPEXCH|52=20200612-05:07:03.839|56=EXECLINKS|98=0|108=20|10=095|
20200612-05:07:03.875945000 : 8=FIX.4.4|9=147|35=D|34=330|49=EXECLINKS|52=20200612-05:07:03.875|56=COEPEXCH|1=EXECLINKS|11=3|38=2|40=2|44=87|54=1|55=amzn|58=Buy shares|60=20200612-22:29:00.000|10=152|
20200612-05:07:03.876817000 : 8=FIX.4.4|9=62|35=W|34=237|49=COEPEXCH|52=20200612-05:07:03.876|56=EXECLINKS|10=092|
20200612-05:07:03.877372000 : 8=FIX.4.4|9=113|35=3|34=331|49=EXECLINKS|52=20200612-05:07:03.877|56=COEPEXCH|45=237|58=Required tag missing|371=268|372=W|373=1|10=188|
20200612-05:07:28.420059000 : 8=FIX.4.4|9=74|35=A|34=332|49=EXECLINKS|52=20200612-05:07:28.419|56=COEPEXCH|98=0|108=20|10=093|
20200612-05:07:28.420367000 : 8=FIX.4.4|9=74|35=A|34=238|49=COEPEXCH|52=20200612-05:07:28.420|56=EXECLINKS|98=0|108=20|10=090|
20200612-05:07:28.454182000 : 8=FIX.4.4|9=147|35=D|34=333|49=EXECLINKS|52=20200612-05:07:28.453|56=COEPEXCH|1=EXECLINKS|11=3|38=2|40=2|44=87|54=1|55=amzn|58=Buy shares|60=20200612-22:29:00.000|10=154|
20200612-05:07:28.454822000 : 8=FIX.4.4|9=62|35=W|34=239|49=COEPEXCH|52=20200612-05:07:28.454|56=EXECLINKS|10=093|
20200612-05:07:28.455231000 : 8=FIX.4.4|9=113|35=3|34=334|49=EXECLINKS|52=20200612-05:07:28.455|56=COEPEXCH|45=239|58=Required tag missing|371=268|372=W|373=1|10=192|
20200612-05:07:38.465456000 : 8=FIX.4.4|9=147|35=D|34=335|49=EXECLINKS|52=20200612-05:07:38.464|56=COEPEXCH|1=EXECLINKS|11=3|38=2|40=2|44=87|54=1|55=amzn|58=Buy shares|60=20200612-22:29:00.000|10=159|
20200612-05:07:38.469386000 : 8=FIX.4.4|9=62|35=W|34=240|49=COEPEXCH|52=20200612-05:07:38.468|56=EXECLINKS|10=091|
20200612-05:07:38.471024000 : 8=FIX.4.4|9=113|35=3|34=336|49=EXECLINKS|52=20200612-05:07:38.470|56=COEPEXCH|45=240|58=Required tag missing|371=268|372=W|373=1|10=184|
20200612-05:07:56.386145000 : 8=FIX.4.4|9=74|35=A|34=337|49=EXECLINKS|52=20200612-05:07:56.385|56=COEPEXCH|98=0|108=20|10=101|
20200612-05:07:56.386384000 : 8=FIX.4.4|9=74|35=A|34=241|49=COEPEXCH|52=20200612-05:07:56.386|56=EXECLINKS|98=0|108=20|10=096|
20200612-05:07:56.430098000 : 8=FIX.4.4|9=147|35=D|34=338|49=EXECLINKS|52=20200612-05:07:56.429|56=COEPEXCH|1=EXECLINKS|11=3|38=2|40=2|44=87|54=1|55=amzn|58=Buy shares|60=20200612-22:29:00.000|10=163|
20200612-05:07:56.431099000 : 8=FIX.4.4|9=100|35=W|34=242|49=COEPEXCH|52=20200612-05:07:56.430|56=EXECLINKS|55=amzn|268=1|269=0|270=87|271=2|37=3|10=034|
20200612-05:13:43.421696000 : 8=FIX.4.4|9=74|35=A|34=339|49=EXECLINKS|52=20200612-05:13:43.421|56=COEPEXCH|98=0|108=20|10=087|
20200612-05:13:43.422371000 : 8=FIX.4.4|9=74|35=A|34=243|49=COEPEXCH|52=20200612-05:13:43.422|56=EXECLINKS|98=0|108=20|10=082|
20200612-05:13:43.460641000 : 8=FIX.4.4|9=147|35=D|34=340|49=EXECLINKS|52=20200612-05:13:43.460|56=COEPEXCH|1=EXECLINKS|11=3|38=2|40=2|44=87|54=1|55=amzn|58=Buy shares|60=20200612-22:29:00.000|10=144|
20200612-05:14:25.314593000 : 8=FIX.4.4|9=74|35=A|34=346|49=EXECLINKS|52=20200612-05:14:25.314|56=COEPEXCH|98=0|108=20|10=087|
20200612-05:14:25.314892000 : 8=FIX.4.4|9=74|35=A|34=244|49=COEPEXCH|52=20200612-05:14:25.314|56=EXECLINKS|98=0|108=20|10=084|
20200612-05:14:25.315082000 : 8=FIX.4.4|9=73|35=2|34=245|49=COEPEXCH|52=20200612-05:14:25.314|56=EXECLINKS|7=340|16=0|10=014|
20200612-05:14:25.317425000 : 8=FIX.4.4|9=178|35=D|34=340|43=Y|49=EXECLINKS|52=20200612-05:14:25.317|56=COEPEXCH|122=20200612-05:13:43.460|1=EXECLINKS|11=3|38=2|40=2|44=87|54=1|55=amzn|58=Buy shares|60=20200612-22:29:00.000|10=141|
20200612-05:14:25.318202000 : 8=FIX.4.4|9=93|35=8|34=246|49=COEPEXCH|52=20200612-05:14:25.318|56=EXECLINKS|58=text string|37=3|39=0|150=0|10=026|
20200612-05:14:25.318780000 : 8=FIX.4.4|9=178|35=D|34=341|43=Y|49=EXECLINKS|52=20200612-05:14:25.317|56=COEPEXCH|122=20200612-05:13:53.470|1=EXECLINKS|11=3|38=2|40=2|44=87|54=1|55=amzn|58=Buy shares|60=20200612-22:29:00.000|10=144|
20200612-05:14:25.319380000 : 8=FIX.4.4|9=93|35=8|34=247|49=COEPEXCH|52=20200612-05:14:25.319|56=EXECLINKS|58=text string|37=3|39=0|150=0|10=028|
20200612-05:14:25.319955000 : 8=FIX.4.4|9=178|35=D|34=342|43=Y|49=EXECLINKS|52=20200612-05:14:25.317|56=COEPEXCH|122=20200612-05:14:03.480|1=EXECLINKS|11=3|38=2|40=2|44=87|54=1|55=amzn|58=Buy shares|60=20200612-22:29:00.000|10=142|
20200612-05:14:25.320965000 : 8=FIX.4.4|9=93|35=8|34=248|49=COEPEXCH|52=20200612-05:14:25.320|56=EXECLINKS|58=text string|37=3|39=0|150=0|10=021|
20200612-05:14:25.321724000 : 8=FIX.4.4|9=106|35=4|34=343|43=Y|49=EXECLINKS|52=20200612-05:14:25.317|56=COEPEXCH|122=20200612-05:14:25.317|36=344|123=Y|10=198|
20200612-05:14:25.321854000 : 8=FIX.4.4|9=178|35=D|34=344|43=Y|49=EXECLINKS|52=20200612-05:14:25.317|56=COEPEXCH|122=20200612-05:14:13.490|1=EXECLINKS|11=3|38=2|40=2|44=87|54=1|55=amzn|58=Buy shares|60=20200612-22:29:00.000|10=146|
20200612-05:14:25.322583000 : 8=FIX.4.4|9=93|35=8|34=249|49=COEPEXCH|52=20200612-05:14:25.322|56=EXECLINKS|58=text string|37=3|39=0|150=0|10=024|
20200612-05:14:25.323294000 : 8=FIX.4.4|9=178|35=D|34=345|43=Y|49=EXECLINKS|52=20200612-05:14:25.317|56=COEPEXCH|122=20200612-05:14:23.500|1=EXECLINKS|11=3|38=2|40=2|44=87|54=1|55=amzn|58=Buy shares|60=20200612-22:29:00.000|10=140|
20200612-05:14:25.324043000 : 8=FIX.4.4|9=93|35=8|34=250|49=COEPEXCH|52=20200612-05:14:25.323|56=EXECLINKS|58=text string|37=3|39=0|150=0|10=017|
20200612-05:14:25.324774000 : 8=FIX.4.4|9=106|35=4|34=346|43=Y|49=EXECLINKS|52=20200612-05:14:25.317|56=COEPEXCH|122=20200612-05:14:25.317|36=347|123=Y|10=204|
20200612-05:14:25.324861000 : 8=FIX.4.4|9=111|35=3|34=347|49=EXECLINKS|52=20200612-05:14:25.318|56=COEPEXCH|45=246|58=Required tag missing|371=6|372=8|373=1|10=048|
20200612-05:14:25.327273000 : 8=FIX.4.4|9=111|35=3|34=348|49=EXECLINKS|52=20200612-05:14:25.327|56=COEPEXCH|45=247|58=Required tag missing|371=6|372=8|373=1|10=050|
20200612-05:14:25.327436000 : 8=FIX.4.4|9=111|35=3|34=349|49=EXECLINKS|52=20200612-05:14:25.327|56=COEPEXCH|45=248|58=Required tag missing|371=6|372=8|373=1|10=052|
20200612-05:14:25.327652000 : 8=FIX.4.4|9=111|35=3|34=350|49=EXECLINKS|52=20200612-05:14:25.327|56=COEPEXCH|45=249|58=Required tag missing|371=6|372=8|373=1|10=045|
