20200612-03:36:57.582478000 : 8=FIX.4.4|9=84|35=A|34=1|49=COEPUSER|52=20200612-03:36:57.582|56=REALTIMEMARKETS|98=0|108=20|141=Y|10=002|
20200612-05:52:07.554782000 : 8=FIX.4.4|9=84|35=A|34=1|49=COEPUSER|52=20200612-05:52:07.554|56=REALTIMEMARKETS|98=0|108=20|141=Y|10=252|
20200612-05:53:07.122061000 : 8=FIX.4.4|9=84|35=A|34=1|49=COEPUSER|52=20200612-05:53:07.121|56=REALTIMEMARKETS|98=0|108=20|141=Y|10=243|
