20200612-03:22:36.793562000 : 8=FIX.4.4|9=72|35=A|34=1|49=EXECLINKS|52=20200612-03:22:36.793|56=COEPEXCH|98=0|108=20|10=243|
20200612-03:22:36.793917000 : 8=FIX.4.4|9=109|35=5|34=2|49=COEPEXCH|52=20200612-03:22:36.793|56=EXECLINKS|58=MsgSeqNum too low, expecting 2 but received 1|10=152|
20200612-03:22:36.794096000 : 8=FIX.4.4|9=60|35=5|34=2|49=EXECLINKS|52=20200612-03:22:36.794|56=COEPEXCH|10=206|
20200612-03:22:53.025083000 : 8=FIX.4.4|9=72|35=A|34=4|49=EXECLINKS|52=20200612-03:22:53.024|56=COEPEXCH|98=0|108=20|10=232|
20200612-03:22:53.025346000 : 8=FIX.4.4|9=72|35=A|34=3|49=COEPEXCH|52=20200612-03:22:53.025|56=EXECLINKS|98=0|108=20|10=232|
20200612-03:22:53.025528000 : 8=FIX.4.4|9=69|35=2|34=5|49=EXECLINKS|52=20200612-03:22:53.025|56=COEPEXCH|7=2|16=0|10=069|
20200612-03:22:53.025611000 : 8=FIX.4.4|9=69|35=2|34=4|49=COEPEXCH|52=20200612-03:22:53.025|56=EXECLINKS|7=2|16=0|10=068|
20200612-03:22:53.025756000 : 8=FIX.4.4|9=102|35=4|34=2|43=Y|49=EXECLINKS|52=20200612-03:22:53.025|56=COEPEXCH|122=20200612-03:22:53.025|36=6|123=Y|10=233|
20200612-03:22:53.025826000 : 8=FIX.4.4|9=102|35=4|34=2|43=Y|49=COEPEXCH|52=20200612-03:22:53.025|56=EXECLINKS|122=20200612-03:22:53.025|36=5|123=Y|10=232|
20200612-03:23:21.595126000 : 8=FIX.4.4|9=72|35=A|34=6|49=EXECLINKS|52=20200612-03:23:21.594|56=COEPEXCH|98=0|108=20|10=242|
20200612-03:23:21.595603000 : 8=FIX.4.4|9=72|35=A|34=5|49=COEPEXCH|52=20200612-03:23:21.595|56=EXECLINKS|98=0|108=20|10=242|
20200612-03:23:21.643229000 : 8=FIX.4.4|9=145|35=D|34=7|49=EXECLINKS|52=20200612-03:23:21.643|56=COEPEXCH|1=EXECLINKS|11=3|38=2|40=2|44=87|54=1|55=amzn|58=Buy shares|60=20200612-22:29:00.000|10=044|
20200612-03:23:21.643990000 : 8=FIX.4.4|9=76|35=8|34=6|49=COEPEXCH|52=20200612-03:23:21.643|56=EXECLINKS|37=3|39=0|150=0|10=137|
20200612-03:23:21.644591000 : 8=FIX.4.4|9=107|35=3|34=8|49=EXECLINKS|52=20200612-03:23:21.644|56=COEPEXCH|45=6|58=Required tag missing|371=6|372=8|373=1|10=101|
20200612-03:23:31.654818000 : 8=FIX.4.4|9=145|35=D|34=9|49=EXECLINKS|52=20200612-03:23:31.654|56=COEPEXCH|1=EXECLINKS|11=3|38=2|40=2|44=87|54=1|55=amzn|58=Buy shares|60=20200612-22:29:00.000|10=049|
20200612-03:23:31.657148000 : 8=FIX.4.4|9=76|35=8|34=7|49=COEPEXCH|52=20200612-03:23:31.656|56=EXECLINKS|37=3|39=0|150=0|10=143|
20200612-03:23:31.658003000 : 8=FIX.4.4|9=108|35=3|34=10|49=EXECLINKS|52=20200612-03:23:31.657|56=COEPEXCH|45=7|58=Required tag missing|371=6|372=8|373=1|10=149|
20200612-03:23:41.666953000 : 8=FIX.4.4|9=146|35=D|34=11|49=EXECLINKS|52=20200612-03:23:41.666|56=COEPEXCH|1=EXECLINKS|11=3|38=2|40=2|44=87|54=1|55=amzn|58=Buy shares|60=20200612-22:29:00.000|10=095|
20200612-03:23:41.668272000 : 8=FIX.4.4|9=76|35=8|34=8|49=COEPEXCH|52=20200612-03:23:41.667|56=EXECLINKS|37=3|39=0|150=0|10=147|
20200612-03:23:41.668475000 : 8=FIX.4.4|9=108|35=3|34=12|49=EXECLINKS|52=20200612-03:23:41.668|56=COEPEXCH|45=8|58=Required tag missing|371=6|372=8|373=1|10=155|
20200612-03:23:45.478862000 : 8=FIX.4.4|9=70|35=1|34=13|49=EXECLINKS|52=20200612-03:23:45.478|56=COEPEXCH|112=TEST|10=015|
20200612-03:23:45.479128000 : 8=FIX.4.4|9=69|35=0|34=9|49=COEPEXCH|52=20200612-03:23:45.479|56=EXECLINKS|112=TEST|10=236|
20200612-03:23:51.675636000 : 8=FIX.4.4|9=146|35=D|34=14|49=EXECLINKS|52=20200612-03:23:51.675|56=COEPEXCH|1=EXECLINKS|11=3|38=2|40=2|44=87|54=1|55=amzn|58=Buy shares|60=20200612-22:29:00.000|10=099|
20200612-03:23:51.678759000 : 8=FIX.4.4|9=77|35=8|34=10|49=COEPEXCH|52=20200612-03:23:51.677|56=EXECLINKS|37=3|39=0|150=0|10=191|
20200612-03:23:51.679983000 : 8=FIX.4.4|9=109|35=3|34=15|49=EXECLINKS|52=20200612-03:23:51.679|56=COEPEXCH|45=10|58=Required tag missing|371=6|372=8|373=1|10=203|
20200612-03:24:01.685913000 : 8=FIX.4.4|9=146|35=D|34=16|49=EXECLINKS|52=20200612-03:24:01.685|56=COEPEXCH|1=EXECLINKS|11=3|38=2|40=2|44=87|54=1|55=amzn|58=Buy shares|60=20200612-22:29:00.000|10=098|
20200612-03:24:01.688598000 : 8=FIX.4.4|9=77|35=8|34=11|49=COEPEXCH|52=20200612-03:24:01.687|56=EXECLINKS|37=3|39=0|150=0|10=189|
20200612-03:24:01.689377000 : 8=FIX.4.4|9=109|35=3|34=17|49=EXECLINKS|52=20200612-03:24:01.689|56=COEPEXCH|45=11|58=Required tag missing|371=6|372=8|373=1|10=203|
20200612-03:24:09.238027000 : 8=FIX.4.4|9=70|35=1|34=18|49=EXECLINKS|52=20200612-03:24:09.237|56=COEPEXCH|112=TEST|10=014|
20200612-03:24:09.238859000 : 8=FIX.4.4|9=70|35=0|34=12|49=COEPEXCH|52=20200612-03:24:09.238|56=EXECLINKS|112=TEST|10=008|
20200612-03:24:11.697751000 : 8=FIX.4.4|9=146|35=D|34=19|49=EXECLINKS|52=20200612-03:24:11.697|56=COEPEXCH|1=EXECLINKS|11=3|38=2|40=2|44=87|54=1|55=amzn|58=Buy shares|60=20200612-22:29:00.000|10=105|
20200612-03:24:11.699912000 : 8=FIX.4.4|9=77|35=8|34=13|49=COEPEXCH|52=20200612-03:24:11.699|56=EXECLINKS|37=3|39=0|150=0|10=195|
20200612-03:24:11.700702000 : 8=FIX.4.4|9=109|35=3|34=20|49=EXECLINKS|52=20200612-03:24:11.700|56=COEPEXCH|45=13|58=Required tag missing|371=6|372=8|373=1|10=184|
20200612-03:24:21.914498000 : 8=FIX.4.4|9=73|35=A|34=22|49=EXECLINKS|52=20200612-03:24:21.914|56=COEPEXCH|98=0|108=20|10=030|
20200612-03:24:56.317310000 : 8=FIX.4.4|9=73|35=A|34=25|49=EXECLINKS|52=20200612-03:24:56.317|56=COEPEXCH|98=0|108=20|10=038|
20200612-03:24:56.317637000 : 8=FIX.4.4|9=73|35=A|34=14|49=COEPEXCH|52=20200612-03:24:56.317|56=EXECLINKS|98=0|108=20|10=036|
20200612-03:24:56.317851000 : 8=FIX.4.4|9=71|35=2|34=15|49=COEPEXCH|52=20200612-03:24:56.317|56=EXECLINKS|7=21|16=0|10=169|
20200612-03:24:56.318050000 : 8=FIX.4.4|9=177|35=D|34=21|43=Y|49=EXECLINKS|52=20200612-03:24:56.318|56=COEPEXCH|122=20200612-03:24:21.708|1=EXECLINKS|11=3|38=2|40=2|44=87|54=1|55=amzn|58=Buy shares|60=20200612-22:29:00.000|10=093|
20200612-03:24:56.318782000 : 8=FIX.4.4|9=104|35=4|34=22|43=Y|49=EXECLINKS|52=20200612-03:24:56.318|56=COEPEXCH|122=20200612-03:24:56.318|36=23|123=Y|10=096|
20200612-03:24:56.318862000 : 8=FIX.4.4|9=177|35=D|34=23|43=Y|49=EXECLINKS|52=20200612-03:24:56.318|56=COEPEXCH|122=20200612-03:24:31.715|1=EXECLINKS|11=3|38=2|40=2|44=87|54=1|55=amzn|58=Buy shares|60=20200612-22:29:00.000|10=094|
20200612-03:24:56.318959000 : 8=FIX.4.4|9=177|35=D|34=24|43=Y|49=EXECLINKS|52=20200612-03:24:56.318|56=COEPEXCH|122=20200612-03:24:41.726|1=EXECLINKS|11=3|38=2|40=2|44=87|54=1|55=amzn|58=Buy shares|60=20200612-22:29:00.000|10=098|
20200612-03:24:56.319172000 : 8=FIX.4.4|9=104|35=4|34=25|43=Y|49=EXECLINKS|52=20200612-03:24:56.319|56=COEPEXCH|122=20200612-03:24:56.319|36=26|123=Y|10=104|
20200612-03:24:56.319441000 : 8=FIX.4.4|9=77|35=8|34=16|49=COEPEXCH|52=20200612-03:24:56.318|56=EXECLINKS|37=3|39=0|150=0|10=195|
20200612-03:24:56.320062000 : 8=FIX.4.4|9=109|35=3|34=26|49=EXECLINKS|52=20200612-03:24:56.319|56=COEPEXCH|45=16|58=Required tag missing|371=6|372=8|373=1|10=208|
20200612-03:24:56.321843000 : 8=FIX.4.4|9=77|35=8|34=17|49=COEPEXCH|52=20200612-03:24:56.321|56=EXECLINKS|37=3|39=0|150=0|10=190|
20200612-03:24:56.322060000 : 8=FIX.4.4|9=109|35=3|34=27|49=EXECLINKS|52=20200612-03:24:56.321|56=COEPEXCH|45=17|58=Required tag missing|371=6|372=8|373=1|10=203|
20200612-03:24:56.322914000 : 8=FIX.4.4|9=77|35=8|34=18|49=COEPEXCH|52=20200612-03:24:56.322|56=EXECLINKS|37=3|39=0|150=0|10=192|
20200612-03:24:56.323080000 : 8=FIX.4.4|9=109|35=3|34=28|49=EXECLINKS|52=20200612-03:24:56.322|56=COEPEXCH|45=18|58=Required tag missing|371=6|372=8|373=1|10=206|
20200612-03:24:56.358505000 : 8=FIX.4.4|9=146|35=D|34=29|49=EXECLINKS|52=20200612-03:24:56.358|56=COEPEXCH|1=EXECLINKS|11=3|38=2|40=2|44=87|54=1|55=amzn|58=Buy shares|60=20200612-22:29:00.000|10=109|
20200612-03:24:56.359563000 : 8=FIX.4.4|9=77|35=8|34=19|49=COEPEXCH|52=20200612-03:24:56.359|56=EXECLINKS|37=3|39=0|150=0|10=203|
20200612-03:24:56.359744000 : 8=FIX.4.4|9=109|35=3|34=30|49=EXECLINKS|52=20200612-03:24:56.359|56=COEPEXCH|45=19|58=Required tag missing|371=6|372=8|373=1|10=210|
20200612-03:25:06.370074000 : 8=FIX.4.4|9=146|35=D|34=31|49=EXECLINKS|52=20200612-03:25:06.369|56=COEPEXCH|1=EXECLINKS|11=3|38=2|40=2|44=87|54=1|55=amzn|58=Buy shares|60=20200612-22:29:00.000|10=100|
20200612-03:25:06.372673000 : 8=FIX.4.4|9=77|35=8|34=20|49=COEPEXCH|52=20200612-03:25:06.372|56=EXECLINKS|37=3|39=0|150=0|10=186|
20200612-03:25:06.373452000 : 8=FIX.4.4|9=109|35=3|34=32|49=EXECLINKS|52=20200612-03:25:06.373|56=COEPEXCH|45=20|58=Required tag missing|371=6|372=8|373=1|10=196|
20200612-03:25:16.378852000 : 8=FIX.4.4|9=146|35=D|34=33|49=EXECLINKS|52=20200612-03:25:16.378|56=COEPEXCH|1=EXECLINKS|11=3|38=2|40=2|44=87|54=1|55=amzn|58=Buy shares|60=20200612-22:29:00.000|10=103|
20200612-03:25:16.381246000 : 8=FIX.4.4|9=77|35=8|34=21|49=COEPEXCH|52=20200612-03:25:16.380|56=EXECLINKS|37=3|39=0|150=0|10=187|
20200612-03:25:16.381950000 : 8=FIX.4.4|9=109|35=3|34=34|49=EXECLINKS|52=20200612-03:25:16.381|56=COEPEXCH|45=21|58=Required tag missing|371=6|372=8|373=1|10=199|
20200612-03:25:20.178290000 : 8=FIX.4.4|9=70|35=1|34=35|49=EXECLINKS|52=20200612-03:25:20.177|56=COEPEXCH|112=TEST|10=010|
20200612-03:25:20.179381000 : 8=FIX.4.4|9=70|35=0|34=22|49=COEPEXCH|52=20200612-03:25:20.178|56=EXECLINKS|112=TEST|10=006|
20200612-03:25:26.384103000 : 8=FIX.4.4|9=146|35=D|34=36|49=EXECLINKS|52=20200612-03:25:26.383|56=COEPEXCH|1=EXECLINKS|11=3|38=2|40=2|44=87|54=1|55=amzn|58=Buy shares|60=20200612-22:29:00.000|10=103|
20200612-03:25:26.386667000 : 8=FIX.4.4|9=77|35=8|34=23|49=COEPEXCH|52=20200612-03:25:26.385|56=EXECLINKS|37=3|39=0|150=0|10=195|
20200612-03:25:26.387534000 : 8=FIX.4.4|9=109|35=3|34=37|49=EXECLINKS|52=20200612-03:25:26.387|56=COEPEXCH|45=23|58=Required tag missing|371=6|372=8|373=1|10=211|
20200612-03:25:36.395924000 : 8=FIX.4.4|9=146|35=D|34=38|49=EXECLINKS|52=20200612-03:25:36.395|56=COEPEXCH|1=EXECLINKS|11=3|38=2|40=2|44=87|54=1|55=amzn|58=Buy shares|60=20200612-22:29:00.000|10=109|
20200612-03:25:36.398233000 : 8=FIX.4.4|9=77|35=8|34=24|49=COEPEXCH|52=20200612-03:25:36.397|56=EXECLINKS|37=3|39=0|150=0|10=200|
20200612-03:25:36.398988000 : 8=FIX.4.4|9=109|35=3|34=39|49=EXECLINKS|52=20200612-03:25:36.398|56=COEPEXCH|45=24|58=Required tag missing|371=6|372=8|373=1|10=217|
20200612-03:25:44.859892000 : 8=FIX.4.4|9=70|35=1|34=40|49=EXECLINKS|52=20200612-03:25:44.859|56=COEPEXCH|112=TEST|10=019|
20200612-03:25:44.861192000 : 8=FIX.4.4|9=70|35=0|34=25|49=COEPEXCH|52=20200612-03:25:44.860|56=EXECLINKS|112=TEST|10=013|
20200612-03:25:46.407725000 : 8=FIX.4.4|9=146|35=D|34=41|49=EXECLINKS|52=20200612-03:25:46.407|56=COEPEXCH|1=EXECLINKS|11=3|38=2|40=2|44=87|54=1|55=amzn|58=Buy shares|60=20200612-22:29:00.000|10=098|
20200612-03:25:46.409961000 : 8=FIX.4.4|9=77|35=8|34=26|49=COEPEXCH|52=20200612-03:25:46.409|56=EXECLINKS|37=3|39=0|150=0|10=197|
20200612-03:25:46.410802000 : 8=FIX.4.4|9=109|35=3|34=42|49=EXECLINKS|52=20200612-03:25:46.410|56=COEPEXCH|45=26|58=Required tag missing|371=6|372=8|373=1|10=199|
20200612-03:25:56.418266000 : 8=FIX.4.4|9=146|35=D|34=43|49=EXECLINKS|52=20200612-03:25:56.418|56=COEPEXCH|1=EXECLINKS|11=3|38=2|40=2|44=87|54=1|55=amzn|58=Buy shares|60=20200612-22:29:00.000|10=103|
20200612-03:25:56.419078000 : 8=FIX.4.4|9=77|35=8|34=27|49=COEPEXCH|52=20200612-03:25:56.418|56=EXECLINKS|37=3|39=0|150=0|10=199|
20200612-03:25:56.419336000 : 8=FIX.4.4|9=109|35=3|34=44|49=EXECLINKS|52=20200612-03:25:56.419|56=COEPEXCH|45=27|58=Required tag missing|371=6|372=8|373=1|10=212|
20200612-03:26:06.428945000 : 8=FIX.4.4|9=146|35=D|34=45|49=EXECLINKS|52=20200612-03:26:06.428|56=COEPEXCH|1=EXECLINKS|11=3|38=2|40=2|44=87|54=1|55=amzn|58=Buy shares|60=20200612-22:29:00.000|10=102|
20200612-03:26:06.433003000 : 8=FIX.4.4|9=77|35=8|34=28|49=COEPEXCH|52=20200612-03:26:06.431|56=EXECLINKS|37=3|39=0|150=0|10=191|
20200612-03:26:06.434545000 : 8=FIX.4.4|9=109|35=3|34=46|49=EXECLINKS|52=20200612-03:26:06.434|56=COEPEXCH|45=28|58=Required tag missing|371=6|372=8|373=1|10=208|
20200612-03:26:08.291876000 : 8=FIX.4.4|9=70|35=1|34=47|49=EXECLINKS|52=20200612-03:26:08.291|56=COEPEXCH|112=TEST|10=017|
20200612-03:26:08.292976000 : 8=FIX.4.4|9=70|35=0|34=29|49=COEPEXCH|52=20200612-03:26:08.292|56=EXECLINKS|112=TEST|10=017|
20200612-03:26:16.438935000 : 8=FIX.4.4|9=146|35=D|34=48|49=EXECLINKS|52=20200612-03:26:16.438|56=COEPEXCH|1=EXECLINKS|11=3|38=2|40=2|44=87|54=1|55=amzn|58=Buy shares|60=20200612-22:29:00.000|10=107|
20200612-03:26:16.441149000 : 8=FIX.4.4|9=77|35=8|34=30|49=COEPEXCH|52=20200612-03:26:16.440|56=EXECLINKS|37=3|39=0|150=0|10=185|
20200612-03:26:16.442016000 : 8=FIX.4.4|9=109|35=3|34=49|49=EXECLINKS|52=20200612-03:26:16.441|56=COEPEXCH|45=30|58=Required tag missing|371=6|372=8|373=1|10=203|
20200612-03:26:26.450774000 : 8=FIX.4.4|9=146|35=D|34=50|49=EXECLINKS|52=20200612-03:26:26.450|56=COEPEXCH|1=EXECLINKS|11=3|38=2|40=2|44=87|54=1|55=amzn|58=Buy shares|60=20200612-22:29:00.000|10=095|
20200612-03:26:26.453015000 : 8=FIX.4.4|9=77|35=8|34=31|49=COEPEXCH|52=20200612-03:26:26.452|56=EXECLINKS|37=3|39=0|150=0|10=190|
20200612-03:26:26.453852000 : 8=FIX.4.4|9=109|35=3|34=51|49=EXECLINKS|52=20200612-03:26:26.453|56=COEPEXCH|45=31|58=Required tag missing|371=6|372=8|373=1|10=201|
20200612-03:26:32.888264000 : 8=FIX.4.4|9=70|35=1|34=52|49=EXECLINKS|52=20200612-03:26:32.887|56=COEPEXCH|112=TEST|10=021|
20200612-03:26:32.889283000 : 8=FIX.4.4|9=70|35=0|34=32|49=COEPEXCH|52=20200612-03:26:32.888|56=EXECLINKS|112=TEST|10=019|
20200612-03:26:36.462303000 : 8=FIX.4.4|9=146|35=D|34=53|49=EXECLINKS|52=20200612-03:26:36.461|56=COEPEXCH|1=EXECLINKS|11=3|38=2|40=2|44=87|54=1|55=amzn|58=Buy shares|60=20200612-22:29:00.000|10=101|
20200612-03:26:36.464939000 : 8=FIX.4.4|9=77|35=8|34=33|49=COEPEXCH|52=20200612-03:26:36.464|56=EXECLINKS|37=3|39=0|150=0|10=196|
20200612-03:26:36.465708000 : 8=FIX.4.4|9=109|35=3|34=54|49=EXECLINKS|52=20200612-03:26:36.465|56=COEPEXCH|45=33|58=Required tag missing|371=6|372=8|373=1|10=210|
20200612-03:30:37.138851000 : 8=FIX.4.4|9=73|35=A|34=55|49=EXECLINKS|52=20200612-03:30:37.138|56=COEPEXCH|98=0|108=20|10=038|
20200612-03:30:37.139170000 : 8=FIX.4.4|9=73|35=A|34=34|49=COEPEXCH|52=20200612-03:30:37.139|56=EXECLINKS|98=0|108=20|10=036|
20200612-03:30:37.167870000 : 8=FIX.4.4|9=146|35=D|34=56|49=EXECLINKS|52=20200612-03:30:37.167|56=COEPEXCH|1=EXECLINKS|11=3|38=2|40=2|44=87|54=1|55=amzn|58=Buy shares|60=20200612-22:29:00.000|10=103|
20200612-03:30:37.168522000 : 8=FIX.4.4|9=77|35=8|34=35|49=COEPEXCH|52=20200612-03:30:37.168|56=EXECLINKS|37=3|39=0|150=0|10=195|
20200612-03:30:37.168733000 : 8=FIX.4.4|9=109|35=3|34=57|49=EXECLINKS|52=20200612-03:30:37.168|56=COEPEXCH|45=35|58=Required tag missing|371=6|372=8|373=1|10=211|
20200612-03:30:37.168977000 : 8=FIX.4.4|9=99|35=W|34=36|49=COEPEXCH|52=20200612-03:30:37.168|56=EXECLINKS|55=amzn|268=1|269=0|270=87|271=2|37=3|10=213|
20200612-03:30:47.179011000 : 8=FIX.4.4|9=146|35=D|34=58|49=EXECLINKS|52=20200612-03:30:47.178|56=COEPEXCH|1=EXECLINKS|11=3|38=2|40=2|44=87|54=1|55=amzn|58=Buy shares|60=20200612-22:29:00.000|10=108|
20200612-03:30:47.181413000 : 8=FIX.4.4|9=77|35=8|34=37|49=COEPEXCH|52=20200612-03:30:47.180|56=EXECLINKS|37=3|39=0|150=0|10=192|
20200612-03:30:47.182268000 : 8=FIX.4.4|9=109|35=3|34=59|49=EXECLINKS|52=20200612-03:30:47.181|56=COEPEXCH|45=37|58=Required tag missing|371=6|372=8|373=1|10=211|
20200612-03:30:47.183396000 : 8=FIX.4.4|9=123|35=W|34=38|49=COEPEXCH|52=20200612-03:30:47.182|56=EXECLINKS|55=amzn|268=2|269=0|270=87|271=2|37=3|269=0|270=87|271=2|37=3|10=051|
20200612-03:31:57.353180000 : 8=FIX.4.4|9=73|35=A|34=60|49=EXECLINKS|52=20200612-03:31:57.353|56=COEPEXCH|98=0|108=20|10=036|
20200612-03:31:57.353578000 : 8=FIX.4.4|9=73|35=A|34=39|49=COEPEXCH|52=20200612-03:31:57.353|56=EXECLINKS|98=0|108=20|10=042|
20200612-03:31:57.383078000 : 8=FIX.4.4|9=146|35=D|34=61|49=EXECLINKS|52=20200612-03:31:57.382|56=COEPEXCH|1=EXECLINKS|11=3|38=2|40=2|44=87|54=1|55=amzn|58=Buy shares|60=20200612-22:29:00.000|10=101|
20200612-03:31:57.384257000 : 8=FIX.4.4|9=77|35=8|34=40|49=COEPEXCH|52=20200612-03:31:57.383|56=EXECLINKS|37=3|39=0|150=0|10=193|
20200612-03:31:57.384431000 : 8=FIX.4.4|9=109|35=3|34=62|49=EXECLINKS|52=20200612-03:31:57.384|56=COEPEXCH|45=40|58=Required tag missing|371=6|372=8|373=1|10=206|
20200612-03:31:57.384469000 : 8=FIX.4.4|9=99|35=W|34=41|49=COEPEXCH|52=20200612-03:31:57.384|56=EXECLINKS|55=amzn|268=1|269=0|270=87|271=2|37=3|10=212|
20200612-03:32:07.391225000 : 8=FIX.4.4|9=146|35=D|34=63|49=EXECLINKS|52=20200612-03:32:07.391|56=COEPEXCH|1=EXECLINKS|11=3|38=2|40=2|44=87|54=1|55=amzn|58=Buy shares|60=20200612-22:29:00.000|10=099|
20200612-03:32:07.392069000 : 8=FIX.4.4|9=77|35=8|34=42|49=COEPEXCH|52=20200612-03:32:07.391|56=EXECLINKS|37=3|39=0|150=0|10=190|
20200612-03:32:07.392286000 : 8=FIX.4.4|9=109|35=3|34=64|49=EXECLINKS|52=20200612-03:32:07.392|56=COEPEXCH|45=42|58=Required tag missing|371=6|372=8|373=1|10=205|
20200612-03:32:07.392732000 : 8=FIX.4.4|9=123|35=W|34=43|49=COEPEXCH|52=20200612-03:32:07.392|56=EXECLINKS|55=amzn|268=2|269=0|270=87|271=2|37=3|269=0|270=87|271=2|37=3|10=048|
20200612-03:37:09.017725000 : 8=FIX.4.4|9=73|35=A|34=65|49=EXECLINKS|52=20200612-03:37:09.017|56=COEPEXCH|98=0|108=20|10=041|
20200612-03:37:09.018170000 : 8=FIX.4.4|9=73|35=A|34=44|49=COEPEXCH|52=20200612-03:37:09.018|56=EXECLINKS|98=0|108=20|10=039|
20200612-03:37:09.046619000 : 8=FIX.4.4|9=146|35=D|34=66|49=EXECLINKS|52=20200612-03:37:09.046|56=COEPEXCH|1=EXECLINKS|11=3|38=2|40=2|44=87|54=1|55=amzn|58=Buy shares|60=20200612-22:29:00.000|10=106|
20200612-03:37:09.047261000 : 8=FIX.4.4|9=77|35=8|34=45|49=COEPEXCH|52=20200612-03:37:09.047|56=EXECLINKS|37=3|39=0|150=0|10=198|
20200612-03:37:09.047448000 : 8=FIX.4.4|9=109|35=3|34=67|49=EXECLINKS|52=20200612-03:37:09.047|56=COEPEXCH|45=45|58=Required tag missing|371=6|372=8|373=1|10=215|
20200612-03:37:19.055369000 : 8=FIX.4.4|9=146|35=D|34=68|49=EXECLINKS|52=20200612-03:37:19.055|56=COEPEXCH|1=EXECLINKS|11=3|38=2|40=2|44=87|54=1|55=amzn|58=Buy shares|60=20200612-22:29:00.000|10=109|
20200612-03:37:19.057872000 : 8=FIX.4.4|9=77|35=8|34=46|49=COEPEXCH|52=20200612-03:37:19.057|56=EXECLINKS|37=3|39=0|150=0|10=201|
20200612-03:37:19.058527000 : 8=FIX.4.4|9=109|35=3|34=69|49=EXECLINKS|52=20200612-03:37:19.058|56=COEPEXCH|45=46|58=Required tag missing|371=6|372=8|373=1|10=221|
20200612-03:38:18.209683000 : 8=FIX.4.4|9=73|35=A|34=70|49=EXECLINKS|52=20200612-03:38:18.209|56=COEPEXCH|98=0|108=20|10=041|
20200612-03:38:18.210095000 : 8=FIX.4.4|9=73|35=A|34=47|49=COEPEXCH|52=20200612-03:38:18.209|56=EXECLINKS|98=0|108=20|10=045|
20200612-03:38:18.238372000 : 8=FIX.4.4|9=146|35=D|34=71|49=EXECLINKS|52=20200612-03:38:18.238|56=COEPEXCH|1=EXECLINKS|11=3|38=2|40=2|44=87|54=1|55=amzn|58=Buy shares|60=20200612-22:29:00.000|10=106|
20200612-03:38:18.239098000 : 8=FIX.4.4|9=77|35=8|34=48|49=COEPEXCH|52=20200612-03:38:18.238|56=EXECLINKS|37=3|39=0|150=0|10=204|
20200612-03:38:18.239290000 : 8=FIX.4.4|9=109|35=3|34=72|49=EXECLINKS|52=20200612-03:38:18.239|56=COEPEXCH|45=48|58=Required tag missing|371=6|372=8|373=1|10=218|
20200612-03:38:28.249911000 : 8=FIX.4.4|9=146|35=D|34=73|49=EXECLINKS|52=20200612-03:38:28.249|56=COEPEXCH|1=EXECLINKS|11=3|38=2|40=2|44=87|54=1|55=amzn|58=Buy shares|60=20200612-22:29:00.000|10=111|
20200612-03:38:28.252198000 : 8=FIX.4.4|9=77|35=8|34=49|49=COEPEXCH|52=20200612-03:38:28.251|56=EXECLINKS|37=3|39=0|150=0|10=201|
20200612-03:38:28.253019000 : 8=FIX.4.4|9=109|35=3|34=74|49=EXECLINKS|52=20200612-03:38:28.252|56=COEPEXCH|45=49|58=Required tag missing|371=6|372=8|373=1|10=217|
20200612-03:39:09.734719000 : 8=FIX.4.4|9=73|35=A|34=75|49=EXECLINKS|52=20200612-03:39:09.734|56=COEPEXCH|98=0|108=20|10=050|
20200612-03:39:09.735110000 : 8=FIX.4.4|9=73|35=A|34=50|49=COEPEXCH|52=20200612-03:39:09.734|56=EXECLINKS|98=0|108=20|10=043|
20200612-03:39:09.763369000 : 8=FIX.4.4|9=146|35=D|34=76|49=EXECLINKS|52=20200612-03:39:09.763|56=COEPEXCH|1=EXECLINKS|11=3|38=2|40=2|44=87|54=1|55=amzn|58=Buy shares|60=20200612-22:29:00.000|10=115|
20200612-03:39:09.764013000 : 8=FIX.4.4|9=77|35=8|34=51|49=COEPEXCH|52=20200612-03:39:09.763|56=EXECLINKS|37=3|39=0|150=0|10=202|
20200612-03:39:09.764224000 : 8=FIX.4.4|9=109|35=3|34=77|49=EXECLINKS|52=20200612-03:39:09.764|56=COEPEXCH|45=51|58=Required tag missing|371=6|372=8|373=1|10=221|
20200612-03:39:19.774997000 : 8=FIX.4.4|9=146|35=D|34=78|49=EXECLINKS|52=20200612-03:39:19.774|56=COEPEXCH|1=EXECLINKS|11=3|38=2|40=2|44=87|54=1|55=amzn|58=Buy shares|60=20200612-22:29:00.000|10=120|
20200612-03:39:19.777260000 : 8=FIX.4.4|9=77|35=8|34=52|49=COEPEXCH|52=20200612-03:39:19.776|56=EXECLINKS|37=3|39=0|150=0|10=208|
20200612-03:39:19.778042000 : 8=FIX.4.4|9=109|35=3|34=79|49=EXECLINKS|52=20200612-03:39:19.777|56=COEPEXCH|45=52|58=Required tag missing|371=6|372=8|373=1|10=229|
20200612-03:39:30.665105000 : 8=FIX.4.4|9=73|35=A|34=80|49=EXECLINKS|52=20200612-03:39:30.664|56=COEPEXCH|98=0|108=20|10=042|
20200612-03:39:30.665457000 : 8=FIX.4.4|9=73|35=A|34=53|49=COEPEXCH|52=20200612-03:39:30.665|56=EXECLINKS|98=0|108=20|10=043|
20200612-03:39:30.693848000 : 8=FIX.4.4|9=146|35=D|34=81|49=EXECLINKS|52=20200612-03:39:30.693|56=COEPEXCH|1=EXECLINKS|11=3|38=2|40=2|44=87|54=1|55=amzn|58=Buy shares|60=20200612-22:29:00.000|10=107|
20200612-03:39:30.694445000 : 8=FIX.4.4|9=77|35=8|34=54|49=COEPEXCH|52=20200612-03:39:30.694|56=EXECLINKS|37=3|39=0|150=0|10=202|
20200612-03:39:30.694638000 : 8=FIX.4.4|9=109|35=3|34=82|49=EXECLINKS|52=20200612-03:39:30.694|56=COEPEXCH|45=54|58=Required tag missing|371=6|372=8|373=1|10=216|
20200612-03:40:41.235176000 : 8=FIX.4.4|9=73|35=A|34=84|49=EXECLINKS|52=20200612-03:40:41.235|56=COEPEXCH|98=0|108=20|10=034|
20200612-03:40:41.235564000 : 8=FIX.4.4|9=73|35=A|34=55|49=COEPEXCH|52=20200612-03:40:41.235|56=EXECLINKS|98=0|108=20|10=032|
20200612-03:40:41.235868000 : 8=FIX.4.4|9=71|35=2|34=56|49=COEPEXCH|52=20200612-03:40:41.235|56=EXECLINKS|7=83|16=0|10=173|
20200612-03:40:41.235991000 : 8=FIX.4.4|9=177|35=D|34=83|43=Y|49=EXECLINKS|52=20200612-03:40:41.235|56=COEPEXCH|122=20200612-03:39:40.705|1=EXECLINKS|11=3|38=2|40=2|44=87|54=1|55=amzn|58=Buy shares|60=20200612-22:29:00.000|10=095|
20200612-03:40:41.236078000 : 8=FIX.4.4|9=104|35=4|34=84|43=Y|49=EXECLINKS|52=20200612-03:40:41.236|56=COEPEXCH|122=20200612-03:40:41.236|36=85|123=Y|10=094|
20200612-03:40:41.236696000 : 8=FIX.4.4|9=77|35=8|34=57|49=COEPEXCH|52=20200612-03:40:41.236|56=EXECLINKS|37=3|39=0|150=0|10=191|
20200612-03:40:41.236873000 : 8=FIX.4.4|9=109|35=3|34=85|49=EXECLINKS|52=20200612-03:40:41.236|56=COEPEXCH|45=57|58=Required tag missing|371=6|372=8|373=1|10=208|
20200612-03:40:41.267643000 : 8=FIX.4.4|9=146|35=D|34=86|49=EXECLINKS|52=20200612-03:40:41.267|56=COEPEXCH|1=EXECLINKS|11=3|38=2|40=2|44=87|54=1|55=amzn|58=Buy shares|60=20200612-22:29:00.000|10=103|
20200612-03:40:41.268273000 : 8=FIX.4.4|9=77|35=8|34=58|49=COEPEXCH|52=20200612-03:40:41.268|56=EXECLINKS|37=3|39=0|150=0|10=197|
20200612-03:40:41.268447000 : 8=FIX.4.4|9=109|35=3|34=87|49=EXECLINKS|52=20200612-03:40:41.268|56=COEPEXCH|45=58|58=Required tag missing|371=6|372=8|373=1|10=216|
20200612-03:42:14.253571000 : 8=FIX.4.4|9=73|35=A|34=88|49=EXECLINKS|52=20200612-03:42:14.253|56=COEPEXCH|98=0|108=20|10=040|
20200612-03:42:14.253886000 : 8=FIX.4.4|9=73|35=A|34=59|49=COEPEXCH|52=20200612-03:42:14.253|56=EXECLINKS|98=0|108=20|10=038|
20200612-03:42:14.282319000 : 8=FIX.4.4|9=146|35=D|34=89|49=EXECLINKS|52=20200612-03:42:14.282|56=COEPEXCH|1=EXECLINKS|11=3|38=2|40=2|44=87|54=1|55=amzn|58=Buy shares|60=20200612-22:29:00.000|10=105|
20200612-03:42:14.283026000 : 8=FIX.4.4|9=77|35=8|34=60|49=COEPEXCH|52=20200612-03:42:14.282|56=EXECLINKS|37=3|39=0|150=0|10=188|
20200612-03:42:14.283195000 : 8=FIX.4.4|9=109|35=3|34=90|49=EXECLINKS|52=20200612-03:42:14.283|56=COEPEXCH|45=60|58=Required tag missing|371=6|372=8|373=1|10=202|
20200612-03:42:24.293370000 : 8=FIX.4.4|9=146|35=D|34=91|49=EXECLINKS|52=20200612-03:42:24.293|56=COEPEXCH|1=EXECLINKS|11=3|38=2|40=2|44=87|54=1|55=amzn|58=Buy shares|60=20200612-22:29:00.000|10=101|
20200612-03:42:24.294966000 : 8=FIX.4.4|9=77|35=8|34=61|49=COEPEXCH|52=20200612-03:42:24.294|56=EXECLINKS|37=3|39=0|150=0|10=193|
20200612-03:42:24.295390000 : 8=FIX.4.4|9=109|35=3|34=92|49=EXECLINKS|52=20200612-03:42:24.295|56=COEPEXCH|45=61|58=Required tag missing|371=6|372=8|373=1|10=209|
20200612-03:45:07.055116000 : 8=FIX.4.4|9=73|35=A|34=93|49=EXECLINKS|52=20200612-03:45:07.054|56=COEPEXCH|98=0|108=20|10=040|
20200612-03:45:07.055520000 : 8=FIX.4.4|9=73|35=A|34=62|49=COEPEXCH|52=20200612-03:45:07.055|56=EXECLINKS|98=0|108=20|10=037|
20200612-03:45:07.084272000 : 8=FIX.4.4|9=146|35=D|34=94|49=EXECLINKS|52=20200612-03:45:07.084|56=COEPEXCH|1=EXECLINKS|11=3|38=2|40=2|44=87|54=1|55=amzn|58=Buy shares|60=20200612-22:29:00.000|10=106|
20200612-03:45:07.084934000 : 8=FIX.4.4|9=77|35=8|34=63|49=COEPEXCH|52=20200612-03:45:07.084|56=EXECLINKS|37=3|39=0|150=0|10=196|
20200612-03:45:07.085136000 : 8=FIX.4.4|9=109|35=3|34=95|49=EXECLINKS|52=20200612-03:45:07.085|56=COEPEXCH|45=63|58=Required tag missing|371=6|372=8|373=1|10=215|
20200612-03:46:15.966746000 : 8=FIX.4.4|9=73|35=A|34=96|49=EXECLINKS|52=20200612-03:46:15.966|56=COEPEXCH|98=0|108=20|10=055|
20200612-03:46:15.967065000 : 8=FIX.4.4|9=73|35=A|34=64|49=COEPEXCH|52=20200612-03:46:15.966|56=EXECLINKS|98=0|108=20|10=050|
20200612-03:46:15.995589000 : 8=FIX.4.4|9=146|35=D|34=97|49=EXECLINKS|52=20200612-03:46:15.995|56=COEPEXCH|1=EXECLINKS|11=3|38=2|40=2|44=87|54=1|55=amzn|58=Buy shares|60=20200612-22:29:00.000|10=120|
20200612-03:46:15.996306000 : 8=FIX.4.4|9=77|35=8|34=65|49=COEPEXCH|52=20200612-03:46:15.996|56=EXECLINKS|37=3|39=0|150=0|10=210|
20200612-03:46:15.996490000 : 8=FIX.4.4|9=109|35=3|34=98|49=EXECLINKS|52=20200612-03:46:15.996|56=COEPEXCH|45=65|58=Required tag missing|371=6|372=8|373=1|10=231|
20200612-03:46:26.007170000 : 8=FIX.4.4|9=146|35=D|34=99|49=EXECLINKS|52=20200612-03:46:26.006|56=COEPEXCH|1=EXECLINKS|11=3|38=2|40=2|44=87|54=1|55=amzn|58=Buy shares|60=20200612-22:29:00.000|10=107|
20200612-03:46:26.009326000 : 8=FIX.4.4|9=77|35=8|34=66|49=COEPEXCH|52=20200612-03:46:26.008|56=EXECLINKS|37=3|39=0|150=0|10=197|
20200612-03:46:26.022813000 : 8=FIX.4.4|9=110|35=3|34=100|49=EXECLINKS|52=20200612-03:46:26.009|56=COEPEXCH|45=66|58=Required tag missing|371=6|372=8|373=1|10=243|
20200612-03:47:48.117802000 : 8=FIX.4.4|9=74|35=A|34=101|49=EXECLINKS|52=20200612-03:47:48.117|56=COEPEXCH|98=0|108=20|10=086|
20200612-03:47:48.118202000 : 8=FIX.4.4|9=73|35=A|34=67|49=COEPEXCH|52=20200612-03:47:48.118|56=EXECLINKS|98=0|108=20|10=049|
20200612-03:47:48.146667000 : 8=FIX.4.4|9=147|35=D|34=102|49=EXECLINKS|52=20200612-03:47:48.146|56=COEPEXCH|1=EXECLINKS|11=3|38=2|40=2|44=87|54=1|55=amzn|58=Buy shares|60=20200612-22:29:00.000|10=151|
20200612-03:47:48.147361000 : 8=FIX.4.4|9=77|35=8|34=68|49=COEPEXCH|52=20200612-03:47:48.147|56=EXECLINKS|37=3|39=0|150=0|10=208|
20200612-03:47:48.147572000 : 8=FIX.4.4|9=110|35=3|34=103|49=EXECLINKS|52=20200612-03:47:48.147|56=COEPEXCH|45=68|58=Required tag missing|371=6|372=8|373=1|10=000|
20200612-03:47:48.147855000 : 8=FIX.4.4|9=99|35=W|34=69|49=COEPEXCH|52=20200612-03:47:48.147|56=EXECLINKS|55=amzn|268=1|269=0|270=87|271=2|37=3|10=226|
20200612-03:47:58.158287000 : 8=FIX.4.4|9=147|35=D|34=104|49=EXECLINKS|52=20200612-03:47:58.157|56=COEPEXCH|1=EXECLINKS|11=3|38=2|40=2|44=87|54=1|55=amzn|58=Buy shares|60=20200612-22:29:00.000|10=156|
20200612-03:47:58.159683000 : 8=FIX.4.4|9=77|35=8|34=70|49=COEPEXCH|52=20200612-03:47:58.159|56=EXECLINKS|37=3|39=0|150=0|10=205|
20200612-03:47:58.159862000 : 8=FIX.4.4|9=110|35=3|34=105|49=EXECLINKS|52=20200612-03:47:58.159|56=COEPEXCH|45=70|58=Required tag missing|371=6|372=8|373=1|10=255|
20200612-03:47:58.160104000 : 8=FIX.4.4|9=123|35=W|34=71|49=COEPEXCH|52=20200612-03:47:58.159|56=EXECLINKS|55=amzn|268=2|269=0|270=87|271=2|37=3|269=0|270=87|271=2|37=3|10=062|
20200612-03:48:20.835103000 : 8=FIX.4.4|9=74|35=A|34=106|49=EXECLINKS|52=20200612-03:48:20.834|56=COEPEXCH|98=0|108=20|10=088|
20200612-03:48:20.835408000 : 8=FIX.4.4|9=73|35=A|34=72|49=COEPEXCH|52=20200612-03:48:20.835|56=EXECLINKS|98=0|108=20|10=042|
20200612-03:48:20.863796000 : 8=FIX.4.4|9=147|35=D|34=107|49=EXECLINKS|52=20200612-03:48:20.863|56=COEPEXCH|1=EXECLINKS|11=3|38=2|40=2|44=87|54=1|55=amzn|58=Buy shares|60=20200612-22:29:00.000|10=153|
20200612-03:48:20.864501000 : 8=FIX.4.4|9=77|35=8|34=73|49=COEPEXCH|52=20200612-03:48:20.864|56=EXECLINKS|37=3|39=0|150=0|10=201|
20200612-03:48:20.864716000 : 8=FIX.4.4|9=110|35=3|34=108|49=EXECLINKS|52=20200612-03:48:20.864|56=COEPEXCH|45=73|58=Required tag missing|371=6|372=8|373=1|10=254|
20200612-03:48:20.864956000 : 8=FIX.4.4|9=99|35=W|34=74|49=COEPEXCH|52=20200612-03:48:20.864|56=EXECLINKS|55=amzn|268=1|269=0|270=87|271=2|37=3|10=219|
20200612-03:48:30.874657000 : 8=FIX.4.4|9=147|35=D|34=109|49=EXECLINKS|52=20200612-03:48:30.874|56=COEPEXCH|1=EXECLINKS|11=3|38=2|40=2|44=87|54=1|55=amzn|58=Buy shares|60=20200612-22:29:00.000|10=158|
20200612-03:48:30.875874000 : 8=FIX.4.4|9=77|35=8|34=75|49=COEPEXCH|52=20200612-03:48:30.875|56=EXECLINKS|37=3|39=0|150=0|10=206|
20200612-03:48:30.876285000 : 8=FIX.4.4|9=110|35=3|34=110|49=EXECLINKS|52=20200612-03:48:30.876|56=COEPEXCH|45=75|58=Required tag missing|371=6|372=8|373=1|10=253|
20200612-03:48:30.876851000 : 8=FIX.4.4|9=123|35=W|34=76|49=COEPEXCH|52=20200612-03:48:30.876|56=EXECLINKS|55=amzn|268=2|269=0|270=87|271=2|37=3|269=0|270=87|271=2|37=3|10=064|
20200612-03:54:13.041636000 : 8=FIX.4.4|9=74|35=A|34=111|49=EXECLINKS|52=20200612-03:54:13.041|56=COEPEXCH|98=0|108=20|10=073|
20200612-03:54:13.041934000 : 8=FIX.4.4|9=73|35=A|34=77|49=COEPEXCH|52=20200612-03:54:13.041|56=EXECLINKS|98=0|108=20|10=035|
20200612-03:54:13.070659000 : 8=FIX.4.4|9=147|35=D|34=112|49=EXECLINKS|52=20200612-03:54:13.070|56=COEPEXCH|1=EXECLINKS|11=3|38=2|40=2|44=87|54=1|55=amzn|58=Buy shares|60=20200612-22:29:00.000|10=138|
20200612-03:54:13.071328000 : 8=FIX.4.4|9=77|35=8|34=78|49=COEPEXCH|52=20200612-03:54:13.071|56=EXECLINKS|37=3|39=0|150=0|10=195|
20200612-03:54:13.071545000 : 8=FIX.4.4|9=110|35=3|34=113|49=EXECLINKS|52=20200612-03:54:13.071|56=COEPEXCH|45=78|58=Required tag missing|371=6|372=8|373=1|10=244|
20200612-03:54:43.362130000 : 8=FIX.4.4|9=74|35=A|34=117|49=EXECLINKS|52=20200612-03:54:43.361|56=COEPEXCH|98=0|108=20|10=087|
20200612-03:55:11.833866000 : 8=FIX.4.4|9=74|35=A|34=120|49=EXECLINKS|52=20200612-03:55:11.833|56=COEPEXCH|98=0|108=20|10=081|
20200612-03:55:11.834310000 : 8=FIX.4.4|9=73|35=A|34=79|49=COEPEXCH|52=20200612-03:55:11.834|56=EXECLINKS|98=0|108=20|10=046|
20200612-03:55:11.834660000 : 8=FIX.4.4|9=72|35=2|34=80|49=COEPEXCH|52=20200612-03:55:11.834|56=EXECLINKS|7=112|16=0|10=220|
20200612-03:55:11.834785000 : 8=FIX.4.4|9=178|35=D|34=112|43=Y|49=EXECLINKS|52=20200612-03:55:11.834|56=COEPEXCH|122=20200612-03:54:13.070|1=EXECLINKS|11=3|38=2|40=2|44=87|54=1|55=amzn|58=Buy shares|60=20200612-22:29:00.000|10=137|
20200612-03:55:11.834903000 : 8=FIX.4.4|9=106|35=4|34=113|43=Y|49=EXECLINKS|52=20200612-03:55:11.834|56=COEPEXCH|122=20200612-03:55:11.834|36=114|123=Y|10=192|
20200612-03:55:11.834944000 : 8=FIX.4.4|9=178|35=D|34=114|43=Y|49=EXECLINKS|52=20200612-03:55:11.834|56=COEPEXCH|122=20200612-03:54:23.081|1=EXECLINKS|11=3|38=2|40=2|44=87|54=1|55=amzn|58=Buy shares|60=20200612-22:29:00.000|10=142|
20200612-03:55:11.835005000 : 8=FIX.4.4|9=178|35=D|34=115|43=Y|49=EXECLINKS|52=20200612-03:55:11.834|56=COEPEXCH|122=20200612-03:54:33.084|1=EXECLINKS|11=3|38=2|40=2|44=87|54=1|55=amzn|58=Buy shares|60=20200612-22:29:00.000|10=147|
20200612-03:55:11.835066000 : 8=FIX.4.4|9=178|35=D|34=116|43=Y|49=EXECLINKS|52=20200612-03:55:11.835|56=COEPEXCH|122=20200612-03:54:43.095|1=EXECLINKS|11=3|38=2|40=2|44=87|54=1|55=amzn|58=Buy shares|60=20200612-22:29:00.000|10=152|
20200612-03:55:11.835145000 : 8=FIX.4.4|9=106|35=4|34=117|43=Y|49=EXECLINKS|52=20200612-03:55:11.835|56=COEPEXCH|122=20200612-03:55:11.835|36=118|123=Y|10=202|
20200612-03:55:11.835182000 : 8=FIX.4.4|9=178|35=D|34=118|43=Y|49=EXECLINKS|52=20200612-03:55:11.835|56=COEPEXCH|122=20200612-03:54:53.106|1=EXECLINKS|11=3|38=2|40=2|44=87|54=1|55=amzn|58=Buy shares|60=20200612-22:29:00.000|10=148|
20200612-03:55:11.835239000 : 8=FIX.4.4|9=178|35=D|34=119|43=Y|49=EXECLINKS|52=20200612-03:55:11.835|56=COEPEXCH|122=20200612-03:55:03.117|1=EXECLINKS|11=3|38=2|40=2|44=87|54=1|55=amzn|58=Buy shares|60=20200612-22:29:00.000|10=147|
20200612-03:55:11.835307000 : 8=FIX.4.4|9=106|35=4|34=120|43=Y|49=EXECLINKS|52=20200612-03:55:11.835|56=COEPEXCH|122=20200612-03:55:11.835|36=121|123=Y|10=190|
20200612-03:55:26.249280000 : 8=FIX.4.4|9=74|35=A|34=123|49=EXECLINKS|52=20200612-03:55:26.249|56=COEPEXCH|98=0|108=20|10=091|
20200612-03:55:26.249661000 : 8=FIX.4.4|9=73|35=A|34=81|49=COEPEXCH|52=20200612-03:55:26.249|56=EXECLINKS|98=0|108=20|10=045|
20200612-03:55:26.250012000 : 8=FIX.4.4|9=72|35=2|34=82|49=COEPEXCH|52=20200612-03:55:26.249|56=EXECLINKS|7=112|16=0|10=228|
20200612-03:55:26.250138000 : 8=FIX.4.4|9=178|35=D|34=112|43=Y|49=EXECLINKS|52=20200612-03:55:26.250|56=COEPEXCH|122=20200612-03:54:13.070|1=EXECLINKS|11=3|38=2|40=2|44=87|54=1|55=amzn|58=Buy shares|60=20200612-22:29:00.000|10=135|
20200612-03:55:26.250261000 : 8=FIX.4.4|9=106|35=4|34=113|43=Y|49=EXECLINKS|52=20200612-03:55:26.250|56=COEPEXCH|122=20200612-03:55:26.250|36=114|123=Y|10=188|
20200612-03:55:26.250300000 : 8=FIX.4.4|9=178|35=D|34=114|43=Y|49=EXECLINKS|52=20200612-03:55:26.250|56=COEPEXCH|122=20200612-03:54:23.081|1=EXECLINKS|11=3|38=2|40=2|44=87|54=1|55=amzn|58=Buy shares|60=20200612-22:29:00.000|10=140|
20200612-03:55:26.250359000 : 8=FIX.4.4|9=178|35=D|34=115|43=Y|49=EXECLINKS|52=20200612-03:55:26.250|56=COEPEXCH|122=20200612-03:54:33.084|1=EXECLINKS|11=3|38=2|40=2|44=87|54=1|55=amzn|58=Buy shares|60=20200612-22:29:00.000|10=145|
20200612-03:55:26.250420000 : 8=FIX.4.4|9=178|35=D|34=116|43=Y|49=EXECLINKS|52=20200612-03:55:26.250|56=COEPEXCH|122=20200612-03:54:43.095|1=EXECLINKS|11=3|38=2|40=2|44=87|54=1|55=amzn|58=Buy shares|60=20200612-22:29:00.000|10=149|
20200612-03:55:26.250498000 : 8=FIX.4.4|9=106|35=4|34=117|43=Y|49=EXECLINKS|52=20200612-03:55:26.250|56=COEPEXCH|122=20200612-03:55:26.250|36=118|123=Y|10=196|
20200612-03:55:26.250534000 : 8=FIX.4.4|9=178|35=D|34=118|43=Y|49=EXECLINKS|52=20200612-03:55:26.250|56=COEPEXCH|122=20200612-03:54:53.106|1=EXECLINKS|11=3|38=2|40=2|44=87|54=1|55=amzn|58=Buy shares|60=20200612-22:29:00.000|10=145|
20200612-03:55:26.250589000 : 8=FIX.4.4|9=178|35=D|34=119|43=Y|49=EXECLINKS|52=20200612-03:55:26.250|56=COEPEXCH|122=20200612-03:55:03.117|1=EXECLINKS|11=3|38=2|40=2|44=87|54=1|55=amzn|58=Buy shares|60=20200612-22:29:00.000|10=144|
20200612-03:55:26.250664000 : 8=FIX.4.4|9=106|35=4|34=120|43=Y|49=EXECLINKS|52=20200612-03:55:26.250|56=COEPEXCH|122=20200612-03:55:26.250|36=121|123=Y|10=184|
20200612-03:55:26.250700000 : 8=FIX.4.4|9=178|35=D|34=121|43=Y|49=EXECLINKS|52=20200612-03:55:26.250|56=COEPEXCH|122=20200612-03:55:11.883|1=EXECLINKS|11=3|38=2|40=2|44=87|54=1|55=amzn|58=Buy shares|60=20200612-22:29:00.000|10=146|
20200612-03:55:26.250777000 : 8=FIX.4.4|9=178|35=D|34=122|43=Y|49=EXECLINKS|52=20200612-03:55:26.250|56=COEPEXCH|122=20200612-03:55:21.891|1=EXECLINKS|11=3|38=2|40=2|44=87|54=1|55=amzn|58=Buy shares|60=20200612-22:29:00.000|10=147|
20200612-03:55:26.250847000 : 8=FIX.4.4|9=106|35=4|34=123|43=Y|49=EXECLINKS|52=20200612-03:55:26.250|56=COEPEXCH|122=20200612-03:55:26.250|36=124|123=Y|10=190|
20200612-03:55:26.250919000 : 8=FIX.4.4|9=77|35=8|34=83|49=COEPEXCH|52=20200612-03:55:26.250|56=EXECLINKS|37=3|39=0|150=0|10=195|
20200612-03:55:26.251055000 : 8=FIX.4.4|9=110|35=3|34=124|49=EXECLINKS|52=20200612-03:55:26.250|56=COEPEXCH|45=83|58=Required tag missing|371=6|372=8|373=1|10=246|
20200612-03:55:26.300374000 : 8=FIX.4.4|9=147|35=D|34=125|49=EXECLINKS|52=20200612-03:55:26.300|56=COEPEXCH|1=EXECLINKS|11=3|38=2|40=2|44=87|54=1|55=amzn|58=Buy shares|60=20200612-22:29:00.000|10=143|
20200612-03:55:56.543624000 : 8=FIX.4.4|9=74|35=A|34=129|49=EXECLINKS|52=20200612-03:55:56.543|56=COEPEXCH|98=0|108=20|10=097|
20200612-03:56:05.944283000 : 8=FIX.4.4|9=74|35=A|34=130|49=EXECLINKS|52=20200612-03:56:05.944|56=COEPEXCH|98=0|108=20|10=089|
20200612-03:56:05.944715000 : 8=FIX.4.4|9=73|35=A|34=84|49=COEPEXCH|52=20200612-03:56:05.944|56=EXECLINKS|98=0|108=20|10=048|
20200612-03:56:05.945004000 : 8=FIX.4.4|9=72|35=2|34=85|49=COEPEXCH|52=20200612-03:56:05.944|56=EXECLINKS|7=112|16=0|10=231|
20200612-03:56:05.945144000 : 8=FIX.4.4|9=178|35=D|34=112|43=Y|49=EXECLINKS|52=20200612-03:56:05.945|56=COEPEXCH|122=20200612-03:54:13.070|1=EXECLINKS|11=3|38=2|40=2|44=87|54=1|55=amzn|58=Buy shares|60=20200612-22:29:00.000|10=144|
20200612-03:56:05.945256000 : 8=FIX.4.4|9=106|35=4|34=113|43=Y|49=EXECLINKS|52=20200612-03:56:05.945|56=COEPEXCH|122=20200612-03:56:05.945|36=114|123=Y|10=206|
20200612-03:56:05.945295000 : 8=FIX.4.4|9=178|35=D|34=114|43=Y|49=EXECLINKS|52=20200612-03:56:05.945|56=COEPEXCH|122=20200612-03:54:23.081|1=EXECLINKS|11=3|38=2|40=2|44=87|54=1|55=amzn|58=Buy shares|60=20200612-22:29:00.000|10=149|
20200612-03:56:05.945352000 : 8=FIX.4.4|9=178|35=D|34=115|43=Y|49=EXECLINKS|52=20200612-03:56:05.945|56=COEPEXCH|122=20200612-03:54:33.084|1=EXECLINKS|11=3|38=2|40=2|44=87|54=1|55=amzn|58=Buy shares|60=20200612-22:29:00.000|10=154|
20200612-03:56:05.945427000 : 8=FIX.4.4|9=178|35=D|34=116|43=Y|49=EXECLINKS|52=20200612-03:56:05.945|56=COEPEXCH|122=20200612-03:54:43.095|1=EXECLINKS|11=3|38=2|40=2|44=87|54=1|55=amzn|58=Buy shares|60=20200612-22:29:00.000|10=158|
20200612-03:56:05.945514000 : 8=FIX.4.4|9=106|35=4|34=117|43=Y|49=EXECLINKS|52=20200612-03:56:05.945|56=COEPEXCH|122=20200612-03:56:05.945|36=118|123=Y|10=214|
20200612-03:56:05.945554000 : 8=FIX.4.4|9=178|35=D|34=118|43=Y|49=EXECLINKS|52=20200612-03:56:05.945|56=COEPEXCH|122=20200612-03:54:53.106|1=EXECLINKS|11=3|38=2|40=2|44=87|54=1|55=amzn|58=Buy shares|60=20200612-22:29:00.000|10=154|
20200612-03:56:05.945619000 : 8=FIX.4.4|9=178|35=D|34=119|43=Y|49=EXECLINKS|52=20200612-03:56:05.945|56=COEPEXCH|122=20200612-03:55:03.117|1=EXECLINKS|11=3|38=2|40=2|44=87|54=1|55=amzn|58=Buy shares|60=20200612-22:29:00.000|10=153|
20200612-03:56:05.945698000 : 8=FIX.4.4|9=106|35=4|34=120|43=Y|49=EXECLINKS|52=20200612-03:56:05.945|56=COEPEXCH|122=20200612-03:56:05.945|36=121|123=Y|10=202|
20200612-03:56:05.945734000 : 8=FIX.4.4|9=178|35=D|34=121|43=Y|49=EXECLINKS|52=20200612-03:56:05.945|56=COEPEXCH|122=20200612-03:55:11.883|1=EXECLINKS|11=3|38=2|40=2|44=87|54=1|55=amzn|58=Buy shares|60=20200612-22:29:00.000|10=155|
20200612-03:56:05.945791000 : 8=FIX.4.4|9=178|35=D|34=122|43=Y|49=EXECLINKS|52=20200612-03:56:05.945|56=COEPEXCH|122=20200612-03:55:21.891|1=EXECLINKS|11=3|38=2|40=2|44=87|54=1|55=amzn|58=Buy shares|60=20200612-22:29:00.000|10=156|
20200612-03:56:05.945870000 : 8=FIX.4.4|9=106|35=4|34=123|43=Y|49=EXECLINKS|52=20200612-03:56:05.945|56=COEPEXCH|122=20200612-03:56:05.945|36=125|123=Y|10=209|
20200612-03:56:05.945906000 : 8=FIX.4.4|9=178|35=D|34=125|43=Y|49=EXECLINKS|52=20200612-03:56:05.945|56=COEPEXCH|122=20200612-03:55:26.300|1=EXECLINKS|11=3|38=2|40=2|44=87|54=1|55=amzn|58=Buy shares|60=20200612-22:29:00.000|10=149|
20200612-03:56:05.945962000 : 8=FIX.4.4|9=178|35=D|34=126|43=Y|49=EXECLINKS|52=20200612-03:56:05.945|56=COEPEXCH|122=20200612-03:55:36.308|1=EXECLINKS|11=3|38=2|40=2|44=87|54=1|55=amzn|58=Buy shares|60=20200612-22:29:00.000|10=159|
20200612-03:56:05.946019000 : 8=FIX.4.4|9=178|35=D|34=127|43=Y|49=EXECLINKS|52=20200612-03:56:05.946|56=COEPEXCH|122=20200612-03:55:46.318|1=EXECLINKS|11=3|38=2|40=2|44=87|54=1|55=amzn|58=Buy shares|60=20200612-22:29:00.000|10=163|
20200612-03:56:05.946066000 : 8=FIX.4.4|9=178|35=D|34=128|43=Y|49=EXECLINKS|52=20200612-03:56:05.946|56=COEPEXCH|122=20200612-03:55:56.325|1=EXECLINKS|11=3|38=2|40=2|44=87|54=1|55=amzn|58=Buy shares|60=20200612-22:29:00.000|10=163|
20200612-03:56:05.946117000 : 8=FIX.4.4|9=106|35=4|34=129|43=Y|49=EXECLINKS|52=20200612-03:56:05.946|56=COEPEXCH|122=20200612-03:56:05.946|36=131|123=Y|10=214|
20200612-03:56:05.996239000 : 8=FIX.4.4|9=147|35=D|34=131|49=EXECLINKS|52=20200612-03:56:05.996|56=COEPEXCH|1=EXECLINKS|11=3|38=2|40=2|44=87|54=1|55=amzn|58=Buy shares|60=20200612-22:29:00.000|10=159|
20200612-03:56:31.603053000 : 8=FIX.4.4|9=74|35=A|34=134|49=EXECLINKS|52=20200612-03:56:31.602|56=COEPEXCH|98=0|108=20|10=083|
20200612-03:56:31.603450000 : 8=FIX.4.4|9=73|35=A|34=86|49=COEPEXCH|52=20200612-03:56:31.603|56=EXECLINKS|98=0|108=20|10=041|
20200612-03:56:31.603782000 : 8=FIX.4.4|9=72|35=2|34=87|49=COEPEXCH|52=20200612-03:56:31.603|56=EXECLINKS|7=112|16=0|10=224|
20200612-03:56:31.603932000 : 8=FIX.4.4|9=178|35=D|34=112|43=Y|49=EXECLINKS|52=20200612-03:56:31.603|56=COEPEXCH|122=20200612-03:54:13.070|1=EXECLINKS|11=3|38=2|40=2|44=87|54=1|55=amzn|58=Buy shares|60=20200612-22:29:00.000|10=134|
20200612-03:56:31.604047000 : 8=FIX.4.4|9=106|35=4|34=113|43=Y|49=EXECLINKS|52=20200612-03:56:31.604|56=COEPEXCH|122=20200612-03:56:31.604|36=114|123=Y|10=188|
20200612-03:56:31.604100000 : 8=FIX.4.4|9=178|35=D|34=114|43=Y|49=EXECLINKS|52=20200612-03:56:31.603|56=COEPEXCH|122=20200612-03:54:23.081|1=EXECLINKS|11=3|38=2|40=2|44=87|54=1|55=amzn|58=Buy shares|60=20200612-22:29:00.000|10=139|
20200612-03:56:31.604173000 : 8=FIX.4.4|9=178|35=D|34=115|43=Y|49=EXECLINKS|52=20200612-03:56:31.604|56=COEPEXCH|122=20200612-03:54:33.084|1=EXECLINKS|11=3|38=2|40=2|44=87|54=1|55=amzn|58=Buy shares|60=20200612-22:29:00.000|10=145|
20200612-03:56:31.604223000 : 8=FIX.4.4|9=178|35=D|34=116|43=Y|49=EXECLINKS|52=20200612-03:56:31.604|56=COEPEXCH|122=20200612-03:54:43.095|1=EXECLINKS|11=3|38=2|40=2|44=87|54=1|55=amzn|58=Buy shares|60=20200612-22:29:00.000|10=149|
20200612-03:56:31.604291000 : 8=FIX.4.4|9=106|35=4|34=117|43=Y|49=EXECLINKS|52=20200612-03:56:31.604|56=COEPEXCH|122=20200612-03:56:31.604|36=118|123=Y|10=196|
20200612-03:56:31.604315000 : 8=FIX.4.4|9=178|35=D|34=118|43=Y|49=EXECLINKS|52=20200612-03:56:31.604|56=COEPEXCH|122=20200612-03:54:53.106|1=EXECLINKS|11=3|38=2|40=2|44=87|54=1|55=amzn|58=Buy shares|60=20200612-22:29:00.000|10=145|
20200612-03:56:31.604360000 : 8=FIX.4.4|9=178|35=D|34=119|43=Y|49=EXECLINKS|52=20200612-03:56:31.604|56=COEPEXCH|122=20200612-03:55:03.117|1=EXECLINKS|11=3|38=2|40=2|44=87|54=1|55=amzn|58=Buy shares|60=20200612-22:29:00.000|10=144|
20200612-03:56:31.604424000 : 8=FIX.4.4|9=106|35=4|34=120|43=Y|49=EXECLINKS|52=20200612-03:56:31.604|56=COEPEXCH|122=20200612-03:56:31.604|36=121|123=Y|10=184|
20200612-03:56:31.604447000 : 8=FIX.4.4|9=178|35=D|34=121|43=Y|49=EXECLINKS|52=20200612-03:56:31.604|56=COEPEXCH|122=20200612-03:55:11.883|1=EXECLINKS|11=3|38=2|40=2|44=87|54=1|55=amzn|58=Buy shares|60=20200612-22:29:00.000|10=146|
20200612-03:56:31.604490000 : 8=FIX.4.4|9=178|35=D|34=122|43=Y|49=EXECLINKS|52=20200612-03:56:31.604|56=COEPEXCH|122=20200612-03:55:21.891|1=EXECLINKS|11=3|38=2|40=2|44=87|54=1|55=amzn|58=Buy shares|60=20200612-22:29:00.000|10=147|
20200612-03:56:31.604556000 : 8=FIX.4.4|9=106|35=4|34=123|43=Y|49=EXECLINKS|52=20200612-03:56:31.604|56=COEPEXCH|122=20200612-03:56:31.604|36=125|123=Y|10=191|
20200612-03:56:31.604579000 : 8=FIX.4.4|9=178|35=D|34=125|43=Y|49=EXECLINKS|52=20200612-03:56:31.604|56=COEPEXCH|122=20200612-03:55:26.300|1=EXECLINKS|11=3|38=2|40=2|44=87|54=1|55=amzn|58=Buy shares|60=20200612-22:29:00.000|10=140|
20200612-03:56:31.604627000 : 8=FIX.4.4|9=178|35=D|34=126|43=Y|49=EXECLINKS|52=20200612-03:56:31.604|56=COEPEXCH|122=20200612-03:55:36.308|1=EXECLINKS|11=3|38=2|40=2|44=87|54=1|55=amzn|58=Buy shares|60=20200612-22:29:00.000|10=150|
20200612-03:56:31.604678000 : 8=FIX.4.4|9=178|35=D|34=127|43=Y|49=EXECLINKS|52=20200612-03:56:31.604|56=COEPEXCH|122=20200612-03:55:46.318|1=EXECLINKS|11=3|38=2|40=2|44=87|54=1|55=amzn|58=Buy shares|60=20200612-22:29:00.000|10=153|
20200612-03:56:31.604728000 : 8=FIX.4.4|9=178|35=D|34=128|43=Y|49=EXECLINKS|52=20200612-03:56:31.604|56=COEPEXCH|122=20200612-03:55:56.325|1=EXECLINKS|11=3|38=2|40=2|44=87|54=1|55=amzn|58=Buy shares|60=20200612-22:29:00.000|10=153|
20200612-03:56:31.604804000 : 8=FIX.4.4|9=106|35=4|34=129|43=Y|49=EXECLINKS|52=20200612-03:56:31.604|56=COEPEXCH|122=20200612-03:56:31.604|36=131|123=Y|10=194|
20200612-03:56:31.604829000 : 8=FIX.4.4|9=178|35=D|34=131|43=Y|49=EXECLINKS|52=20200612-03:56:31.604|56=COEPEXCH|122=20200612-03:56:05.996|1=EXECLINKS|11=3|38=2|40=2|44=87|54=1|55=amzn|58=Buy shares|60=20200612-22:29:00.000|10=156|
20200612-03:56:31.604871000 : 8=FIX.4.4|9=178|35=D|34=132|43=Y|49=EXECLINKS|52=20200612-03:56:31.604|56=COEPEXCH|122=20200612-03:56:16.005|1=EXECLINKS|11=3|38=2|40=2|44=87|54=1|55=amzn|58=Buy shares|60=20200612-22:29:00.000|10=140|
20200612-03:56:31.604916000 : 8=FIX.4.4|9=178|35=D|34=133|43=Y|49=EXECLINKS|52=20200612-03:56:31.604|56=COEPEXCH|122=20200612-03:56:26.015|1=EXECLINKS|11=3|38=2|40=2|44=87|54=1|55=amzn|58=Buy shares|60=20200612-22:29:00.000|10=143|
20200612-03:56:31.604963000 : 8=FIX.4.4|9=106|35=4|34=134|43=Y|49=EXECLINKS|52=20200612-03:56:31.604|56=COEPEXCH|122=20200612-03:56:31.604|36=135|123=Y|10=194|
20200612-03:56:31.605025000 : 8=FIX.4.4|9=77|35=8|34=88|49=COEPEXCH|52=20200612-03:56:31.604|56=EXECLINKS|37=3|39=0|150=0|10=200|
20200612-03:56:31.605164000 : 8=FIX.4.4|9=110|35=3|34=135|49=EXECLINKS|52=20200612-03:56:31.605|56=COEPEXCH|45=88|58=Required tag missing|371=6|372=8|373=1|10=254|
20200612-03:56:31.605748000 : 8=FIX.4.4|9=77|35=8|34=89|49=COEPEXCH|52=20200612-03:56:31.605|56=EXECLINKS|37=3|39=0|150=0|10=202|
20200612-03:56:31.605894000 : 8=FIX.4.4|9=110|35=3|34=136|49=EXECLINKS|52=20200612-03:56:31.605|56=COEPEXCH|45=89|58=Required tag missing|371=6|372=8|373=1|10=000|
20200612-03:56:31.606202000 : 8=FIX.4.4|9=77|35=8|34=90|49=COEPEXCH|52=20200612-03:56:31.606|56=EXECLINKS|37=3|39=0|150=0|10=195|
20200612-03:56:31.606330000 : 8=FIX.4.4|9=110|35=3|34=137|49=EXECLINKS|52=20200612-03:56:31.606|56=COEPEXCH|45=90|58=Required tag missing|371=6|372=8|373=1|10=250|
20200612-03:56:31.606639000 : 8=FIX.4.4|9=77|35=8|34=91|49=COEPEXCH|52=20200612-03:56:31.606|56=EXECLINKS|37=3|39=0|150=0|10=196|
20200612-03:56:31.606763000 : 8=FIX.4.4|9=110|35=3|34=138|49=EXECLINKS|52=20200612-03:56:31.606|56=COEPEXCH|45=91|58=Required tag missing|371=6|372=8|373=1|10=252|
20200612-03:56:31.607153000 : 8=FIX.4.4|9=77|35=8|34=92|49=COEPEXCH|52=20200612-03:56:31.607|56=EXECLINKS|37=3|39=0|150=0|10=198|
20200612-03:56:31.607279000 : 8=FIX.4.4|9=110|35=3|34=139|49=EXECLINKS|52=20200612-03:56:31.607|56=COEPEXCH|45=92|58=Required tag missing|371=6|372=8|373=1|10=255|
20200612-03:56:31.610794000 : 8=FIX.4.4|9=77|35=8|34=93|49=COEPEXCH|52=20200612-03:56:31.607|56=EXECLINKS|37=3|39=0|150=0|10=199|
20200612-03:56:31.610989000 : 8=FIX.4.4|9=110|35=3|34=140|49=EXECLINKS|52=20200612-03:56:31.610|56=COEPEXCH|45=93|58=Required tag missing|371=6|372=8|373=1|10=242|
20200612-03:56:31.611028000 : 8=FIX.4.4|9=77|35=8|34=94|49=COEPEXCH|52=20200612-03:56:31.608|56=EXECLINKS|37=3|39=0|150=0|10=201|
20200612-03:56:31.611161000 : 8=FIX.4.4|9=110|35=3|34=141|49=EXECLINKS|52=20200612-03:56:31.611|56=COEPEXCH|45=94|58=Required tag missing|371=6|372=8|373=1|10=245|
20200612-03:56:31.611200000 : 8=FIX.4.4|9=77|35=8|34=95|49=COEPEXCH|52=20200612-03:56:31.608|56=EXECLINKS|37=3|39=0|150=0|10=202|
20200612-03:56:31.611323000 : 8=FIX.4.4|9=110|35=3|34=142|49=EXECLINKS|52=20200612-03:56:31.611|56=COEPEXCH|45=95|58=Required tag missing|371=6|372=8|373=1|10=247|
20200612-03:56:31.611346000 : 8=FIX.4.4|9=77|35=8|34=96|49=COEPEXCH|52=20200612-03:56:31.609|56=EXECLINKS|37=3|39=0|150=0|10=204|
20200612-03:56:31.611464000 : 8=FIX.4.4|9=110|35=3|34=143|49=EXECLINKS|52=20200612-03:56:31.611|56=COEPEXCH|45=96|58=Required tag missing|371=6|372=8|373=1|10=249|
20200612-03:56:31.611486000 : 8=FIX.4.4|9=77|35=8|34=97|49=COEPEXCH|52=20200612-03:56:31.609|56=EXECLINKS|37=3|39=0|150=0|10=205|
20200612-03:56:31.611603000 : 8=FIX.4.4|9=110|35=3|34=144|49=EXECLINKS|52=20200612-03:56:31.611|56=COEPEXCH|45=97|58=Required tag missing|371=6|372=8|373=1|10=251|
20200612-03:56:31.611626000 : 8=FIX.4.4|9=77|35=8|34=98|49=COEPEXCH|52=20200612-03:56:31.609|56=EXECLINKS|37=3|39=0|150=0|10=206|
20200612-03:56:31.611741000 : 8=FIX.4.4|9=110|35=3|34=145|49=EXECLINKS|52=20200612-03:56:31.611|56=COEPEXCH|45=98|58=Required tag missing|371=6|372=8|373=1|10=253|
20200612-03:56:31.611764000 : 8=FIX.4.4|9=77|35=8|34=99|49=COEPEXCH|52=20200612-03:56:31.610|56=EXECLINKS|37=3|39=0|150=0|10=199|
20200612-03:56:31.611877000 : 8=FIX.4.4|9=110|35=3|34=146|49=EXECLINKS|52=20200612-03:56:31.611|56=COEPEXCH|45=99|58=Required tag missing|371=6|372=8|373=1|10=255|
20200612-03:56:31.612204000 : 8=FIX.4.4|9=78|35=8|34=100|49=COEPEXCH|52=20200612-03:56:31.612|56=EXECLINKS|37=3|39=0|150=0|10=233|
20200612-03:56:31.612339000 : 8=FIX.4.4|9=111|35=3|34=147|49=EXECLINKS|52=20200612-03:56:31.612|56=COEPEXCH|45=100|58=Required tag missing|371=6|372=8|373=1|10=033|
20200612-03:56:31.612702000 : 8=FIX.4.4|9=78|35=8|34=101|49=COEPEXCH|52=20200612-03:56:31.612|56=EXECLINKS|37=3|39=0|150=0|10=234|
20200612-03:56:31.612856000 : 8=FIX.4.4|9=111|35=3|34=148|49=EXECLINKS|52=20200612-03:56:31.612|56=COEPEXCH|45=101|58=Required tag missing|371=6|372=8|373=1|10=035|
20200612-03:56:31.613193000 : 8=FIX.4.4|9=78|35=8|34=102|49=COEPEXCH|52=20200612-03:56:31.613|56=EXECLINKS|37=3|39=0|150=0|10=236|
20200612-03:56:31.613354000 : 8=FIX.4.4|9=111|35=3|34=149|49=EXECLINKS|52=20200612-03:56:31.613|56=COEPEXCH|45=102|58=Required tag missing|371=6|372=8|373=1|10=038|
20200612-03:56:31.640046000 : 8=FIX.4.4|9=147|35=D|34=150|49=EXECLINKS|52=20200612-03:56:31.639|56=COEPEXCH|1=EXECLINKS|11=3|38=2|40=2|44=87|54=1|55=amzn|58=Buy shares|60=20200612-22:29:00.000|10=153|
20200612-03:56:31.640612000 : 8=FIX.4.4|9=78|35=8|34=103|49=COEPEXCH|52=20200612-03:56:31.640|56=EXECLINKS|37=3|39=0|150=0|10=237|
20200612-03:56:31.640804000 : 8=FIX.4.4|9=111|35=3|34=151|49=EXECLINKS|52=20200612-03:56:31.640|56=COEPEXCH|45=103|58=Required tag missing|371=6|372=8|373=1|10=032|
20200612-03:56:41.649175000 : 8=FIX.4.4|9=147|35=D|34=152|49=EXECLINKS|52=20200612-03:56:41.648|56=COEPEXCH|1=EXECLINKS|11=3|38=2|40=2|44=87|54=1|55=amzn|58=Buy shares|60=20200612-22:29:00.000|10=156|
20200612-03:56:41.651294000 : 8=FIX.4.4|9=78|35=8|34=104|49=COEPEXCH|52=20200612-03:56:41.650|56=EXECLINKS|37=3|39=0|150=0|10=240|
20200612-03:56:41.651989000 : 8=FIX.4.4|9=111|35=3|34=153|49=EXECLINKS|52=20200612-03:56:41.651|56=COEPEXCH|45=104|58=Required tag missing|371=6|372=8|373=1|10=038|
20200612-03:56:51.653043000 : 8=FIX.4.4|9=147|35=D|34=154|49=EXECLINKS|52=20200612-03:56:51.652|56=COEPEXCH|1=EXECLINKS|11=3|38=2|40=2|44=87|54=1|55=amzn|58=Buy shares|60=20200612-22:29:00.000|10=154|
20200612-03:56:51.655342000 : 8=FIX.4.4|9=78|35=8|34=105|49=COEPEXCH|52=20200612-03:56:51.654|56=EXECLINKS|37=3|39=0|150=0|10=246|
20200612-03:56:51.656023000 : 8=FIX.4.4|9=111|35=3|34=155|49=EXECLINKS|52=20200612-03:56:51.655|56=COEPEXCH|45=105|58=Required tag missing|371=6|372=8|373=1|10=046|
20200612-03:56:55.459522000 : 8=FIX.4.4|9=71|35=1|34=156|49=EXECLINKS|52=20200612-03:56:55.459|56=COEPEXCH|112=TEST|10=078|
20200612-03:56:55.459780000 : 8=FIX.4.4|9=71|35=0|34=106|49=COEPEXCH|52=20200612-03:56:55.459|56=EXECLINKS|112=TEST|10=072|
20200612-03:57:01.662162000 : 8=FIX.4.4|9=147|35=D|34=157|49=EXECLINKS|52=20200612-03:57:01.661|56=COEPEXCH|1=EXECLINKS|11=3|38=2|40=2|44=87|54=1|55=amzn|58=Buy shares|60=20200612-22:29:00.000|10=153|
20200612-03:57:01.664610000 : 8=FIX.4.4|9=78|35=8|34=107|49=COEPEXCH|52=20200612-03:57:01.663|56=EXECLINKS|37=3|39=0|150=0|10=244|
20200612-03:57:01.665399000 : 8=FIX.4.4|9=111|35=3|34=158|49=EXECLINKS|52=20200612-03:57:01.665|56=COEPEXCH|45=107|58=Required tag missing|371=6|372=8|373=1|10=048|
20200612-03:57:11.673842000 : 8=FIX.4.4|9=147|35=D|34=159|49=EXECLINKS|52=20200612-03:57:11.673|56=COEPEXCH|1=EXECLINKS|11=3|38=2|40=2|44=87|54=1|55=amzn|58=Buy shares|60=20200612-22:29:00.000|10=159|
20200612-03:57:11.676083000 : 8=FIX.4.4|9=78|35=8|34=108|49=COEPEXCH|52=20200612-03:57:11.675|56=EXECLINKS|37=3|39=0|150=0|10=249|
20200612-03:57:11.676885000 : 8=FIX.4.4|9=111|35=3|34=160|49=EXECLINKS|52=20200612-03:57:11.676|56=COEPEXCH|45=108|58=Required tag missing|371=6|372=8|373=1|10=045|
20200612-03:57:19.221522000 : 8=FIX.4.4|9=71|35=1|34=161|49=EXECLINKS|52=20200612-03:57:19.220|56=COEPEXCH|112=TEST|10=061|
20200612-03:57:19.222785000 : 8=FIX.4.4|9=71|35=0|34=109|49=COEPEXCH|52=20200612-03:57:19.222|56=EXECLINKS|112=TEST|10=064|
20200612-03:57:21.685423000 : 8=FIX.4.4|9=147|35=D|34=162|49=EXECLINKS|52=20200612-03:57:21.685|56=COEPEXCH|1=EXECLINKS|11=3|38=2|40=2|44=87|54=1|55=amzn|58=Buy shares|60=20200612-22:29:00.000|10=157|
20200612-03:57:21.687458000 : 8=FIX.4.4|9=78|35=8|34=110|49=COEPEXCH|52=20200612-03:57:21.686|56=EXECLINKS|37=3|39=0|150=0|10=245|
20200612-03:57:21.688125000 : 8=FIX.4.4|9=111|35=3|34=163|49=EXECLINKS|52=20200612-03:57:21.687|56=COEPEXCH|45=110|58=Required tag missing|371=6|372=8|373=1|10=044|
20200612-03:57:31.696938000 : 8=FIX.4.4|9=147|35=D|34=164|49=EXECLINKS|52=20200612-03:57:31.696|56=COEPEXCH|1=EXECLINKS|11=3|38=2|40=2|44=87|54=1|55=amzn|58=Buy shares|60=20200612-22:29:00.000|10=162|
20200612-03:57:31.699186000 : 8=FIX.4.4|9=78|35=8|34=111|49=COEPEXCH|52=20200612-03:57:31.698|56=EXECLINKS|37=3|39=0|150=0|10=250|
20200612-03:57:31.699785000 : 8=FIX.4.4|9=111|35=3|34=165|49=EXECLINKS|52=20200612-03:57:31.699|56=COEPEXCH|45=111|58=Required tag missing|371=6|372=8|373=1|10=051|
20200612-03:57:41.708475000 : 8=FIX.4.4|9=147|35=D|34=166|49=EXECLINKS|52=20200612-03:57:41.708|56=COEPEXCH|1=EXECLINKS|11=3|38=2|40=2|44=87|54=1|55=amzn|58=Buy shares|60=20200612-22:29:00.000|10=159|
20200612-03:57:41.710573000 : 8=FIX.4.4|9=78|35=8|34=112|49=COEPEXCH|52=20200612-03:57:41.709|56=EXECLINKS|37=3|39=0|150=0|10=245|
20200612-03:57:41.711405000 : 8=FIX.4.4|9=111|35=3|34=167|49=EXECLINKS|52=20200612-03:57:41.711|56=COEPEXCH|45=112|58=Required tag missing|371=6|372=8|373=1|10=040|
20200612-03:57:43.576526000 : 8=FIX.4.4|9=71|35=1|34=168|49=EXECLINKS|52=20200612-03:57:43.576|56=COEPEXCH|112=TEST|10=079|
20200612-03:57:43.577740000 : 8=FIX.4.4|9=71|35=0|34=113|49=COEPEXCH|52=20200612-03:57:43.577|56=EXECLINKS|112=TEST|10=069|
20200612-03:57:51.719982000 : 8=FIX.4.4|9=147|35=D|34=169|49=EXECLINKS|52=20200612-03:57:51.719|56=COEPEXCH|1=EXECLINKS|11=3|38=2|40=2|44=87|54=1|55=amzn|58=Buy shares|60=20200612-22:29:00.000|10=165|
20200612-03:57:51.721971000 : 8=FIX.4.4|9=78|35=8|34=114|49=COEPEXCH|52=20200612-03:57:51.721|56=EXECLINKS|37=3|39=0|150=0|10=242|
20200612-03:57:51.722631000 : 8=FIX.4.4|9=111|35=3|34=170|49=EXECLINKS|52=20200612-03:57:51.722|56=COEPEXCH|45=114|58=Required tag missing|371=6|372=8|373=1|10=039|
20200612-03:58:01.725385000 : 8=FIX.4.4|9=147|35=D|34=171|49=EXECLINKS|52=20200612-03:58:01.725|56=COEPEXCH|1=EXECLINKS|11=3|38=2|40=2|44=87|54=1|55=amzn|58=Buy shares|60=20200612-22:29:00.000|10=151|
20200612-03:58:01.727553000 : 8=FIX.4.4|9=78|35=8|34=115|49=COEPEXCH|52=20200612-03:58:01.726|56=EXECLINKS|37=3|39=0|150=0|10=244|
20200612-03:58:01.728227000 : 8=FIX.4.4|9=111|35=3|34=172|49=EXECLINKS|52=20200612-03:58:01.727|56=COEPEXCH|45=115|58=Required tag missing|371=6|372=8|373=1|10=043|
20200612-03:58:07.274657000 : 8=FIX.4.4|9=71|35=1|34=173|49=EXECLINKS|52=20200612-03:58:07.274|56=COEPEXCH|112=TEST|10=071|
20200612-03:58:07.275815000 : 8=FIX.4.4|9=71|35=0|34=116|49=COEPEXCH|52=20200612-03:58:07.275|56=EXECLINKS|112=TEST|10=068|
20200612-03:58:11.735220000 : 8=FIX.4.4|9=147|35=D|34=174|49=EXECLINKS|52=20200612-03:58:11.734|56=COEPEXCH|1=EXECLINKS|11=3|38=2|40=2|44=87|54=1|55=amzn|58=Buy shares|60=20200612-22:29:00.000|10=155|
20200612-03:58:11.737617000 : 8=FIX.4.4|9=78|35=8|34=117|49=COEPEXCH|52=20200612-03:58:11.736|56=EXECLINKS|37=3|39=0|150=0|10=248|
20200612-03:58:11.738417000 : 8=FIX.4.4|9=111|35=3|34=175|49=EXECLINKS|52=20200612-03:58:11.738|56=COEPEXCH|45=117|58=Required tag missing|371=6|372=8|373=1|10=051|
20200612-03:58:21.745282000 : 8=FIX.4.4|9=147|35=D|34=176|49=EXECLINKS|52=20200612-03:58:21.744|56=COEPEXCH|1=EXECLINKS|11=3|38=2|40=2|44=87|54=1|55=amzn|58=Buy shares|60=20200612-22:29:00.000|10=159|
20200612-03:58:21.747536000 : 8=FIX.4.4|9=78|35=8|34=118|49=COEPEXCH|52=20200612-03:58:21.746|56=EXECLINKS|37=3|39=0|150=0|10=251|
20200612-03:58:21.748277000 : 8=FIX.4.4|9=111|35=3|34=177|49=EXECLINKS|52=20200612-03:58:21.747|56=COEPEXCH|45=118|58=Required tag missing|371=6|372=8|373=1|10=055|
20200612-03:58:31.755336000 : 8=FIX.4.4|9=147|35=D|34=178|49=EXECLINKS|52=20200612-03:58:31.754|56=COEPEXCH|1=EXECLINKS|11=3|38=2|40=2|44=87|54=1|55=amzn|58=Buy shares|60=20200612-22:29:00.000|10=163|
20200612-03:58:31.757670000 : 8=FIX.4.4|9=78|35=8|34=119|49=COEPEXCH|52=20200612-03:58:31.757|56=EXECLINKS|37=3|39=0|150=0|10=255|
20200612-03:58:31.758424000 : 8=FIX.4.4|9=111|35=3|34=179|49=EXECLINKS|52=20200612-03:58:31.758|56=COEPEXCH|45=119|58=Required tag missing|371=6|372=8|373=1|10=061|
20200612-03:58:31.758925000 : 8=FIX.4.4|9=71|35=1|34=180|49=EXECLINKS|52=20200612-03:58:31.758|56=COEPEXCH|112=TEST|10=073|
20200612-03:58:31.759706000 : 8=FIX.4.4|9=71|35=0|34=120|49=COEPEXCH|52=20200612-03:58:31.759|56=EXECLINKS|112=TEST|10=067|
20200612-04:07:38.139844000 : 8=FIX.4.4|9=74|35=A|34=181|49=EXECLINKS|52=20200612-04:07:38.139|56=COEPEXCH|98=0|108=20|10=094|
20200612-04:07:38.140228000 : 8=FIX.4.4|9=74|35=A|34=121|49=COEPEXCH|52=20200612-04:07:38.140|56=EXECLINKS|98=0|108=20|10=080|
20200612-04:07:38.171668000 : 8=FIX.4.4|9=147|35=D|34=182|49=EXECLINKS|52=20200612-04:07:38.171|56=COEPEXCH|1=EXECLINKS|11=3|38=2|40=2|44=87|54=1|55=amzn|58=Buy shares|60=20200612-22:29:00.000|10=153|
20200612-04:07:38.172329000 : 8=FIX.4.4|9=78|35=8|34=122|49=COEPEXCH|52=20200612-04:07:38.172|56=EXECLINKS|37=3|39=0|150=0|10=242|
20200612-04:07:38.172501000 : 8=FIX.4.4|9=111|35=3|34=183|49=EXECLINKS|52=20200612-04:07:38.172|56=COEPEXCH|45=122|58=Required tag missing|371=6|372=8|373=1|10=042|
20200612-04:07:48.181993000 : 8=FIX.4.4|9=147|35=D|34=184|49=EXECLINKS|52=20200612-04:07:48.181|56=COEPEXCH|1=EXECLINKS|11=3|38=2|40=2|44=87|54=1|55=amzn|58=Buy shares|60=20200612-22:29:00.000|10=157|
20200612-04:07:48.182783000 : 8=FIX.4.4|9=78|35=8|34=123|49=COEPEXCH|52=20200612-04:07:48.182|56=EXECLINKS|37=3|39=0|150=0|10=245|
20200612-04:07:48.182961000 : 8=FIX.4.4|9=111|35=3|34=185|49=EXECLINKS|52=20200612-04:07:48.182|56=COEPEXCH|45=123|58=Required tag missing|371=6|372=8|373=1|10=047|
20200612-04:08:29.423221000 : 8=FIX.4.4|9=74|35=A|34=186|49=EXECLINKS|52=20200612-04:08:29.423|56=COEPEXCH|98=0|108=20|10=096|
20200612-04:08:29.423616000 : 8=FIX.4.4|9=74|35=A|34=124|49=COEPEXCH|52=20200612-04:08:29.423|56=EXECLINKS|98=0|108=20|10=088|
20200612-04:08:29.453415000 : 8=FIX.4.4|9=147|35=D|34=187|49=EXECLINKS|52=20200612-04:08:29.453|56=COEPEXCH|1=EXECLINKS|11=3|38=2|40=2|44=87|54=1|55=amzn|58=Buy shares|60=20200612-22:29:00.000|10=162|
20200612-04:08:29.454182000 : 8=FIX.4.4|9=78|35=8|34=125|49=COEPEXCH|52=20200612-04:08:29.453|56=EXECLINKS|37=3|39=0|150=0|10=248|
20200612-04:08:29.454391000 : 8=FIX.4.4|9=111|35=3|34=188|49=EXECLINKS|52=20200612-04:08:29.454|56=COEPEXCH|45=125|58=Required tag missing|371=6|372=8|373=1|10=054|
20200612-04:08:39.460998000 : 8=FIX.4.4|9=147|35=D|34=189|49=EXECLINKS|52=20200612-04:08:39.460|56=COEPEXCH|1=EXECLINKS|11=3|38=2|40=2|44=87|54=1|55=amzn|58=Buy shares|60=20200612-22:29:00.000|10=163|
20200612-04:08:39.461602000 : 8=FIX.4.4|9=78|35=8|34=126|49=COEPEXCH|52=20200612-04:08:39.461|56=EXECLINKS|37=3|39=0|150=0|10=249|
20200612-04:08:39.461814000 : 8=FIX.4.4|9=111|35=3|34=190|49=EXECLINKS|52=20200612-04:08:39.461|56=COEPEXCH|45=126|58=Required tag missing|371=6|372=8|373=1|10=047|
20200612-04:09:01.859183000 : 8=FIX.4.4|9=74|35=A|34=191|49=EXECLINKS|52=20200612-04:09:01.858|56=COEPEXCH|98=0|108=20|10=095|
20200612-04:09:01.859572000 : 8=FIX.4.4|9=74|35=A|34=127|49=COEPEXCH|52=20200612-04:09:01.859|56=EXECLINKS|98=0|108=20|10=095|
20200612-04:09:01.891430000 : 8=FIX.4.4|9=147|35=D|34=192|49=EXECLINKS|52=20200612-04:09:01.891|56=COEPEXCH|1=EXECLINKS|11=3|38=2|40=2|44=87|54=1|55=amzn|58=Buy shares|60=20200612-22:29:00.000|10=155|
20200612-04:09:01.892187000 : 8=FIX.4.4|9=78|35=8|34=128|49=COEPEXCH|52=20200612-04:09:01.892|56=EXECLINKS|37=3|39=0|150=0|10=249|
20200612-04:09:01.892407000 : 8=FIX.4.4|9=111|35=3|34=193|49=EXECLINKS|52=20200612-04:09:01.892|56=COEPEXCH|45=128|58=Required tag missing|371=6|372=8|373=1|10=050|
20200612-04:09:01.892607000 : 8=FIX.4.4|9=100|35=W|34=129|49=COEPEXCH|52=20200612-04:09:01.892|56=EXECLINKS|55=amzn|268=1|269=0|270=87|271=2|37=3|10=041|
20200612-04:09:11.902256000 : 8=FIX.4.4|9=147|35=D|34=194|49=EXECLINKS|52=20200612-04:09:11.901|56=COEPEXCH|1=EXECLINKS|11=3|38=2|40=2|44=87|54=1|55=amzn|58=Buy shares|60=20200612-22:29:00.000|10=150|
20200612-04:09:11.904704000 : 8=FIX.4.4|9=78|35=8|34=130|49=COEPEXCH|52=20200612-04:09:11.904|56=EXECLINKS|37=3|39=0|150=0|10=237|
20200612-04:09:11.961456000 : 8=FIX.4.4|9=111|35=3|34=195|49=EXECLINKS|52=20200612-04:09:11.905|56=COEPEXCH|45=130|58=Required tag missing|371=6|372=8|373=1|10=041|
20200612-04:09:11.961761000 : 8=FIX.4.4|9=124|35=W|34=131|49=COEPEXCH|52=20200612-04:09:11.905|56=EXECLINKS|55=amzn|268=2|269=0|270=87|271=2|37=3|269=0|270=87|271=2|37=3|10=095|
20200612-04:09:21.913912000 : 8=FIX.4.4|9=147|35=D|34=196|49=EXECLINKS|52=20200612-04:09:21.913|56=COEPEXCH|1=EXECLINKS|11=3|38=2|40=2|44=87|54=1|55=amzn|58=Buy shares|60=20200612-22:29:00.000|10=156|
20200612-04:09:21.915981000 : 8=FIX.4.4|9=78|35=8|34=132|49=COEPEXCH|52=20200612-04:09:21.915|56=EXECLINKS|37=3|39=0|150=0|10=242|
20200612-04:09:21.916640000 : 8=FIX.4.4|9=111|35=3|34=197|49=EXECLINKS|52=20200612-04:09:21.916|56=COEPEXCH|45=132|58=Required tag missing|371=6|372=8|373=1|10=048|
20200612-04:09:21.917909000 : 8=FIX.4.4|9=148|35=W|34=133|49=COEPEXCH|52=20200612-04:09:21.917|56=EXECLINKS|55=amzn|268=3|269=0|270=87|271=2|37=3|269=0|270=87|271=2|37=3|269=0|270=87|271=2|37=3|10=166|
20200612-04:10:18.519422000 : 8=FIX.4.4|9=74|35=A|34=198|49=EXECLINKS|52=20200612-04:10:18.519|56=COEPEXCH|98=0|108=20|10=096|
20200612-04:10:18.519942000 : 8=FIX.4.4|9=74|35=A|34=134|49=COEPEXCH|52=20200612-04:10:18.519|56=EXECLINKS|98=0|108=20|10=086|
20200612-04:10:18.548346000 : 8=FIX.4.4|9=147|35=D|34=199|49=EXECLINKS|52=20200612-04:10:18.548|56=COEPEXCH|1=EXECLINKS|11=3|38=2|40=2|44=87|54=1|55=amzn|58=Buy shares|60=20200612-22:29:00.000|10=161|
20200612-04:10:39.119204000 : 8=FIX.4.4|9=74|35=A|34=201|49=EXECLINKS|52=20200612-04:10:39.119|56=COEPEXCH|98=0|108=20|10=080|
20200612-04:10:39.119594000 : 8=FIX.4.4|9=74|35=A|34=135|49=COEPEXCH|52=20200612-04:10:39.119|56=EXECLINKS|98=0|108=20|10=086|
20200612-04:10:39.119888000 : 8=FIX.4.4|9=73|35=2|34=136|49=COEPEXCH|52=20200612-04:10:39.119|56=EXECLINKS|7=199|16=0|10=028|
20200612-04:10:39.120010000 : 8=FIX.4.4|9=178|35=D|34=199|43=Y|49=EXECLINKS|52=20200612-04:10:39.119|56=COEPEXCH|122=20200612-04:10:18.548|1=EXECLINKS|11=3|38=2|40=2|44=87|54=1|55=amzn|58=Buy shares|60=20200612-22:29:00.000|10=158|
20200612-04:10:39.120093000 : 8=FIX.4.4|9=178|35=D|34=200|43=Y|49=EXECLINKS|52=20200612-04:10:39.120|56=COEPEXCH|122=20200612-04:10:28.558|1=EXECLINKS|11=3|38=2|40=2|44=87|54=1|55=amzn|58=Buy shares|60=20200612-22:29:00.000|10=135|
20200612-04:10:39.120162000 : 8=FIX.4.4|9=106|35=4|34=201|43=Y|49=EXECLINKS|52=20200612-04:10:39.120|56=COEPEXCH|122=20200612-04:10:39.120|36=202|123=Y|10=168|
20200612-04:10:39.120779000 : 8=FIX.4.4|9=78|35=8|34=137|49=COEPEXCH|52=20200612-04:10:39.120|56=EXECLINKS|37=3|39=0|150=0|10=236|
20200612-04:10:39.120977000 : 8=FIX.4.4|9=111|35=3|34=202|49=EXECLINKS|52=20200612-04:10:39.120|56=COEPEXCH|45=137|58=Required tag missing|371=6|372=8|373=1|10=028|
20200612-04:10:39.121034000 : 8=FIX.4.4|9=78|35=8|34=138|49=COEPEXCH|52=20200612-04:10:39.120|56=EXECLINKS|37=3|39=0|150=0|10=237|
20200612-04:10:39.121164000 : 8=FIX.4.4|9=111|35=3|34=203|49=EXECLINKS|52=20200612-04:10:39.121|56=COEPEXCH|45=138|58=Required tag missing|371=6|372=8|373=1|10=031|
20200612-04:10:39.121411000 : 8=FIX.4.4|9=100|35=W|34=139|49=COEPEXCH|52=20200612-04:10:39.121|56=EXECLINKS|55=amzn|268=1|269=0|270=87|271=2|37=3|10=030|
20200612-04:10:39.121953000 : 8=FIX.4.4|9=78|35=8|34=140|49=COEPEXCH|52=20200612-04:10:39.121|56=EXECLINKS|37=3|39=0|150=0|10=231|
20200612-04:10:39.122135000 : 8=FIX.4.4|9=111|35=3|34=204|49=EXECLINKS|52=20200612-04:10:39.122|56=COEPEXCH|45=140|58=Required tag missing|371=6|372=8|373=1|10=026|
20200612-04:10:39.122189000 : 8=FIX.4.4|9=78|35=8|34=141|49=COEPEXCH|52=20200612-04:10:39.121|56=EXECLINKS|37=3|39=0|150=0|10=232|
20200612-04:10:39.122315000 : 8=FIX.4.4|9=111|35=3|34=205|49=EXECLINKS|52=20200612-04:10:39.122|56=COEPEXCH|45=141|58=Required tag missing|371=6|372=8|373=1|10=028|
20200612-04:10:39.122533000 : 8=FIX.4.4|9=124|35=W|34=142|49=COEPEXCH|52=20200612-04:10:39.122|56=EXECLINKS|55=amzn|268=2|269=0|270=87|271=2|37=3|269=0|270=87|271=2|37=3|10=090|
20200612-04:10:39.153658000 : 8=FIX.4.4|9=147|35=D|34=206|49=EXECLINKS|52=20200612-04:10:39.153|56=COEPEXCH|1=EXECLINKS|11=3|38=2|40=2|44=87|54=1|55=amzn|58=Buy shares|60=20200612-22:29:00.000|10=145|
20200612-04:10:39.154259000 : 8=FIX.4.4|9=78|35=8|34=143|49=COEPEXCH|52=20200612-04:10:39.154|56=EXECLINKS|37=3|39=0|150=0|10=240|
20200612-04:10:39.154436000 : 8=FIX.4.4|9=111|35=3|34=207|49=EXECLINKS|52=20200612-04:10:39.154|56=COEPEXCH|45=143|58=Required tag missing|371=6|372=8|373=1|10=037|
20200612-04:10:39.154486000 : 8=FIX.4.4|9=78|35=8|34=144|49=COEPEXCH|52=20200612-04:10:39.154|56=EXECLINKS|37=3|39=0|150=0|10=241|
20200612-04:10:39.154584000 : 8=FIX.4.4|9=111|35=3|34=208|49=EXECLINKS|52=20200612-04:10:39.154|56=COEPEXCH|45=144|58=Required tag missing|371=6|372=8|373=1|10=039|
20200612-04:10:39.154778000 : 8=FIX.4.4|9=148|35=W|34=145|49=COEPEXCH|52=20200612-04:10:39.154|56=EXECLINKS|55=amzn|268=3|269=0|270=87|271=2|37=3|269=0|270=87|271=2|37=3|269=0|270=87|271=2|37=3|10=163|
20200612-04:10:49.164532000 : 8=FIX.4.4|9=147|35=D|34=209|49=EXECLINKS|52=20200612-04:10:49.164|56=COEPEXCH|1=EXECLINKS|11=3|38=2|40=2|44=87|54=1|55=amzn|58=Buy shares|60=20200612-22:29:00.000|10=151|
20200612-04:10:49.167180000 : 8=FIX.4.4|9=78|35=8|34=146|49=COEPEXCH|52=20200612-04:10:49.166|56=EXECLINKS|37=3|39=0|150=0|10=247|
20200612-04:10:49.168112000 : 8=FIX.4.4|9=111|35=3|34=210|49=EXECLINKS|52=20200612-04:10:49.167|56=COEPEXCH|45=146|58=Required tag missing|371=6|372=8|373=1|10=039|
20200612-04:10:49.168382000 : 8=FIX.4.4|9=78|35=8|34=147|49=COEPEXCH|52=20200612-04:10:49.167|56=EXECLINKS|37=3|39=0|150=0|10=249|
20200612-04:10:49.169060000 : 8=FIX.4.4|9=111|35=3|34=211|49=EXECLINKS|52=20200612-04:10:49.168|56=COEPEXCH|45=147|58=Required tag missing|371=6|372=8|373=1|10=042|
20200612-04:10:49.170219000 : 8=FIX.4.4|9=148|35=W|34=148|49=COEPEXCH|52=20200612-04:10:49.169|56=EXECLINKS|55=amzn|268=3|269=0|270=87|271=2|37=3|269=0|270=87|271=2|37=3|269=0|270=87|271=2|37=3|10=173|
20200612-04:11:09.003054000 : 8=FIX.4.4|9=74|35=A|34=212|49=EXECLINKS|52=20200612-04:11:09.002|56=COEPEXCH|98=0|108=20|10=071|
20200612-04:11:09.003362000 : 8=FIX.4.4|9=74|35=A|34=149|49=COEPEXCH|52=20200612-04:11:09.003|56=EXECLINKS|98=0|108=20|10=081|
20200612-04:11:09.032040000 : 8=FIX.4.4|9=147|35=D|34=213|49=EXECLINKS|52=20200612-04:11:09.031|56=COEPEXCH|1=EXECLINKS|11=3|38=2|40=2|44=87|54=1|55=amzn|58=Buy shares|60=20200612-22:29:00.000|10=136|
20200612-04:11:09.032731000 : 8=FIX.4.4|9=78|35=8|34=150|49=COEPEXCH|52=20200612-04:11:09.032|56=EXECLINKS|37=3|39=0|150=0|10=231|
20200612-04:11:09.032946000 : 8=FIX.4.4|9=111|35=3|34=214|49=EXECLINKS|52=20200612-04:11:09.032|56=COEPEXCH|45=150|58=Required tag missing|371=6|372=8|373=1|10=026|
20200612-04:11:09.033006000 : 8=FIX.4.4|9=78|35=8|34=151|49=COEPEXCH|52=20200612-04:11:09.032|56=EXECLINKS|37=3|39=0|150=0|10=232|
20200612-04:11:09.033146000 : 8=FIX.4.4|9=111|35=3|34=215|49=EXECLINKS|52=20200612-04:11:09.033|56=COEPEXCH|45=151|58=Required tag missing|371=6|372=8|373=1|10=029|
20200612-04:11:19.043329000 : 8=FIX.4.4|9=147|35=D|34=216|49=EXECLINKS|52=20200612-04:11:19.042|56=COEPEXCH|1=EXECLINKS|11=3|38=2|40=2|44=87|54=1|55=amzn|58=Buy shares|60=20200612-22:29:00.000|10=142|
20200612-04:11:19.045448000 : 8=FIX.4.4|9=78|35=8|34=152|49=COEPEXCH|52=20200612-04:11:19.044|56=EXECLINKS|37=3|39=0|150=0|10=237|
20200612-04:11:19.046193000 : 8=FIX.4.4|9=111|35=3|34=217|49=EXECLINKS|52=20200612-04:11:19.045|56=COEPEXCH|45=152|58=Required tag missing|371=6|372=8|373=1|10=036|
20200612-04:11:19.046461000 : 8=FIX.4.4|9=78|35=8|34=153|49=COEPEXCH|52=20200612-04:11:19.045|56=EXECLINKS|37=3|39=0|150=0|10=239|
20200612-04:11:19.047090000 : 8=FIX.4.4|9=111|35=3|34=218|49=EXECLINKS|52=20200612-04:11:19.046|56=COEPEXCH|45=153|58=Required tag missing|371=6|372=8|373=1|10=039|
20200612-04:11:38.588273000 : 8=FIX.4.4|9=74|35=A|34=219|49=EXECLINKS|52=20200612-04:11:38.588|56=COEPEXCH|98=0|108=20|10=099|
20200612-04:11:38.588586000 : 8=FIX.4.4|9=74|35=A|34=154|49=COEPEXCH|52=20200612-04:11:38.588|56=EXECLINKS|98=0|108=20|10=097|
20200612-04:11:38.617507000 : 8=FIX.4.4|9=147|35=D|34=220|49=EXECLINKS|52=20200612-04:11:38.617|56=COEPEXCH|1=EXECLINKS|11=3|38=2|40=2|44=87|54=1|55=amzn|58=Buy shares|60=20200612-22:29:00.000|10=146|
20200612-04:11:38.618240000 : 8=FIX.4.4|9=78|35=8|34=155|49=COEPEXCH|52=20200612-04:11:38.618|56=EXECLINKS|37=3|39=0|150=0|10=248|
20200612-04:11:38.618431000 : 8=FIX.4.4|9=111|35=3|34=221|49=EXECLINKS|52=20200612-04:11:38.618|56=COEPEXCH|45=155|58=Required tag missing|371=6|372=8|373=1|10=041|
20200612-04:11:38.618477000 : 8=FIX.4.4|9=78|35=8|34=156|49=COEPEXCH|52=20200612-04:11:38.618|56=EXECLINKS|37=3|39=0|150=0|10=249|
20200612-04:11:38.618569000 : 8=FIX.4.4|9=111|35=3|34=222|49=EXECLINKS|52=20200612-04:11:38.618|56=COEPEXCH|45=156|58=Required tag missing|371=6|372=8|373=1|10=043|
20200612-04:11:38.618754000 : 8=FIX.4.4|9=100|35=W|34=157|49=COEPEXCH|52=20200612-04:11:38.618|56=EXECLINKS|55=amzn|268=1|269=0|270=87|271=2|37=3|10=041|
20200612-04:11:48.628775000 : 8=FIX.4.4|9=147|35=D|34=223|49=EXECLINKS|52=20200612-04:11:48.628|56=COEPEXCH|1=EXECLINKS|11=3|38=2|40=2|44=87|54=1|55=amzn|58=Buy shares|60=20200612-22:29:00.000|10=152|
20200612-04:11:48.631487000 : 8=FIX.4.4|9=78|35=8|34=158|49=COEPEXCH|52=20200612-04:11:48.630|56=EXECLINKS|37=3|39=0|150=0|10=246|
20200612-04:11:48.632277000 : 8=FIX.4.4|9=111|35=3|34=224|49=EXECLINKS|52=20200612-04:11:48.631|56=COEPEXCH|45=158|58=Required tag missing|371=6|372=8|373=1|10=043|
20200612-04:11:48.632503000 : 8=FIX.4.4|9=78|35=8|34=159|49=COEPEXCH|52=20200612-04:11:48.631|56=EXECLINKS|37=3|39=0|150=0|10=248|
20200612-04:11:48.632955000 : 8=FIX.4.4|9=111|35=3|34=225|49=EXECLINKS|52=20200612-04:11:48.632|56=COEPEXCH|45=159|58=Required tag missing|371=6|372=8|373=1|10=046|
20200612-04:11:48.634157000 : 8=FIX.4.4|9=124|35=W|34=160|49=COEPEXCH|52=20200612-04:11:48.633|56=EXECLINKS|55=amzn|268=2|269=0|270=87|271=2|37=3|269=0|270=87|271=2|37=3|10=098|
20200612-04:12:33.082035000 : 8=FIX.4.4|9=74|35=A|34=226|49=EXECLINKS|52=20200612-04:12:33.081|56=COEPEXCH|98=0|108=20|10=081|
20200612-04:12:33.082371000 : 8=FIX.4.4|9=74|35=A|34=161|49=COEPEXCH|52=20200612-04:12:33.082|56=EXECLINKS|98=0|108=20|10=080|
20200612-04:12:33.111956000 : 8=FIX.4.4|9=147|35=D|34=227|49=EXECLINKS|52=20200612-04:12:33.111|56=COEPEXCH|1=EXECLINKS|11=3|38=2|40=2|44=87|54=1|55=amzn|58=Buy shares|60=20200612-22:29:00.000|10=138|
20200612-04:12:33.112886000 : 8=FIX.4.4|9=100|35=W|34=162|49=COEPEXCH|52=20200612-04:12:33.112|56=EXECLINKS|55=amzn|268=1|269=0|270=87|271=2|37=3|10=022|
20200612-04:12:43.121773000 : 8=FIX.4.4|9=147|35=D|34=228|49=EXECLINKS|52=20200612-04:12:43.121|56=COEPEXCH|1=EXECLINKS|11=3|38=2|40=2|44=87|54=1|55=amzn|58=Buy shares|60=20200612-22:29:00.000|10=141|
20200612-04:12:43.124639000 : 8=FIX.4.4|9=124|35=W|34=163|49=COEPEXCH|52=20200612-04:12:43.124|56=EXECLINKS|55=amzn|268=2|269=0|270=87|271=2|37=3|269=0|270=87|271=2|37=3|10=092|
20200612-04:38:17.127812000 : 8=FIX.4.4|9=74|35=A|34=229|49=EXECLINKS|52=20200612-04:38:17.127|56=COEPEXCH|98=0|108=20|10=095|
20200612-04:38:17.128278000 : 8=FIX.4.4|9=74|35=A|34=164|49=COEPEXCH|52=20200612-04:38:17.128|56=EXECLINKS|98=0|108=20|10=094|
20200612-04:38:17.165271000 : 8=FIX.4.4|9=147|35=D|34=230|49=EXECLINKS|52=20200612-04:38:17.165|56=COEPEXCH|1=EXECLINKS|11=3|38=2|40=2|44=87|54=1|55=amzn|58=Buy shares|60=20200612-22:29:00.000|10=151|
20200612-04:38:17.166349000 : 8=FIX.4.4|9=100|35=W|34=165|49=COEPEXCH|52=20200612-04:38:17.166|56=EXECLINKS|55=amzn|268=1|269=0|270=87|271=2|37=3|10=044|
20200612-04:38:27.175525000 : 8=FIX.4.4|9=147|35=D|34=231|49=EXECLINKS|52=20200612-04:38:27.175|56=COEPEXCH|1=EXECLINKS|11=3|38=2|40=2|44=87|54=1|55=amzn|58=Buy shares|60=20200612-22:29:00.000|10=154|
20200612-04:38:27.185447000 : 8=FIX.4.4|9=124|35=W|34=166|49=COEPEXCH|52=20200612-04:38:27.178|56=EXECLINKS|55=amzn|268=2|269=0|270=87|271=2|37=3|269=0|270=87|271=2|37=3|10=114|
20200612-04:38:37.186015000 : 8=FIX.4.4|9=147|35=D|34=232|49=EXECLINKS|52=20200612-04:38:37.185|56=COEPEXCH|1=EXECLINKS|11=3|38=2|40=2|44=87|54=1|55=amzn|58=Buy shares|60=20200612-22:29:00.000|10=157|
20200612-04:38:37.189793000 : 8=FIX.4.4|9=148|35=W|34=167|49=COEPEXCH|52=20200612-04:38:37.189|56=EXECLINKS|55=amzn|268=3|269=0|270=87|271=2|37=3|269=0|270=87|271=2|37=3|269=0|270=87|271=2|37=3|10=183|
20200612-04:38:47.195626000 : 8=FIX.4.4|9=147|35=D|34=233|49=EXECLINKS|52=20200612-04:38:47.195|56=COEPEXCH|1=EXECLINKS|11=3|38=2|40=2|44=87|54=1|55=amzn|58=Buy shares|60=20200612-22:29:00.000|10=160|
20200612-04:38:47.205609000 : 8=FIX.4.4|9=148|35=W|34=168|49=COEPEXCH|52=20200612-04:38:47.200|56=EXECLINKS|55=amzn|268=3|269=0|270=87|271=2|37=3|269=0|270=87|271=2|37=3|269=0|270=87|271=2|37=3|10=169|
20200612-04:38:57.205717000 : 8=FIX.4.4|9=147|35=D|34=234|49=EXECLINKS|52=20200612-04:38:57.205|56=COEPEXCH|1=EXECLINKS|11=3|38=2|40=2|44=87|54=1|55=amzn|58=Buy shares|60=20200612-22:29:00.000|10=154|
20200612-04:38:57.210935000 : 8=FIX.4.4|9=148|35=W|34=169|49=COEPEXCH|52=20200612-04:38:57.209|56=EXECLINKS|55=amzn|268=3|269=0|270=87|271=2|37=3|269=0|270=87|271=2|37=3|269=0|270=87|271=2|37=3|10=180|
20200612-04:39:07.215148000 : 8=FIX.4.4|9=147|35=D|34=235|49=EXECLINKS|52=20200612-04:39:07.214|56=COEPEXCH|1=EXECLINKS|11=3|38=2|40=2|44=87|54=1|55=amzn|58=Buy shares|60=20200612-22:29:00.000|10=151|
20200612-04:39:07.221461000 : 8=FIX.4.4|9=148|35=W|34=170|49=COEPEXCH|52=20200612-04:39:07.220|56=EXECLINKS|55=amzn|268=3|269=0|270=87|271=2|37=3|269=0|270=87|271=2|37=3|269=0|270=87|271=2|37=3|10=161|
20200612-04:40:33.753903000 : 8=FIX.4.4|9=74|35=A|34=236|49=EXECLINKS|52=20200612-04:40:33.753|56=COEPEXCH|98=0|108=20|10=089|
20200612-04:40:33.754383000 : 8=FIX.4.4|9=74|35=A|34=171|49=COEPEXCH|52=20200612-04:40:33.754|56=EXECLINKS|98=0|108=20|10=088|
20200612-04:40:33.788217000 : 8=FIX.4.4|9=147|35=D|34=237|49=EXECLINKS|52=20200612-04:40:33.788|56=COEPEXCH|1=EXECLINKS|11=3|38=2|40=2|44=87|54=1|55=amzn|58=Buy shares|60=20200612-22:29:00.000|10=160|
20200612-04:40:58.715207000 : 8=FIX.4.4|9=74|35=A|34=238|49=EXECLINKS|52=20200612-04:40:58.715|56=COEPEXCH|98=0|108=20|10=096|
20200612-04:40:58.715707000 : 8=FIX.4.4|9=74|35=A|34=172|49=COEPEXCH|52=20200612-04:40:58.715|56=EXECLINKS|98=0|108=20|10=093|
20200612-04:40:58.751351000 : 8=FIX.4.4|9=147|35=D|34=239|49=EXECLINKS|52=20200612-04:40:58.751|56=COEPEXCH|1=EXECLINKS|11=3|38=2|40=2|44=87|54=1|55=amzn|58=Buy shares|60=20200612-22:29:00.000|10=159|
20200612-04:41:08.762392000 : 8=FIX.4.4|9=147|35=D|34=240|49=EXECLINKS|52=20200612-04:41:08.761|56=COEPEXCH|1=EXECLINKS|11=3|38=2|40=2|44=87|54=1|55=amzn|58=Buy shares|60=20200612-22:29:00.000|10=148|
20200612-04:41:18.699056000 : 8=FIX.4.4|9=62|35=0|34=173|49=COEPEXCH|52=20200612-04:41:18.698|56=EXECLINKS|10=057|
20200612-04:41:18.772469000 : 8=FIX.4.4|9=147|35=D|34=241|49=EXECLINKS|52=20200612-04:41:18.772|56=COEPEXCH|1=EXECLINKS|11=3|38=2|40=2|44=87|54=1|55=amzn|58=Buy shares|60=20200612-22:29:00.000|10=152|
20200612-04:41:28.784105000 : 8=FIX.4.4|9=147|35=D|34=242|49=EXECLINKS|52=20200612-04:41:28.783|56=COEPEXCH|1=EXECLINKS|11=3|38=2|40=2|44=87|54=1|55=amzn|58=Buy shares|60=20200612-22:29:00.000|10=156|
20200612-04:41:38.864342000 : 8=FIX.4.4|9=147|35=D|34=243|49=EXECLINKS|52=20200612-04:41:38.795|56=COEPEXCH|1=EXECLINKS|11=3|38=2|40=2|44=87|54=1|55=amzn|58=Buy shares|60=20200612-22:29:00.000|10=161|
20200612-04:41:38.865149000 : 8=FIX.4.4|9=62|35=0|34=174|49=COEPEXCH|52=20200612-04:41:38.617|56=EXECLINKS|10=051|
20200612-04:42:29.380560000 : 8=FIX.4.4|9=74|35=A|34=244|49=EXECLINKS|52=20200612-04:42:29.380|56=COEPEXCH|98=0|108=20|10=091|
20200612-04:42:29.381361000 : 8=FIX.4.4|9=74|35=A|34=175|49=COEPEXCH|52=20200612-04:42:29.380|56=EXECLINKS|98=0|108=20|10=094|
20200612-04:42:29.435383000 : 8=FIX.4.4|9=147|35=D|34=245|49=EXECLINKS|52=20200612-04:42:29.435|56=COEPEXCH|1=EXECLINKS|11=3|38=2|40=2|44=87|54=1|55=amzn|58=Buy shares|60=20200612-22:29:00.000|10=155|
20200612-04:42:29.437158000 : 8=FIX.4.4|9=78|35=8|34=176|49=COEPEXCH|52=20200612-04:42:29.436|56=EXECLINKS|37=3|39=0|150=0|10=253|
20200612-04:42:29.437398000 : 8=FIX.4.4|9=111|35=3|34=246|49=EXECLINKS|52=20200612-04:42:29.437|56=COEPEXCH|45=176|58=Required tag missing|371=6|372=8|373=1|10=054|
20200612-04:42:39.447595000 : 8=FIX.4.4|9=147|35=D|34=247|49=EXECLINKS|52=20200612-04:42:39.447|56=COEPEXCH|1=EXECLINKS|11=3|38=2|40=2|44=87|54=1|55=amzn|58=Buy shares|60=20200612-22:29:00.000|10=161|
20200612-04:42:39.448257000 : 8=FIX.4.4|9=78|35=8|34=177|49=COEPEXCH|52=20200612-04:42:39.448|56=EXECLINKS|37=3|39=0|150=0|10=002|
20200612-04:42:39.448475000 : 8=FIX.4.4|9=111|35=3|34=248|49=EXECLINKS|52=20200612-04:42:39.448|56=COEPEXCH|45=177|58=Required tag missing|371=6|372=8|373=1|10=060|
20200612-04:42:49.458724000 : 8=FIX.4.4|9=147|35=D|34=249|49=EXECLINKS|52=20200612-04:42:49.457|56=COEPEXCH|1=EXECLINKS|11=3|38=2|40=2|44=87|54=1|55=amzn|58=Buy shares|60=20200612-22:29:00.000|10=165|
20200612-04:42:49.464026000 : 8=FIX.4.4|9=78|35=8|34=178|49=COEPEXCH|52=20200612-04:42:49.463|56=EXECLINKS|37=3|39=0|150=0|10=001|
20200612-04:42:49.464286000 : 8=FIX.4.4|9=111|35=3|34=250|49=EXECLINKS|52=20200612-04:42:49.464|56=COEPEXCH|45=178|58=Required tag missing|371=6|372=8|373=1|10=053|
20200612-04:42:53.219313000 : 8=FIX.4.4|9=71|35=1|34=251|49=EXECLINKS|52=20200612-04:42:53.218|56=COEPEXCH|112=TEST|10=061|
20200612-04:42:53.220851000 : 8=FIX.4.4|9=71|35=0|34=179|49=COEPEXCH|52=20200612-04:42:53.219|56=EXECLINKS|112=TEST|10=070|
20200612-04:42:59.467852000 : 8=FIX.4.4|9=147|35=D|34=252|49=EXECLINKS|52=20200612-04:42:59.467|56=COEPEXCH|1=EXECLINKS|11=3|38=2|40=2|44=87|54=1|55=amzn|58=Buy shares|60=20200612-22:29:00.000|10=161|
20200612-04:42:59.469893000 : 8=FIX.4.4|9=78|35=8|34=180|49=COEPEXCH|52=20200612-04:42:59.469|56=EXECLINKS|37=3|39=0|150=0|10=001|
20200612-04:42:59.470182000 : 8=FIX.4.4|9=111|35=3|34=253|49=EXECLINKS|52=20200612-04:42:59.470|56=COEPEXCH|45=180|58=Required tag missing|371=6|372=8|373=1|10=047|
20200612-04:43:29.567538000 : 8=FIX.4.4|9=74|35=A|34=257|49=EXECLINKS|52=20200612-04:43:29.567|56=COEPEXCH|98=0|108=20|10=103|
20200612-04:43:59.312102000 : 8=FIX.4.4|9=74|35=A|34=260|49=EXECLINKS|52=20200612-04:43:59.311|56=COEPEXCH|98=0|108=20|10=087|
20200612-04:44:02.633039000 : 8=FIX.4.4|9=74|35=A|34=262|49=EXECLINKS|52=20200612-04:44:02.632|56=COEPEXCH|98=0|108=20|10=084|
20200612-04:44:02.633709000 : 8=FIX.4.4|9=74|35=A|34=181|49=COEPEXCH|52=20200612-04:44:02.633|56=EXECLINKS|98=0|108=20|10=085|
20200612-04:44:02.634024000 : 8=FIX.4.4|9=73|35=2|34=182|49=COEPEXCH|52=20200612-04:44:02.633|56=EXECLINKS|7=254|16=0|10=019|
20200612-04:44:02.634192000 : 8=FIX.4.4|9=178|35=D|34=254|43=Y|49=EXECLINKS|52=20200612-04:44:02.634|56=COEPEXCH|122=20200612-04:43:09.477|1=EXECLINKS|11=3|38=2|40=2|44=87|54=1|55=amzn|58=Buy shares|60=20200612-22:29:00.000|10=156|
20200612-04:44:02.634301000 : 8=FIX.4.4|9=178|35=D|34=255|43=Y|49=EXECLINKS|52=20200612-04:44:02.634|56=COEPEXCH|122=20200612-04:43:19.487|1=EXECLINKS|11=3|38=2|40=2|44=87|54=1|55=amzn|58=Buy shares|60=20200612-22:29:00.000|10=159|
20200612-04:44:02.634352000 : 8=FIX.4.4|9=178|35=D|34=256|43=Y|49=EXECLINKS|52=20200612-04:44:02.634|56=COEPEXCH|122=20200612-04:43:29.497|1=EXECLINKS|11=3|38=2|40=2|44=87|54=1|55=amzn|58=Buy shares|60=20200612-22:29:00.000|10=162|
20200612-04:44:02.634426000 : 8=FIX.4.4|9=106|35=4|34=257|43=Y|49=EXECLINKS|52=20200612-04:44:02.634|56=COEPEXCH|122=20200612-04:44:02.634|36=258|123=Y|10=204|
20200612-04:44:02.634452000 : 8=FIX.4.4|9=178|35=D|34=258|43=Y|49=EXECLINKS|52=20200612-04:44:02.634|56=COEPEXCH|122=20200612-04:43:39.507|1=EXECLINKS|11=3|38=2|40=2|44=87|54=1|55=amzn|58=Buy shares|60=20200612-22:29:00.000|10=157|
20200612-04:44:02.634512000 : 8=FIX.4.4|9=178|35=D|34=259|43=Y|49=EXECLINKS|52=20200612-04:44:02.634|56=COEPEXCH|122=20200612-04:43:49.517|1=EXECLINKS|11=3|38=2|40=2|44=87|54=1|55=amzn|58=Buy shares|60=20200612-22:29:00.000|10=160|
20200612-04:44:02.634581000 : 8=FIX.4.4|9=106|35=4|34=260|43=Y|49=EXECLINKS|52=20200612-04:44:02.634|56=COEPEXCH|122=20200612-04:44:02.634|36=261|123=Y|10=192|
20200612-04:44:02.634609000 : 8=FIX.4.4|9=178|35=D|34=261|43=Y|49=EXECLINKS|52=20200612-04:44:02.634|56=COEPEXCH|122=20200612-04:43:59.527|1=EXECLINKS|11=3|38=2|40=2|44=87|54=1|55=amzn|58=Buy shares|60=20200612-22:29:00.000|10=155|
20200612-04:44:02.634648000 : 8=FIX.4.4|9=106|35=4|34=262|43=Y|49=EXECLINKS|52=20200612-04:44:02.634|56=COEPEXCH|122=20200612-04:44:02.634|36=263|123=Y|10=196|
20200612-04:44:02.635403000 : 8=FIX.4.4|9=78|35=8|34=183|49=COEPEXCH|52=20200612-04:44:02.635|56=EXECLINKS|37=3|39=0|150=0|10=245|
20200612-04:44:02.635644000 : 8=FIX.4.4|9=111|35=3|34=263|49=EXECLINKS|52=20200612-04:44:02.635|56=COEPEXCH|45=183|58=Required tag missing|371=6|372=8|373=1|10=044|
20200612-04:44:02.636390000 : 8=FIX.4.4|9=78|35=8|34=184|49=COEPEXCH|52=20200612-04:44:02.636|56=EXECLINKS|37=3|39=0|150=0|10=247|
20200612-04:44:02.636578000 : 8=FIX.4.4|9=111|35=3|34=264|49=EXECLINKS|52=20200612-04:44:02.636|56=COEPEXCH|45=184|58=Required tag missing|371=6|372=8|373=1|10=047|
20200612-04:44:02.637216000 : 8=FIX.4.4|9=78|35=8|34=185|49=COEPEXCH|52=20200612-04:44:02.637|56=EXECLINKS|37=3|39=0|150=0|10=249|
20200612-04:44:02.637413000 : 8=FIX.4.4|9=111|35=3|34=265|49=EXECLINKS|52=20200612-04:44:02.637|56=COEPEXCH|45=185|58=Required tag missing|371=6|372=8|373=1|10=050|
20200612-04:44:02.638001000 : 8=FIX.4.4|9=78|35=8|34=186|49=COEPEXCH|52=20200612-04:44:02.637|56=EXECLINKS|37=3|39=0|150=0|10=250|
20200612-04:44:02.638176000 : 8=FIX.4.4|9=111|35=3|34=266|49=EXECLINKS|52=20200612-04:44:02.638|56=COEPEXCH|45=186|58=Required tag missing|371=6|372=8|373=1|10=053|
20200612-04:44:02.638697000 : 8=FIX.4.4|9=78|35=8|34=187|49=COEPEXCH|52=20200612-04:44:02.638|56=EXECLINKS|37=3|39=0|150=0|10=252|
20200612-04:44:02.638868000 : 8=FIX.4.4|9=111|35=3|34=267|49=EXECLINKS|52=20200612-04:44:02.638|56=COEPEXCH|45=187|58=Required tag missing|371=6|372=8|373=1|10=055|
20200612-04:44:02.640312000 : 8=FIX.4.4|9=78|35=8|34=188|49=COEPEXCH|52=20200612-04:44:02.640|56=EXECLINKS|37=3|39=0|150=0|10=246|
20200612-04:44:02.640534000 : 8=FIX.4.4|9=111|35=3|34=268|49=EXECLINKS|52=20200612-04:44:02.640|56=COEPEXCH|45=188|58=Required tag missing|371=6|372=8|373=1|10=050|
20200612-04:44:02.671907000 : 8=FIX.4.4|9=147|35=D|34=269|49=EXECLINKS|52=20200612-04:44:02.671|56=COEPEXCH|1=EXECLINKS|11=3|38=2|40=2|44=87|54=1|55=amzn|58=Buy shares|60=20200612-22:29:00.000|10=156|
20200612-04:44:02.672788000 : 8=FIX.4.4|9=78|35=8|34=189|49=COEPEXCH|52=20200612-04:44:02.672|56=EXECLINKS|37=3|39=0|150=0|10=252|
20200612-04:44:02.672989000 : 8=FIX.4.4|9=111|35=3|34=270|49=EXECLINKS|52=20200612-04:44:02.672|56=COEPEXCH|45=189|58=Required tag missing|371=6|372=8|373=1|10=049|
20200612-04:44:12.683906000 : 8=FIX.4.4|9=147|35=D|34=271|49=EXECLINKS|52=20200612-04:44:12.683|56=COEPEXCH|1=EXECLINKS|11=3|38=2|40=2|44=87|54=1|55=amzn|58=Buy shares|60=20200612-22:29:00.000|10=153|
20200612-04:44:12.690609000 : 8=FIX.4.4|9=78|35=8|34=190|49=COEPEXCH|52=20200612-04:44:12.689|56=EXECLINKS|37=3|39=0|150=0|10=253|
20200612-04:44:12.691502000 : 8=FIX.4.4|9=111|35=3|34=272|49=EXECLINKS|52=20200612-04:44:12.691|56=COEPEXCH|45=190|58=Required tag missing|371=6|372=8|373=1|10=045|
20200612-04:46:39.488577000 : 8=FIX.4.4|9=74|35=A|34=273|49=EXECLINKS|52=20200612-04:46:39.488|56=COEPEXCH|98=0|108=20|10=107|
20200612-04:46:39.489443000 : 8=FIX.4.4|9=74|35=A|34=191|49=COEPEXCH|52=20200612-04:46:39.489|56=EXECLINKS|98=0|108=20|10=107|
20200612-04:46:39.528094000 : 8=FIX.4.4|9=147|35=D|34=274|49=EXECLINKS|52=20200612-04:46:39.527|56=COEPEXCH|1=EXECLINKS|11=3|38=2|40=2|44=87|54=1|55=amzn|58=Buy shares|60=20200612-22:29:00.000|10=164|
20200612-04:46:39.529229000 : 8=FIX.4.4|9=78|35=8|34=192|49=COEPEXCH|52=20200612-04:46:39.528|56=EXECLINKS|37=3|39=0|150=0|10=002|
20200612-04:46:39.529414000 : 8=FIX.4.4|9=111|35=3|34=275|49=EXECLINKS|52=20200612-04:46:39.529|56=COEPEXCH|45=192|58=Required tag missing|371=6|372=8|373=1|10=061|
20200612-04:46:49.537567000 : 8=FIX.4.4|9=147|35=D|34=276|49=EXECLINKS|52=20200612-04:46:49.537|56=COEPEXCH|1=EXECLINKS|11=3|38=2|40=2|44=87|54=1|55=amzn|58=Buy shares|60=20200612-22:29:00.000|10=168|
20200612-04:46:49.538417000 : 8=FIX.4.4|9=78|35=8|34=193|49=COEPEXCH|52=20200612-04:46:49.538|56=EXECLINKS|37=3|39=0|150=0|10=005|
20200612-04:46:49.538638000 : 8=FIX.4.4|9=111|35=3|34=277|49=EXECLINKS|52=20200612-04:46:49.538|56=COEPEXCH|45=193|58=Required tag missing|371=6|372=8|373=1|10=065|
20200612-04:46:59.548020000 : 8=FIX.4.4|9=147|35=D|34=278|49=EXECLINKS|52=20200612-04:46:59.547|56=COEPEXCH|1=EXECLINKS|11=3|38=2|40=2|44=87|54=1|55=amzn|58=Buy shares|60=20200612-22:29:00.000|10=172|
20200612-04:46:59.549769000 : 8=FIX.4.4|9=78|35=8|34=194|49=COEPEXCH|52=20200612-04:46:59.548|56=EXECLINKS|37=3|39=0|150=0|10=008|
20200612-04:46:59.550000000 : 8=FIX.4.4|9=111|35=3|34=279|49=EXECLINKS|52=20200612-04:46:59.549|56=COEPEXCH|45=194|58=Required tag missing|371=6|372=8|373=1|10=071|
20200612-04:47:03.376483000 : 8=FIX.4.4|9=71|35=1|34=280|49=EXECLINKS|52=20200612-04:47:03.375|56=COEPEXCH|112=TEST|10=067|
20200612-04:47:03.378508000 : 8=FIX.4.4|9=71|35=0|34=195|49=COEPEXCH|52=20200612-04:47:03.377|56=EXECLINKS|112=TEST|10=073|
20200612-04:47:09.558252000 : 8=FIX.4.4|9=147|35=D|34=281|49=EXECLINKS|52=20200612-04:47:09.558|56=COEPEXCH|1=EXECLINKS|11=3|38=2|40=2|44=87|54=1|55=amzn|58=Buy shares|60=20200612-22:29:00.000|10=164|
20200612-04:47:09.559614000 : 8=FIX.4.4|9=78|35=8|34=196|49=COEPEXCH|52=20200612-04:47:09.558|56=EXECLINKS|37=3|39=0|150=0|10=007|
20200612-04:47:09.559830000 : 8=FIX.4.4|9=111|35=3|34=282|49=EXECLINKS|52=20200612-04:47:09.559|56=COEPEXCH|45=196|58=Required tag missing|371=6|372=8|373=1|10=064|
20200612-04:57:16.986185000 : 8=FIX.4.4|9=74|35=A|34=283|49=EXECLINKS|52=20200612-04:57:16.986|56=COEPEXCH|98=0|108=20|10=108|
20200612-04:57:16.987192000 : 8=FIX.4.4|9=74|35=A|34=197|49=COEPEXCH|52=20200612-04:57:16.986|56=EXECLINKS|98=0|108=20|10=112|
20200612-04:57:17.018516000 : 8=FIX.4.4|9=147|35=D|34=284|49=EXECLINKS|52=20200612-04:57:17.018|56=COEPEXCH|1=EXECLINKS|11=3|38=2|40=2|44=87|54=1|55=amzn|58=Buy shares|60=20200612-22:29:00.000|10=158|
20200612-04:57:17.019449000 : 8=FIX.4.4|9=62|35=D|34=198|49=COEPEXCH|52=20200612-04:57:17.019|56=EXECLINKS|10=077|
20200612-04:57:17.019779000 : 8=FIX.4.4|9=112|35=3|34=285|49=EXECLINKS|52=20200612-04:57:17.019|56=COEPEXCH|45=198|58=Required tag missing|371=11|372=D|373=1|10=117|
20200612-04:57:27.028925000 : 8=FIX.4.4|9=147|35=D|34=286|49=EXECLINKS|52=20200612-04:57:27.028|56=COEPEXCH|1=EXECLINKS|11=3|38=2|40=2|44=87|54=1|55=amzn|58=Buy shares|60=20200612-22:29:00.000|10=162|
20200612-04:57:27.030802000 : 8=FIX.4.4|9=62|35=D|34=199|49=COEPEXCH|52=20200612-04:57:27.030|56=EXECLINKS|10=072|
20200612-04:57:27.031264000 : 8=FIX.4.4|9=112|35=3|34=287|49=EXECLINKS|52=20200612-04:57:27.031|56=COEPEXCH|45=199|58=Required tag missing|371=11|372=D|373=1|10=115|
20200612-04:57:37.039042000 : 8=FIX.4.4|9=147|35=D|34=288|49=EXECLINKS|52=20200612-04:57:37.038|56=COEPEXCH|1=EXECLINKS|11=3|38=2|40=2|44=87|54=1|55=amzn|58=Buy shares|60=20200612-22:29:00.000|10=166|
20200612-04:57:37.040287000 : 8=FIX.4.4|9=62|35=D|34=200|49=COEPEXCH|52=20200612-04:57:37.039|56=EXECLINKS|10=065|
20200612-04:57:37.040692000 : 8=FIX.4.4|9=112|35=3|34=289|49=EXECLINKS|52=20200612-04:57:37.040|56=COEPEXCH|45=200|58=Required tag missing|371=11|372=D|373=1|10=101|
20200612-04:58:20.932630000 : 8=FIX.4.4|9=74|35=A|34=290|49=EXECLINKS|52=20200612-04:58:20.932|56=COEPEXCH|98=0|108=20|10=093|
20200612-04:58:20.933296000 : 8=FIX.4.4|9=74|35=A|34=201|49=COEPEXCH|52=20200612-04:58:20.933|56=EXECLINKS|98=0|108=20|10=086|
20200612-04:58:20.965970000 : 8=FIX.4.4|9=147|35=D|34=291|49=EXECLINKS|52=20200612-04:58:20.965|56=COEPEXCH|1=EXECLINKS|11=3|38=2|40=2|44=87|54=1|55=amzn|58=Buy shares|60=20200612-22:29:00.000|10=162|
20200612-04:58:20.966860000 : 8=FIX.4.4|9=62|35=D|34=202|49=COEPEXCH|52=20200612-04:58:20.966|56=EXECLINKS|10=069|
20200612-04:58:20.967123000 : 8=FIX.4.4|9=112|35=3|34=292|49=EXECLINKS|52=20200612-04:58:20.966|56=COEPEXCH|45=202|58=Required tag missing|371=11|372=D|373=1|10=107|
20200612-04:58:20.967675000 : 8=FIX.4.4|9=100|35=W|34=203|49=COEPEXCH|52=20200612-04:58:20.967|56=EXECLINKS|55=amzn|268=1|269=0|270=87|271=2|37=3|10=042|
20200612-04:58:30.976621000 : 8=FIX.4.4|9=147|35=D|34=293|49=EXECLINKS|52=20200612-04:58:30.976|56=COEPEXCH|1=EXECLINKS|11=3|38=2|40=2|44=87|54=1|55=amzn|58=Buy shares|60=20200612-22:29:00.000|10=167|
20200612-04:58:30.978030000 : 8=FIX.4.4|9=62|35=D|34=204|49=COEPEXCH|52=20200612-04:58:30.977|56=EXECLINKS|10=074|
20200612-04:58:30.978402000 : 8=FIX.4.4|9=112|35=3|34=294|49=EXECLINKS|52=20200612-04:58:30.978|56=COEPEXCH|45=204|58=Required tag missing|371=11|372=D|373=1|10=115|
20200612-04:58:30.979134000 : 8=FIX.4.4|9=124|35=W|34=205|49=COEPEXCH|52=20200612-04:58:30.978|56=EXECLINKS|55=amzn|268=2|269=0|270=87|271=2|37=3|269=0|270=87|271=2|37=3|10=112|
20200612-04:59:03.110142000 : 8=FIX.4.4|9=74|35=A|34=295|49=EXECLINKS|52=20200612-04:59:03.110|56=COEPEXCH|98=0|108=20|10=088|
20200612-04:59:03.110691000 : 8=FIX.4.4|9=74|35=A|34=206|49=COEPEXCH|52=20200612-04:59:03.110|56=EXECLINKS|98=0|108=20|10=080|
20200612-04:59:03.159601000 : 8=FIX.4.4|9=147|35=D|34=296|49=EXECLINKS|52=20200612-04:59:03.159|56=COEPEXCH|1=EXECLINKS|11=3|38=2|40=2|44=87|54=1|55=amzn|58=Buy shares|60=20200612-22:29:00.000|10=164|
20200612-04:59:03.160531000 : 8=FIX.4.4|9=62|35=D|34=207|49=COEPEXCH|52=20200612-04:59:03.160|56=EXECLINKS|10=062|
20200612-04:59:03.160784000 : 8=FIX.4.4|9=112|35=3|34=297|49=EXECLINKS|52=20200612-04:59:03.160|56=COEPEXCH|45=207|58=Required tag missing|371=11|372=D|373=1|10=105|
20200612-04:59:03.160851000 : 8=FIX.4.4|9=62|35=D|34=208|49=COEPEXCH|52=20200612-04:59:03.160|56=EXECLINKS|10=063|
20200612-04:59:03.161010000 : 8=FIX.4.4|9=112|35=3|34=298|49=EXECLINKS|52=20200612-04:59:03.160|56=COEPEXCH|45=208|58=Required tag missing|371=11|372=D|373=1|10=107|
20200612-05:02:27.713081000 : 8=FIX.4.4|9=74|35=A|34=299|49=EXECLINKS|52=20200612-05:02:27.712|56=COEPEXCH|98=0|108=20|10=095|
20200612-05:02:27.714482000 : 8=FIX.4.4|9=74|35=A|34=209|49=COEPEXCH|52=20200612-05:02:27.713|56=EXECLINKS|98=0|108=20|10=087|
20200612-05:02:27.751460000 : 8=FIX.4.4|9=147|35=D|34=300|49=EXECLINKS|52=20200612-05:02:27.751|56=COEPEXCH|1=EXECLINKS|11=3|38=2|40=2|44=87|54=1|55=amzn|58=Buy shares|60=20200612-22:29:00.000|10=143|
20200612-05:02:57.480283000 : 8=FIX.4.4|9=74|35=A|34=303|49=EXECLINKS|52=20200612-05:02:57.480|56=COEPEXCH|98=0|108=20|10=086|
20200612-05:03:27.894066000 : 8=FIX.4.4|9=74|35=A|34=308|49=EXECLINKS|52=20200612-05:03:27.893|56=COEPEXCH|98=0|108=20|10=097|
20200612-05:03:53.348111000 : 8=FIX.4.4|9=74|35=A|34=311|49=EXECLINKS|52=20200612-05:03:53.347|56=COEPEXCH|98=0|108=20|10=084|
20200612-05:03:53.349165000 : 8=FIX.4.4|9=74|35=A|34=210|49=COEPEXCH|52=20200612-05:03:53.348|56=EXECLINKS|98=0|108=20|10=083|
20200612-05:03:53.349341000 : 8=FIX.4.4|9=73|35=2|34=211|49=COEPEXCH|52=20200612-05:03:53.348|56=EXECLINKS|7=300|16=0|10=009|
20200612-05:03:53.349470000 : 8=FIX.4.4|9=178|35=D|34=300|43=Y|49=EXECLINKS|52=20200612-05:03:53.349|56=COEPEXCH|122=20200612-05:02:27.751|1=EXECLINKS|11=3|38=2|40=2|44=87|54=1|55=amzn|58=Buy shares|60=20200612-22:29:00.000|10=144|
20200612-05:03:53.349566000 : 8=FIX.4.4|9=178|35=D|34=301|43=Y|49=EXECLINKS|52=20200612-05:03:53.349|56=COEPEXCH|122=20200612-05:02:37.761|1=EXECLINKS|11=3|38=2|40=2|44=87|54=1|55=amzn|58=Buy shares|60=20200612-22:29:00.000|10=147|
20200612-05:03:53.349636000 : 8=FIX.4.4|9=178|35=D|34=302|43=Y|49=EXECLINKS|52=20200612-05:03:53.349|56=COEPEXCH|122=20200612-05:02:47.771|1=EXECLINKS|11=3|38=2|40=2|44=87|54=1|55=amzn|58=Buy shares|60=20200612-22:29:00.000|10=150|
20200612-05:03:53.349744000 : 8=FIX.4.4|9=106|35=4|34=303|43=Y|49=EXECLINKS|52=20200612-05:03:53.349|56=COEPEXCH|122=20200612-05:03:53.349|36=304|123=Y|10=198|
20200612-05:03:53.349781000 : 8=FIX.4.4|9=178|35=D|34=304|43=Y|49=EXECLINKS|52=20200612-05:03:53.349|56=COEPEXCH|122=20200612-05:02:57.781|1=EXECLINKS|11=3|38=2|40=2|44=87|54=1|55=amzn|58=Buy shares|60=20200612-22:29:00.000|10=154|
20200612-05:03:53.349838000 : 8=FIX.4.4|9=178|35=D|34=305|43=Y|49=EXECLINKS|52=20200612-05:03:53.349|56=COEPEXCH|122=20200612-05:03:07.792|1=EXECLINKS|11=3|38=2|40=2|44=87|54=1|55=amzn|58=Buy shares|60=20200612-22:29:00.000|10=153|
20200612-05:03:53.349897000 : 8=FIX.4.4|9=178|35=D|34=306|43=Y|49=EXECLINKS|52=20200612-05:03:53.349|56=COEPEXCH|122=20200612-05:03:17.803|1=EXECLINKS|11=3|38=2|40=2|44=87|54=1|55=amzn|58=Buy shares|60=20200612-22:29:00.000|10=148|
20200612-05:03:53.349957000 : 8=FIX.4.4|9=178|35=D|34=307|43=Y|49=EXECLINKS|52=20200612-05:03:53.349|56=COEPEXCH|122=20200612-05:03:27.814|1=EXECLINKS|11=3|38=2|40=2|44=87|54=1|55=amzn|58=Buy shares|60=20200612-22:29:00.000|10=152|
20200612-05:03:53.350041000 : 8=FIX.4.4|9=106|35=4|34=308|43=Y|49=EXECLINKS|52=20200612-05:03:53.350|56=COEPEXCH|122=20200612-05:03:53.350|36=309|123=Y|10=192|
20200612-05:03:53.350075000 : 8=FIX.4.4|9=178|35=D|34=309|43=Y|49=EXECLINKS|52=20200612-05:03:53.349|56=COEPEXCH|122=20200612-05:03:37.825|1=EXECLINKS|11=3|38=2|40=2|44=87|54=1|55=amzn|58=Buy shares|60=20200612-22:29:00.000|10=157|
20200612-05:03:53.350130000 : 8=FIX.4.4|9=178|35=D|34=310|43=Y|49=EXECLINKS|52=20200612-05:03:53.350|56=COEPEXCH|122=20200612-05:03:47.834|1=EXECLINKS|11=3|38=2|40=2|44=87|54=1|55=amzn|58=Buy shares|60=20200612-22:29:00.000|10=142|
20200612-05:03:53.350212000 : 8=FIX.4.4|9=106|35=4|34=311|43=Y|49=EXECLINKS|52=20200612-05:03:53.350|56=COEPEXCH|122=20200612-05:03:53.350|36=312|123=Y|10=180|
20200612-05:03:53.404394000 : 8=FIX.4.4|9=147|35=D|34=312|49=EXECLINKS|52=20200612-05:03:53.404|56=COEPEXCH|1=EXECLINKS|11=3|38=2|40=2|44=87|54=1|55=amzn|58=Buy shares|60=20200612-22:29:00.000|10=141|
20200612-05:04:22.420035000 : 8=FIX.4.4|9=74|35=A|34=315|49=EXECLINKS|52=20200612-05:04:22.419|56=COEPEXCH|98=0|108=20|10=085|
20200612-05:04:22.420900000 : 8=FIX.4.4|9=74|35=A|34=212|49=COEPEXCH|52=20200612-05:04:22.420|56=EXECLINKS|98=0|108=20|10=073|
20200612-05:04:22.421091000 : 8=FIX.4.4|9=73|35=2|34=213|49=COEPEXCH|52=20200612-05:04:22.420|56=EXECLINKS|7=300|16=0|10=255|
20200612-05:04:22.421250000 : 8=FIX.4.4|9=178|35=D|34=300|43=Y|49=EXECLINKS|52=20200612-05:04:22.421|56=COEPEXCH|122=20200612-05:02:27.751|1=EXECLINKS|11=3|38=2|40=2|44=87|54=1|55=amzn|58=Buy shares|60=20200612-22:29:00.000|10=132|
20200612-05:04:22.421339000 : 8=FIX.4.4|9=178|35=D|34=301|43=Y|49=EXECLINKS|52=20200612-05:04:22.421|56=COEPEXCH|122=20200612-05:02:37.761|1=EXECLINKS|11=3|38=2|40=2|44=87|54=1|55=amzn|58=Buy shares|60=20200612-22:29:00.000|10=135|
20200612-05:04:22.421405000 : 8=FIX.4.4|9=178|35=D|34=302|43=Y|49=EXECLINKS|52=20200612-05:04:22.421|56=COEPEXCH|122=20200612-05:02:47.771|1=EXECLINKS|11=3|38=2|40=2|44=87|54=1|55=amzn|58=Buy shares|60=20200612-22:29:00.000|10=138|
20200612-05:04:22.421513000 : 8=FIX.4.4|9=106|35=4|34=303|43=Y|49=EXECLINKS|52=20200612-05:04:22.421|56=COEPEXCH|122=20200612-05:04:22.421|36=304|123=Y|10=174|
20200612-05:04:22.421556000 : 8=FIX.4.4|9=178|35=D|34=304|43=Y|49=EXECLINKS|52=20200612-05:04:22.421|56=COEPEXCH|122=20200612-05:02:57.781|1=EXECLINKS|11=3|38=2|40=2|44=87|54=1|55=amzn|58=Buy shares|60=20200612-22:29:00.000|10=142|
20200612-05:04:22.421623000 : 8=FIX.4.4|9=178|35=D|34=305|43=Y|49=EXECLINKS|52=20200612-05:04:22.421|56=COEPEXCH|122=20200612-05:03:07.792|1=EXECLINKS|11=3|38=2|40=2|44=87|54=1|55=amzn|58=Buy shares|60=20200612-22:29:00.000|10=141|
20200612-05:04:22.421688000 : 8=FIX.4.4|9=178|35=D|34=306|43=Y|49=EXECLINKS|52=20200612-05:04:22.421|56=COEPEXCH|122=20200612-05:03:17.803|1=EXECLINKS|11=3|38=2|40=2|44=87|54=1|55=amzn|58=Buy shares|60=20200612-22:29:00.000|10=136|
20200612-05:04:22.421745000 : 8=FIX.4.4|9=178|35=D|34=307|43=Y|49=EXECLINKS|52=20200612-05:04:22.421|56=COEPEXCH|122=20200612-05:03:27.814|1=EXECLINKS|11=3|38=2|40=2|44=87|54=1|55=amzn|58=Buy shares|60=20200612-22:29:00.000|10=140|
20200612-05:04:22.421831000 : 8=FIX.4.4|9=106|35=4|34=308|43=Y|49=EXECLINKS|52=20200612-05:04:22.421|56=COEPEXCH|122=20200612-05:04:22.421|36=309|123=Y|10=184|
20200612-05:04:22.421865000 : 8=FIX.4.4|9=178|35=D|34=309|43=Y|49=EXECLINKS|52=20200612-05:04:22.421|56=COEPEXCH|122=20200612-05:03:37.825|1=EXECLINKS|11=3|38=2|40=2|44=87|54=1|55=amzn|58=Buy shares|60=20200612-22:29:00.000|10=145|
20200612-05:04:22.421919000 : 8=FIX.4.4|9=178|35=D|34=310|43=Y|49=EXECLINKS|52=20200612-05:04:22.421|56=COEPEXCH|122=20200612-05:03:47.834|1=EXECLINKS|11=3|38=2|40=2|44=87|54=1|55=amzn|58=Buy shares|60=20200612-22:29:00.000|10=138|
20200612-05:04:22.422002000 : 8=FIX.4.4|9=106|35=4|34=311|43=Y|49=EXECLINKS|52=20200612-05:04:22.421|56=COEPEXCH|122=20200612-05:04:22.421|36=312|123=Y|10=172|
20200612-05:04:22.422033000 : 8=FIX.4.4|9=178|35=D|34=312|43=Y|49=EXECLINKS|52=20200612-05:04:22.421|56=COEPEXCH|122=20200612-05:03:53.404|1=EXECLINKS|11=3|38=2|40=2|44=87|54=1|55=amzn|58=Buy shares|60=20200612-22:29:00.000|10=130|
20200612-05:04:22.422086000 : 8=FIX.4.4|9=178|35=D|34=313|43=Y|49=EXECLINKS|52=20200612-05:04:22.422|56=COEPEXCH|122=20200612-05:04:03.414|1=EXECLINKS|11=3|38=2|40=2|44=87|54=1|55=amzn|58=Buy shares|60=20200612-22:29:00.000|10=129|
20200612-05:04:22.422145000 : 8=FIX.4.4|9=178|35=D|34=314|43=Y|49=EXECLINKS|52=20200612-05:04:22.422|56=COEPEXCH|122=20200612-05:04:13.424|1=EXECLINKS|11=3|38=2|40=2|44=87|54=1|55=amzn|58=Buy shares|60=20200612-22:29:00.000|10=132|
20200612-05:04:22.422201000 : 8=FIX.4.4|9=106|35=4|34=315|43=Y|49=EXECLINKS|52=20200612-05:04:22.422|56=COEPEXCH|122=20200612-05:04:22.422|36=316|123=Y|10=182|
20200612-05:04:22.433733000 : 8=FIX.4.4|9=100|35=W|34=214|49=COEPEXCH|52=20200612-05:04:22.423|56=EXECLINKS|55=amzn|268=1|269=0|270=87|271=2|37=3|10=025|
20200612-05:04:22.433941000 : 8=FIX.4.4|9=124|35=W|34=215|49=COEPEXCH|52=20200612-05:04:22.424|56=EXECLINKS|55=amzn|268=2|269=0|270=87|271=2|37=3|269=0|270=87|271=2|37=3|10=092|
20200612-05:04:22.434052000 : 8=FIX.4.4|9=148|35=W|34=216|49=COEPEXCH|52=20200612-05:04:22.424|56=EXECLINKS|55=amzn|268=3|269=0|270=87|271=2|37=3|269=0|270=87|271=2|37=3|269=0|270=87|271=2|37=3|10=158|
20200612-05:04:22.434155000 : 8=FIX.4.4|9=148|35=W|34=217|49=COEPEXCH|52=20200612-05:04:22.425|56=EXECLINKS|55=amzn|268=3|269=0|270=87|271=2|37=3|269=0|270=87|271=2|37=3|269=0|270=87|271=2|37=3|10=160|
20200612-05:04:22.434247000 : 8=FIX.4.4|9=148|35=W|34=218|49=COEPEXCH|52=20200612-05:04:22.426|56=EXECLINKS|55=amzn|268=3|269=0|270=87|271=2|37=3|269=0|270=87|271=2|37=3|269=0|270=87|271=2|37=3|10=162|
20200612-05:04:22.434331000 : 8=FIX.4.4|9=148|35=W|34=219|49=COEPEXCH|52=20200612-05:04:22.427|56=EXECLINKS|55=amzn|268=3|269=0|270=87|271=2|37=3|269=0|270=87|271=2|37=3|269=0|270=87|271=2|37=3|10=164|
20200612-05:04:22.434414000 : 8=FIX.4.4|9=148|35=W|34=220|49=COEPEXCH|52=20200612-05:04:22.428|56=EXECLINKS|55=amzn|268=3|269=0|270=87|271=2|37=3|269=0|270=87|271=2|37=3|269=0|270=87|271=2|37=3|10=157|
20200612-05:04:22.434494000 : 8=FIX.4.4|9=148|35=W|34=221|49=COEPEXCH|52=20200612-05:04:22.429|56=EXECLINKS|55=amzn|268=3|269=0|270=87|271=2|37=3|269=0|270=87|271=2|37=3|269=0|270=87|271=2|37=3|10=159|
