8=FIX.4.4|9=71|35=A|34=1|49=COEPEXCH|52=20200613-04:59:49.915|56=EXECLINKS|98=0|108=1|10=205|8=FIX.4.4|9=69|35=2|34=2|49=COEPEXCH|52=20200613-04:59:49.915|56=EXECLINKS|7=1|16=0|10=090|8=FIX.4.4|9=76|35=8|34=3|49=COEPEXCH|52=20200613-04:59:49.916|56=EXECLINKS|37=3|39=0|150=0|10=158|8=FIX.4.4|9=60|35=0|34=4|49=COEPEXCH|52=20200613-04:59:50.915|56=EXECLINKS|10=206|8=FIX.4.4|9=60|35=0|34=5|49=COEPEXCH|52=20200613-04:59:51.913|56=EXECLINKS|10=206|8=FIX.4.4|9=60|35=0|34=6|49=COEPEXCH|52=20200613-04:59:52.911|56=EXECLINKS|10=206|8=FIX.4.4|9=60|35=0|34=7|49=COEPEXCH|52=20200613-04:59:53.910|56=EXECLINKS|10=207|8=FIX.4.4|9=76|35=8|34=8|49=COEPEXCH|52=20200613-04:59:54.782|56=EXECLINKS|37=3|39=0|150=0|10=160|8=FIX.4.4|9=97|35=8|34=9|49=COEPEXCH|52=20200613-04:59:54.783|56=EXECLINKS|37=3|38=2|39=2|44=87.0|55=amzn|150=F|10=105|8=FIX.4.4|9=98|35=8|34=10|49=COEPEXCH|52=20200613-04:59:54.783|56=EXECLINKS|37=3|38=2|39=2|44=87.0|55=amzn|150=F|10=146|8=FIX.4.4|9=61|35=0|34=11|49=COEPEXCH|52=20200613-04:59:55.780|56=EXECLINKS|10=002|8=FIX.4.4|9=61|35=0|34=12|49=COEPEXCH|52=20200613-04:59:56.776|56=EXECLINKS|10=009|8=FIX.4.4|9=61|35=0|34=13|49=COEPEXCH|52=20200613-04:59:57.771|56=EXECLINKS|10=006|8=FIX.4.4|9=61|35=0|34=14|49=COEPEXCH|52=20200613-04:59:58.768|56=EXECLINKS|10=014|8=FIX.4.4|9=61|35=0|34=15|49=COEPEXCH|52=20200613-04:59:59.763|56=EXECLINKS|10=011|8=FIX.4.4|9=61|35=0|34=16|49=COEPEXCH|52=20200613-05:00:00.758|56=EXECLINKS|10=245|8=FIX.4.4|9=61|35=0|34=17|49=COEPEXCH|52=20200613-05:00:01.754|56=EXECLINKS|10=243|8=FIX.4.4|9=72|35=A|34=18|49=COEPEXCH|52=20200613-05:02:57.661|56=EXECLINKS|98=0|108=1|10=248|8=FIX.4.4|9=71|35=2|34=19|49=COEPEXCH|52=20200613-05:02:57.661|56=EXECLINKS|7=15|16=0|10=178|8=FIX.4.4|9=77|35=8|34=20|49=COEPEXCH|52=20200613-05:02:57.662|56=EXECLINKS|37=3|39=0|150=0|10=192|8=FIX.4.4|9=61|35=0|34=21|49=COEPEXCH|52=20200613-05:02:58.661|56=EXECLINKS|10=249|8=FIX.4.4|9=61|35=0|34=22|49=COEPEXCH|52=20200613-05:02:59.661|56=EXECLINKS|10=251|8=FIX.4.4|9=61|35=0|34=23|49=COEPEXCH|52=20200613-05:03:00.660|56=EXECLINKS|10=238|8=FIX.4.4|9=61|35=0|34=24|49=COEPEXCH|52=20200613-05:03:01.659|56=EXECLINKS|10=248|8=FIX.4.4|9=61|35=0|34=25|49=COEPEXCH|52=20200613-05:03:02.657|56=EXECLINKS|10=248|8=FIX.4.4|9=77|35=8|34=26|49=COEPEXCH|52=20200613-05:03:02.699|56=EXECLINKS|37=3|39=0|150=0|10=199|8=FIX.4.4|9=98|35=8|34=27|49=COEPEXCH|52=20200613-05:03:02.699|56=EXECLINKS|37=3|38=2|39=2|44=87.0|55=amzn|150=F|10=143|8=FIX.4.4|9=98|35=8|34=28|49=COEPEXCH|52=20200613-05:03:02.699|56=EXECLINKS|37=3|38=2|39=2|44=87.0|55=amzn|150=F|10=144|8=FIX.4.4|9=61|35=0|34=29|49=COEPEXCH|52=20200613-05:03:03.696|56=EXECLINKS|10=000|8=FIX.4.4|9=61|35=0|34=30|49=COEPEXCH|52=20200613-05:03:04.691|56=EXECLINKS|10=244|