8=FIX.4.4|9=78|35=A|34=1|49=COEPEXCH|52=20200612-03:03:30.738|56=EXECLINKS|98=0|108=20|141=Y|10=030|8=FIX.4.4|9=109|35=5|34=2|49=COEPEXCH|52=20200612-03:22:36.793|56=EXECLINKS|58=MsgSeqNum too low, expecting 2 but received 1|10=152|8=FIX.4.4|9=72|35=A|34=3|49=COEPEXCH|52=20200612-03:22:53.025|56=EXECLINKS|98=0|108=20|10=232|8=FIX.4.4|9=69|35=2|34=4|49=COEPEXCH|52=20200612-03:22:53.025|56=EXECLINKS|7=2|16=0|10=068|8=FIX.4.4|9=72|35=A|34=5|49=COEPEXCH|52=20200612-03:23:21.595|56=EXECLINKS|98=0|108=20|10=242|8=FIX.4.4|9=76|35=8|34=6|49=COEPEXCH|52=20200612-03:23:21.643|56=EXECLINKS|37=3|39=0|150=0|10=137|8=FIX.4.4|9=76|35=8|34=7|49=COEPEXCH|52=20200612-03:23:31.656|56=EXECLINKS|37=3|39=0|150=0|10=143|8=FIX.4.4|9=76|35=8|34=8|49=COEPEXCH|52=20200612-03:23:41.667|56=EXECLINKS|37=3|39=0|150=0|10=147|8=FIX.4.4|9=69|35=0|34=9|49=COEPEXCH|52=20200612-03:23:45.479|56=EXECLINKS|112=TEST|10=236|8=FIX.4.4|9=77|35=8|34=10|49=COEPEXCH|52=20200612-03:23:51.677|56=EXECLINKS|37=3|39=0|150=0|10=191|8=FIX.4.4|9=77|35=8|34=11|49=COEPEXCH|52=20200612-03:24:01.687|56=EXECLINKS|37=3|39=0|150=0|10=189|8=FIX.4.4|9=70|35=0|34=12|49=COEPEXCH|52=20200612-03:24:09.238|56=EXECLINKS|112=TEST|10=008|8=FIX.4.4|9=77|35=8|34=13|49=COEPEXCH|52=20200612-03:24:11.699|56=EXECLINKS|37=3|39=0|150=0|10=195|8=FIX.4.4|9=73|35=A|34=14|49=COEPEXCH|52=20200612-03:24:56.317|56=EXECLINKS|98=0|108=20|10=036|8=FIX.4.4|9=71|35=2|34=15|49=COEPEXCH|52=20200612-03:24:56.317|56=EXECLINKS|7=21|16=0|10=169|8=FIX.4.4|9=77|35=8|34=16|49=COEPEXCH|52=20200612-03:24:56.318|56=EXECLINKS|37=3|39=0|150=0|10=195|8=FIX.4.4|9=77|35=8|34=17|49=COEPEXCH|52=20200612-03:24:56.321|56=EXECLINKS|37=3|39=0|150=0|10=190|8=FIX.4.4|9=77|35=8|34=18|49=COEPEXCH|52=20200612-03:24:56.322|56=EXECLINKS|37=3|39=0|150=0|10=192|8=FIX.4.4|9=77|35=8|34=19|49=COEPEXCH|52=20200612-03:24:56.359|56=EXECLINKS|37=3|39=0|150=0|10=203|8=FIX.4.4|9=77|35=8|34=20|49=COEPEXCH|52=20200612-03:25:06.372|56=EXECLINKS|37=3|39=0|150=0|10=186|8=FIX.4.4|9=77|35=8|34=21|49=COEPEXCH|52=20200612-03:25:16.380|56=EXECLINKS|37=3|39=0|150=0|10=187|8=FIX.4.4|9=70|35=0|34=22|49=COEPEXCH|52=20200612-03:25:20.178|56=EXECLINKS|112=TEST|10=006|8=FIX.4.4|9=77|35=8|34=23|49=COEPEXCH|52=20200612-03:25:26.385|56=EXECLINKS|37=3|39=0|150=0|10=195|8=FIX.4.4|9=77|35=8|34=24|49=COEPEXCH|52=20200612-03:25:36.397|56=EXECLINKS|37=3|39=0|150=0|10=200|8=FIX.4.4|9=70|35=0|34=25|49=COEPEXCH|52=20200612-03:25:44.860|56=EXECLINKS|112=TEST|10=013|8=FIX.4.4|9=77|35=8|34=26|49=COEPEXCH|52=20200612-03:25:46.409|56=EXECLINKS|37=3|39=0|150=0|10=197|8=FIX.4.4|9=77|35=8|34=27|49=COEPEXCH|52=20200612-03:25:56.418|56=EXECLINKS|37=3|39=0|150=0|10=199|8=FIX.4.4|9=77|35=8|34=28|49=COEPEXCH|52=20200612-03:26:06.431|56=EXECLINKS|37=3|39=0|150=0|10=191|8=FIX.4.4|9=70|35=0|34=29|49=COEPEXCH|52=20200612-03:26:08.292|56=EXECLINKS|112=TEST|10=017|8=FIX.4.4|9=77|35=8|34=30|49=COEPEXCH|52=20200612-03:26:16.440|56=EXECLINKS|37=3|39=0|150=0|10=185|8=FIX.4.4|9=77|35=8|34=31|49=COEPEXCH|52=20200612-03:26:26.452|56=EXECLINKS|37=3|39=0|150=0|10=190|8=FIX.4.4|9=70|35=0|34=32|49=COEPEXCH|52=20200612-03:26:32.888|56=EXECLINKS|112=TEST|10=019|8=FIX.4.4|9=77|35=8|34=33|49=COEPEXCH|52=20200612-03:26:36.464|56=EXECLINKS|37=3|39=0|150=0|10=196|8=FIX.4.4|9=73|35=A|34=34|49=COEPEXCH|52=20200612-03:30:37.139|56=EXECLINKS|98=0|108=20|10=036|8=FIX.4.4|9=77|35=8|34=35|49=COEPEXCH|52=20200612-03:30:37.168|56=EXECLINKS|37=3|39=0|150=0|10=195|8=FIX.4.4|9=99|35=W|34=36|49=COEPEXCH|52=20200612-03:30:37.168|56=EXECLINKS|55=amzn|268=1|269=0|270=87|271=2|37=3|10=213|8=FIX.4.4|9=77|35=8|34=37|49=COEPEXCH|52=20200612-03:30:47.180|56=EXECLINKS|37=3|39=0|150=0|10=192|8=FIX.4.4|9=123|35=W|34=38|49=COEPEXCH|52=20200612-03:30:47.182|56=EXECLINKS|55=amzn|268=2|269=0|270=87|271=2|37=3|269=0|270=87|271=2|37=3|10=051|8=FIX.4.4|9=73|35=A|34=39|49=COEPEXCH|52=20200612-03:31:57.353|56=EXECLINKS|98=0|108=20|10=042|8=FIX.4.4|9=77|35=8|34=40|49=COEPEXCH|52=20200612-03:31:57.383|56=EXECLINKS|37=3|39=0|150=0|10=193|8=FIX.4.4|9=99|35=W|34=41|49=COEPEXCH|52=20200612-03:31:57.384|56=EXECLINKS|55=amzn|268=1|269=0|270=87|271=2|37=3|10=212|8=FIX.4.4|9=77|35=8|34=42|49=COEPEXCH|52=20200612-03:32:07.391|56=EXECLINKS|37=3|39=0|150=0|10=190|8=FIX.4.4|9=123|35=W|34=43|49=COEPEXCH|52=20200612-03:32:07.392|56=EXECLINKS|55=amzn|268=2|269=0|270=87|271=2|37=3|269=0|270=87|271=2|37=3|10=048|8=FIX.4.4|9=73|35=A|34=44|49=COEPEXCH|52=20200612-03:37:09.018|56=EXECLINKS|98=0|108=20|10=039|8=FIX.4.4|9=77|35=8|34=45|49=COEPEXCH|52=20200612-03:37:09.047|56=EXECLINKS|37=3|39=0|150=0|10=198|8=FIX.4.4|9=77|35=8|34=46|49=COEPEXCH|52=20200612-03:37:19.057|56=EXECLINKS|37=3|39=0|150=0|10=201|8=FIX.4.4|9=73|35=A|34=47|49=COEPEXCH|52=20200612-03:38:18.209|56=EXECLINKS|98=0|108=20|10=045|8=FIX.4.4|9=77|35=8|34=48|49=COEPEXCH|52=20200612-03:38:18.238|56=EXECLINKS|37=3|39=0|150=0|10=204|8=FIX.4.4|9=77|35=8|34=49|49=COEPEXCH|52=20200612-03:38:28.251|56=EXECLINKS|37=3|39=0|150=0|10=201|8=FIX.4.4|9=73|35=A|34=50|49=COEPEXCH|52=20200612-03:39:09.734|56=EXECLINKS|98=0|108=20|10=043|8=FIX.4.4|9=77|35=8|34=51|49=COEPEXCH|52=20200612-03:39:09.763|56=EXECLINKS|37=3|39=0|150=0|10=202|8=FIX.4.4|9=77|35=8|34=52|49=COEPEXCH|52=20200612-03:39:19.776|56=EXECLINKS|37=3|39=0|150=0|10=208|8=FIX.4.4|9=73|35=A|34=53|49=COEPEXCH|52=20200612-03:39:30.665|56=EXECLINKS|98=0|108=20|10=043|8=FIX.4.4|9=77|35=8|34=54|49=COEPEXCH|52=20200612-03:39:30.694|56=EXECLINKS|37=3|39=0|150=0|10=202|8=FIX.4.4|9=73|35=A|34=55|49=COEPEXCH|52=20200612-03:40:41.235|56=EXECLINKS|98=0|108=20|10=032|8=FIX.4.4|9=71|35=2|34=56|49=COEPEXCH|52=20200612-03:40:41.235|56=EXECLINKS|7=83|16=0|10=173|8=FIX.4.4|9=77|35=8|34=57|49=COEPEXCH|52=20200612-03:40:41.236|56=EXECLINKS|37=3|39=0|150=0|10=191|8=FIX.4.4|9=77|35=8|34=58|49=COEPEXCH|52=20200612-03:40:41.268|56=EXECLINKS|37=3|39=0|150=0|10=197|8=FIX.4.4|9=73|35=A|34=59|49=COEPEXCH|52=20200612-03:42:14.253|56=EXECLINKS|98=0|108=20|10=038|8=FIX.4.4|9=77|35=8|34=60|49=COEPEXCH|52=20200612-03:42:14.282|56=EXECLINKS|37=3|39=0|150=0|10=188|8=FIX.4.4|9=77|35=8|34=61|49=COEPEXCH|52=20200612-03:42:24.294|56=EXECLINKS|37=3|39=0|150=0|10=193|8=FIX.4.4|9=73|35=A|34=62|49=COEPEXCH|52=20200612-03:45:07.055|56=EXECLINKS|98=0|108=20|10=037|8=FIX.4.4|9=77|35=8|34=63|49=COEPEXCH|52=20200612-03:45:07.084|56=EXECLINKS|37=3|39=0|150=0|10=196|8=FIX.4.4|9=73|35=A|34=64|49=COEPEXCH|52=20200612-03:46:15.966|56=EXECLINKS|98=0|108=20|10=050|8=FIX.4.4|9=77|35=8|34=65|49=COEPEXCH|52=20200612-03:46:15.996|56=EXECLINKS|37=3|39=0|150=0|10=210|8=FIX.4.4|9=77|35=8|34=66|49=COEPEXCH|52=20200612-03:46:26.008|56=EXECLINKS|37=3|39=0|150=0|10=197|8=FIX.4.4|9=73|35=A|34=67|49=COEPEXCH|52=20200612-03:47:48.118|56=EXECLINKS|98=0|108=20|10=049|8=FIX.4.4|9=77|35=8|34=68|49=COEPEXCH|52=20200612-03:47:48.147|56=EXECLINKS|37=3|39=0|150=0|10=208|8=FIX.4.4|9=99|35=W|34=69|49=COEPEXCH|52=20200612-03:47:48.147|56=EXECLINKS|55=amzn|268=1|269=0|270=87|271=2|37=3|10=226|8=FIX.4.4|9=77|35=8|34=70|49=COEPEXCH|52=20200612-03:47:58.159|56=EXECLINKS|37=3|39=0|150=0|10=205|8=FIX.4.4|9=123|35=W|34=71|49=COEPEXCH|52=20200612-03:47:58.159|56=EXECLINKS|55=amzn|268=2|269=0|270=87|271=2|37=3|269=0|270=87|271=2|37=3|10=062|8=FIX.4.4|9=73|35=A|34=72|49=COEPEXCH|52=20200612-03:48:20.835|56=EXECLINKS|98=0|108=20|10=042|8=FIX.4.4|9=77|35=8|34=73|49=COEPEXCH|52=20200612-03:48:20.864|56=EXECLINKS|37=3|39=0|150=0|10=201|8=FIX.4.4|9=99|35=W|34=74|49=COEPEXCH|52=20200612-03:48:20.864|56=EXECLINKS|55=amzn|268=1|269=0|270=87|271=2|37=3|10=219|8=FIX.4.4|9=77|35=8|34=75|49=COEPEXCH|52=20200612-03:48:30.875|56=EXECLINKS|37=3|39=0|150=0|10=206|8=FIX.4.4|9=123|35=W|34=76|49=COEPEXCH|52=20200612-03:48:30.876|56=EXECLINKS|55=amzn|268=2|269=0|270=87|271=2|37=3|269=0|270=87|271=2|37=3|10=064|8=FIX.4.4|9=73|35=A|34=77|49=COEPEXCH|52=20200612-03:54:13.041|56=EXECLINKS|98=0|108=20|10=035|8=FIX.4.4|9=77|35=8|34=78|49=COEPEXCH|52=20200612-03:54:13.071|56=EXECLINKS|37=3|39=0|150=0|10=195|8=FIX.4.4|9=73|35=A|34=79|49=COEPEXCH|52=20200612-03:55:11.834|56=EXECLINKS|98=0|108=20|10=046|8=FIX.4.4|9=72|35=2|34=80|49=COEPEXCH|52=20200612-03:55:11.834|56=EXECLINKS|7=112|16=0|10=220|8=FIX.4.4|9=73|35=A|34=81|49=COEPEXCH|52=20200612-03:55:26.249|56=EXECLINKS|98=0|108=20|10=045|8=FIX.4.4|9=72|35=2|34=82|49=COEPEXCH|52=20200612-03:55:26.249|56=EXECLINKS|7=112|16=0|10=228|8=FIX.4.4|9=77|35=8|34=83|49=COEPEXCH|52=20200612-03:55:26.250|56=EXECLINKS|37=3|39=0|150=0|10=195|8=FIX.4.4|9=73|35=A|34=84|49=COEPEXCH|52=20200612-03:56:05.944|56=EXECLINKS|98=0|108=20|10=048|8=FIX.4.4|9=72|35=2|34=85|49=COEPEXCH|52=20200612-03:56:05.944|56=EXECLINKS|7=112|16=0|10=231|8=FIX.4.4|9=73|35=A|34=86|49=COEPEXCH|52=20200612-03:56:31.603|56=EXECLINKS|98=0|108=20|10=041|8=FIX.4.4|9=72|35=2|34=87|49=COEPEXCH|52=20200612-03:56:31.603|56=EXECLINKS|7=112|16=0|10=224|8=FIX.4.4|9=77|35=8|34=88|49=COEPEXCH|52=20200612-03:56:31.604|56=EXECLINKS|37=3|39=0|150=0|10=200|8=FIX.4.4|9=77|35=8|34=89|49=COEPEXCH|52=20200612-03:56:31.605|56=EXECLINKS|37=3|39=0|150=0|10=202|8=FIX.4.4|9=77|35=8|34=90|49=COEPEXCH|52=20200612-03:56:31.606|56=EXECLINKS|37=3|39=0|150=0|10=195|8=FIX.4.4|9=77|35=8|34=91|49=COEPEXCH|52=20200612-03:56:31.606|56=EXECLINKS|37=3|39=0|150=0|10=196|8=FIX.4.4|9=77|35=8|34=92|49=COEPEXCH|52=20200612-03:56:31.607|56=EXECLINKS|37=3|39=0|150=0|10=198|8=FIX.4.4|9=77|35=8|34=93|49=COEPEXCH|52=20200612-03:56:31.607|56=EXECLINKS|37=3|39=0|150=0|10=199|8=FIX.4.4|9=77|35=8|34=94|49=COEPEXCH|52=20200612-03:56:31.608|56=EXECLINKS|37=3|39=0|150=0|10=201|8=FIX.4.4|9=77|35=8|34=95|49=COEPEXCH|52=20200612-03:56:31.608|56=EXECLINKS|37=3|39=0|150=0|10=202|8=FIX.4.4|9=77|35=8|34=96|49=COEPEXCH|52=20200612-03:56:31.609|56=EXECLINKS|37=3|39=0|150=0|10=204|8=FIX.4.4|9=77|35=8|34=97|49=COEPEXCH|52=20200612-03:56:31.609|56=EXECLINKS|37=3|39=0|150=0|10=205|8=FIX.4.4|9=77|35=8|34=98|49=COEPEXCH|52=20200612-03:56:31.609|56=EXECLINKS|37=3|39=0|150=0|10=206|8=FIX.4.4|9=77|35=8|34=99|49=COEPEXCH|52=20200612-03:56:31.610|56=EXECLINKS|37=3|39=0|150=0|10=199|8=FIX.4.4|9=78|35=8|34=100|49=COEPEXCH|52=20200612-03:56:31.612|56=EXECLINKS|37=3|39=0|150=0|10=233|8=FIX.4.4|9=78|35=8|34=101|49=COEPEXCH|52=20200612-03:56:31.612|56=EXECLINKS|37=3|39=0|150=0|10=234|8=FIX.4.4|9=78|35=8|34=102|49=COEPEXCH|52=20200612-03:56:31.613|56=EXECLINKS|37=3|39=0|150=0|10=236|8=FIX.4.4|9=78|35=8|34=103|49=COEPEXCH|52=20200612-03:56:31.640|56=EXECLINKS|37=3|39=0|150=0|10=237|8=FIX.4.4|9=78|35=8|34=104|49=COEPEXCH|52=20200612-03:56:41.650|56=EXECLINKS|37=3|39=0|150=0|10=240|8=FIX.4.4|9=78|35=8|34=105|49=COEPEXCH|52=20200612-03:56:51.654|56=EXECLINKS|37=3|39=0|150=0|10=246|8=FIX.4.4|9=71|35=0|34=106|49=COEPEXCH|52=20200612-03:56:55.459|56=EXECLINKS|112=TEST|10=072|8=FIX.4.4|9=78|35=8|34=107|49=COEPEXCH|52=20200612-03:57:01.663|56=EXECLINKS|37=3|39=0|150=0|10=244|8=FIX.4.4|9=78|35=8|34=108|49=COEPEXCH|52=20200612-03:57:11.675|56=EXECLINKS|37=3|39=0|150=0|10=249|8=FIX.4.4|9=71|35=0|34=109|49=COEPEXCH|52=20200612-03:57:19.222|56=EXECLINKS|112=TEST|10=064|8=FIX.4.4|9=78|35=8|34=110|49=COEPEXCH|52=20200612-03:57:21.686|56=EXECLINKS|37=3|39=0|150=0|10=245|8=FIX.4.4|9=78|35=8|34=111|49=COEPEXCH|52=20200612-03:57:31.698|56=EXECLINKS|37=3|39=0|150=0|10=250|8=FIX.4.4|9=78|35=8|34=112|49=COEPEXCH|52=20200612-03:57:41.709|56=EXECLINKS|37=3|39=0|150=0|10=245|8=FIX.4.4|9=71|35=0|34=113|49=COEPEXCH|52=20200612-03:57:43.577|56=EXECLINKS|112=TEST|10=069|8=FIX.4.4|9=78|35=8|34=114|49=COEPEXCH|52=20200612-03:57:51.721|56=EXECLINKS|37=3|39=0|150=0|10=242|8=FIX.4.4|9=78|35=8|34=115|49=COEPEXCH|52=20200612-03:58:01.726|56=EXECLINKS|37=3|39=0|150=0|10=244|8=FIX.4.4|9=71|35=0|34=116|49=COEPEXCH|52=20200612-03:58:07.275|56=EXECLINKS|112=TEST|10=068|8=FIX.4.4|9=78|35=8|34=117|49=COEPEXCH|52=20200612-03:58:11.736|56=EXECLINKS|37=3|39=0|150=0|10=248|8=FIX.4.4|9=78|35=8|34=118|49=COEPEXCH|52=20200612-03:58:21.746|56=EXECLINKS|37=3|39=0|150=0|10=251|8=FIX.4.4|9=78|35=8|34=119|49=COEPEXCH|52=20200612-03:58:31.757|56=EXECLINKS|37=3|39=0|150=0|10=255|8=FIX.4.4|9=71|35=0|34=120|49=COEPEXCH|52=20200612-03:58:31.759|56=EXECLINKS|112=TEST|10=067|8=FIX.4.4|9=74|35=A|34=121|49=COEPEXCH|52=20200612-04:07:38.140|56=EXECLINKS|98=0|108=20|10=080|8=FIX.4.4|9=78|35=8|34=122|49=COEPEXCH|52=20200612-04:07:38.172|56=EXECLINKS|37=3|39=0|150=0|10=242|8=FIX.4.4|9=78|35=8|34=123|49=COEPEXCH|52=20200612-04:07:48.182|56=EXECLINKS|37=3|39=0|150=0|10=245|8=FIX.4.4|9=74|35=A|34=124|49=COEPEXCH|52=20200612-04:08:29.423|56=EXECLINKS|98=0|108=20|10=088|8=FIX.4.4|9=78|35=8|34=125|49=COEPEXCH|52=20200612-04:08:29.453|56=EXECLINKS|37=3|39=0|150=0|10=248|8=FIX.4.4|9=78|35=8|34=126|49=COEPEXCH|52=20200612-04:08:39.461|56=EXECLINKS|37=3|39=0|150=0|10=249|8=FIX.4.4|9=74|35=A|34=127|49=COEPEXCH|52=20200612-04:09:01.859|56=EXECLINKS|98=0|108=20|10=095|8=FIX.4.4|9=78|35=8|34=128|49=COEPEXCH|52=20200612-04:09:01.892|56=EXECLINKS|37=3|39=0|150=0|10=249|8=FIX.4.4|9=100|35=W|34=129|49=COEPEXCH|52=20200612-04:09:01.892|56=EXECLINKS|55=amzn|268=1|269=0|270=87|271=2|37=3|10=041|8=FIX.4.4|9=78|35=8|34=130|49=COEPEXCH|52=20200612-04:09:11.904|56=EXECLINKS|37=3|39=0|150=0|10=237|8=FIX.4.4|9=124|35=W|34=131|49=COEPEXCH|52=20200612-04:09:11.905|56=EXECLINKS|55=amzn|268=2|269=0|270=87|271=2|37=3|269=0|270=87|271=2|37=3|10=095|8=FIX.4.4|9=78|35=8|34=132|49=COEPEXCH|52=20200612-04:09:21.915|56=EXECLINKS|37=3|39=0|150=0|10=242|8=FIX.4.4|9=148|35=W|34=133|49=COEPEXCH|52=20200612-04:09:21.917|56=EXECLINKS|55=amzn|268=3|269=0|270=87|271=2|37=3|269=0|270=87|271=2|37=3|269=0|270=87|271=2|37=3|10=166|8=FIX.4.4|9=74|35=A|34=134|49=COEPEXCH|52=20200612-04:10:18.519|56=EXECLINKS|98=0|108=20|10=086|8=FIX.4.4|9=74|35=A|34=135|49=COEPEXCH|52=20200612-04:10:39.119|56=EXECLINKS|98=0|108=20|10=086|8=FIX.4.4|9=73|35=2|34=136|49=COEPEXCH|52=20200612-04:10:39.119|56=EXECLINKS|7=199|16=0|10=028|8=FIX.4.4|9=78|35=8|34=137|49=COEPEXCH|52=20200612-04:10:39.120|56=EXECLINKS|37=3|39=0|150=0|10=236|8=FIX.4.4|9=78|35=8|34=138|49=COEPEXCH|52=20200612-04:10:39.120|56=EXECLINKS|37=3|39=0|150=0|10=237|8=FIX.4.4|9=100|35=W|34=139|49=COEPEXCH|52=20200612-04:10:39.121|56=EXECLINKS|55=amzn|268=1|269=0|270=87|271=2|37=3|10=030|8=FIX.4.4|9=78|35=8|34=140|49=COEPEXCH|52=20200612-04:10:39.121|56=EXECLINKS|37=3|39=0|150=0|10=231|8=FIX.4.4|9=78|35=8|34=141|49=COEPEXCH|52=20200612-04:10:39.121|56=EXECLINKS|37=3|39=0|150=0|10=232|8=FIX.4.4|9=124|35=W|34=142|49=COEPEXCH|52=20200612-04:10:39.122|56=EXECLINKS|55=amzn|268=2|269=0|270=87|271=2|37=3|269=0|270=87|271=2|37=3|10=090|8=FIX.4.4|9=78|35=8|34=143|49=COEPEXCH|52=20200612-04:10:39.154|56=EXECLINKS|37=3|39=0|150=0|10=240|8=FIX.4.4|9=78|35=8|34=144|49=COEPEXCH|52=20200612-04:10:39.154|56=EXECLINKS|37=3|39=0|150=0|10=241|8=FIX.4.4|9=148|35=W|34=145|49=COEPEXCH|52=20200612-04:10:39.154|56=EXECLINKS|55=amzn|268=3|269=0|270=87|271=2|37=3|269=0|270=87|271=2|37=3|269=0|270=87|271=2|37=3|10=163|8=FIX.4.4|9=78|35=8|34=146|49=COEPEXCH|52=20200612-04:10:49.166|56=EXECLINKS|37=3|39=0|150=0|10=247|8=FIX.4.4|9=78|35=8|34=147|49=COEPEXCH|52=20200612-04:10:49.167|56=EXECLINKS|37=3|39=0|150=0|10=249|8=FIX.4.4|9=148|35=W|34=148|49=COEPEXCH|52=20200612-04:10:49.169|56=EXECLINKS|55=amzn|268=3|269=0|270=87|271=2|37=3|269=0|270=87|271=2|37=3|269=0|270=87|271=2|37=3|10=173|8=FIX.4.4|9=74|35=A|34=149|49=COEPEXCH|52=20200612-04:11:09.003|56=EXECLINKS|98=0|108=20|10=081|8=FIX.4.4|9=78|35=8|34=150|49=COEPEXCH|52=20200612-04:11:09.032|56=EXECLINKS|37=3|39=0|150=0|10=231|8=FIX.4.4|9=78|35=8|34=151|49=COEPEXCH|52=20200612-04:11:09.032|56=EXECLINKS|37=3|39=0|150=0|10=232|8=FIX.4.4|9=78|35=8|34=152|49=COEPEXCH|52=20200612-04:11:19.044|56=EXECLINKS|37=3|39=0|150=0|10=237|8=FIX.4.4|9=78|35=8|34=153|49=COEPEXCH|52=20200612-04:11:19.045|56=EXECLINKS|37=3|39=0|150=0|10=239|8=FIX.4.4|9=74|35=A|34=154|49=COEPEXCH|52=20200612-04:11:38.588|56=EXECLINKS|98=0|108=20|10=097|8=FIX.4.4|9=78|35=8|34=155|49=COEPEXCH|52=20200612-04:11:38.618|56=EXECLINKS|37=3|39=0|150=0|10=248|8=FIX.4.4|9=78|35=8|34=156|49=COEPEXCH|52=20200612-04:11:38.618|56=EXECLINKS|37=3|39=0|150=0|10=249|8=FIX.4.4|9=100|35=W|34=157|49=COEPEXCH|52=20200612-04:11:38.618|56=EXECLINKS|55=amzn|268=1|269=0|270=87|271=2|37=3|10=041|8=FIX.4.4|9=78|35=8|34=158|49=COEPEXCH|52=20200612-04:11:48.630|56=EXECLINKS|37=3|39=0|150=0|10=246|8=FIX.4.4|9=78|35=8|34=159|49=COEPEXCH|52=20200612-04:11:48.631|56=EXECLINKS|37=3|39=0|150=0|10=248|8=FIX.4.4|9=124|35=W|34=160|49=COEPEXCH|52=20200612-04:11:48.633|56=EXECLINKS|55=amzn|268=2|269=0|270=87|271=2|37=3|269=0|270=87|271=2|37=3|10=098|8=FIX.4.4|9=74|35=A|34=161|49=COEPEXCH|52=20200612-04:12:33.082|56=EXECLINKS|98=0|108=20|10=080|8=FIX.4.4|9=100|35=W|34=162|49=COEPEXCH|52=20200612-04:12:33.112|56=EXECLINKS|55=amzn|268=1|269=0|270=87|271=2|37=3|10=022|8=FIX.4.4|9=124|35=W|34=163|49=COEPEXCH|52=20200612-04:12:43.124|56=EXECLINKS|55=amzn|268=2|269=0|270=87|271=2|37=3|269=0|270=87|271=2|37=3|10=092|8=FIX.4.4|9=74|35=A|34=164|49=COEPEXCH|52=20200612-04:38:17.128|56=EXECLINKS|98=0|108=20|10=094|8=FIX.4.4|9=100|35=W|34=165|49=COEPEXCH|52=20200612-04:38:17.166|56=EXECLINKS|55=amzn|268=1|269=0|270=87|271=2|37=3|10=044|8=FIX.4.4|9=124|35=W|34=166|49=COEPEXCH|52=20200612-04:38:27.178|56=EXECLINKS|55=amzn|268=2|269=0|270=87|271=2|37=3|269=0|270=87|271=2|37=3|10=114|8=FIX.4.4|9=148|35=W|34=167|49=COEPEXCH|52=20200612-04:38:37.189|56=EXECLINKS|55=amzn|268=3|269=0|270=87|271=2|37=3|269=0|270=87|271=2|37=3|269=0|270=87|271=2|37=3|10=183|8=FIX.4.4|9=148|35=W|34=168|49=COEPEXCH|52=20200612-04:38:47.200|56=EXECLINKS|55=amzn|268=3|269=0|270=87|271=2|37=3|269=0|270=87|271=2|37=3|269=0|270=87|271=2|37=3|10=169|8=FIX.4.4|9=148|35=W|34=169|49=COEPEXCH|52=20200612-04:38:57.209|56=EXECLINKS|55=amzn|268=3|269=0|270=87|271=2|37=3|269=0|270=87|271=2|37=3|269=0|270=87|271=2|37=3|10=180|8=FIX.4.4|9=148|35=W|34=170|49=COEPEXCH|52=20200612-04:39:07.220|56=EXECLINKS|55=amzn|268=3|269=0|270=87|271=2|37=3|269=0|270=87|271=2|37=3|269=0|270=87|271=2|37=3|10=161|8=FIX.4.4|9=74|35=A|34=171|49=COEPEXCH|52=20200612-04:40:33.754|56=EXECLINKS|98=0|108=20|10=088|8=FIX.4.4|9=74|35=A|34=172|49=COEPEXCH|52=20200612-04:40:58.715|56=EXECLINKS|98=0|108=20|10=093|8=FIX.4.4|9=62|35=0|34=173|49=COEPEXCH|52=20200612-04:41:18.698|56=EXECLINKS|10=057|8=FIX.4.4|9=62|35=0|34=174|49=COEPEXCH|52=20200612-04:41:38.617|56=EXECLINKS|10=051|8=FIX.4.4|9=74|35=A|34=175|49=COEPEXCH|52=20200612-04:42:29.380|56=EXECLINKS|98=0|108=20|10=094|8=FIX.4.4|9=78|35=8|34=176|49=COEPEXCH|52=20200612-04:42:29.436|56=EXECLINKS|37=3|39=0|150=0|10=253|8=FIX.4.4|9=78|35=8|34=177|49=COEPEXCH|52=20200612-04:42:39.448|56=EXECLINKS|37=3|39=0|150=0|10=002|8=FIX.4.4|9=78|35=8|34=178|49=COEPEXCH|52=20200612-04:42:49.463|56=EXECLINKS|37=3|39=0|150=0|10=001|8=FIX.4.4|9=71|35=0|34=179|49=COEPEXCH|52=20200612-04:42:53.219|56=EXECLINKS|112=TEST|10=070|8=FIX.4.4|9=78|35=8|34=180|49=COEPEXCH|52=20200612-04:42:59.469|56=EXECLINKS|37=3|39=0|150=0|10=001|8=FIX.4.4|9=74|35=A|34=181|49=COEPEXCH|52=20200612-04:44:02.633|56=EXECLINKS|98=0|108=20|10=085|8=FIX.4.4|9=73|35=2|34=182|49=COEPEXCH|52=20200612-04:44:02.633|56=EXECLINKS|7=254|16=0|10=019|8=FIX.4.4|9=78|35=8|34=183|49=COEPEXCH|52=20200612-04:44:02.635|56=EXECLINKS|37=3|39=0|150=0|10=245|8=FIX.4.4|9=78|35=8|34=184|49=COEPEXCH|52=20200612-04:44:02.636|56=EXECLINKS|37=3|39=0|150=0|10=247|8=FIX.4.4|9=78|35=8|34=185|49=COEPEXCH|52=20200612-04:44:02.637|56=EXECLINKS|37=3|39=0|150=0|10=249|8=FIX.4.4|9=78|35=8|34=186|49=COEPEXCH|52=20200612-04:44:02.637|56=EXECLINKS|37=3|39=0|150=0|10=250|8=FIX.4.4|9=78|35=8|34=187|49=COEPEXCH|52=20200612-04:44:02.638|56=EXECLINKS|37=3|39=0|150=0|10=252|8=FIX.4.4|9=78|35=8|34=188|49=COEPEXCH|52=20200612-04:44:02.640|56=EXECLINKS|37=3|39=0|150=0|10=246|8=FIX.4.4|9=78|35=8|34=189|49=COEPEXCH|52=20200612-04:44:02.672|56=EXECLINKS|37=3|39=0|150=0|10=252|8=FIX.4.4|9=78|35=8|34=190|49=COEPEXCH|52=20200612-04:44:12.689|56=EXECLINKS|37=3|39=0|150=0|10=253|8=FIX.4.4|9=74|35=A|34=191|49=COEPEXCH|52=20200612-04:46:39.489|56=EXECLINKS|98=0|108=20|10=107|8=FIX.4.4|9=78|35=8|34=192|49=COEPEXCH|52=20200612-04:46:39.528|56=EXECLINKS|37=3|39=0|150=0|10=002|8=FIX.4.4|9=78|35=8|34=193|49=COEPEXCH|52=20200612-04:46:49.538|56=EXECLINKS|37=3|39=0|150=0|10=005|8=FIX.4.4|9=78|35=8|34=194|49=COEPEXCH|52=20200612-04:46:59.548|56=EXECLINKS|37=3|39=0|150=0|10=008|8=FIX.4.4|9=71|35=0|34=195|49=COEPEXCH|52=20200612-04:47:03.377|56=EXECLINKS|112=TEST|10=073|8=FIX.4.4|9=78|35=8|34=196|49=COEPEXCH|52=20200612-04:47:09.558|56=EXECLINKS|37=3|39=0|150=0|10=007|8=FIX.4.4|9=74|35=A|34=197|49=COEPEXCH|52=20200612-04:57:16.986|56=EXECLINKS|98=0|108=20|10=112|8=FIX.4.4|9=62|35=D|34=198|49=COEPEXCH|52=20200612-04:57:17.019|56=EXECLINKS|10=077|8=FIX.4.4|9=62|35=D|34=199|49=COEPEXCH|52=20200612-04:57:27.030|56=EXECLINKS|10=072|8=FIX.4.4|9=62|35=D|34=200|49=COEPEXCH|52=20200612-04:57:37.039|56=EXECLINKS|10=065|8=FIX.4.4|9=74|35=A|34=201|49=COEPEXCH|52=20200612-04:58:20.933|56=EXECLINKS|98=0|108=20|10=086|8=FIX.4.4|9=62|35=D|34=202|49=COEPEXCH|52=20200612-04:58:20.966|56=EXECLINKS|10=069|8=FIX.4.4|9=100|35=W|34=203|49=COEPEXCH|52=20200612-04:58:20.967|56=EXECLINKS|55=amzn|268=1|269=0|270=87|271=2|37=3|10=042|8=FIX.4.4|9=62|35=D|34=204|49=COEPEXCH|52=20200612-04:58:30.977|56=EXECLINKS|10=074|8=FIX.4.4|9=124|35=W|34=205|49=COEPEXCH|52=20200612-04:58:30.978|56=EXECLINKS|55=amzn|268=2|269=0|270=87|271=2|37=3|269=0|270=87|271=2|37=3|10=112|8=FIX.4.4|9=74|35=A|34=206|49=COEPEXCH|52=20200612-04:59:03.110|56=EXECLINKS|98=0|108=20|10=080|8=FIX.4.4|9=62|35=D|34=207|49=COEPEXCH|52=20200612-04:59:03.160|56=EXECLINKS|10=062|8=FIX.4.4|9=62|35=D|34=208|49=COEPEXCH|52=20200612-04:59:03.160|56=EXECLINKS|10=063|8=FIX.4.4|9=74|35=A|34=209|49=COEPEXCH|52=20200612-05:02:27.713|56=EXECLINKS|98=0|108=20|10=087|8=FIX.4.4|9=74|35=A|34=210|49=COEPEXCH|52=20200612-05:03:53.348|56=EXECLINKS|98=0|108=20|10=083|8=FIX.4.4|9=73|35=2|34=211|49=COEPEXCH|52=20200612-05:03:53.348|56=EXECLINKS|7=300|16=0|10=009|8=FIX.4.4|9=74|35=A|34=212|49=COEPEXCH|52=20200612-05:04:22.420|56=EXECLINKS|98=0|108=20|10=073|8=FIX.4.4|9=73|35=2|34=213|49=COEPEXCH|52=20200612-05:04:22.420|56=EXECLINKS|7=300|16=0|10=255|8=FIX.4.4|9=100|35=W|34=214|49=COEPEXCH|52=20200612-05:04:22.423|56=EXECLINKS|55=amzn|268=1|269=0|270=87|271=2|37=3|10=025|8=FIX.4.4|9=124|35=W|34=215|49=COEPEXCH|52=20200612-05:04:22.424|56=EXECLINKS|55=amzn|268=2|269=0|270=87|271=2|37=3|269=0|270=87|271=2|37=3|10=092|8=FIX.4.4|9=148|35=W|34=216|49=COEPEXCH|52=20200612-05:04:22.424|56=EXECLINKS|55=amzn|268=3|269=0|270=87|271=2|37=3|269=0|270=87|271=2|37=3|269=0|270=87|271=2|37=3|10=158|8=FIX.4.4|9=148|35=W|34=217|49=COEPEXCH|52=20200612-05:04:22.425|56=EXECLINKS|55=amzn|268=3|269=0|270=87|271=2|37=3|269=0|270=87|271=2|37=3|269=0|270=87|271=2|37=3|10=160|8=FIX.4.4|9=148|35=W|34=218|49=COEPEXCH|52=20200612-05:04:22.426|56=EXECLINKS|55=amzn|268=3|269=0|270=87|271=2|37=3|269=0|270=87|271=2|37=3|269=0|270=87|271=2|37=3|10=162|8=FIX.4.4|9=148|35=W|34=219|49=COEPEXCH|52=20200612-05:04:22.427|56=EXECLINKS|55=amzn|268=3|269=0|270=87|271=2|37=3|269=0|270=87|271=2|37=3|269=0|270=87|271=2|37=3|10=164|8=FIX.4.4|9=148|35=W|34=220|49=COEPEXCH|52=20200612-05:04:22.428|56=EXECLINKS|55=amzn|268=3|269=0|270=87|271=2|37=3|269=0|270=87|271=2|37=3|269=0|270=87|271=2|37=3|10=157|8=FIX.4.4|9=148|35=W|34=221|49=COEPEXCH|52=20200612-05:04:22.429|56=EXECLINKS|55=amzn|268=3|269=0|270=87|271=2|37=3|269=0|270=87|271=2|37=3|269=0|270=87|271=2|37=3|10=159|8=FIX.4.4|9=148|35=W|34=222|49=COEPEXCH|52=20200612-05:04:22.430|56=EXECLINKS|55=amzn|268=3|269=0|270=87|271=2|37=3|269=0|270=87|271=2|37=3|269=0|270=87|271=2|37=3|10=152|8=FIX.4.4|9=148|35=W|34=223|49=COEPEXCH|52=20200612-05:04:22.431|56=EXECLINKS|55=amzn|268=3|269=0|270=87|271=2|37=3|269=0|270=87|271=2|37=3|269=0|270=87|271=2|37=3|10=154|8=FIX.4.4|9=148|35=W|34=224|49=COEPEXCH|52=20200612-05:04:22.432|56=EXECLINKS|55=amzn|268=3|269=0|270=87|271=2|37=3|269=0|270=87|271=2|37=3|269=0|270=87|271=2|37=3|10=156|8=FIX.4.4|9=148|35=W|34=225|49=COEPEXCH|52=20200612-05:04:22.433|56=EXECLINKS|55=amzn|268=3|269=0|270=87|271=2|37=3|269=0|270=87|271=2|37=3|269=0|270=87|271=2|37=3|10=158|8=FIX.4.4|9=148|35=W|34=226|49=COEPEXCH|52=20200612-05:04:22.463|56=EXECLINKS|55=amzn|268=3|269=0|270=87|271=2|37=3|269=0|270=87|271=2|37=3|269=0|270=87|271=2|37=3|10=162|8=FIX.4.4|9=148|35=W|34=227|49=COEPEXCH|52=20200612-05:04:32.476|56=EXECLINKS|55=amzn|268=3|269=0|270=87|271=2|37=3|269=0|270=87|271=2|37=3|269=0|270=87|271=2|37=3|10=168|8=FIX.4.4|9=148|35=W|34=228|49=COEPEXCH|52=20200612-05:04:42.485|56=EXECLINKS|55=amzn|268=3|269=0|270=87|271=2|37=3|269=0|270=87|271=2|37=3|269=0|270=87|271=2|37=3|10=170|8=FIX.4.4|9=148|35=W|34=229|49=COEPEXCH|52=20200612-05:04:52.624|56=EXECLINKS|55=amzn|268=3|269=0|270=87|271=2|37=3|269=0|270=87|271=2|37=3|269=0|270=87|271=2|37=3|10=167|8=FIX.4.4|9=148|35=W|34=230|49=COEPEXCH|52=20200612-05:05:02.632|56=EXECLINKS|55=amzn|268=3|269=0|270=87|271=2|37=3|269=0|270=87|271=2|37=3|269=0|270=87|271=2|37=3|10=154|8=FIX.4.4|9=148|35=W|34=231|49=COEPEXCH|52=20200612-05:05:12.646|56=EXECLINKS|55=amzn|268=3|269=0|270=87|271=2|37=3|269=0|270=87|271=2|37=3|269=0|270=87|271=2|37=3|10=161|8=FIX.4.4|9=74|35=A|34=232|49=COEPEXCH|52=20200612-05:05:36.189|56=EXECLINKS|98=0|108=20|10=093|8=FIX.4.4|9=62|35=D|34=233|49=COEPEXCH|52=20200612-05:05:36.222|56=EXECLINKS|10=058|8=FIX.4.4|9=62|35=D|34=234|49=COEPEXCH|52=20200612-05:05:46.233|56=EXECLINKS|10=062|8=FIX.4.4|9=62|35=D|34=235|49=COEPEXCH|52=20200612-05:05:56.244|56=EXECLINKS|10=066|8=FIX.4.4|9=74|35=A|34=236|49=COEPEXCH|52=20200612-05:07:03.839|56=EXECLINKS|98=0|108=20|10=095|8=FIX.4.4|9=62|35=W|34=237|49=COEPEXCH|52=20200612-05:07:03.876|56=EXECLINKS|10=092|8=FIX.4.4|9=74|35=A|34=238|49=COEPEXCH|52=20200612-05:07:28.420|56=EXECLINKS|98=0|108=20|10=090|8=FIX.4.4|9=62|35=W|34=239|49=COEPEXCH|52=20200612-05:07:28.454|56=EXECLINKS|10=093|8=FIX.4.4|9=62|35=W|34=240|49=COEPEXCH|52=20200612-05:07:38.468|56=EXECLINKS|10=091|8=FIX.4.4|9=74|35=A|34=241|49=COEPEXCH|52=20200612-05:07:56.386|56=EXECLINKS|98=0|108=20|10=096|8=FIX.4.4|9=100|35=W|34=242|49=COEPEXCH|52=20200612-05:07:56.430|56=EXECLINKS|55=amzn|268=1|269=0|270=87|271=2|37=3|10=034|8=FIX.4.4|9=74|35=A|34=243|49=COEPEXCH|52=20200612-05:13:43.422|56=EXECLINKS|98=0|108=20|10=082|8=FIX.4.4|9=74|35=A|34=244|49=COEPEXCH|52=20200612-05:14:25.314|56=EXECLINKS|98=0|108=20|10=084|8=FIX.4.4|9=73|35=2|34=245|49=COEPEXCH|52=20200612-05:14:25.314|56=EXECLINKS|7=340|16=0|10=014|8=FIX.4.4|9=93|35=8|34=246|49=COEPEXCH|52=20200612-05:14:25.318|56=EXECLINKS|58=text string|37=3|39=0|150=0|10=026|8=FIX.4.4|9=93|35=8|34=247|49=COEPEXCH|52=20200612-05:14:25.319|56=EXECLINKS|58=text string|37=3|39=0|150=0|10=028|8=FIX.4.4|9=93|35=8|34=248|49=COEPEXCH|52=20200612-05:14:25.320|56=EXECLINKS|58=text string|37=3|39=0|150=0|10=021|8=FIX.4.4|9=93|35=8|34=249|49=COEPEXCH|52=20200612-05:14:25.322|56=EXECLINKS|58=text string|37=3|39=0|150=0|10=024|8=FIX.4.4|9=93|35=8|34=250|49=COEPEXCH|52=20200612-05:14:25.323|56=EXECLINKS|58=text string|37=3|39=0|150=0|10=017|8=FIX.4.4|9=93|35=8|34=251|49=COEPEXCH|52=20200612-05:14:25.395|56=EXECLINKS|58=text string|37=3|39=0|150=0|10=027|8=FIX.4.4|9=93|35=8|34=252|49=COEPEXCH|52=20200612-05:14:35.405|56=EXECLINKS|58=text string|37=3|39=0|150=0|10=021|8=FIX.4.4|9=74|35=A|34=253|49=COEPEXCH|52=20200612-05:21:15.108|56=EXECLINKS|98=0|108=20|10=082|8=FIX.4.4|9=74|35=A|34=254|49=COEPEXCH|52=20200612-05:22:22.364|56=EXECLINKS|98=0|108=20|10=086|8=FIX.4.4|9=73|35=2|34=255|49=COEPEXCH|52=20200612-05:22:22.364|56=EXECLINKS|7=357|16=0|10=024|8=FIX.4.4|9=74|35=A|34=256|49=COEPEXCH|52=20200612-05:23:12.357|56=EXECLINKS|98=0|108=20|10=090|8=FIX.4.4|9=73|35=2|34=257|49=COEPEXCH|52=20200612-05:23:12.357|56=EXECLINKS|7=357|16=0|10=028|8=FIX.4.4|9=93|35=8|34=258|49=COEPEXCH|52=20200612-05:23:12.358|56=EXECLINKS|11=3|37=3|38=0|39=0|54=1|150=0|10=122|8=FIX.4.4|9=93|35=8|34=259|49=COEPEXCH|52=20200612-05:23:12.360|56=EXECLINKS|11=3|37=3|38=0|39=0|54=1|150=0|10=116|8=FIX.4.4|9=93|35=8|34=260|49=COEPEXCH|52=20200612-05:23:12.398|56=EXECLINKS|11=3|37=3|38=0|39=0|54=1|150=0|10=119|8=FIX.4.4|9=93|35=8|34=261|49=COEPEXCH|52=20200612-05:23:22.411|56=EXECLINKS|11=3|37=3|38=0|39=0|54=1|150=0|10=107|8=FIX.4.4|9=93|35=8|34=262|49=COEPEXCH|52=20200612-05:23:32.422|56=EXECLINKS|11=3|37=3|38=0|39=0|54=1|150=0|10=111|8=FIX.4.4|9=74|35=A|34=263|49=COEPEXCH|52=20200612-05:27:24.060|56=EXECLINKS|98=0|108=20|10=086|8=FIX.4.4|9=73|35=2|34=264|49=COEPEXCH|52=20200612-05:27:24.060|56=EXECLINKS|7=369|16=0|10=027|8=FIX.4.4|9=78|35=8|34=265|49=COEPEXCH|52=20200612-05:27:24.061|56=EXECLINKS|37=3|39=0|150=0|10=245|8=FIX.4.4|9=78|35=8|34=266|49=COEPEXCH|52=20200612-05:27:24.063|56=EXECLINKS|37=3|39=0|150=0|10=248|8=FIX.4.4|9=78|35=8|34=267|49=COEPEXCH|52=20200612-05:27:24.070|56=EXECLINKS|37=3|39=0|150=0|10=247|8=FIX.4.4|9=78|35=8|34=268|49=COEPEXCH|52=20200612-05:27:24.072|56=EXECLINKS|37=3|39=0|150=0|10=250|8=FIX.4.4|9=78|35=8|34=269|49=COEPEXCH|52=20200612-05:27:24.073|56=EXECLINKS|37=3|39=0|150=0|10=252|8=FIX.4.4|9=78|35=8|34=270|49=COEPEXCH|52=20200612-05:27:24.074|56=EXECLINKS|37=3|39=0|150=0|10=245|8=FIX.4.4|9=78|35=8|34=271|49=COEPEXCH|52=20200612-05:27:24.075|56=EXECLINKS|37=3|39=0|150=0|10=247|8=FIX.4.4|9=78|35=8|34=272|49=COEPEXCH|52=20200612-05:27:24.076|56=EXECLINKS|37=3|39=0|150=0|10=249|8=FIX.4.4|9=78|35=8|34=273|49=COEPEXCH|52=20200612-05:27:24.077|56=EXECLINKS|37=3|39=0|150=0|10=251|8=FIX.4.4|9=78|35=8|34=274|49=COEPEXCH|52=20200612-05:27:24.079|56=EXECLINKS|37=3|39=0|150=0|10=254|8=FIX.4.4|9=78|35=8|34=275|49=COEPEXCH|52=20200612-05:27:24.080|56=EXECLINKS|37=3|39=0|150=0|10=247|8=FIX.4.4|9=78|35=8|34=276|49=COEPEXCH|52=20200612-05:27:24.082|56=EXECLINKS|37=3|39=0|150=0|10=250|8=FIX.4.4|9=78|35=8|34=277|49=COEPEXCH|52=20200612-05:27:24.083|56=EXECLINKS|37=3|39=0|150=0|10=252|8=FIX.4.4|9=78|35=8|34=278|49=COEPEXCH|52=20200612-05:27:24.084|56=EXECLINKS|37=3|39=0|150=0|10=254|8=FIX.4.4|9=78|35=8|34=279|49=COEPEXCH|52=20200612-05:27:24.086|56=EXECLINKS|37=3|39=0|150=0|10=001|8=FIX.4.4|9=78|35=8|34=280|49=COEPEXCH|52=20200612-05:27:24.087|56=EXECLINKS|37=3|39=0|150=0|10=250|8=FIX.4.4|9=78|35=8|34=281|49=COEPEXCH|52=20200612-05:27:24.088|56=EXECLINKS|37=3|39=0|150=0|10=252|8=FIX.4.4|9=78|35=8|34=282|49=COEPEXCH|52=20200612-05:27:24.090|56=EXECLINKS|37=3|39=0|150=0|10=246|8=FIX.4.4|9=78|35=8|34=283|49=COEPEXCH|52=20200612-05:27:24.091|56=EXECLINKS|37=3|39=0|150=0|10=248|8=FIX.4.4|9=78|35=8|34=284|49=COEPEXCH|52=20200612-05:27:24.093|56=EXECLINKS|37=3|39=0|150=0|10=251|8=FIX.4.4|9=78|35=8|34=285|49=COEPEXCH|52=20200612-05:27:24.094|56=EXECLINKS|37=3|39=0|150=0|10=253|8=FIX.4.4|9=78|35=8|34=286|49=COEPEXCH|52=20200612-05:27:24.096|56=EXECLINKS|37=3|39=0|150=0|10=000|8=FIX.4.4|9=78|35=8|34=287|49=COEPEXCH|52=20200612-05:27:24.098|56=EXECLINKS|37=3|39=0|150=0|10=003|8=FIX.4.4|9=78|35=8|34=288|49=COEPEXCH|52=20200612-05:27:24.140|56=EXECLINKS|37=3|39=0|150=0|10=248|8=FIX.4.4|9=74|35=A|34=289|49=COEPEXCH|52=20200612-05:27:59.567|56=EXECLINKS|98=0|108=20|10=114|8=FIX.4.4|9=78|35=8|34=290|49=COEPEXCH|52=20200612-05:27:59.600|56=EXECLINKS|37=3|39=0|150=0|10=250|8=FIX.4.4|9=78|35=8|34=291|49=COEPEXCH|52=20200612-05:28:09.607|56=EXECLINKS|37=3|39=0|150=0|10=254|8=FIX.4.4|9=74|35=A|34=292|49=COEPEXCH|52=20200612-05:29:12.452|56=EXECLINKS|98=0|108=20|10=092|8=FIX.4.4|9=100|35=W|34=293|49=COEPEXCH|52=20200612-05:29:12.484|56=EXECLINKS|55=amzn|268=1|269=0|270=87|271=2|37=3|10=045|8=FIX.4.4|9=74|35=A|34=294|49=COEPEXCH|52=20200612-05:35:52.387|56=EXECLINKS|98=0|108=20|10=102|8=FIX.4.4|9=100|35=W|34=295|49=COEPEXCH|52=20200612-05:35:52.422|56=EXECLINKS|55=amzn|268=1|269=0|270=87|271=2|37=3|10=040|8=FIX.4.4|9=74|35=A|34=296|49=COEPEXCH|52=20200612-05:36:27.501|56=EXECLINKS|98=0|108=20|10=095|8=FIX.4.4|9=78|35=8|34=297|49=COEPEXCH|52=20200612-05:36:27.537|56=EXECLINKS|37=3|39=0|150=0|10=005|8=FIX.4.4|9=78|35=8|34=298|49=COEPEXCH|52=20200612-05:36:37.548|56=EXECLINKS|37=3|39=0|150=0|10=009|8=FIX.4.4|9=74|35=A|34=299|49=COEPEXCH|52=20200612-05:37:38.954|56=EXECLINKS|98=0|108=20|10=113|8=FIX.4.4|9=74|35=A|34=300|49=COEPEXCH|52=20200612-05:38:29.615|56=EXECLINKS|98=0|108=20|10=091|8=FIX.4.4|9=73|35=2|34=301|49=COEPEXCH|52=20200612-05:38:29.616|56=EXECLINKS|7=441|16=0|10=024|8=FIX.4.4|9=62|35=8|34=302|49=COEPEXCH|52=20200612-05:38:29.617|56=EXECLINKS|10=059|8=FIX.4.4|9=62|35=8|34=303|49=COEPEXCH|52=20200612-05:38:29.658|56=EXECLINKS|10=065|8=FIX.4.4|9=62|35=8|34=304|49=COEPEXCH|52=20200612-05:38:39.668|56=EXECLINKS|10=068|8=FIX.4.4|9=62|35=8|34=305|49=COEPEXCH|52=20200612-05:38:49.683|56=EXECLINKS|10=067|8=FIX.4.4|9=74|35=A|34=306|49=COEPEXCH|52=20200612-05:39:52.587|56=EXECLINKS|98=0|108=20|10=102|8=FIX.4.4|9=62|35=8|34=307|49=COEPEXCH|52=20200612-05:39:52.621|56=EXECLINKS|10=056|8=FIX.4.4|9=74|35=A|34=308|49=COEPEXCH|52=20200612-05:42:15.426|56=EXECLINKS|98=0|108=20|10=089|8=FIX.4.4|9=74|35=A|34=309|49=COEPEXCH|52=20200612-05:42:53.447|56=EXECLINKS|98=0|108=20|10=095|8=FIX.4.4|9=73|35=2|34=310|49=COEPEXCH|52=20200612-05:42:53.447|56=EXECLINKS|7=454|16=0|10=022|8=FIX.4.4|9=78|35=8|34=311|49=COEPEXCH|52=20200612-05:42:53.449|56=EXECLINKS|37=3|39=0|150=0|10=246|8=FIX.4.4|9=78|35=8|34=312|49=COEPEXCH|52=20200612-05:42:53.450|56=EXECLINKS|37=3|39=0|150=0|10=239|8=FIX.4.4|9=78|35=8|34=313|49=COEPEXCH|52=20200612-05:42:53.450|56=EXECLINKS|37=3|39=0|150=0|10=240|8=FIX.4.4|9=78|35=8|34=314|49=COEPEXCH|52=20200612-05:42:53.451|56=EXECLINKS|37=3|39=0|150=0|10=242|8=FIX.4.4|9=78|35=8|34=315|49=COEPEXCH|52=20200612-05:42:53.494|56=EXECLINKS|37=3|39=0|150=0|10=250|8=FIX.4.4|9=74|35=A|34=316|49=COEPEXCH|52=20200612-05:43:48.327|56=EXECLINKS|98=0|108=20|10=095|8=FIX.4.4|9=78|35=8|34=317|49=COEPEXCH|52=20200612-05:43:48.368|56=EXECLINKS|37=3|39=0|150=0|10=001|8=FIX.4.4|9=78|35=8|34=318|49=COEPEXCH|52=20200612-05:43:58.382|56=EXECLINKS|37=3|39=0|150=0|10=255|8=FIX.4.4|9=74|35=A|34=319|49=COEPEXCH|52=20200612-05:45:21.588|56=EXECLINKS|98=0|108=20|10=100|8=FIX.4.4|9=178|35=8|34=320|49=COEPEXCH|52=20200612-05:45:21.622|56=EXECLINKS|58=text string|1=EXECLINKS|11=3|37=3|38=2|39=0|40=2|44=87|54=1|55=amzn|58=Buy shares|60=20200612-22:29:00.000|150=0|10=103|8=FIX.4.4|9=74|35=A|34=321|49=COEPEXCH|52=20200612-05:47:10.867|56=EXECLINKS|98=0|108=20|10=093|8=FIX.4.4|9=93|35=8|34=322|49=COEPEXCH|52=20200612-05:47:10.900|56=EXECLINKS|58=text string|37=3|39=0|150=0|10=018|8=FIX.4.4|9=74|35=A|34=323|49=COEPEXCH|52=20200612-05:47:39.870|56=EXECLINKS|98=0|108=20|10=100|8=FIX.4.4|9=78|35=8|34=324|49=COEPEXCH|52=20200612-05:47:39.952|56=EXECLINKS|37=3|39=0|150=0|10=002|8=FIX.4.4|9=78|35=8|34=325|49=COEPEXCH|52=20200612-05:47:49.962|56=EXECLINKS|37=3|39=0|150=0|10=005|8=FIX.4.4|9=74|35=A|34=326|49=COEPEXCH|52=20200612-05:48:49.240|56=EXECLINKS|98=0|108=20|10=096|8=FIX.4.4|9=78|35=8|34=327|49=COEPEXCH|52=20200612-05:48:49.272|56=EXECLINKS|37=3|39=0|150=0|10=002|8=FIX.4.4|9=74|35=A|34=328|49=COEPEXCH|52=20200612-05:52:10.000|56=EXECLINKS|98=0|108=20|10=075|8=FIX.4.4|9=78|35=8|34=329|49=COEPEXCH|52=20200612-05:52:10.034|56=EXECLINKS|37=3|39=0|150=0|10=239|8=FIX.4.4|9=78|35=8|34=330|49=COEPEXCH|52=20200612-05:52:20.045|56=EXECLINKS|37=3|39=0|150=0|10=234|8=FIX.4.4|9=78|35=8|34=331|49=COEPEXCH|52=20200612-05:52:30.057|56=EXECLINKS|37=3|39=0|150=0|10=239|8=FIX.4.4|9=78|35=8|34=332|49=COEPEXCH|52=20200612-05:52:40.068|56=EXECLINKS|37=3|39=0|150=0|10=243|8=FIX.4.4|9=78|35=8|34=333|49=COEPEXCH|52=20200612-05:52:50.077|56=EXECLINKS|37=3|39=0|150=0|10=245|8=FIX.4.4|9=78|35=8|34=334|49=COEPEXCH|52=20200612-05:53:00.087|56=EXECLINKS|37=3|39=0|150=0|10=243|8=FIX.4.4|9=78|35=8|34=335|49=COEPEXCH|52=20200612-05:53:10.097|56=EXECLINKS|37=3|39=0|150=0|10=246|8=FIX.4.4|9=78|35=8|34=336|49=COEPEXCH|52=20200612-05:53:20.107|56=EXECLINKS|37=3|39=0|150=0|10=240|8=FIX.4.4|9=74|35=A|34=337|49=COEPEXCH|52=20200612-05:53:54.613|56=EXECLINKS|98=0|108=20|10=094|8=FIX.4.4|9=78|35=8|34=338|49=COEPEXCH|52=20200612-05:53:54.646|56=EXECLINKS|37=3|39=0|150=0|10=001|8=FIX.4.4|9=100|35=W|34=339|49=COEPEXCH|52=20200612-05:53:54.647|56=EXECLINKS|55=amzn|268=1|269=0|270=87|271=2|37=3|10=050|8=FIX.4.4|9=78|35=8|34=340|49=COEPEXCH|52=20200612-05:54:04.655|56=EXECLINKS|37=3|39=0|150=0|10=246|8=FIX.4.4|9=124|35=W|34=341|49=COEPEXCH|52=20200612-05:54:04.656|56=EXECLINKS|55=amzn|268=2|269=0|270=87|271=2|37=3|269=0|270=87|271=2|37=3|10=104|8=FIX.4.4|9=78|35=8|34=342|49=COEPEXCH|52=20200612-05:54:14.666|56=EXECLINKS|37=3|39=0|150=0|10=251|8=FIX.4.4|9=148|35=W|34=343|49=COEPEXCH|52=20200612-05:54:14.667|56=EXECLINKS|55=amzn|268=3|269=0|270=87|271=2|37=3|269=0|270=87|271=2|37=3|269=0|270=87|271=2|37=3|10=174|8=FIX.4.4|9=74|35=A|34=344|49=COEPEXCH|52=20200612-05:56:29.572|56=EXECLINKS|98=0|108=20|10=101|8=FIX.4.4|9=78|35=8|34=345|49=COEPEXCH|52=20200612-05:56:29.610|56=EXECLINKS|37=3|39=0|150=0|10=251|8=FIX.4.4|9=78|35=8|34=346|49=COEPEXCH|52=20200612-05:56:39.622|56=EXECLINKS|37=3|39=0|150=0|10=000|8=FIX.4.4|9=74|35=A|34=347|49=COEPEXCH|52=20200612-05:56:55.754|56=EXECLINKS|98=0|108=20|10=105|8=FIX.4.4|9=78|35=8|34=348|49=COEPEXCH|52=20200612-05:56:55.788|56=EXECLINKS|37=3|39=0|150=0|10=013|8=FIX.4.4|9=78|35=8|34=349|49=COEPEXCH|52=20200612-05:57:05.799|56=EXECLINKS|37=3|39=0|150=0|10=012|8=FIX.4.4|9=78|35=8|34=350|49=COEPEXCH|52=20200612-05:57:15.810|56=EXECLINKS|37=3|39=0|150=0|10=245|8=FIX.4.4|9=78|35=8|34=351|49=COEPEXCH|52=20200612-05:57:25.819|56=EXECLINKS|37=3|39=0|150=0|10=000|8=FIX.4.4|9=78|35=8|34=352|49=COEPEXCH|52=20200612-05:57:35.828|56=EXECLINKS|37=3|39=0|150=0|10=002|8=FIX.4.4|9=78|35=8|34=353|49=COEPEXCH|52=20200612-05:57:45.839|56=EXECLINKS|37=3|39=0|150=0|10=006|8=FIX.4.4|9=78|35=8|34=354|49=COEPEXCH|52=20200612-05:57:55.852|56=EXECLINKS|37=3|39=0|150=0|10=003|8=FIX.4.4|9=74|35=A|34=355|49=COEPEXCH|52=20200612-05:58:10.416|56=EXECLINKS|98=0|108=20|10=092|8=FIX.4.4|9=74|35=A|34=356|49=COEPEXCH|52=20200612-05:58:30.398|56=EXECLINKS|98=0|108=20|10=104|8=FIX.4.4|9=73|35=2|34=357|49=COEPEXCH|52=20200612-05:58:30.398|56=EXECLINKS|7=506|16=0|10=038|8=FIX.4.4|9=78|35=8|34=358|49=COEPEXCH|52=20200612-05:58:30.400|56=EXECLINKS|37=3|39=0|150=0|10=246|8=FIX.4.4|9=78|35=8|34=359|49=COEPEXCH|52=20200612-05:58:30.445|56=EXECLINKS|37=3|39=0|150=0|10=000|8=FIX.4.4|9=78|35=8|34=360|49=COEPEXCH|52=20200612-05:58:40.461|56=EXECLINKS|37=3|39=0|150=0|10=247|8=FIX.4.4|9=78|35=8|34=361|49=COEPEXCH|52=20200612-05:58:50.481|56=EXECLINKS|37=3|39=0|150=0|10=251|8=FIX.4.4|9=74|35=A|34=362|49=COEPEXCH|52=20200612-06:01:29.303|56=EXECLINKS|98=0|108=20|10=084|8=FIX.4.4|9=78|35=8|34=363|49=COEPEXCH|52=20200612-06:01:29.348|56=EXECLINKS|37=3|39=0|150=0|10=250|8=FIX.4.4|9=78|35=8|34=364|49=COEPEXCH|52=20200612-06:01:39.362|56=EXECLINKS|37=3|39=0|150=0|10=248|8=FIX.4.4|9=74|35=A|34=365|49=COEPEXCH|52=20200612-06:02:26.910|56=EXECLINKS|98=0|108=20|10=089|8=FIX.4.4|9=78|35=8|34=366|49=COEPEXCH|52=20200612-06:02:26.950|56=EXECLINKS|37=3|39=0|150=0|10=250|8=FIX.4.4|9=74|35=A|34=367|49=COEPEXCH|52=20200612-06:05:20.779|56=EXECLINKS|98=0|108=20|10=101|8=FIX.4.4|9=73|35=2|34=368|49=COEPEXCH|52=20200612-06:05:20.779|56=EXECLINKS|7=515|16=0|10=035|8=FIX.4.4|9=78|35=8|34=369|49=COEPEXCH|52=20200612-06:05:20.781|56=EXECLINKS|37=3|39=0|150=0|10=252|8=FIX.4.4|9=78|35=8|34=370|49=COEPEXCH|52=20200612-06:05:20.782|56=EXECLINKS|37=3|39=0|150=0|10=245|8=FIX.4.4|9=78|35=8|34=371|49=COEPEXCH|52=20200612-06:05:20.783|56=EXECLINKS|37=3|39=0|150=0|10=247|8=FIX.4.4|9=78|35=8|34=372|49=COEPEXCH|52=20200612-06:05:20.784|56=EXECLINKS|37=3|39=0|150=0|10=249|8=FIX.4.4|9=78|35=8|34=373|49=COEPEXCH|52=20200612-06:05:20.785|56=EXECLINKS|37=3|39=0|150=0|10=251|8=FIX.4.4|9=78|35=8|34=374|49=COEPEXCH|52=20200612-06:05:20.787|56=EXECLINKS|37=3|39=0|150=0|10=254|8=FIX.4.4|9=78|35=8|34=375|49=COEPEXCH|52=20200612-06:05:20.788|56=EXECLINKS|37=3|39=0|150=0|10=000|8=FIX.4.4|9=78|35=8|34=376|49=COEPEXCH|52=20200612-06:05:20.789|56=EXECLINKS|37=3|39=0|150=0|10=002|8=FIX.4.4|9=78|35=8|34=377|49=COEPEXCH|52=20200612-06:05:20.791|56=EXECLINKS|37=3|39=0|150=0|10=252|8=FIX.4.4|9=78|35=8|34=378|49=COEPEXCH|52=20200612-06:05:20.793|56=EXECLINKS|37=3|39=0|150=0|10=255|8=FIX.4.4|9=78|35=8|34=379|49=COEPEXCH|52=20200612-06:05:20.794|56=EXECLINKS|37=3|39=0|150=0|10=001|8=FIX.4.4|9=78|35=8|34=380|49=COEPEXCH|52=20200612-06:05:20.795|56=EXECLINKS|37=3|39=0|150=0|10=250|8=FIX.4.4|9=78|35=8|34=381|49=COEPEXCH|52=20200612-06:05:20.799|56=EXECLINKS|37=3|39=0|150=0|10=255|8=FIX.4.4|9=78|35=8|34=382|49=COEPEXCH|52=20200612-06:05:20.800|56=EXECLINKS|37=3|39=0|150=0|10=239|8=FIX.4.4|9=78|35=8|34=383|49=COEPEXCH|52=20200612-06:05:20.802|56=EXECLINKS|37=3|39=0|150=0|10=242|8=FIX.4.4|9=78|35=8|34=384|49=COEPEXCH|52=20200612-06:05:20.803|56=EXECLINKS|37=3|39=0|150=0|10=244|8=FIX.4.4|9=78|35=8|34=385|49=COEPEXCH|52=20200612-06:05:20.805|56=EXECLINKS|37=3|39=0|150=0|10=247|8=FIX.4.4|9=78|35=8|34=386|49=COEPEXCH|52=20200612-06:05:20.806|56=EXECLINKS|37=3|39=0|150=0|10=249|8=FIX.4.4|9=78|35=8|34=387|49=COEPEXCH|52=20200612-06:05:20.825|56=EXECLINKS|37=3|39=0|150=0|10=251|8=FIX.4.4|9=74|35=A|34=388|49=COEPEXCH|52=20200612-06:05:31.369|56=EXECLINKS|98=0|108=20|10=101|8=FIX.4.4|9=78|35=8|34=389|49=COEPEXCH|52=20200612-06:05:31.403|56=EXECLINKS|37=3|39=0|150=0|10=247|8=FIX.4.4|9=78|35=8|34=390|49=COEPEXCH|52=20200612-06:05:41.416|56=EXECLINKS|37=3|39=0|150=0|10=244|8=FIX.4.4|9=74|35=A|34=391|49=COEPEXCH|52=20200612-06:08:44.912|56=EXECLINKS|98=0|108=20|10=096|8=FIX.4.4|9=78|35=8|34=392|49=COEPEXCH|52=20200612-06:08:44.949|56=EXECLINKS|37=3|39=0|150=0|10=007|8=FIX.4.4|9=78|35=8|34=393|49=COEPEXCH|52=20200612-06:08:54.960|56=EXECLINKS|37=3|39=0|150=0|10=002|8=FIX.4.4|9=78|35=8|34=394|49=COEPEXCH|52=20200612-06:09:04.973|56=EXECLINKS|37=3|39=0|150=0|10=003|8=FIX.4.4|9=78|35=8|34=395|49=COEPEXCH|52=20200612-06:09:14.981|56=EXECLINKS|37=3|39=0|150=0|10=004|8=FIX.4.4|9=74|35=A|34=396|49=COEPEXCH|52=20200612-06:10:18.537|56=EXECLINKS|98=0|108=20|10=098|8=FIX.4.4|9=78|35=8|34=397|49=COEPEXCH|52=20200612-06:10:18.573|56=EXECLINKS|37=3|39=0|150=0|10=255|8=FIX.4.4|9=78|35=8|34=398|49=COEPEXCH|52=20200612-06:10:28.583|56=EXECLINKS|37=3|39=0|150=0|10=002|8=FIX.4.4|9=78|35=8|34=399|49=COEPEXCH|52=20200612-06:10:38.592|56=EXECLINKS|37=3|39=0|150=0|10=004|8=FIX.4.4|9=74|35=A|34=400|49=COEPEXCH|52=20200612-06:12:29.240|56=EXECLINKS|98=0|108=20|10=079|8=FIX.4.4|9=78|35=8|34=401|49=COEPEXCH|52=20200612-06:12:29.275|56=EXECLINKS|37=3|39=0|150=0|10=244|8=FIX.4.4|9=78|35=8|34=402|49=COEPEXCH|52=20200612-06:12:39.288|56=EXECLINKS|37=3|39=0|150=0|10=250|8=FIX.4.4|9=74|35=A|34=403|49=COEPEXCH|52=20200612-06:14:12.793|56=EXECLINKS|98=0|108=20|10=089|8=FIX.4.4|9=78|35=8|34=404|49=COEPEXCH|52=20200612-06:14:12.838|56=EXECLINKS|37=3|39=0|150=0|10=246|8=FIX.4.4|9=78|35=8|34=405|49=COEPEXCH|52=20200612-06:14:22.857|56=EXECLINKS|37=3|39=0|150=0|10=249|8=FIX.4.4|9=78|35=8|34=406|49=COEPEXCH|52=20200612-06:14:32.864|56=EXECLINKS|37=3|39=0|150=0|10=249|8=FIX.4.4|9=78|35=8|34=407|49=COEPEXCH|52=20200612-06:14:42.874|56=EXECLINKS|37=3|39=0|150=0|10=252|8=FIX.4.4|9=74|35=A|34=408|49=COEPEXCH|52=20200612-06:15:06.387|56=EXECLINKS|98=0|108=20|10=097|8=FIX.4.4|9=78|35=8|34=409|49=COEPEXCH|52=20200612-06:15:06.422|56=EXECLINKS|37=3|39=0|150=0|10=244|8=FIX.4.4|9=78|35=8|34=410|49=COEPEXCH|52=20200612-06:15:16.436|56=EXECLINKS|37=3|39=0|150=0|10=242|8=FIX.4.4|9=78|35=8|34=411|49=COEPEXCH|52=20200612-06:15:26.447|56=EXECLINKS|37=3|39=0|150=0|10=246|8=FIX.4.4|9=78|35=8|34=412|49=COEPEXCH|52=20200612-06:15:36.458|56=EXECLINKS|37=3|39=0|150=0|10=250|8=FIX.4.4|9=74|35=A|34=413|49=COEPEXCH|52=20200612-06:15:58.999|56=EXECLINKS|98=0|108=20|10=109|8=FIX.4.4|9=78|35=8|34=414|49=COEPEXCH|52=20200612-06:15:59.033|56=EXECLINKS|37=3|39=0|150=0|10=246|8=FIX.4.4|9=78|35=8|34=415|49=COEPEXCH|52=20200612-06:16:09.045|56=EXECLINKS|37=3|39=0|150=0|10=246|8=FIX.4.4|9=74|35=A|34=416|49=COEPEXCH|52=20200612-06:17:04.832|56=EXECLINKS|98=0|108=60|10=095|8=FIX.4.4|9=78|35=8|34=417|49=COEPEXCH|52=20200612-06:17:04.867|56=EXECLINKS|37=3|39=0|150=0|10=000|8=FIX.4.4|9=74|35=A|34=418|49=COEPEXCH|52=20200612-06:18:19.200|56=EXECLINKS|98=0|108=60|10=093|8=FIX.4.4|9=78|35=8|34=419|49=COEPEXCH|52=20200612-06:18:19.234|56=EXECLINKS|37=3|39=0|150=0|10=253|8=FIX.4.4|9=78|35=8|34=420|49=COEPEXCH|52=20200612-06:18:29.244|56=EXECLINKS|37=3|39=0|150=0|10=247|8=FIX.4.4|9=78|35=8|34=421|49=COEPEXCH|52=20200612-06:18:39.254|56=EXECLINKS|37=3|39=0|150=0|10=250|8=FIX.4.4|9=74|35=A|34=422|49=COEPEXCH|52=20200612-06:19:33.663|56=EXECLINKS|98=0|108=60|10=098|8=FIX.4.4|9=78|35=8|34=423|49=COEPEXCH|52=20200612-06:19:33.699|56=EXECLINKS|37=3|39=0|150=0|10=004|8=FIX.4.4|9=78|35=8|34=424|49=COEPEXCH|52=20200612-06:19:43.710|56=EXECLINKS|37=3|39=0|150=0|10=246|8=FIX.4.4|9=78|35=8|34=425|49=COEPEXCH|52=20200612-06:19:53.724|56=EXECLINKS|37=3|39=0|150=0|10=253|8=FIX.4.4|9=78|35=8|34=426|49=COEPEXCH|52=20200612-06:20:03.736|56=EXECLINKS|37=3|39=0|150=0|10=244|8=FIX.4.4|9=74|35=A|34=427|49=COEPEXCH|52=20200612-06:20:39.642|56=EXECLINKS|98=0|108=60|10=098|8=FIX.4.4|9=78|35=8|34=428|49=COEPEXCH|52=20200612-06:20:39.677|56=EXECLINKS|37=3|39=0|150=0|10=003|8=FIX.4.4|9=78|35=8|34=429|49=COEPEXCH|52=20200612-06:20:49.691|56=EXECLINKS|37=3|39=0|150=0|10=001|8=FIX.4.4|9=78|35=8|34=430|49=COEPEXCH|52=20200612-06:20:59.700|56=EXECLINKS|37=3|39=0|150=0|10=241|8=FIX.4.4|9=78|35=8|34=431|49=COEPEXCH|52=20200612-06:21:09.710|56=EXECLINKS|37=3|39=0|150=0|10=239|8=FIX.4.4|9=78|35=8|34=432|49=COEPEXCH|52=20200612-06:21:19.722|56=EXECLINKS|37=3|39=0|150=0|10=244|8=FIX.4.4|9=74|35=A|34=433|49=COEPEXCH|52=20200612-06:25:08.527|56=EXECLINKS|98=0|108=60|10=098|8=FIX.4.4|9=73|35=2|34=434|49=COEPEXCH|52=20200612-06:25:08.528|56=EXECLINKS|7=585|16=0|10=036|8=FIX.4.4|9=78|35=8|34=435|49=COEPEXCH|52=20200612-06:25:08.529|56=EXECLINKS|37=3|39=0|150=0|10=254|8=FIX.4.4|9=78|35=8|34=436|49=COEPEXCH|52=20200612-06:25:08.569|56=EXECLINKS|37=3|39=0|150=0|10=003|8=FIX.4.4|9=74|35=A|34=437|49=COEPEXCH|52=20200612-06:30:26.733|56=EXECLINKS|98=0|108=60|10=097|8=FIX.4.4|9=73|35=2|34=438|49=COEPEXCH|52=20200612-06:30:26.733|56=EXECLINKS|7=589|16=0|10=038|8=FIX.4.4|9=78|35=8|34=439|49=COEPEXCH|52=20200612-06:30:26.734|56=EXECLINKS|37=3|39=0|150=0|10=252|8=FIX.4.4|9=78|35=8|34=440|49=COEPEXCH|52=20200612-06:30:26.775|56=EXECLINKS|37=3|39=0|150=0|10=249|8=FIX.4.4|9=74|35=A|34=441|49=COEPEXCH|52=20200612-06:32:38.888|56=EXECLINKS|98=0|108=60|10=108|8=FIX.4.4|9=73|35=2|34=442|49=COEPEXCH|52=20200612-06:32:38.888|56=EXECLINKS|7=593|16=0|10=044|8=FIX.4.4|9=78|35=8|34=443|49=COEPEXCH|52=20200612-06:32:38.889|56=EXECLINKS|37=3|39=0|150=0|10=007|8=FIX.4.4|9=78|35=8|34=444|49=COEPEXCH|52=20200612-06:32:38.890|56=EXECLINKS|37=3|39=0|150=0|10=000|8=FIX.4.4|9=78|35=8|34=445|49=COEPEXCH|52=20200612-06:32:38.891|56=EXECLINKS|37=3|39=0|150=0|10=002|8=FIX.4.4|9=78|35=8|34=446|49=COEPEXCH|52=20200612-06:32:38.891|56=EXECLINKS|37=3|39=0|150=0|10=003|8=FIX.4.4|9=78|35=8|34=447|49=COEPEXCH|52=20200612-06:32:38.893|56=EXECLINKS|37=3|39=0|150=0|10=006|8=FIX.4.4|9=78|35=8|34=448|49=COEPEXCH|52=20200612-06:32:38.894|56=EXECLINKS|37=3|39=0|150=0|10=008|8=FIX.4.4|9=78|35=8|34=449|49=COEPEXCH|52=20200612-06:32:38.894|56=EXECLINKS|37=3|39=0|150=0|10=009|8=FIX.4.4|9=78|35=8|34=450|49=COEPEXCH|52=20200612-06:32:38.895|56=EXECLINKS|37=3|39=0|150=0|10=002|8=FIX.4.4|9=78|35=8|34=451|49=COEPEXCH|52=20200612-06:32:38.895|56=EXECLINKS|37=3|39=0|150=0|10=003|8=FIX.4.4|9=78|35=8|34=452|49=COEPEXCH|52=20200612-06:32:38.896|56=EXECLINKS|37=3|39=0|150=0|10=005|8=FIX.4.4|9=78|35=8|34=453|49=COEPEXCH|52=20200612-06:32:38.898|56=EXECLINKS|37=3|39=0|150=0|10=008|8=FIX.4.4|9=78|35=8|34=454|49=COEPEXCH|52=20200612-06:32:38.899|56=EXECLINKS|37=3|39=0|150=0|10=010|8=FIX.4.4|9=78|35=8|34=455|49=COEPEXCH|52=20200612-06:32:38.901|56=EXECLINKS|37=3|39=0|150=0|10=251|8=FIX.4.4|9=78|35=8|34=456|49=COEPEXCH|52=20200612-06:32:38.925|56=EXECLINKS|37=3|39=0|150=0|10=002|8=FIX.4.4|9=74|35=A|34=457|49=COEPEXCH|52=20200612-06:32:53.359|56=EXECLINKS|98=0|108=60|10=105|8=FIX.4.4|9=73|35=2|34=458|49=COEPEXCH|52=20200612-06:32:53.359|56=EXECLINKS|7=612|16=0|10=033|8=FIX.4.4|9=78|35=8|34=459|49=COEPEXCH|52=20200612-06:32:53.361|56=EXECLINKS|37=3|39=0|150=0|10=252|8=FIX.4.4|9=78|35=8|34=460|49=COEPEXCH|52=20200612-06:32:53.405|56=EXECLINKS|37=3|39=0|150=0|10=243|8=FIX.4.4|9=74|35=A|34=461|49=COEPEXCH|52=20200612-06:33:24.017|56=EXECLINKS|98=0|108=60|10=090|8=FIX.4.4|9=73|35=2|34=462|49=COEPEXCH|52=20200612-06:33:24.017|56=EXECLINKS|7=615|16=0|10=021|8=FIX.4.4|9=78|35=8|34=463|49=COEPEXCH|52=20200612-06:33:24.018|56=EXECLINKS|37=3|39=0|150=0|10=245|8=FIX.4.4|9=78|35=8|34=464|49=COEPEXCH|52=20200612-06:33:24.019|56=EXECLINKS|37=3|39=0|150=0|10=247|8=FIX.4.4|9=78|35=8|34=465|49=COEPEXCH|52=20200612-06:33:24.057|56=EXECLINKS|37=3|39=0|150=0|10=250|8=FIX.4.4|9=74|35=A|34=466|49=COEPEXCH|52=20200612-06:37:21.814|56=EXECLINKS|98=0|108=60|10=101|8=FIX.4.4|9=73|35=2|34=467|49=COEPEXCH|52=20200612-06:37:21.815|56=EXECLINKS|7=619|16=0|10=037|8=FIX.4.4|9=78|35=8|34=468|49=COEPEXCH|52=20200612-06:37:21.817|56=EXECLINKS|37=3|39=0|150=0|10=002|8=FIX.4.4|9=78|35=8|34=469|49=COEPEXCH|52=20200612-06:37:21.817|56=EXECLINKS|37=3|39=0|150=0|10=003|8=FIX.4.4|9=78|35=8|34=470|49=COEPEXCH|52=20200612-06:37:21.818|56=EXECLINKS|37=3|39=0|150=0|10=252|8=FIX.4.4|9=78|35=8|34=471|49=COEPEXCH|52=20200612-06:37:21.818|56=EXECLINKS|37=3|39=0|150=0|10=253|8=FIX.4.4|9=78|35=8|34=472|49=COEPEXCH|52=20200612-06:37:21.819|56=EXECLINKS|37=3|39=0|150=0|10=255|8=FIX.4.4|9=78|35=8|34=473|49=COEPEXCH|52=20200612-06:37:21.819|56=EXECLINKS|37=3|39=0|150=0|10=000|8=FIX.4.4|9=78|35=8|34=474|49=COEPEXCH|52=20200612-06:37:21.820|56=EXECLINKS|37=3|39=0|150=0|10=249|8=FIX.4.4|9=78|35=8|34=475|49=COEPEXCH|52=20200612-06:37:21.885|56=EXECLINKS|37=3|39=0|150=0|10=005|8=FIX.4.4|9=74|35=A|34=476|49=COEPEXCH|52=20200612-06:38:41.464|56=EXECLINKS|98=0|108=60|10=106|8=FIX.4.4|9=73|35=2|34=477|49=COEPEXCH|52=20200612-06:38:41.464|56=EXECLINKS|7=630|16=0|10=034|8=FIX.4.4|9=78|35=8|34=478|49=COEPEXCH|52=20200612-06:38:41.471|56=EXECLINKS|37=3|39=0|150=0|10=002|8=FIX.4.4|9=78|35=8|34=479|49=COEPEXCH|52=20200612-06:38:41.512|56=EXECLINKS|37=3|39=0|150=0|10=255|8=FIX.4.4|9=74|35=A|34=480|49=COEPEXCH|52=20200612-06:42:05.437|56=EXECLINKS|98=0|108=60|10=096|8=FIX.4.4|9=73|35=2|34=481|49=COEPEXCH|52=20200612-06:42:05.438|56=EXECLINKS|7=633|16=0|10=028|8=FIX.4.4|9=78|35=8|34=482|49=COEPEXCH|52=20200612-06:42:05.439|56=EXECLINKS|37=3|39=0|150=0|10=252|8=FIX.4.4|9=78|35=8|34=483|49=COEPEXCH|52=20200612-06:42:05.482|56=EXECLINKS|37=3|39=0|150=0|10=251|8=FIX.4.4|9=78|35=8|34=484|49=COEPEXCH|52=20200612-06:42:15.490|56=EXECLINKS|37=3|39=0|150=0|10=252|8=FIX.4.4|9=78|35=8|34=485|49=COEPEXCH|52=20200612-06:42:25.500|56=EXECLINKS|37=3|39=0|150=0|10=246|8=FIX.4.4|9=78|35=8|34=486|49=COEPEXCH|52=20200612-06:42:35.510|56=EXECLINKS|37=3|39=0|150=0|10=249|8=FIX.4.4|9=78|35=8|34=487|49=COEPEXCH|52=20200612-06:42:45.521|56=EXECLINKS|37=3|39=0|150=0|10=253|8=FIX.4.4|9=78|35=8|34=488|49=COEPEXCH|52=20200612-06:42:55.531|56=EXECLINKS|37=3|39=0|150=0|10=000|8=FIX.4.4|9=74|35=A|34=489|49=COEPEXCH|52=20200612-06:44:09.111|56=EXECLINKS|98=0|108=60|10=100|8=FIX.4.4|9=78|35=8|34=490|49=COEPEXCH|52=20200612-06:44:09.145|56=EXECLINKS|37=3|39=0|150=0|10=251|8=FIX.4.4|9=78|35=8|34=491|49=COEPEXCH|52=20200612-06:44:19.153|56=EXECLINKS|37=3|39=0|150=0|10=252|8=FIX.4.4|9=78|35=8|34=492|49=COEPEXCH|52=20200612-06:44:29.164|56=EXECLINKS|37=3|39=0|150=0|10=000|8=FIX.4.4|9=78|35=8|34=493|49=COEPEXCH|52=20200612-06:44:39.176|56=EXECLINKS|37=3|39=0|150=0|10=005|8=FIX.4.4|9=78|35=8|34=494|49=COEPEXCH|52=20200612-06:44:49.186|56=EXECLINKS|37=3|39=0|150=0|10=008|8=FIX.4.4|9=74|35=A|34=495|49=COEPEXCH|52=20200612-06:46:21.243|56=EXECLINKS|98=0|108=60|10=099|8=FIX.4.4|9=78|35=8|34=496|49=COEPEXCH|52=20200612-06:46:21.277|56=EXECLINKS|37=3|39=0|150=0|10=003|8=FIX.4.4|9=78|35=8|34=497|49=COEPEXCH|52=20200612-06:46:31.291|56=EXECLINKS|37=3|39=0|150=0|10=001|8=FIX.4.4|9=78|35=8|34=498|49=COEPEXCH|52=20200612-06:46:41.303|56=EXECLINKS|37=3|39=0|150=0|10=253|8=FIX.4.4|9=74|35=A|34=499|49=COEPEXCH|52=20200612-06:49:30.706|56=EXECLINKS|98=0|108=60|10=110|8=FIX.4.4|9=78|35=8|34=500|49=COEPEXCH|52=20200612-06:49:30.739|56=EXECLINKS|37=3|39=0|150=0|10=251|8=FIX.4.4|9=78|35=8|34=501|49=COEPEXCH|52=20200612-06:49:40.750|56=EXECLINKS|37=3|39=0|150=0|10=246|8=FIX.4.4|9=78|35=8|34=502|49=COEPEXCH|52=20200612-06:49:50.758|56=EXECLINKS|37=3|39=0|150=0|10=000|8=FIX.4.4|9=78|35=8|34=503|49=COEPEXCH|52=20200612-06:50:00.772|56=EXECLINKS|37=3|39=0|150=0|10=240|8=FIX.4.4|9=78|35=8|34=504|49=COEPEXCH|52=20200612-06:50:10.783|56=EXECLINKS|37=3|39=0|150=0|10=244|8=FIX.4.4|9=74|35=A|34=505|49=COEPEXCH|52=20200612-06:51:51.019|56=EXECLINKS|98=0|108=60|10=091|8=FIX.4.4|9=78|35=8|34=506|49=COEPEXCH|52=20200612-06:51:51.053|56=EXECLINKS|37=3|39=0|150=0|10=242|8=FIX.4.4|9=78|35=8|34=507|49=COEPEXCH|52=20200612-06:52:01.064|56=EXECLINKS|37=3|39=0|150=0|10=241|8=FIX.4.4|9=78|35=8|34=508|49=COEPEXCH|52=20200612-06:52:11.077|56=EXECLINKS|37=3|39=0|150=0|10=247|8=FIX.4.4|9=74|35=A|34=509|49=COEPEXCH|52=20200612-06:52:24.060|56=EXECLINKS|98=0|108=60|10=092|8=FIX.4.4|9=78|35=8|34=510|49=COEPEXCH|52=20200612-06:52:24.095|56=EXECLINKS|37=3|39=0|150=0|10=244|8=FIX.4.4|9=78|35=8|34=511|49=COEPEXCH|52=20200612-06:52:34.106|56=EXECLINKS|37=3|39=0|150=0|10=239|8=FIX.4.4|9=78|35=8|34=512|49=COEPEXCH|52=20200612-06:52:44.117|56=EXECLINKS|37=3|39=0|150=0|10=243|8=FIX.4.4|9=78|35=8|34=513|49=COEPEXCH|52=20200612-06:52:54.128|56=EXECLINKS|37=3|39=0|150=0|10=247|8=FIX.4.4|9=78|35=8|34=514|49=COEPEXCH|52=20200612-06:53:04.136|56=EXECLINKS|37=3|39=0|150=0|10=243|8=FIX.4.4|9=74|35=A|34=515|49=COEPEXCH|52=20200612-06:53:44.963|56=EXECLINKS|98=0|108=60|10=104|8=FIX.4.4|9=78|35=8|34=516|49=COEPEXCH|52=20200612-06:53:45.005|56=EXECLINKS|37=3|39=0|150=0|10=245|8=FIX.4.4|9=78|35=8|34=517|49=COEPEXCH|52=20200612-06:53:55.014|56=EXECLINKS|37=3|39=0|150=0|10=247|8=FIX.4.4|9=78|35=8|34=518|49=COEPEXCH|52=20200612-06:54:05.028|56=EXECLINKS|37=3|39=0|150=0|10=249|8=FIX.4.4|9=74|35=A|34=519|49=COEPEXCH|52=20200612-06:54:38.064|56=EXECLINKS|98=0|108=60|10=104|8=FIX.4.4|9=78|35=8|34=520|49=COEPEXCH|52=20200612-06:54:38.098|56=EXECLINKS|37=3|39=0|150=0|10=255|8=FIX.4.4|9=78|35=8|34=521|49=COEPEXCH|52=20200612-06:54:48.112|56=EXECLINKS|37=3|39=0|150=0|10=244|8=FIX.4.4|9=78|35=8|34=522|49=COEPEXCH|52=20200612-06:54:58.123|56=EXECLINKS|37=3|39=0|150=0|10=248|8=FIX.4.4|9=77|35=A|34=523|49=COEPEXCH|52=20200612-06:56:30.990|56=EXECLINKS|98=0|108=60000|10=248|8=FIX.4.4|9=78|35=8|34=524|49=COEPEXCH|52=20200612-06:56:31.025|56=EXECLINKS|37=3|39=0|150=0|10=244|8=FIX.4.4|9=78|35=8|34=525|49=COEPEXCH|52=20200612-06:56:41.034|56=EXECLINKS|37=3|39=0|150=0|10=246|8=FIX.4.4|9=78|35=8|34=526|49=COEPEXCH|52=20200612-06:56:51.045|56=EXECLINKS|37=3|39=0|150=0|10=250|8=FIX.4.4|9=77|35=A|34=527|49=COEPEXCH|52=20200612-06:57:28.463|56=EXECLINKS|98=0|108=60000|10=255|8=FIX.4.4|9=78|35=8|34=528|49=COEPEXCH|52=20200612-06:57:28.501|56=EXECLINKS|37=3|39=0|150=0|10=254|8=FIX.4.4|9=78|35=8|34=529|49=COEPEXCH|52=20200612-06:57:38.510|56=EXECLINKS|37=3|39=0|150=0|10=000|8=FIX.4.4|9=78|35=8|34=530|49=COEPEXCH|52=20200612-06:57:48.523|56=EXECLINKS|37=3|39=0|150=0|10=253|8=FIX.4.4|9=78|35=8|34=531|49=COEPEXCH|52=20200612-06:57:58.533|56=EXECLINKS|37=3|39=0|150=0|10=000|8=FIX.4.4|9=78|35=8|34=532|49=COEPEXCH|52=20200612-06:58:08.541|56=EXECLINKS|37=3|39=0|150=0|10=252|8=FIX.4.4|9=78|35=8|34=533|49=COEPEXCH|52=20200612-06:58:18.554|56=EXECLINKS|37=3|39=0|150=0|10=002|8=FIX.4.4|9=78|35=8|34=534|49=COEPEXCH|52=20200612-06:58:28.562|56=EXECLINKS|37=3|39=0|150=0|10=003|8=FIX.4.4|9=77|35=A|34=535|49=COEPEXCH|52=20200612-06:58:41.070|56=EXECLINKS|98=0|108=60000|10=244|8=FIX.4.4|9=77|35=A|34=536|49=COEPEXCH|52=20200612-07:03:23.420|56=EXECLINKS|98=0|108=60000|10=235|8=FIX.4.4|9=78|35=8|34=537|49=COEPEXCH|52=20200612-07:03:23.458|56=EXECLINKS|37=3|39=0|150=0|10=252|8=FIX.4.4|9=78|35=8|34=538|49=COEPEXCH|52=20200612-07:03:33.469|56=EXECLINKS|37=3|39=0|150=0|10=000|8=FIX.4.4|9=78|35=8|34=539|49=COEPEXCH|52=20200612-07:03:43.479|56=EXECLINKS|37=3|39=0|150=0|10=003|8=FIX.4.4|9=77|35=A|34=540|49=COEPEXCH|52=20200612-07:04:05.632|56=EXECLINKS|98=0|108=60000|10=236|8=FIX.4.4|9=78|35=8|34=541|49=COEPEXCH|52=20200612-07:04:05.665|56=EXECLINKS|37=3|39=0|150=0|10=248|8=FIX.4.4|9=100|35=W|34=542|49=COEPEXCH|52=20200612-07:04:05.666|56=EXECLINKS|55=amzn|268=1|269=0|270=87|271=2|37=3|10=041|8=FIX.4.4|9=78|35=8|34=543|49=COEPEXCH|52=20200612-07:04:15.675|56=EXECLINKS|37=3|39=0|150=0|10=252|8=FIX.4.4|9=124|35=W|34=544|49=COEPEXCH|52=20200612-07:04:15.676|56=EXECLINKS|55=amzn|268=2|269=0|270=87|271=2|37=3|269=0|270=87|271=2|37=3|10=110|8=FIX.4.4|9=77|35=A|34=545|49=COEPEXCH|52=20200612-07:04:46.748|56=EXECLINKS|98=0|108=60000|10=254|8=FIX.4.4|9=77|35=A|34=546|49=COEPEXCH|52=20200612-07:09:31.621|56=EXECLINKS|98=0|108=60000|10=244|8=FIX.4.4|9=77|35=A|34=547|49=COEPEXCH|52=20200612-07:10:16.375|56=EXECLINKS|98=0|108=60000|10=246|8=FIX.4.4|9=73|35=2|34=548|49=COEPEXCH|52=20200612-07:10:16.375|56=EXECLINKS|7=750|16=0|10=030|8=FIX.4.4|9=78|35=8|34=549|49=COEPEXCH|52=20200612-07:10:16.376|56=EXECLINKS|37=3|39=0|150=0|10=254|8=FIX.4.4|9=78|35=8|34=550|49=COEPEXCH|52=20200612-07:10:16.414|56=EXECLINKS|37=3|39=0|150=0|10=239|8=FIX.4.4|9=78|35=8|34=551|49=COEPEXCH|52=20200612-07:10:26.428|56=EXECLINKS|37=3|39=0|150=0|10=246|8=FIX.4.4|9=78|35=8|34=552|49=COEPEXCH|52=20200612-07:10:36.438|56=EXECLINKS|37=3|39=0|150=0|10=249|8=FIX.4.4|9=78|35=8|34=553|49=COEPEXCH|52=20200612-07:10:46.443|56=EXECLINKS|37=3|39=0|150=0|10=247|8=FIX.4.4|9=78|35=8|34=554|49=COEPEXCH|52=20200612-07:10:56.455|56=EXECLINKS|37=3|39=0|150=0|10=252|8=FIX.4.4|9=77|35=A|34=555|49=COEPEXCH|52=20200612-07:11:43.461|56=EXECLINKS|98=0|108=60000|10=242|8=FIX.4.4|9=78|35=8|34=556|49=COEPEXCH|52=20200612-07:11:43.504|56=EXECLINKS|37=3|39=0|150=0|10=246|8=FIX.4.4|9=100|35=W|34=557|49=COEPEXCH|52=20200612-07:11:43.505|56=EXECLINKS|55=amzn|268=1|269=0|270=87|271=2|37=3|10=039|8=FIX.4.4|9=78|35=8|34=558|49=COEPEXCH|52=20200612-07:11:53.514|56=EXECLINKS|37=3|39=0|150=0|10=250|8=FIX.4.4|9=124|35=W|34=559|49=COEPEXCH|52=20200612-07:11:53.515|56=EXECLINKS|55=amzn|268=2|269=0|270=87|271=2|37=3|269=0|270=87|271=2|37=3|10=108|8=FIX.4.4|9=78|35=8|34=560|49=COEPEXCH|52=20200612-07:12:03.524|56=EXECLINKS|37=3|39=0|150=0|10=240|8=FIX.4.4|9=148|35=W|34=561|49=COEPEXCH|52=20200612-07:12:03.525|56=EXECLINKS|55=amzn|268=3|269=0|270=87|271=2|37=3|269=0|270=87|271=2|37=3|269=0|270=87|271=2|37=3|10=163|8=FIX.4.4|9=78|35=8|34=562|49=COEPEXCH|52=20200612-07:12:13.534|56=EXECLINKS|37=3|39=0|150=0|10=244|8=FIX.4.4|9=148|35=W|34=563|49=COEPEXCH|52=20200612-07:12:13.535|56=EXECLINKS|55=amzn|268=3|269=0|270=87|271=2|37=3|269=0|270=87|271=2|37=3|269=0|270=87|271=2|37=3|10=167|8=FIX.4.4|9=78|35=8|34=564|49=COEPEXCH|52=20200612-07:12:23.544|56=EXECLINKS|37=3|39=0|150=0|10=248|8=FIX.4.4|9=148|35=W|34=565|49=COEPEXCH|52=20200612-07:12:23.544|56=EXECLINKS|55=amzn|268=3|269=0|270=87|271=2|37=3|269=0|270=87|271=2|37=3|269=0|270=87|271=2|37=3|10=170|8=FIX.4.4|9=77|35=A|34=566|49=COEPEXCH|52=20200612-07:26:40.256|56=EXECLINKS|98=0|108=60000|10=249|8=FIX.4.4|9=78|35=8|34=567|49=COEPEXCH|52=20200612-07:26:40.298|56=EXECLINKS|37=3|39=0|150=0|10=005|8=FIX.4.4|9=148|35=W|34=568|49=COEPEXCH|52=20200612-07:26:40.299|56=EXECLINKS|55=amzn|268=3|269=0|270=87|271=2|37=3|269=0|270=87|271=2|37=3|269=0|270=87|271=2|37=3|10=184|8=FIX.4.4|9=78|35=8|34=569|49=COEPEXCH|52=20200612-07:26:50.310|56=EXECLINKS|37=3|39=0|150=0|10=249|8=FIX.4.4|9=148|35=W|34=570|49=COEPEXCH|52=20200612-07:26:50.311|56=EXECLINKS|55=amzn|268=3|269=0|270=87|271=2|37=3|269=0|270=87|271=2|37=3|269=0|270=87|271=2|37=3|10=163|8=FIX.4.4|9=77|35=A|34=571|49=COEPEXCH|52=20200612-07:29:03.888|56=EXECLINKS|98=0|108=60000|10=002|8=FIX.4.4|9=73|35=2|34=572|49=COEPEXCH|52=20200612-07:29:03.889|56=EXECLINKS|7=773|16=0|10=048|8=FIX.4.4|9=78|35=8|34=573|49=COEPEXCH|52=20200612-07:29:03.890|56=EXECLINKS|37=3|39=0|150=0|10=002|8=FIX.4.4|9=100|35=W|34=574|49=COEPEXCH|52=20200612-07:29:03.891|56=EXECLINKS|55=amzn|268=1|269=0|270=87|271=2|37=3|10=051|8=FIX.4.4|9=78|35=8|34=575|49=COEPEXCH|52=20200612-07:29:03.892|56=EXECLINKS|37=3|39=0|150=0|10=006|8=FIX.4.4|9=124|35=W|34=576|49=COEPEXCH|52=20200612-07:29:03.892|56=EXECLINKS|55=amzn|268=2|269=0|270=87|271=2|37=3|269=0|270=87|271=2|37=3|10=119|8=FIX.4.4|9=78|35=8|34=577|49=COEPEXCH|52=20200612-07:29:03.893|56=EXECLINKS|37=3|39=0|150=0|10=009|8=FIX.4.4|9=148|35=W|34=578|49=COEPEXCH|52=20200612-07:29:03.893|56=EXECLINKS|55=amzn|268=3|269=0|270=87|271=2|37=3|269=0|270=87|271=2|37=3|269=0|270=87|271=2|37=3|10=187|8=FIX.4.4|9=78|35=8|34=579|49=COEPEXCH|52=20200612-07:29:03.931|56=EXECLINKS|37=3|39=0|150=0|10=004|8=FIX.4.4|9=148|35=W|34=580|49=COEPEXCH|52=20200612-07:29:03.932|56=EXECLINKS|55=amzn|268=3|269=0|270=87|271=2|37=3|269=0|270=87|271=2|37=3|269=0|270=87|271=2|37=3|10=174|8=FIX.4.4|9=78|35=8|34=581|49=COEPEXCH|52=20200612-07:29:13.941|56=EXECLINKS|37=3|39=0|150=0|10=255|8=FIX.4.4|9=148|35=W|34=582|49=COEPEXCH|52=20200612-07:29:13.942|56=EXECLINKS|55=amzn|268=3|269=0|270=87|271=2|37=3|269=0|270=87|271=2|37=3|269=0|270=87|271=2|37=3|10=178|8=FIX.4.4|9=78|35=8|34=583|49=COEPEXCH|52=20200612-07:29:23.953|56=EXECLINKS|37=3|39=0|150=0|10=005|8=FIX.4.4|9=148|35=W|34=584|49=COEPEXCH|52=20200612-07:29:23.955|56=EXECLINKS|55=amzn|268=3|269=0|270=87|271=2|37=3|269=0|270=87|271=2|37=3|269=0|270=87|271=2|37=3|10=185|8=FIX.4.4|9=78|35=8|34=585|49=COEPEXCH|52=20200612-07:29:33.962|56=EXECLINKS|37=3|39=0|150=0|10=008|8=FIX.4.4|9=148|35=W|34=586|49=COEPEXCH|52=20200612-07:29:33.962|56=EXECLINKS|55=amzn|268=3|269=0|270=87|271=2|37=3|269=0|270=87|271=2|37=3|269=0|270=87|271=2|37=3|10=186|8=FIX.4.4|9=77|35=A|34=587|49=COEPEXCH|52=20200612-07:45:21.554|56=EXECLINKS|98=0|108=60000|10=253|8=FIX.4.4|9=78|35=8|34=588|49=COEPEXCH|52=20200612-07:45:21.595|56=EXECLINKS|37=3|39=0|150=0|10=008|8=FIX.4.4|9=100|35=W|34=589|49=COEPEXCH|52=20200612-07:45:21.596|56=EXECLINKS|55=amzn|268=1|269=0|270=87|271=2|37=3|10=057|8=FIX.4.4|9=78|35=8|34=590|49=COEPEXCH|52=20200612-07:45:31.605|56=EXECLINKS|37=3|39=0|150=0|10=250|8=FIX.4.4|9=124|35=W|34=591|49=COEPEXCH|52=20200612-07:45:31.606|56=EXECLINKS|55=amzn|268=2|269=0|270=87|271=2|37=3|269=0|270=87|271=2|37=3|10=108|8=FIX.4.4|9=78|35=8|34=592|49=COEPEXCH|52=20200612-07:45:41.623|56=EXECLINKS|37=3|39=0|150=0|10=253|8=FIX.4.4|9=148|35=W|34=593|49=COEPEXCH|52=20200612-07:45:41.624|56=EXECLINKS|55=amzn|268=3|269=0|270=87|271=2|37=3|269=0|270=87|271=2|37=3|269=0|270=87|271=2|37=3|10=176|8=FIX.4.4|9=77|35=A|34=594|49=COEPEXCH|52=20200612-07:46:14.202|56=EXECLINKS|98=0|108=60000|10=244|8=FIX.4.4|9=78|35=8|34=595|49=COEPEXCH|52=20200612-07:46:14.240|56=EXECLINKS|37=3|39=0|150=0|10=252|8=FIX.4.4|9=78|35=8|34=596|49=COEPEXCH|52=20200612-07:46:24.250|56=EXECLINKS|37=3|39=0|150=0|10=255|8=FIX.4.4|9=78|35=8|34=597|49=COEPEXCH|52=20200612-07:46:34.263|56=EXECLINKS|37=3|39=0|150=0|10=005|8=FIX.4.4|9=77|35=A|34=598|49=COEPEXCH|52=20200612-07:49:23.056|56=EXECLINKS|98=0|108=60000|10=002|8=FIX.4.4|9=78|35=8|34=599|49=COEPEXCH|52=20200612-07:49:23.101|56=EXECLINKS|37=3|39=0|150=0|10=255|8=FIX.4.4|9=78|35=8|34=600|49=COEPEXCH|52=20200612-07:49:33.117|56=EXECLINKS|37=3|39=0|150=0|10=246|8=FIX.4.4|9=78|35=8|34=601|49=COEPEXCH|52=20200612-07:49:43.124|56=EXECLINKS|37=3|39=0|150=0|10=246|8=FIX.4.4|9=78|35=8|34=602|49=COEPEXCH|52=20200612-07:49:53.135|56=EXECLINKS|37=3|39=0|150=0|10=250|8=FIX.4.4|9=78|35=8|34=603|49=COEPEXCH|52=20200612-07:50:03.144|56=EXECLINKS|37=3|39=0|150=0|10=238|8=FIX.4.4|9=78|35=8|34=604|49=COEPEXCH|52=20200612-07:50:13.155|56=EXECLINKS|37=3|39=0|150=0|10=242|8=FIX.4.4|9=78|35=8|34=605|49=COEPEXCH|52=20200612-07:50:23.166|56=EXECLINKS|37=3|39=0|150=0|10=246|8=FIX.4.4|9=77|35=A|34=606|49=COEPEXCH|52=20200612-08:01:28.936|56=EXECLINKS|98=0|108=60000|10=249|8=FIX.4.4|9=78|35=8|34=607|49=COEPEXCH|52=20200612-08:01:28.977|56=EXECLINKS|37=3|39=0|150=0|10=004|8=FIX.4.4|9=77|35=A|34=608|49=COEPEXCH|52=20200612-08:01:58.418|56=EXECLINKS|98=0|108=60000|10=249|8=FIX.4.4|9=73|35=2|34=609|49=COEPEXCH|52=20200612-08:01:58.418|56=EXECLINKS|7=808|16=0|10=037|8=FIX.4.4|9=78|35=8|34=610|49=COEPEXCH|52=20200612-08:01:58.419|56=EXECLINKS|37=3|39=0|150=0|10=248|8=FIX.4.4|9=78|35=8|34=611|49=COEPEXCH|52=20200612-08:01:58.420|56=EXECLINKS|37=3|39=0|150=0|10=241|8=FIX.4.4|9=78|35=8|34=612|49=COEPEXCH|52=20200612-08:01:58.460|56=EXECLINKS|37=3|39=0|150=0|10=246|8=FIX.4.4|9=78|35=8|34=613|49=COEPEXCH|52=20200612-08:02:08.470|56=EXECLINKS|37=3|39=0|150=0|10=244|8=FIX.4.4|9=78|35=8|34=614|49=COEPEXCH|52=20200612-08:02:18.481|56=EXECLINKS|37=3|39=0|150=0|10=248|8=FIX.4.4|9=78|35=8|34=615|49=COEPEXCH|52=20200612-08:02:28.490|56=EXECLINKS|37=3|39=0|150=0|10=250|8=FIX.4.4|9=78|35=8|34=616|49=COEPEXCH|52=20200612-08:02:38.502|56=EXECLINKS|37=3|39=0|150=0|10=246|8=FIX.4.4|9=78|35=8|34=617|49=COEPEXCH|52=20200612-08:02:48.510|56=EXECLINKS|37=3|39=0|150=0|10=247|8=FIX.4.4|9=78|35=8|34=618|49=COEPEXCH|52=20200612-08:02:58.520|56=EXECLINKS|37=3|39=0|150=0|10=250|8=FIX.4.4|9=78|35=8|34=619|49=COEPEXCH|52=20200612-08:03:08.531|56=EXECLINKS|37=3|39=0|150=0|10=249|8=FIX.4.4|9=78|35=8|34=620|49=COEPEXCH|52=20200612-08:03:18.542|56=EXECLINKS|37=3|39=0|150=0|10=244|8=FIX.4.4|9=78|35=8|34=621|49=COEPEXCH|52=20200612-08:03:28.550|56=EXECLINKS|37=3|39=0|150=0|10=245|8=FIX.4.4|9=78|35=8|34=622|49=COEPEXCH|52=20200612-08:03:38.563|56=EXECLINKS|37=3|39=0|150=0|10=251|8=FIX.4.4|9=78|35=8|34=623|49=COEPEXCH|52=20200612-08:03:48.571|56=EXECLINKS|37=3|39=0|150=0|10=252|8=FIX.4.4|9=78|35=8|34=624|49=COEPEXCH|52=20200612-08:03:58.583|56=EXECLINKS|37=3|39=0|150=0|10=001|8=FIX.4.4|9=78|35=8|34=625|49=COEPEXCH|52=20200612-08:04:08.593|56=EXECLINKS|37=3|39=0|150=0|10=255|8=FIX.4.4|9=78|35=8|34=626|49=COEPEXCH|52=20200612-08:04:18.603|56=EXECLINKS|37=3|39=0|150=0|10=249|8=FIX.4.4|9=78|35=8|34=627|49=COEPEXCH|52=20200612-08:04:28.615|56=EXECLINKS|37=3|39=0|150=0|10=254|8=FIX.4.4|9=77|35=A|34=628|49=COEPEXCH|52=20200612-08:05:49.226|56=EXECLINKS|98=0|108=60000|10=252|8=FIX.4.4|9=78|35=8|34=629|49=COEPEXCH|52=20200612-08:05:49.259|56=EXECLINKS|37=3|39=0|150=0|10=008|8=FIX.4.4|9=78|35=8|34=630|49=COEPEXCH|52=20200612-08:05:59.269|56=EXECLINKS|37=3|39=0|150=0|10=002|8=FIX.4.4|9=78|35=8|34=631|49=COEPEXCH|52=20200612-08:06:09.277|56=EXECLINKS|37=3|39=0|150=0|10=254|8=FIX.4.4|9=78|35=8|34=632|49=COEPEXCH|52=20200612-08:06:19.290|56=EXECLINKS|37=3|39=0|150=0|10=251|8=FIX.4.4|9=78|35=8|34=633|49=COEPEXCH|52=20200612-08:06:29.445|56=EXECLINKS|37=3|39=0|150=0|10=255|8=FIX.4.4|9=73|35=A|34=634|49=COEPEXCH|52=20200612-08:08:47.382|56=EXECLINKS|98=0|108=1|10=052|8=FIX.4.4|9=78|35=8|34=635|49=COEPEXCH|52=20200612-08:08:47.439|56=EXECLINKS|37=3|39=0|150=0|10=006|8=FIX.4.4|9=62|35=0|34=636|49=COEPEXCH|52=20200612-08:08:48.383|56=EXECLINKS|10=062|8=FIX.4.4|9=62|35=0|34=637|49=COEPEXCH|52=20200612-08:08:49.327|56=EXECLINKS|10=062|8=FIX.4.4|9=62|35=0|34=638|49=COEPEXCH|52=20200612-08:08:50.270|56=EXECLINKS|10=052|8=FIX.4.4|9=62|35=0|34=639|49=COEPEXCH|52=20200612-08:08:51.214|56=EXECLINKS|10=052|8=FIX.4.4|9=62|35=0|34=640|49=COEPEXCH|52=20200612-08:08:52.155|56=EXECLINKS|10=049|8=FIX.4.4|9=62|35=0|34=641|49=COEPEXCH|52=20200612-08:08:53.093|56=EXECLINKS|10=052|8=FIX.4.4|9=62|35=0|34=642|49=COEPEXCH|52=20200612-08:08:54.031|56=EXECLINKS|10=046|8=FIX.4.4|9=62|35=0|34=643|49=COEPEXCH|52=20200612-08:08:55.503|56=EXECLINKS|10=052|8=FIX.4.4|9=62|35=0|34=644|49=COEPEXCH|52=20200612-08:08:56.440|56=EXECLINKS|10=054|8=FIX.4.4|9=62|35=0|34=645|49=COEPEXCH|52=20200612-08:08:57.376|56=EXECLINKS|10=064|8=FIX.4.4|9=78|35=8|34=646|49=COEPEXCH|52=20200612-08:08:57.450|56=EXECLINKS|37=3|39=0|150=0|10=002|8=FIX.4.4|9=62|35=0|34=647|49=COEPEXCH|52=20200612-08:08:58.384|56=EXECLINKS|10=066|8=FIX.4.4|9=62|35=0|34=648|49=COEPEXCH|52=20200612-08:08:59.317|56=EXECLINKS|10=064|8=FIX.4.4|9=62|35=0|34=649|49=COEPEXCH|52=20200612-08:09:00.249|56=EXECLINKS|10=056|8=FIX.4.4|9=62|35=0|34=650|49=COEPEXCH|52=20200612-08:09:01.179|56=EXECLINKS|10=051|8=FIX.4.4|9=62|35=0|34=651|49=COEPEXCH|52=20200612-08:09:02.108|56=EXECLINKS|10=045|8=FIX.4.4|9=62|35=0|34=652|49=COEPEXCH|52=20200612-08:09:03.036|56=EXECLINKS|10=047|8=FIX.4.4|9=62|35=0|34=653|49=COEPEXCH|52=20200612-08:09:04.447|56=EXECLINKS|10=055|8=FIX.4.4|9=62|35=0|34=654|49=COEPEXCH|52=20200612-08:09:05.375|56=EXECLINKS|10=057|8=FIX.4.4|9=62|35=0|34=655|49=COEPEXCH|52=20200612-08:09:06.297|56=EXECLINKS|10=062|8=FIX.4.4|9=62|35=0|34=656|49=COEPEXCH|52=20200612-08:09:07.221|56=EXECLINKS|10=051|8=FIX.4.4|9=78|35=8|34=657|49=COEPEXCH|52=20200612-08:09:07.460|56=EXECLINKS|37=3|39=0|150=0|10=001|8=FIX.4.4|9=62|35=0|34=658|49=COEPEXCH|52=20200612-08:09:08.381|56=EXECLINKS|10=061|8=FIX.4.4|9=62|35=0|34=659|49=COEPEXCH|52=20200612-08:09:09.299|56=EXECLINKS|10=071|8=FIX.4.4|9=62|35=0|34=660|49=COEPEXCH|52=20200612-08:09:10.217|56=EXECLINKS|10=045|8=FIX.4.4|9=62|35=0|34=661|49=COEPEXCH|52=20200612-08:09:11.134|56=EXECLINKS|10=045|8=FIX.4.4|9=62|35=0|34=662|49=COEPEXCH|52=20200612-08:09:12.049|56=EXECLINKS|10=052|8=FIX.4.4|9=62|35=0|34=663|49=COEPEXCH|52=20200612-08:09:13.007|56=EXECLINKS|10=048|8=FIX.4.4|9=73|35=A|34=664|49=COEPEXCH|52=20200612-08:09:33.380|56=EXECLINKS|98=0|108=1|10=049|8=FIX.4.4|9=78|35=8|34=665|49=COEPEXCH|52=20200612-08:09:33.428|56=EXECLINKS|37=3|39=0|150=0|10=003|8=FIX.4.4|9=62|35=0|34=666|49=COEPEXCH|52=20200612-08:09:34.384|56=EXECLINKS|10=062|8=FIX.4.4|9=62|35=0|34=667|49=COEPEXCH|52=20200612-08:09:35.343|56=EXECLINKS|10=059|8=FIX.4.4|9=62|35=0|34=668|49=COEPEXCH|52=20200612-08:09:36.297|56=EXECLINKS|10=069|8=FIX.4.4|9=62|35=0|34=669|49=COEPEXCH|52=20200612-08:09:37.248|56=EXECLINKS|10=067|8=FIX.4.4|9=62|35=0|34=670|49=COEPEXCH|52=20200612-08:09:38.200|56=EXECLINKS|10=048|8=FIX.4.4|9=62|35=0|34=671|49=COEPEXCH|52=20200612-08:09:39.148|56=EXECLINKS|10=061|8=FIX.4.4|9=62|35=0|34=672|49=COEPEXCH|52=20200612-08:09:40.096|56=EXECLINKS|10=056|8=FIX.4.4|9=62|35=0|34=673|49=COEPEXCH|52=20200612-08:09:41.041|56=EXECLINKS|10=048|8=FIX.4.4|9=62|35=0|34=674|49=COEPEXCH|52=20200612-08:09:42.110|56=EXECLINKS|10=047|8=FIX.4.4|9=62|35=0|34=675|49=COEPEXCH|52=20200612-08:09:43.053|56=EXECLINKS|10=055|8=FIX.4.4|9=78|35=8|34=676|49=COEPEXCH|52=20200612-08:09:43.436|56=EXECLINKS|37=3|39=0|150=0|10=005|8=FIX.4.4|9=62|35=0|34=677|49=COEPEXCH|52=20200612-08:09:44.379|56=EXECLINKS|10=069|8=FIX.4.4|9=62|35=0|34=678|49=COEPEXCH|52=20200612-08:09:45.320|56=EXECLINKS|10=057|8=FIX.4.4|9=62|35=0|34=679|49=COEPEXCH|52=20200612-08:09:46.261|56=EXECLINKS|10=063|8=FIX.4.4|9=62|35=0|34=680|49=COEPEXCH|52=20200612-08:09:47.199|56=EXECLINKS|10=066|8=FIX.4.4|9=62|35=0|34=681|49=COEPEXCH|52=20200612-08:09:48.138|56=EXECLINKS|10=061|8=FIX.4.4|9=62|35=0|34=682|49=COEPEXCH|52=20200612-08:09:49.076|56=EXECLINKS|10=064|8=FIX.4.4|9=62|35=0|34=683|49=COEPEXCH|52=20200612-08:09:50.013|56=EXECLINKS|10=048|8=FIX.4.4|9=62|35=0|34=684|49=COEPEXCH|52=20200612-08:09:51.880|56=EXECLINKS|10=062|8=FIX.4.4|9=62|35=0|34=685|49=COEPEXCH|52=20200612-08:09:52.814|56=EXECLINKS|10=061|8=FIX.4.4|9=78|35=8|34=686|49=COEPEXCH|52=20200612-08:09:53.447|56=EXECLINKS|37=3|39=0|150=0|10=009|8=FIX.4.4|9=62|35=0|34=687|49=COEPEXCH|52=20200612-08:09:54.377|56=EXECLINKS|10=069|8=FIX.4.4|9=62|35=0|34=688|49=COEPEXCH|52=20200612-08:09:55.307|56=EXECLINKS|10=064|8=FIX.4.4|9=62|35=0|34=689|49=COEPEXCH|52=20200612-08:09:56.235|56=EXECLINKS|10=066|8=FIX.4.4|9=62|35=0|34=690|49=COEPEXCH|52=20200612-08:09:57.162|56=EXECLINKS|10=058|8=FIX.4.4|9=62|35=0|34=691|49=COEPEXCH|52=20200612-08:09:58.088|56=EXECLINKS|10=067|8=FIX.4.4|9=62|35=0|34=692|49=COEPEXCH|52=20200612-08:09:59.012|56=EXECLINKS|10=056|8=FIX.4.4|9=62|35=0|34=693|49=COEPEXCH|52=20200612-08:10:00.857|56=EXECLINKS|10=052|8=FIX.4.4|9=62|35=0|34=694|49=COEPEXCH|52=20200612-08:10:01.780|56=EXECLINKS|10=049|8=FIX.4.4|9=62|35=0|34=695|49=COEPEXCH|52=20200612-08:10:02.700|56=EXECLINKS|10=043|8=FIX.4.4|9=78|35=8|34=696|49=COEPEXCH|52=20200612-08:10:03.456|56=EXECLINKS|37=3|39=0|150=0|10=253|8=FIX.4.4|9=62|35=0|34=697|49=COEPEXCH|52=20200612-08:10:04.374|56=EXECLINKS|10=054|8=FIX.4.4|9=62|35=0|34=698|49=COEPEXCH|52=20200612-08:10:05.290|56=EXECLINKS|10=053|8=FIX.4.4|9=62|35=0|34=699|49=COEPEXCH|52=20200612-08:10:06.205|56=EXECLINKS|10=051|8=FIX.4.4|9=62|35=0|34=700|49=COEPEXCH|52=20200612-08:10:07.121|56=EXECLINKS|10=032|8=FIX.4.4|9=62|35=0|34=701|49=COEPEXCH|52=20200612-08:10:08.035|56=EXECLINKS|10=038|8=FIX.4.4|9=62|35=0|34=702|49=COEPEXCH|52=20200612-08:10:09.858|56=EXECLINKS|10=053|8=FIX.4.4|9=62|35=0|34=703|49=COEPEXCH|52=20200612-08:10:10.769|56=EXECLINKS|10=047|8=FIX.4.4|9=62|35=0|34=704|49=COEPEXCH|52=20200612-08:10:11.678|56=EXECLINKS|10=048|8=FIX.4.4|9=62|35=0|34=705|49=COEPEXCH|52=20200612-08:10:12.587|56=EXECLINKS|10=049|8=FIX.4.4|9=78|35=8|34=706|49=COEPEXCH|52=20200612-08:10:13.466|56=EXECLINKS|37=3|39=0|150=0|10=247|8=FIX.4.4|9=62|35=0|34=707|49=COEPEXCH|52=20200612-08:10:14.376|56=EXECLINKS|10=049|8=FIX.4.4|9=62|35=0|34=708|49=COEPEXCH|52=20200612-08:10:15.282|56=EXECLINKS|10=047|8=FIX.4.4|9=62|35=0|34=709|49=COEPEXCH|52=20200612-08:10:16.186|56=EXECLINKS|10=052|8=FIX.4.4|9=62|35=0|34=710|49=COEPEXCH|52=20200612-08:10:17.089|56=EXECLINKS|10=047|8=FIX.4.4|9=62|35=0|34=711|49=COEPEXCH|52=20200612-08:10:18.001|56=EXECLINKS|10=033|8=FIX.4.4|9=73|35=A|34=712|49=COEPEXCH|52=20200612-08:11:04.646|56=EXECLINKS|98=0|108=1|10=039|8=FIX.4.4|9=78|35=8|34=713|49=COEPEXCH|52=20200612-08:11:04.683|56=EXECLINKS|37=3|39=0|150=0|10=247|8=FIX.4.4|9=62|35=0|34=714|49=COEPEXCH|52=20200612-08:11:05.646|56=EXECLINKS|10=048|8=FIX.4.4|9=62|35=0|34=715|49=COEPEXCH|52=20200612-08:11:06.610|56=EXECLINKS|10=041|8=FIX.4.4|9=62|35=0|34=716|49=COEPEXCH|52=20200612-08:11:07.573|56=EXECLINKS|10=051|8=FIX.4.4|9=62|35=0|34=717|49=COEPEXCH|52=20200612-08:11:08.535|56=EXECLINKS|10=051|8=FIX.4.4|9=62|35=0|34=718|49=COEPEXCH|52=20200612-08:11:09.496|56=EXECLINKS|10=059|8=FIX.4.4|9=62|35=0|34=719|49=COEPEXCH|52=20200612-08:11:10.456|56=EXECLINKS|10=048|8=FIX.4.4|9=62|35=0|34=720|49=COEPEXCH|52=20200612-08:11:11.416|56=EXECLINKS|10=037|8=FIX.4.4|9=62|35=0|34=721|49=COEPEXCH|52=20200612-08:11:12.376|56=EXECLINKS|10=044|8=FIX.4.4|9=62|35=0|34=722|49=COEPEXCH|52=20200612-08:11:13.337|56=EXECLINKS|10=043|8=FIX.4.4|9=62|35=0|34=723|49=COEPEXCH|52=20200612-08:11:14.296|56=EXECLINKS|10=049|8=FIX.4.4|9=78|35=8|34=724|49=COEPEXCH|52=20200612-08:11:14.696|56=EXECLINKS|37=3|39=0|150=0|10=254|8=FIX.4.4|9=62|35=0|34=725|49=COEPEXCH|52=20200612-08:11:15.650|56=EXECLINKS|10=046|8=FIX.4.4|9=62|35=0|34=726|49=COEPEXCH|52=20200612-08:11:16.604|56=EXECLINKS|10=047|8=FIX.4.4|9=62|35=0|34=727|49=COEPEXCH|52=20200612-08:11:17.556|56=EXECLINKS|10=055|8=FIX.4.4|9=62|35=0|34=728|49=COEPEXCH|52=20200612-08:11:18.507|56=EXECLINKS|10=053|8=FIX.4.4|9=62|35=0|34=729|49=COEPEXCH|52=20200612-08:11:19.458|56=EXECLINKS|10=060|8=FIX.4.4|9=62|35=0|34=730|49=COEPEXCH|52=20200612-08:11:20.411|56=EXECLINKS|10=033|8=FIX.4.4|9=62|35=0|34=731|49=COEPEXCH|52=20200612-08:11:21.363|56=EXECLINKS|10=041|8=FIX.4.4|9=62|35=0|34=732|49=COEPEXCH|52=20200612-08:11:22.314|56=EXECLINKS|10=039|8=FIX.4.4|9=62|35=0|34=733|49=COEPEXCH|52=20200612-08:11:23.260|56=EXECLINKS|10=041|8=FIX.4.4|9=62|35=0|34=734|49=COEPEXCH|52=20200612-08:11:24.206|56=EXECLINKS|10=043|8=FIX.4.4|9=78|35=8|34=735|49=COEPEXCH|52=20200612-08:11:24.706|56=EXECLINKS|37=3|39=0|150=0|10=249|8=FIX.4.4|9=62|35=0|34=736|49=COEPEXCH|52=20200612-08:11:25.647|56=EXECLINKS|10=055|8=FIX.4.4|9=62|35=0|34=737|49=COEPEXCH|52=20200612-08:11:26.586|56=EXECLINKS|10=059|8=FIX.4.4|9=62|35=0|34=738|49=COEPEXCH|52=20200612-08:11:27.525|56=EXECLINKS|10=054|8=FIX.4.4|9=62|35=0|34=739|49=COEPEXCH|52=20200612-08:11:28.463|56=EXECLINKS|10=057|8=FIX.4.4|9=62|35=0|34=740|49=COEPEXCH|52=20200612-08:11:29.401|56=EXECLINKS|10=042|8=FIX.4.4|9=62|35=0|34=741|49=COEPEXCH|52=20200612-08:11:30.339|56=EXECLINKS|10=045|8=FIX.4.4|9=62|35=0|34=742|49=COEPEXCH|52=20200612-08:11:31.274|56=EXECLINKS|10=045|8=FIX.4.4|9=62|35=0|34=743|49=COEPEXCH|52=20200612-08:11:32.209|56=EXECLINKS|10=045|8=FIX.4.4|9=62|35=0|34=744|49=COEPEXCH|52=20200612-08:11:33.142|56=EXECLINKS|10=043|8=FIX.4.4|9=62|35=0|34=745|49=COEPEXCH|52=20200612-08:11:34.076|56=EXECLINKS|10=051|8=FIX.4.4|9=78|35=8|34=746|49=COEPEXCH|52=20200612-08:11:34.716|56=EXECLINKS|37=3|39=0|150=0|10=253|8=FIX.4.4|9=62|35=0|34=747|49=COEPEXCH|52=20200612-08:11:35.645|56=EXECLINKS|10=056|8=FIX.4.4|9=62|35=0|34=748|49=COEPEXCH|52=20200612-08:11:36.571|56=EXECLINKS|10=056|8=FIX.4.4|9=62|35=0|34=749|49=COEPEXCH|52=20200612-08:11:37.496|56=EXECLINKS|10=064|8=FIX.4.4|9=62|35=0|34=750|49=COEPEXCH|52=20200612-08:11:38.423|56=EXECLINKS|10=047|8=FIX.4.4|9=73|35=A|34=751|49=COEPEXCH|52=20200612-15:33:28.857|56=EXECLINKS|98=0|108=1|10=054|8=FIX.4.4|9=73|35=A|34=752|49=COEPEXCH|52=20200612-15:33:49.297|56=EXECLINKS|98=0|108=1|10=056|8=FIX.4.4|9=73|35=2|34=753|49=COEPEXCH|52=20200612-15:33:49.297|56=EXECLINKS|7=951|16=0|10=044|8=FIX.4.4|9=78|35=8|34=754|49=COEPEXCH|52=20200612-15:33:49.298|56=EXECLINKS|37=3|39=0|150=0|10=009|8=FIX.4.4|9=73|35=2|34=755|49=COEPEXCH|52=20200612-15:33:49.346|56=EXECLINKS|7=953|16=0|10=043|8=FIX.4.4|9=78|35=8|34=756|49=COEPEXCH|52=20200612-15:33:49.347|56=EXECLINKS|37=3|39=0|150=0|10=006|8=FIX.4.4|9=62|35=0|34=757|49=COEPEXCH|52=20200612-15:33:50.297|56=EXECLINKS|10=059|8=FIX.4.4|9=62|35=0|34=758|49=COEPEXCH|52=20200612-15:33:51.249|56=EXECLINKS|10=058|8=FIX.4.4|9=62|35=0|34=759|49=COEPEXCH|52=20200612-15:33:52.197|56=EXECLINKS|10=062|8=FIX.4.4|9=62|35=0|34=760|49=COEPEXCH|52=20200612-15:33:53.144|56=EXECLINKS|10=047|8=FIX.4.4|9=62|35=0|34=761|49=COEPEXCH|52=20200612-15:33:54.090|56=EXECLINKS|10=049|8=FIX.4.4|9=73|35=A|34=762|49=COEPEXCH|52=20200612-15:34:29.646|56=EXECLINKS|98=0|108=1|10=054|8=FIX.4.4|9=78|35=8|34=763|49=COEPEXCH|52=20200612-15:34:29.682|56=EXECLINKS|37=3|39=0|150=0|10=005|8=FIX.4.4|9=62|35=0|34=764|49=COEPEXCH|52=20200612-15:34:30.648|56=EXECLINKS|10=056|8=FIX.4.4|9=62|35=0|34=765|49=COEPEXCH|52=20200612-15:34:31.612|56=EXECLINKS|10=049|8=FIX.4.4|9=62|35=0|34=766|49=COEPEXCH|52=20200612-15:34:32.576|56=EXECLINKS|10=060|8=FIX.4.4|9=62|35=0|34=767|49=COEPEXCH|52=20200612-15:34:33.538|56=EXECLINKS|10=060|8=FIX.4.4|9=62|35=0|34=768|49=COEPEXCH|52=20200612-15:34:34.500|56=EXECLINKS|10=051|8=FIX.4.4|9=78|35=8|34=769|49=COEPEXCH|52=20200612-15:34:34.692|56=EXECLINKS|37=3|39=0|150=0|10=008|8=FIX.4.4|9=67|35=8|34=770|49=COEPEXCH|52=20200612-15:34:34.692|56=EXECLINKS|37=3|10=032|8=FIX.4.4|9=67|35=8|34=771|49=COEPEXCH|52=20200612-15:34:34.694|56=EXECLINKS|37=3|10=035|8=FIX.4.4|9=62|35=0|34=772|49=COEPEXCH|52=20200612-15:34:35.650|56=EXECLINKS|10=053|8=FIX.4.4|9=62|35=0|34=773|49=COEPEXCH|52=20200612-15:34:36.605|56=EXECLINKS|10=055|8=FIX.4.4|9=73|35=A|34=774|49=COEPEXCH|52=20200612-15:36:21.747|56=EXECLINKS|98=0|108=1|10=053|8=FIX.4.4|9=78|35=8|34=775|49=COEPEXCH|52=20200612-15:36:21.784|56=EXECLINKS|37=3|39=0|150=0|10=005|8=FIX.4.4|9=62|35=0|34=776|49=COEPEXCH|52=20200612-15:36:22.751|56=EXECLINKS|10=057|8=FIX.4.4|9=62|35=0|34=777|49=COEPEXCH|52=20200612-15:36:23.714|56=EXECLINKS|10=058|8=FIX.4.4|9=62|35=0|34=778|49=COEPEXCH|52=20200612-15:36:24.677|56=EXECLINKS|10=068|8=FIX.4.4|9=62|35=0|34=779|49=COEPEXCH|52=20200612-15:36:25.639|56=EXECLINKS|10=068|8=FIX.4.4|9=62|35=0|34=780|49=COEPEXCH|52=20200612-15:36:26.599|56=EXECLINKS|10=066|8=FIX.4.4|9=78|35=8|34=781|49=COEPEXCH|52=20200612-15:36:26.795|56=EXECLINKS|37=3|39=0|150=0|10=009|8=FIX.4.4|9=99|35=8|34=782|49=COEPEXCH|52=20200612-15:36:26.796|56=EXECLINKS|37=3|38=2|39=2|44=87.0|55=amzn|150=F|10=210|8=FIX.4.4|9=99|35=8|34=783|49=COEPEXCH|52=20200612-15:36:26.797|56=EXECLINKS|37=3|38=2|39=2|44=87.0|55=amzn|150=F|10=212|8=FIX.4.4|9=62|35=0|34=784|49=COEPEXCH|52=20200612-15:36:27.752|56=EXECLINKS|10=062|8=FIX.4.4|9=62|35=0|34=785|49=COEPEXCH|52=20200612-15:36:28.704|56=EXECLINKS|10=061|8=FIX.4.4|9=73|35=A|34=786|49=COEPEXCH|52=20200612-15:53:04.131|56=EXECLINKS|98=0|108=1|10=043|8=FIX.4.4|9=73|35=2|34=787|49=COEPEXCH|52=20200612-15:53:04.132|56=EXECLINKS|7=980|16=0|10=034|8=FIX.4.4|9=78|35=8|34=788|49=COEPEXCH|52=20200612-15:53:04.136|56=EXECLINKS|37=3|39=0|150=0|10=000|8=FIX.4.4|9=62|35=0|34=789|49=COEPEXCH|52=20200612-15:53:05.129|56=EXECLINKS|10=060|8=FIX.4.4|9=62|35=0|34=790|49=COEPEXCH|52=20200612-15:53:06.121|56=EXECLINKS|10=045|8=FIX.4.4|9=62|35=0|34=791|49=COEPEXCH|52=20200612-15:53:07.113|56=EXECLINKS|10=048|8=FIX.4.4|9=62|35=0|34=792|49=COEPEXCH|52=20200612-15:53:08.102|56=EXECLINKS|10=048|8=FIX.4.4|9=78|35=8|34=793|49=COEPEXCH|52=20200612-15:53:08.801|56=EXECLINKS|37=3|39=0|150=0|10=255|8=FIX.4.4|9=99|35=8|34=794|49=COEPEXCH|52=20200612-15:53:08.802|56=EXECLINKS|37=3|38=2|39=2|44=87.0|55=amzn|150=F|10=200|8=FIX.4.4|9=99|35=8|34=795|49=COEPEXCH|52=20200612-15:53:08.803|56=EXECLINKS|37=3|38=2|39=2|44=87.0|55=amzn|150=F|10=202|8=FIX.4.4|9=62|35=0|34=796|49=COEPEXCH|52=20200612-15:53:09.787|56=EXECLINKS|10=072|