8=FIX.4.4|9=70|35=A|34=1|49=DUMMYSENDER|52=20200612-13:14:08.000|56=RTMD|98=0|108=20|10=110|8=FIX.4.4|9=67|35=2|34=2|49=DUMMYSENDER|52=20200612-13:14:08.000|56=RTMD|7=1|16=0|10=201|8=FIX.4.4|9=70|35=A|34=3|49=DUMMYSENDER|52=20200612-13:20:23.000|56=RTMD|98=0|108=20|10=106|8=FIX.4.4|9=67|35=2|34=4|49=DUMMYSENDER|52=20200612-13:20:23.000|56=RTMD|7=3|16=0|10=199|8=FIX.4.4|9=58|35=0|34=5|49=DUMMYSENDER|52=20200612-13:20:43.000|56=RTMD|10=075|8=FIX.4.4|9=58|35=0|34=6|49=DUMMYSENDER|52=20200612-13:21:03.000|56=RTMD|10=073|8=FIX.4.4|9=58|35=0|34=7|49=DUMMYSENDER|52=20200612-13:21:23.000|56=RTMD|10=076|8=FIX.4.4|9=58|35=0|34=8|49=DUMMYSENDER|52=20200612-13:21:43.000|56=RTMD|10=079|8=FIX.4.4|9=58|35=0|34=9|49=DUMMYSENDER|52=20200612-13:22:03.000|56=RTMD|10=077|8=FIX.4.4|9=59|35=0|34=10|49=DUMMYSENDER|52=20200612-13:22:23.000|56=RTMD|10=120|8=FIX.4.4|9=59|35=0|34=11|49=DUMMYSENDER|52=20200612-13:22:43.000|56=RTMD|10=123|8=FIX.4.4|9=59|35=0|34=12|49=DUMMYSENDER|52=20200612-13:23:03.000|56=RTMD|10=121|8=FIX.4.4|9=59|35=0|34=13|49=DUMMYSENDER|52=20200612-13:23:23.000|56=RTMD|10=124|8=FIX.4.4|9=59|35=0|34=14|49=DUMMYSENDER|52=20200612-13:23:43.000|56=RTMD|10=127|8=FIX.4.4|9=59|35=0|34=15|49=DUMMYSENDER|52=20200612-13:24:03.000|56=RTMD|10=125|8=FIX.4.4|9=59|35=0|34=16|49=DUMMYSENDER|52=20200612-13:24:23.000|56=RTMD|10=128|8=FIX.4.4|9=59|35=0|34=17|49=DUMMYSENDER|52=20200612-13:24:43.000|56=RTMD|10=131|8=FIX.4.4|9=59|35=0|34=18|49=DUMMYSENDER|52=20200612-13:25:03.000|56=RTMD|10=129|8=FIX.4.4|9=71|35=A|34=19|49=DUMMYSENDER|52=20200612-13:25:35.000|56=RTMD|98=0|108=20|10=170|8=FIX.4.4|9=69|35=2|34=20|49=DUMMYSENDER|52=20200612-13:25:35.000|56=RTMD|7=19|16=0|10=054|8=FIX.4.4|9=59|35=0|34=21|49=DUMMYSENDER|52=20200612-13:25:55.000|56=RTMD|10=130|8=FIX.4.4|9=71|35=A|34=22|49=DUMMYSENDER|52=20200612-13:29:03.000|56=RTMD|98=0|108=20|10=163|8=FIX.4.4|9=69|35=2|34=23|49=DUMMYSENDER|52=20200612-13:29:03.000|56=RTMD|7=22|16=0|10=050|8=FIX.4.4|9=59|35=0|34=24|49=DUMMYSENDER|52=20200612-13:29:23.000|56=RTMD|10=132|8=FIX.4.4|9=59|35=0|34=25|49=DUMMYSENDER|52=20200612-13:29:43.000|56=RTMD|10=135|8=FIX.4.4|9=59|35=0|34=26|49=DUMMYSENDER|52=20200612-13:30:03.000|56=RTMD|10=124|8=FIX.4.4|9=59|35=0|34=27|49=DUMMYSENDER|52=20200612-13:30:23.000|56=RTMD|10=127|8=FIX.4.4|9=59|35=0|34=28|49=DUMMYSENDER|52=20200612-13:30:43.000|56=RTMD|10=130|8=FIX.4.4|9=59|35=0|34=29|49=DUMMYSENDER|52=20200612-13:31:03.000|56=RTMD|10=128|8=FIX.4.4|9=59|35=0|34=30|49=DUMMYSENDER|52=20200612-13:31:23.000|56=RTMD|10=122|8=FIX.4.4|9=59|35=0|34=31|49=DUMMYSENDER|52=20200612-13:31:43.000|56=RTMD|10=125|8=FIX.4.4|9=59|35=0|34=32|49=DUMMYSENDER|52=20200612-13:32:03.000|56=RTMD|10=123|8=FIX.4.4|9=59|35=0|34=33|49=DUMMYSENDER|52=20200612-13:32:23.000|56=RTMD|10=126|8=FIX.4.4|9=59|35=0|34=34|49=DUMMYSENDER|52=20200612-13:32:43.000|56=RTMD|10=129|8=FIX.4.4|9=59|35=0|34=35|49=DUMMYSENDER|52=20200612-13:33:03.000|56=RTMD|10=127|8=FIX.4.4|9=59|35=0|34=36|49=DUMMYSENDER|52=20200612-13:33:23.000|56=RTMD|10=130|8=FIX.4.4|9=59|35=0|34=37|49=DUMMYSENDER|52=20200612-13:33:43.000|56=RTMD|10=133|8=FIX.4.4|9=59|35=0|34=38|49=DUMMYSENDER|52=20200612-13:34:03.000|56=RTMD|10=131|8=FIX.4.4|9=71|35=A|34=39|49=DUMMYSENDER|52=20200612-13:53:15.000|56=RTMD|98=0|108=20|10=171|8=FIX.4.4|9=69|35=2|34=40|49=DUMMYSENDER|52=20200612-13:53:15.000|56=RTMD|7=39|16=0|10=057|8=FIX.4.4|9=71|35=A|34=41|49=DUMMYSENDER|52=20200612-13:53:29.000|56=RTMD|98=0|108=20|10=169|8=FIX.4.4|9=71|35=A|34=42|49=DUMMYSENDER|52=20200612-13:53:39.000|56=RTMD|98=0|108=20|10=171|8=FIX.4.4|9=71|35=A|34=43|49=DUMMYSENDER|52=20200612-13:54:50.000|56=RTMD|98=0|108=20|10=166|8=FIX.4.4|9=69|35=2|34=44|49=DUMMYSENDER|52=20200612-13:54:50.000|56=RTMD|7=39|16=0|10=061|8=FIX.4.4|9=71|35=A|34=45|49=DUMMYSENDER|52=20200612-13:55:07.000|56=RTMD|98=0|108=20|10=171|8=FIX.4.4|9=69|35=2|34=46|49=DUMMYSENDER|52=20200612-13:55:07.000|56=RTMD|7=46|16=0|10=064|8=FIX.4.4|9=71|35=A|34=47|49=DUMMYSENDER|52=20200612-13:57:11.000|56=RTMD|98=0|108=20|10=170|8=FIX.4.4|9=69|35=2|34=48|49=DUMMYSENDER|52=20200612-13:57:11.000|56=RTMD|7=49|16=0|10=066|8=FIX.4.4|9=59|35=0|34=49|49=DUMMYSENDER|52=20200612-13:57:31.000|56=RTMD|10=139|8=FIX.4.4|9=59|35=0|34=50|49=DUMMYSENDER|52=20200612-13:57:51.000|56=RTMD|10=133|8=FIX.4.4|9=59|35=0|34=51|49=DUMMYSENDER|52=20200612-13:58:11.000|56=RTMD|10=131|8=FIX.4.4|9=59|35=0|34=52|49=DUMMYSENDER|52=20200612-13:58:31.000|56=RTMD|10=134|8=FIX.4.4|9=59|35=0|34=53|49=DUMMYSENDER|52=20200612-13:58:51.000|56=RTMD|10=137|8=FIX.4.4|9=59|35=0|34=54|49=DUMMYSENDER|52=20200612-13:59:11.000|56=RTMD|10=135|8=FIX.4.4|9=59|35=0|34=55|49=DUMMYSENDER|52=20200612-13:59:31.000|56=RTMD|10=138|8=FIX.4.4|9=59|35=0|34=56|49=DUMMYSENDER|52=20200612-13:59:51.000|56=RTMD|10=141|8=FIX.4.4|9=59|35=0|34=57|49=DUMMYSENDER|52=20200612-14:00:11.000|56=RTMD|10=125|8=FIX.4.4|9=59|35=0|34=58|49=DUMMYSENDER|52=20200612-14:00:31.000|56=RTMD|10=128|8=FIX.4.4|9=59|35=0|34=59|49=DUMMYSENDER|52=20200612-14:00:51.000|56=RTMD|10=131|8=FIX.4.4|9=59|35=0|34=60|49=DUMMYSENDER|52=20200612-14:01:11.000|56=RTMD|10=120|8=FIX.4.4|9=59|35=0|34=61|49=DUMMYSENDER|52=20200612-14:01:31.000|56=RTMD|10=123|8=FIX.4.4|9=59|35=0|34=62|49=DUMMYSENDER|52=20200612-14:01:51.000|56=RTMD|10=126|