8=FIX.4.4|9=703|35=W|34=1|49=RTMD|52=20200612-13:13:59.000|56=DUMMYSENDER|268=10|269=0|270=12.32|271=100|275=BSE|37=ORDERID|289=RIL|346=1000|269=0|270=12.32|271=100|275=BSE|37=ORDERID|289=RIL|346=1000|269=1|270=12.34|271=104|275=NSE|37=ORDERID2|289=BHEL|346=9087|269=1|270=12.34|271=104|275=NSE|37=ORDERID2|289=BHEL|346=9087|269=0|270=18.92|271=2000|275=BSE|37=ORDERID3|289=TCS|346=10050|269=0|270=200.32|271=1006|275=BSE|37=ORDERID4|289=Credit Suisse|346=1000|269=0|270=1000|271=100|275=BSE|37=ORDERID6|289=Aramco|346=1000|269=1|270=12.67|271=1045|275=NSE|37=ORDERID7|289=Zomato|346=8960|269=1|270=129|271=10894|275=NSE|37=ORDERID8|289=Gilbarco|346=9076|269=1|270=198|271=1034|275=NSE|37=ORDERID9|289=Huwawei|346=9087|10=115|8=FIX.4.4|9=70|35=A|34=2|49=RTMD|52=20200612-13:14:08.000|56=DUMMYSENDER|98=0|108=20|10=111|8=FIX.4.4|9=703|35=W|34=3|49=RTMD|52=20200612-13:20:19.000|56=DUMMYSENDER|268=10|269=0|270=12.32|271=100|275=BSE|37=ORDERID|289=RIL|346=1000|269=0|270=12.32|271=100|275=BSE|37=ORDERID|289=RIL|346=1000|269=1|270=12.34|271=104|275=NSE|37=ORDERID2|289=BHEL|346=9087|269=1|270=12.34|271=104|275=NSE|37=ORDERID2|289=BHEL|346=9087|269=0|270=18.92|271=2000|275=BSE|37=ORDERID3|289=TCS|346=10050|269=0|270=200.32|271=1006|275=BSE|37=ORDERID4|289=Credit Suisse|346=1000|269=0|270=1000|271=100|275=BSE|37=ORDERID6|289=Aramco|346=1000|269=1|270=12.67|271=1045|275=NSE|37=ORDERID7|289=Zomato|346=8960|269=1|270=129|271=10894|275=NSE|37=ORDERID8|289=Gilbarco|346=9076|269=1|270=198|271=1034|275=NSE|37=ORDERID9|289=Huwawei|346=9087|10=111|8=FIX.4.4|9=70|35=A|34=4|49=RTMD|52=20200612-13:20:23.000|56=DUMMYSENDER|98=0|108=20|10=107|8=FIX.4.4|9=58|35=0|34=5|49=RTMD|52=20200612-13:20:43.000|56=DUMMYSENDER|10=075|8=FIX.4.4|9=58|35=0|34=6|49=RTMD|52=20200612-13:21:03.000|56=DUMMYSENDER|10=073|8=FIX.4.4|9=58|35=0|34=7|49=RTMD|52=20200612-13:21:23.000|56=DUMMYSENDER|10=076|8=FIX.4.4|9=58|35=0|34=8|49=RTMD|52=20200612-13:21:43.000|56=DUMMYSENDER|10=079|8=FIX.4.4|9=58|35=0|34=9|49=RTMD|52=20200612-13:22:03.000|56=DUMMYSENDER|10=077|8=FIX.4.4|9=59|35=0|34=10|49=RTMD|52=20200612-13:22:23.000|56=DUMMYSENDER|10=120|8=FIX.4.4|9=59|35=0|34=11|49=RTMD|52=20200612-13:22:43.000|56=DUMMYSENDER|10=123|8=FIX.4.4|9=59|35=0|34=12|49=RTMD|52=20200612-13:23:03.000|56=DUMMYSENDER|10=121|8=FIX.4.4|9=59|35=0|34=13|49=RTMD|52=20200612-13:23:23.000|56=DUMMYSENDER|10=124|8=FIX.4.4|9=59|35=0|34=14|49=RTMD|52=20200612-13:23:43.000|56=DUMMYSENDER|10=127|8=FIX.4.4|9=59|35=0|34=15|49=RTMD|52=20200612-13:24:03.000|56=DUMMYSENDER|10=125|8=FIX.4.4|9=59|35=0|34=16|49=RTMD|52=20200612-13:24:23.000|56=DUMMYSENDER|10=128|8=FIX.4.4|9=59|35=0|34=17|49=RTMD|52=20200612-13:24:43.000|56=DUMMYSENDER|10=131|8=FIX.4.4|9=59|35=0|34=18|49=RTMD|52=20200612-13:25:03.000|56=DUMMYSENDER|10=129|8=FIX.4.4|9=704|35=W|34=19|49=RTMD|52=20200612-13:25:31.000|56=DUMMYSENDER|268=10|269=0|270=12.32|271=100|275=BSE|37=ORDERID|289=RIL|346=1000|269=0|270=12.32|271=100|275=BSE|37=ORDERID|289=RIL|346=1000|269=1|270=12.34|271=104|275=NSE|37=ORDERID2|289=BHEL|346=9087|269=1|270=12.34|271=104|275=NSE|37=ORDERID2|289=BHEL|346=9087|269=0|270=18.92|271=2000|275=BSE|37=ORDERID3|289=TCS|346=10050|269=0|270=200.32|271=1006|275=BSE|37=ORDERID4|289=Credit Suisse|346=1000|269=0|270=1000|271=100|275=BSE|37=ORDERID6|289=Aramco|346=1000|269=1|270=12.67|271=1045|275=NSE|37=ORDERID7|289=Zomato|346=8960|269=1|270=129|271=10894|275=NSE|37=ORDERID8|289=Gilbarco|346=9076|269=1|270=198|271=1034|275=NSE|37=ORDERID9|289=Huwawei|346=9087|10=166|8=FIX.4.4|9=71|35=A|34=20|49=RTMD|52=20200612-13:25:35.000|56=DUMMYSENDER|98=0|108=20|10=162|8=FIX.4.4|9=59|35=0|34=21|49=RTMD|52=20200612-13:25:55.000|56=DUMMYSENDER|10=130|8=FIX.4.4|9=704|35=W|34=22|49=RTMD|52=20200612-13:28:21.000|56=DUMMYSENDER|268=10|269=0|270=12.32|271=100|275=BSE|37=ORDERID|289=RIL|346=1000|269=0|270=12.32|271=100|275=BSE|37=ORDERID|289=RIL|346=1000|269=1|270=12.34|271=104|275=NSE|37=ORDERID2|289=BHEL|346=9087|269=1|270=12.34|271=104|275=NSE|37=ORDERID2|289=BHEL|346=9087|269=0|270=18.92|271=2000|275=BSE|37=ORDERID3|289=TCS|346=10050|269=0|270=200.32|271=1006|275=BSE|37=ORDERID4|289=Credit Suisse|346=1000|269=0|270=1000|271=100|275=BSE|37=ORDERID6|289=Aramco|346=1000|269=1|270=12.67|271=1045|275=NSE|37=ORDERID7|289=Zomato|346=8960|269=1|270=129|271=10894|275=NSE|37=ORDERID8|289=Gilbarco|346=9076|269=1|270=198|271=1034|275=NSE|37=ORDERID9|289=Huwawei|346=9087|10=162|8=FIX.4.4|9=71|35=A|34=23|49=RTMD|52=20200612-13:29:03.000|56=DUMMYSENDER|98=0|108=20|10=164|8=FIX.4.4|9=59|35=0|34=24|49=RTMD|52=20200612-13:29:23.000|56=DUMMYSENDER|10=132|8=FIX.4.4|9=59|35=0|34=25|49=RTMD|52=20200612-13:29:43.000|56=DUMMYSENDER|10=135|8=FIX.4.4|9=59|35=0|34=26|49=RTMD|52=20200612-13:30:03.000|56=DUMMYSENDER|10=124|8=FIX.4.4|9=59|35=0|34=27|49=RTMD|52=20200612-13:30:23.000|56=DUMMYSENDER|10=127|8=FIX.4.4|9=59|35=0|34=28|49=RTMD|52=20200612-13:30:43.000|56=DUMMYSENDER|10=130|8=FIX.4.4|9=59|35=0|34=29|49=RTMD|52=20200612-13:31:03.000|56=DUMMYSENDER|10=128|8=FIX.4.4|9=59|35=0|34=30|49=RTMD|52=20200612-13:31:23.000|56=DUMMYSENDER|10=122|8=FIX.4.4|9=59|35=0|34=31|49=RTMD|52=20200612-13:31:43.000|56=DUMMYSENDER|10=125|8=FIX.4.4|9=59|35=0|34=32|49=RTMD|52=20200612-13:32:03.000|56=DUMMYSENDER|10=123|8=FIX.4.4|9=59|35=0|34=33|49=RTMD|52=20200612-13:32:23.000|56=DUMMYSENDER|10=126|8=FIX.4.4|9=59|35=0|34=34|49=RTMD|52=20200612-13:32:43.000|56=DUMMYSENDER|10=129|8=FIX.4.4|9=59|35=0|34=35|49=RTMD|52=20200612-13:33:03.000|56=DUMMYSENDER|10=127|8=FIX.4.4|9=59|35=0|34=36|49=RTMD|52=20200612-13:33:23.000|56=DUMMYSENDER|10=130|8=FIX.4.4|9=59|35=0|34=37|49=RTMD|52=20200612-13:33:43.000|56=DUMMYSENDER|10=133|8=FIX.4.4|9=59|35=0|34=38|49=RTMD|52=20200612-13:34:03.000|56=DUMMYSENDER|10=131|8=FIX.4.4|9=704|35=W|34=39|49=RTMD|52=20200612-13:52:35.000|56=DUMMYSENDER|268=10|269=0|270=12.32|271=100|275=BSE|37=ORDERID|289=RIL|346=1000|269=0|270=12.32|271=100|275=BSE|37=ORDERID|289=RIL|346=1000|269=1|270=12.34|271=104|275=NSE|37=ORDERID2|289=BHEL|346=9087|269=1|270=12.34|271=104|275=NSE|37=ORDERID2|289=BHEL|346=9087|269=0|270=18.92|271=2000|275=BSE|37=ORDERID3|289=TCS|346=10050|269=0|270=200.32|271=1006|275=BSE|37=ORDERID4|289=Credit Suisse|346=1000|269=0|270=1000|271=100|275=BSE|37=ORDERID6|289=Aramco|346=1000|269=1|270=12.67|271=1045|275=NSE|37=ORDERID7|289=Zomato|346=8960|269=1|270=129|271=10894|275=NSE|37=ORDERID8|289=Gilbarco|346=9076|269=1|270=198|271=1034|275=NSE|37=ORDERID9|289=Huwawei|346=9087|10=172|8=FIX.4.4|9=71|35=A|34=40|49=RTMD|52=20200612-13:53:15.000|56=DUMMYSENDER|98=0|108=20|10=163|8=FIX.4.4|9=68|35=1|34=41|49=RTMD|52=20200612-13:53:54.000|56=DUMMYSENDER|112=TEST|10=151|8=FIX.4.4|9=71|35=A|34=42|49=RTMD|52=20200612-13:53:54.000|56=DUMMYSENDER|98=0|108=20|10=168|8=FIX.4.4|9=69|35=2|34=43|49=RTMD|52=20200612-13:53:54.000|56=DUMMYSENDER|7=40|16=0|10=055|8=FIX.4.4|9=704|35=W|34=44|49=RTMD|52=20200612-13:54:47.000|56=DUMMYSENDER|268=10|269=0|270=12.32|271=100|275=BSE|37=ORDERID|289=RIL|346=1000|269=0|270=12.32|271=100|275=BSE|37=ORDERID|289=RIL|346=1000|269=1|270=12.34|271=104|275=NSE|37=ORDERID2|289=BHEL|346=9087|269=1|270=12.34|271=104|275=NSE|37=ORDERID2|289=BHEL|346=9087|269=0|270=18.92|271=2000|275=BSE|37=ORDERID3|289=TCS|346=10050|269=0|270=200.32|271=1006|275=BSE|37=ORDERID4|289=Credit Suisse|346=1000|269=0|270=1000|271=100|275=BSE|37=ORDERID6|289=Aramco|346=1000|269=1|270=12.67|271=1045|275=NSE|37=ORDERID7|289=Zomato|346=8960|269=1|270=129|271=10894|275=NSE|37=ORDERID8|289=Gilbarco|346=9076|269=1|270=198|271=1034|275=NSE|37=ORDERID9|289=Huwawei|346=9087|10=173|8=FIX.4.4|9=71|35=A|34=45|49=RTMD|52=20200612-13:54:50.000|56=DUMMYSENDER|98=0|108=20|10=168|8=FIX.4.4|9=69|35=2|34=46|49=RTMD|52=20200612-13:54:50.000|56=DUMMYSENDER|7=40|16=0|10=055|8=FIX.4.4|9=704|35=W|34=47|49=RTMD|52=20200612-13:55:02.000|56=DUMMYSENDER|268=10|269=0|270=12.32|271=100|275=BSE|37=ORDERID|289=RIL|346=1000|269=0|270=12.32|271=100|275=BSE|37=ORDERID|289=RIL|346=1000|269=1|270=12.34|271=104|275=NSE|37=ORDERID2|289=BHEL|346=9087|269=1|270=12.34|271=104|275=NSE|37=ORDERID2|289=BHEL|346=9087|269=0|270=18.92|271=2000|275=BSE|37=ORDERID3|289=TCS|346=10050|269=0|270=200.32|271=1006|275=BSE|37=ORDERID4|289=Credit Suisse|346=1000|269=0|270=1000|271=100|275=BSE|37=ORDERID6|289=Aramco|346=1000|269=1|270=12.67|271=1045|275=NSE|37=ORDERID7|289=Zomato|346=8960|269=1|270=129|271=10894|275=NSE|37=ORDERID8|289=Gilbarco|346=9076|269=1|270=198|271=1034|275=NSE|37=ORDERID9|289=Huwawei|346=9087|10=168|8=FIX.4.4|9=71|35=A|34=48|49=RTMD|52=20200612-13:55:07.000|56=DUMMYSENDER|98=0|108=20|10=174|8=FIX.4.4|9=704|35=W|34=49|49=RTMD|52=20200612-13:56:44.000|56=DUMMYSENDER|268=10|269=0|270=12.32|271=100|275=BSE|37=ORDERID|289=RIL|346=1000|269=0|270=12.32|271=100|275=BSE|37=ORDERID|289=RIL|346=1000|269=1|270=12.34|271=104|275=NSE|37=ORDERID2|289=BHEL|346=9087|269=1|270=12.34|271=104|275=NSE|37=ORDERID2|289=BHEL|346=9087|269=0|270=18.92|271=2000|275=BSE|37=ORDERID3|289=TCS|346=10050|269=0|270=200.32|271=1006|275=BSE|37=ORDERID4|289=Credit Suisse|346=1000|269=0|270=1000|271=100|275=BSE|37=ORDERID6|289=Aramco|346=1000|269=1|270=12.67|271=1045|275=NSE|37=ORDERID7|289=Zomato|346=8960|269=1|270=129|271=10894|275=NSE|37=ORDERID8|289=Gilbarco|346=9076|269=1|270=198|271=1034|275=NSE|37=ORDERID9|289=Huwawei|346=9087|10=177|8=FIX.4.4|9=71|35=A|34=50|49=RTMD|52=20200612-13:57:11.000|56=DUMMYSENDER|98=0|108=20|10=164|8=FIX.4.4|9=59|35=0|34=51|49=RTMD|52=20200612-13:57:31.000|56=DUMMYSENDER|10=132|8=FIX.4.4|9=59|35=0|34=52|49=RTMD|52=20200612-13:57:51.000|56=DUMMYSENDER|10=135|8=FIX.4.4|9=59|35=0|34=53|49=RTMD|52=20200612-13:58:11.000|56=DUMMYSENDER|10=133|8=FIX.4.4|9=59|35=0|34=54|49=RTMD|52=20200612-13:58:31.000|56=DUMMYSENDER|10=136|8=FIX.4.4|9=59|35=0|34=55|49=RTMD|52=20200612-13:58:51.000|56=DUMMYSENDER|10=139|8=FIX.4.4|9=59|35=0|34=56|49=RTMD|52=20200612-13:59:11.000|56=DUMMYSENDER|10=137|8=FIX.4.4|9=59|35=0|34=57|49=RTMD|52=20200612-13:59:31.000|56=DUMMYSENDER|10=140|8=FIX.4.4|9=59|35=0|34=58|49=RTMD|52=20200612-13:59:51.000|56=DUMMYSENDER|10=143|8=FIX.4.4|9=59|35=0|34=59|49=RTMD|52=20200612-14:00:11.000|56=DUMMYSENDER|10=127|8=FIX.4.4|9=59|35=0|34=60|49=RTMD|52=20200612-14:00:31.000|56=DUMMYSENDER|10=121|8=FIX.4.4|9=59|35=0|34=61|49=RTMD|52=20200612-14:00:51.000|56=DUMMYSENDER|10=124|8=FIX.4.4|9=59|35=0|34=62|49=RTMD|52=20200612-14:01:11.000|56=DUMMYSENDER|10=122|8=FIX.4.4|9=59|35=0|34=63|49=RTMD|52=20200612-14:01:31.000|56=DUMMYSENDER|10=125|8=FIX.4.4|9=59|35=0|34=64|49=RTMD|52=20200612-14:01:51.000|56=DUMMYSENDER|10=128|