20200612-03:03:30.736765000 : 8=FIX.4.4|9=78|35=A|34=1|49=EXECLINKS|52=20200612-03:03:30.735|56=COEPEXCH|98=0|108=20|141=Y|10=027|
20200612-03:03:30.738875000 : 8=FIX.4.4|9=78|35=A|34=1|49=COEPEXCH|52=20200612-03:03:30.738|56=EXECLINKS|98=0|108=20|141=Y|10=030|
