20200612-05:52:07.555013000 : 8=FIX.4.4|9=84|35=A|34=1|49=COEPUSER|52=20200612-05:52:07.554|56=REALTIMEMARKETS|98=0|108=20|141=Y|10=252|
20200612-05:53:07.122412000 : 8=FIX.4.4|9=84|35=A|34=1|49=COEPUSER|52=20200612-05:53:07.121|56=REALTIMEMARKETS|98=0|108=20|141=Y|10=243|
